:020000040800F2
:10100000580E0020B91200084D200008D91400081D
:1010100049200008C1130008352300080000000023
:10102000000000000000000000000000392100085E
:10103000C114000800000000512000083D210008F4
:10104000D3120008D3120008D3120008D3120008EC
:10105000D3120008D3120008D3120008D3120008DC
:10106000D3120008D3120008D3120008011400089C
:10107000D3120008D3120008D3120008D3120008BC
:10108000D312000800000000D3120008D312000899
:10109000D3120008D3120008D3120008D31200089C
:1010A000D312000801230008D3120008D31200084D
:1010B000D3120008D3120008D3120008D31200087C
:1010C000D3120008D3120008D3120008D31200086C
:1010D000D3120008D3120008D3120008D31200085C
:1010E000C5140008D3120008D3120008D312000858
:1010F000D3120008D3120008D31200080000000029
:1011000000000000D312000800000000D312000805
:10111000D31200080000000019230008D3120008B1
:10112000D3120008D3120008D3120008D31200080B
:10113000D31200080000000000000000D3120008D5
:10114000C5130008D31200080000000000000000D2
:10115000000000000000000000000000000000008F
:10116000000000000000000000000000D312000892
:10117000D312000800000000000000000000000082
:1011800000000000D3120008000000000000000072
:10119000000000000000000000000000000000004F
:1011A0000000000000000000D3120008D312000865
:1011B000D3120008D3120008D31200080000000068
:1011C00000000000D3120008000000000000000032
:1011D000D3120008D312000800F002F800F05CF807
:1011E0000AA090E8000C82448344AAF10107DA4582
:1011F00001D100F051F8AFF2090EBAE80F0013F078
:10120000010F18BFFB1A43F001031847404E0000BE
:10121000604E00000A444FF0000C10F8013B13F040
:10122000070408BF10F8014B1D1108BF10F8015B3F
:10123000641E05D010F8016B641E01F8016BF9D132
:1012400013F0080F1EBF10F8014BAD1C0C1B09D189
:101250006D1E58BF01F801CBFAD505E014F8016BFB
:1012600001F8016B6D1EF9D59142D6D3704700008D
:101270000023002400250026103A28BF78C1FBD89F
:10128000520728BF30C148BF0B6070471FB504F03C
:10129000C8FE1FBD10B510BD00F058F81146FFF78D
:1012A000F5FF02F0D5FB00F076F803B4FFF7F2FF8C
:1012B00003BC00F07DF8000009488047094800475A
:1012C000FEE7FEE7FEE7FEE7FEE7FEE7FEE7FEE7F6
:1012D000FEE7FEE704480549054A064B7047000053
:1012E000ED220008D911000858080020580E0020EF
:1012F000580A0020580A00204FF0000200B513469B
:1013000094469646203922BFA0E80C50A0E80C5025
:10131000B1F12001BFF4F7AF090728BFA0E80C50D6
:1013200048BF0CC05DF804EB890028BF40F8042BCF
:1013300008BF704748BF20F8022B11F0804F18BF3C
:1013400000F8012B7047704770477047754600F0F2
:101350002BF8AE4605006946534620F00700854647
:1013600018B020B5FFF7B6FFBDE820404FF00006EB
:101370004FF000074FF000084FF0000BAC46ACE810
:10138000C009ACE8C009ACE8C009ACE8C00921F06C
:1013900007018D46704710B50446AFF30080204624
:1013A000BDE81040FFF781BF00487047C803002028
:1013B00001491820ABBEFEE726000200704700007E
:1013C000FEE7000040F28471C2F200010A6840F2B8
:1013D00014400132C4F201000A600168490209D4D4
:1013E0000168890258BF70474FF40011016002F094
:1013F00013B900BF4FF48001016002F00DB9000085
:1014000080B540F2C340C2F200000078C0B140F2A3
:10141000BC40C2F20000007890B10420C4F2020087
:10142000016841F0010101600021416040F2844007
:10143000C2F20000007888B303F0ACFC022030E078
:101440000420C4F2020050F8041C490711D540F2F0
:10145000C641C2F20001097859B144F22001C4F238
:1014600001010A6842F0020222F008020A60042127
:10147000016050F8041C890706D450F8041C0907C1
:1014800044BF0121016080BD016841F0010101609C
:101490000021416004F076FC08E000BF03F012FE7A
:1014A000012040F2A541C2F20001087040F2104054
:1014B000C4F20100016841F40041016080BD0000F8
:1014C0007047000040F21440C4F201004FF40041A4
:1014D000016003F0DFBB0000FEE7000010B502680A
:1014E000002A15D4026847F60F63CFF6007302EAAC
:1014F000030CD1E90032D1E902E443EA0C031A43B8
:10150000096942EA0E02224311430160002010BD26
:10151000012010BD2DE9F04F0C6894FAA4F2B2FA44
:1015200082F234FA02F363D04FF001084FF0030B5C
:101530000BE000BFD1E900470568B7402B403B43B3
:101540000360013234FA02F352D008FA02F314EACB
:10155000030CF6D0D1F80490A9F10103022B1BD2A1
:101560009CFAACF6B6FA86F77E00D0F808A00BFA23
:1015700006F3D1E902BE2AEA030A0BFA06F545EAA8
:101580000A05856045684FF0030BA5430EFB04F484
:10159000DB432543456007E09CFAACF3B3FA83F7DD
:1015A0007E000BFA06F3DB430D69C468B5401C40AE
:1015B0002543B9F1020FC560BCD14FEA1C2494FA4F
:1015C000A4F4D1F814E0BCF5807F28BFB4FA84F706
:1015D0004FF0240438BF202450F804C0BF000F256A
:1015E000BD402CEA05050EFA07F72F430751A1E786
:1015F0000020BDE8F08F000044F6D351C1F2620133
:10160000A0FB01014FF0FF3000EB91104EF21001F2
:10161000CEF2000148600020886005200860704715
:1016200040F2E801C2F200010860704770B58B68B3
:1016300048F2FF348446087BCEF6F074D1E900E22C
:101640002340184304F580631A40104304F54062B8
:10165000CB8902EA0E02104323F4C042D1E9043ED2
:1016600004F57056334018431043CA6A04F5F84332
:101670008D691A402EF080531A4343F200432A43E7
:10168000C4F201039C4542EA000305D042F6004043
:10169000C4F20100844513D14FF6FF70CDF60F4020
:1016A00001F11C0618404CCE26F00C56304322F0B7
:1016B0000852896A104323F00052104340EA0103A4
:1016C0000020CCF8443070BD40F2FF7C0246006838
:1016D000C4F2000C624521DD40F60003C4F20003B1
:1016E0009A4224D043F20043C4F201039A421ED02E
:1016F00042F60043C4F201039A4218D043F2FF338A
:10170000C4F201039A421CDC624529DCB2F1804F2D
:101710003CD040F20043C4F2000335E0B2F1804F08
:1017200005D040F20043C4F200039A42E6D14B6870
:1017300020F07000184343F2FF33C4F201039A42D1
:10174000E2DD44F2FF33C4F201039A4212DC43F2B9
:101750000043C4F201039A4218D044F2000311E09E
:1017600040F60003C4F200039A420FD042F6004351
:1017700008E000BF44F60003C4F201039A4205D01A
:1017800044F20043C4F201039A4203D1CB6820F42F
:101790004070184310608868D062A2F18040A0F5C4
:1017A00096300B884FEAB0200728936207D80123B0
:1017B00003FA00F010F0E50F1CBF086910635069D0
:1017C00040F0010100205161704700002DE9F04117
:1017D000B1F5805F4FF0010352DA012900F09480E7
:1017E000102900F0D780B1F5807F40F0A281016A16
:1017F00040F2FF1621F480710162036A4168D0F85B
:101800001CC0146923F440732402B4432343A0F1A1
:101810008044D2E900E5A4F596344FEAB424072CBD
:1018200043EA05231CD8012505FA04F414F0E50F5A
:1018300016D002F1140898E8600140F2FF77AD027B
:1018400023F440639468BD432B4343EA842334016B
:1018500042F20F0521F44051AC43214341EA4811C3
:101860004FF68C74CFF6FE740CEA040747EA0E07B5
:101870004160C761D168C16303620020BDE8F081A7
:1018800000F0D280B1F5803F00F01881B1F5801FE3
:1018900040F04F81016AA0F1804521F4801101627E
:1018A000A5F59635016A036DD2E900EC14694FEA9B
:1018B000B525072D0DD8012606FA05F515F0E50F1B
:1018C0001FBF4568966925F4802545EA862518BF1F
:1018D00045600025CFF6E07521F4401105EA045477
:1018E000214348F6FF44CFF6FF6404F540742340DB
:1018F00043EA0E230365D26841EA0C51C2640162D7
:101900000020BDE8F08100BF016A21F00101016201
:10191000036A4168D0F818C0146923F0030324F067
:1019200001042343A0F18044D2E900E5A4F59634F4
:101930004FEAB424072C43EA05031AD8012505FA17
:1019400004F414F0E50F14D002F1140898E86001D3
:101950006FF0040723F00C03946807EA85052B4316
:1019600043EA840321F4407126F40074214341EAE0
:1019700048014FF68C74CFF6FE740CEA040747EA70
:101980000E0741608761D168416303620020BDE8B2
:10199000F08100BF016A6FF0100621F010010162B2
:1019A000036A4168D0F818C0146923F0300306EACE
:1019B00004142343A0F18044D2E900E5A4F5963451
:1019C0004FEAB424072C43EA05131CD8012505FA75
:1019D00004F414F0E50F16D002F1140898E8600141
:1019E0006FF0400723F0C003946807EA85152B4386
:1019F00043EA8413B40040F6030521F44061AC438C
:101A0000214341EAC80148F6FF44CFF6FF640CEADF
:101A1000040747EA0E2741608761D168816303624A
:101A20000020BDE8F08100BF016A41F6FF7621F495
:101A300080510162036A4168D0F81CC0146923F424
:101A400040532403B4432343A0F18044D2E900E58A
:101A5000A4F596344FEAB424072C43EA05331CD886
:101A6000012505FA04F414F0E50F16D002F114086C
:101A700098E8600147F6FF77AD0323F4404394688C
:101A8000BD432B4343EA8433B40148F23F0521F4BC
:101A90004041AC43214341EAC81148F6FF44CFF628
:101AA000FF640CEA040747EA0E274160C761D1686A
:101AB000016403620020BDE8F08100BF016AA0F16B
:101AC000804521F480310162A5F59635036AD0F88E
:101AD00050C0D2E900E114694FEAB525072D0DD8B1
:101AE000012606FA05F515F0E50F1FBF4568966952
:101AF00025F4803545EA062518BF45600025CFF658
:101B0000E07505F5F01523F4403305EA044423435A
:101B100043EA01414FF68C73CFF6FE73033303EAB9
:101B20000C0343EA0E030365D268836C00238264CE
:101B300001621846BDE8F081F0B58DB0002641F293
:101B40004C00CDE90666CDE90466C4F202000168E6
:101B500002AC41F001010160006840F2004500F074
:101B60000100089008980220029003274FF090404F
:101B70002146C4F201050397FFF7CCFC1020CDE904
:101B800002074FF0904021460696FFF7C3FC602005
:101B9000CDE90906A5F5007008A90896CDE90B6600
:101BA000FFF79CFC40F2E8000196C2F200000068DA
:101BB0004DF68361C4F21B31A0FB0101C80CC821A2
:101BC000484301900198A0B1019801380190019813
:101BD00078B1019801380190019850B1019801380D
:101BE0000190019828B101980138019001980028CE
:101BF000EAD1686820F400106860286820F40010BA
:101C000028600DB0F0BD0000F0B58DB0002541F2A8
:101C10004C00CDE90655CDE90455C4F20200016837
:101C200002AC41F001010160006840F2004600F0A2
:101C30000100089008980820029003274FF0904078
:101C40002146C4F201060397FFF764FC2020CDE98A
:101C500002074FF0904021460695FFF75BFC4FF4DA
:101C6000807008906020CDE90905A6F5FE7008A9EE
:101C7000CDE90B55FFF732FC40F2E8000195C2F2C6
:101C8000000000684DF68361C4F21B31A0FB010126
:101C9000C80CC821484301900198A0B101980138AF
:101CA0000190019878B1019801380190019850B1E4
:101CB000019801380190019828B1019801380190EC
:101CC00001980028EAD17068012120F4800070603A
:101CD000306820F4800030604EF20810CEF2000030
:101CE00080F8385301600DB0F0BD000043F20C00E5
:101CF000C4F200004CF6CC4140F80C1C45F25551A2
:101D000040F80C1C002140F8081C40F6FF7140F818
:101D1000041C0168490709D0016849071CBF016814
:101D20005FEA417102D001684907F2D140F6FF71C4
:101D300041604AF6AA2140F80C1C704770B58CB07F
:101D4000002441F24C000794C4F2020041690225CC
:101D500041F480314161416901F48031019101997F
:101D6000016841F001010160006801A900F0010073
:101D70000190019804200190092006904FF09040B6
:101D8000CDE90254CDE90444FFF7C4FB0820C4F2B6
:101D90000200D0F8F8174E2262F30701C0F8F817D6
:101DA000016844F21002914301600168012621F4A8
:101DB00040510160016821F020010160016821F0BB
:101DC00040010160016841F080010160016866F333
:101DD00009210160016865F38B2101600A20ADF8DB
:101DE0001C004FF6FF700894CDE909040B9444F2EF
:101DF0001804C4F20104A4F1180007A9FFF764FC59
:101E000054F8180C4FF68F7120F0800044F8180C2D
:101E100054F8140CCFF6FF51084044F8140C54F851
:101E2000100C20F0800044F8100C206866F30100CC
:101E30002060206820F00C002060206820F0F00076
:101E40002060A06840F00A00A0600CB070BD0000E7
:101E50002DE9F047A0B0002641F24C071B960A96E8
:101E6000C4F20207786942F6184540F400607861D0
:101E70007869C4F2010500F400601390139841F6EC
:101E80006900A5F11804CDE91D061BA92046ADF88F
:101E90006C601C961F96FFF717FC55F8180C0DF197
:101EA0004C0940F0800045F8180C2868012140F0EA
:101EB000080028606020CDE9130620464A46CDE997
:101EC0001566CDE91766CDE919664FF00108FFF7F1
:101ED0007DFC2868102120F00400286028684A460C
:101EE00040F4006028602046FFF770FC28684FF43B
:101EF000807120F48060286068684A4640F00800DD
:101F0000686020464FF48079FFF760FC68684FF600
:101F10008F7120F00400686055F8140CCFF6FF5163
:101F2000084045F8140C55F8140C07A920F470006B
:101F300045F8140C55F8100C20F0800045F8100CF2
:101F400050208DF828004FF40050CDE90B064FF0DB
:101F50000070CDE90F062046CDE907660996ADF879
:101F60002A60CDE90D66CDE91166FFF75FFB3868A1
:101F700040F2004A40F0200038603868C4F6000A99
:101F800000F0200001900198386801AC40F0010099
:101F900038603868062500F0010001900198386823
:101FA000214640F0020038603868022700F0020045
:101FB000019001980AF58050CDF80480CDE90276B1
:101FC000CDE904660695FFF7A5FA8020CDE9010763
:101FD0004FF090402146CDE90366CDE90565FFF756
:101FE00099FA50462146CDE90187CDE90366CDE94E
:101FF0000565FFF78FFA4FF090402146CDE9019734
:10200000CDE90366CDE90565FFF784FA4FF400706A
:10201000CDE901074FF090402146CDE90366CDE9B7
:102020000565FFF777FA4FF48060CDE901074FF0BF
:1020300090402146CDE90366CDE90565FFF76AFAD0
:1020400020B0BDE8F0870000FEE70000FEE70000DA
:102050007047000070B544F20C40C4F20100016802
:1020600040F2000521F001010160C2F20005A97EE5
:10207000A87F40F2A4440129C2F200040AD1013031
:10208000C1B20729A87722BF0120A877207500F0E8
:1020900001000AE001380106A87703D106200121DA
:1020A000A8772175012121EA0000687672B6E07DEB
:1020B00010B9A87F00F052FA62B600F0DFF960793B
:1020C000E17A084308D0606FB0F5FA6F04D90120B7
:1020D0006875002004E000BF687DB0FA80F0400918
:1020E0000021AA7F40F22056A4F82310B4F84C1027
:1020F000C2F2000606EB42025181B5F85020AB79DE
:1021000002EB420211448A08A5F850204A09C1F3A3
:10211000CE0102FB131102FB03F50028A587A4F8EA
:10212000461018BF01F048F8306842F20F7188423B
:102130009CBF0130306070BD7047000070470000E8
:1021400010B582B042F20000C4F20200016804221D
:1021500062F30301016000BF016801F00F0104296F
:102160000ED0016801F00F01042909D0016801F0C7
:102170000F01042904D0016801F00F010429EBD1FB
:1021800047F20001C4F200010A68012341F208008D
:1021900063F34A22C4F202000A6050F8081C41F4BA
:1021A000807140F8081C50F8081C49050CD450F800
:1021B000081C49055CBF50F8081C5FEA415103D474
:1021C00050F8081C4905EED550F8041C402262F373
:1021D0001E6140F8041CD0F88C1041F00101C0F8D9
:1021E0008C10D0F88C1089070CD4D0F88C1089078B
:1021F0005CBFD0F88C105FEA817103D4D0F88C10EA
:102200008907EED5416848F20C02CFF6FF12114063
:1022100044F6323211434160416841F080714160BF
:1022200050F8081C41F0807140F8081C50F8081C58
:1022300089010CD450F8081C89015CBF50F8081CB7
:102240005FEA811103D450F8081C8901EED50168BA
:10225000082241F003010160016862F30711016087
:10226000016801F00C010C290ED0016801F00C018D
:102270000C2909D0016801F00C010C2904D0016877
:1022800001F00C010C29EBD1552101910199A1B16B
:10229000019901390191019979B1019901390191AE
:1022A000019951B1019901390191019929B101991E
:1022B0000139019101990029EAD101684DF2801498
:1022C00021F0F00101600168C0F6F00421F4E06142
:1022D0000160016821F4605101602046FFF78CF92C
:1022E000204602B0BDE81040FFF79AB94EF688507C
:1022F000CEF20000016841F47001016070470000F7
:1023000080B5FFF7A7FE44F21040C4F201006FF061
:102310000101016080BD000041F21000C4F2000024
:102320000168C90708BF70476FF00101016003F041
:10233000DFBA0000FEE700004EF60C50BFF34F8FEF
:10234000CEF200000168042201F4E061C0F2FA520A
:1023500011430160BFF34F8F00BF00BF00BF00BF3C
:10236000FAE7000041F20041C4F600010A680120CA
:1023700060F301020A6088624FF090410A684FF4EE
:10238000806360F315520A602822C4F600021360CD
:10239000D2F8D83360F30103C2F8D833C2F800048E
:1023A0000B6860F393430B604FF4007313600B688A
:1023B00060F38F330B60802313600B6860F311436D
:1023C0004FF480700B6010607047000041F20041D4
:1023D00040F2010CC4F60001C2F2000C9CF800208F
:1023E0000B68002A23F0030204D042F002020A60C4
:1023F00005E000BF42F001020A6001228A624FF04C
:1024000090421368022040F2004160F31553C4F675
:10241000000113609CF800000A6822F0030218B162
:1024200042F00200086004E042F001000860012070
:1024300088624FF090421068022363F3934010606B
:102440009CF800001368002823F4404004D040F4B6
:102450000040106009E000BF40F4804010604FF67B
:102460002840CFF6FF7080220A504FF0904001685C
:10247000022262F3114101607047000080B540F212
:102480001E0EC2F2000E9EF800204FF60F6C40F2B6
:10249000002040F26001CFF63F7CC4F20100042A24
:1024A000C2F2000101D0012A0BD14FF40012C1E9A0
:1024B0000002026802EA0C0242F0700202609EF81A
:1024C0000020052A01D0022A0DD14FF480024A6073
:1024D000024652F8043F03EA0C0343F4B0730A6067
:1024E00013609EF80020062A01D0032A09D14FF478
:1024F0000012C1E90002026802EA0C0242F0600226
:10250000026040F21902C2F20002127892B1D0F8D1
:10251000082222F48002C0F80822D0F8082222F40F
:102520000012C0F808224968D0F80C221143C0F804
:102530000C1280BD4968D0F808221143C0F8081277
:10254000D0F80C1221F40011C0F80C12D0F80C12C3
:1025500021F48001C0F80C1280BD0000013805286C
:1025600088BF7047DFE800F004184C80A6CC00BF9D
:1025700041F2004040F20101C4F60000C2F2000145
:1025800009780268002922F0030100F0CB8041F0B5
:1025900002010160CBE000BF41F20040C4F6000040
:1025A0000168012262F30101016082624FF09040F4
:1025B0000368282162F31553C4F6000103604FF449
:1025C00080630B60D1F8D83362F30103C1F8D833CC
:1025D000C1F8F023036862F393434FF40072036081
:1025E0000A6040F20102C2F2000212780368002A77
:1025F00023F4404200F0BC8042F400410160C2E09C
:1026000041F20040C4F600000168012262F30101BA
:10261000016082614FF090400368282162F31553F6
:10262000C4F6000103604FF480630B60D1F8D83327
:1026300062F30103C1F8D833C1F80024036862F3E0
:1026400093434FF4007203600A6040F20102C2F249
:10265000000212780368002A23F4404200F08E80C2
:1026600042F4004101608EE041F20040C4F60000F7
:102670000268012161F30102026081614FF0904222
:102680001368282061F31553C4F6000013604FF45B
:102690008062026040F20102C2F200021278D0F8B9
:1026A000D833002A23F0030276D042F00201C0F8AA
:1026B000D81377E041F20040C4F60000026801211F
:1026C00061F30102026081624FF09042136828209A
:1026D00061F31553C4F6000013604FF4806202608A
:1026E00040F20102C2F200021278D0F8D833002A78
:1026F00023F0030266D042F00201C0F8D81367E06D
:1027000041F2004040F20101C4F60000C2F20001B3
:1027100009780268002922F0030171D041F002011A
:10272000016072E041F001010160012181624FF01E
:1027300090400168022262F3155101602821C4F61D
:102740000001D1F8D823012363F30102C1F8D82393
:10275000C1F8F033026863F3934202604FF40072F1
:102760000A60026863F38F32026080220A606DE0C3
:1027700042F4804202608020086004E042F480421B
:102780000260802008604FF090400168022262F3EE
:1027900011410160704700BF42F00102C0F8D82328
:1027A000C0F800144FF090410A68022363F393428B
:1027B0000A600A68012363F38F320A608022026094
:1027C00015E000BF42F00102C0F8D823C0F80014A1
:1027D0004FF090410A68022363F393420A600A684B
:1027E000012363F38F320A60802240F8102C0A68BC
:1027F00063F311420A604FF480710160704700BFBB
:1028000041F001010160012181624FF090400168B7
:10281000022262F3155101602821C4F60001D1F8AB
:10282000D823012363F30102C1F8D823C1F800348F
:10283000026863F3934202604FF400720A60026818
:1028400063F38F320260802241F8102C026863F338
:10285000114202604FF48070086070472DE9F04F1C
:1028600087B040F23C57C2F200073A68D7F87CB014
:1028700040F22849ABEB0200C2F20009A9F80A00B5
:1028800081B240F29440C2F20000038848099942A4
:10289000A9F8080040F2478140F2EE03C2F20003BB
:1028A0001B88994280F03F81D7E90136D7E903516F
:1028B0009A1A82424FF00002D7E9054ED7E907ACD9
:1028C00088BF01220692AA1B82424FF00002A4EBAD
:1028D000010188BF012281424FF00001059288BFAB
:1028E00001210491AAEB0E0181424FF0000188BF43
:1028F000012107F1240603914ECED7E90D5EA1EB2D
:102900000C0181424FF00001FC6BD7F840C088BF3A
:1029100001210291991A81424FF0000188BF0121E3
:102920000191A91B81424FF0000188BF0121009154
:10293000796CA4EB0E0686424FF0000AA1EB0C0165
:1029400088BF4FF0010A8142D7E912414FF00003DE
:1029500088BF0123091BD7E9144C0025814288BF99
:102960000125ACEB040CD7E9164E8445AEEB040C04
:102970004FF0000E88BF4FF0010ED7E91884844550
:102980004FF0000CA4EB080488BF4FF0010CD7F8FF
:1029900068804E46D7F86C908442A9EB0808D7E9C6
:1029A0001C94BF6FA4EB09094FF00004ABEB0707C1
:1029B00088BF012480454FF0000B88BF4FF0010B0A
:1029C00081454FF0000188BF012187424FF0000789
:1029D00088BF012780454FEAC40888BF08F1040872
:1029E000814540F2C340C2F2000090F8009040F2EE
:1029F000BC40C2F20000007888BF08F1020850EA2B
:102A00000900716506980299F06180EA0100F1629F
:102A1000F36380EA03000599019B316281EA0301B7
:102A200081EA05014FEA810141EAC0000499009A58
:102A3000716281EA020181EA0E01C6E9134B40EAA4
:102A400041040398B765B06280EA0A00474440F247
:102A5000BC48356480EA0C05C2F200083363726337
:102A6000C6F844E0C6F838A0C6F848C00BD100F05C
:102A700099FC40B130790130C1B26529307124BF71
:102A8000012088F8000098F80000002844EA0500BA
:102A900018BF87F00F07874242D106F11C0C9CE853
:102AA0008F10490241EA802040EA022040EAC31028
:102AB000D6E90D5440EA871040EA4C1006F13C0775
:102AC00040EA05108ECF40EAC40040EA810040EAA7
:102AD000420040EA030140F2EC40B389C2F2000038
:102AE00000220280581C012FB08105D140F2BA406B
:102AF000C2F2000001220270302917DB7078A8B101
:102B000040F2E640C2F20000018040F23C60C2F2B6
:102B1000000000210170B17007B0BDE8F08F00BF68
:102B2000F0890130F08107B0BDE8F08F481E2E28F3
:102B30000CD840F2E640C2F200000022028040F2CF
:102B40003C62C2F20002C8B2117018E031B140F22A
:102B50003C60C2F20000007811E000BF307840F223
:102B6000E641012804BF00207070C2F2000100207D
:102B7000088040F23C61C2F200010870B070002889
:102B8000D1D040F2BF41C2F2000109780029CAD178
:102B900040F2C341C2F2000109780029C3D0F178A4
:102BA00088421EBFF0700021B170052805D3B178AE
:102BB0000131CAB2062AB170B5D3411E00251429CD
:102BC000B57000F2A280DFE801F00B131B232BA0ED
:102BD00033414F57A05F737FA0A0A0A0A0879500AE
:102BE00040F2B741C2F20001012008708DE000BF41
:102BF00040F2B741C2F200010220087085E000BF38
:102C000040F2B741C2F20001032008707DE000BF2E
:102C100040F2B741C2F200010420087075E000BF25
:102C200040F2B741C2F20001052008706DE000BF1C
:102C300040F2A640C2F200000021017040F21A00EA
:102C4000C2F200000121017007205EE040F2A640C0
:102C5000C2F200000121017040F21A00C2F200002D
:102C600000210170082050E040F2A740C2F20000AD
:102C700000210170092048E040F2A740C2F20000A4
:102C8000012101700A2040E002F0DEF840F2A64087
:102C9000C2F20000007840F2B742411C40F23C60B2
:102CA000C2F20000C2F20002007811702DE000BFF5
:102CB000317801204FF4606270710129F28008BF01
:102CC00070700D2021E000BF0020707140F6FF60A1
:102CD000F0800E2019E000BF40F2A640C2F20000D2
:102CE000007840F21A01C0F10100C2F20001087040
:102CF00014200AE040F2A640C2F20000007840F240
:102D00001A01C2F200010870152040F28871C2F267
:102D10000001087040F23C60C2F20000057007B08C
:102D2000BDE8F08F70B582B040F23C55C2F20005AC
:102D3000D5E9000140F27652081AA0F2213140F2A2
:102D400088449142C2F2000436D86178D1B3E17868
:102D5000002951D0217940F2E14290420BD840F253
:102D60002802C2F2000213880131C3EBC3031844E6
:102D7000C00821711080C8B24C2871D340F22800DD
:102D8000C2F2000001880025193101804FF612506F
:102D9000CFF6FF7010FA81F000EBD07040F23D6189
:102DA0004008C2F2000181F82000657002F04CF882
:102DB000257101F04BFE53E040F2E240C2F2000008
:102DC00052E000BF40F2A741C2F20001097839B3D6
:102DD00040F22C01C2F200010A88904234D940F23C
:102DE0002A01C2F200010B88511C4FF4FA661A4600
:102DF00040F2E93330E000BFA17840F22A06002912
:102E00000CBF208120890131C2F20006A1703188F7
:102E100080B200F0B9FA332844DB0020607062E031
:102E200040F2280140F22A02C2F20001C2F200027E
:102E30000988128840F2FF762F23009601F0E4FC07
:102E40003128B8BF00200AE040F22801C2F2000198
:102E500009884FF47A760023009601F0D5FC2061B2
:102E600040F2EC40C2F2000040F2E641C2F2000142
:102E700040F2F40622690B88C2F200063668D51AC1
:102E8000B5424FF00005058004DD9A190A8002B0B2
:102E900070BD00BF981AB042C8BF9A1B0A8002B02A
:102EA00070BD00BF3088D5E90012C0EBC000511AD8
:102EB0000844A178C0083329308014D34FF62A1172
:102EC0001938CFF6FF71308011FA80F000EBD07026
:102ED00040F23D614008C2F2000181F8210001206A
:102EE000E07001F0E7FDE078318800282181B7D05B
:102EF000D5E90001081A217940F2E14290427FF6BB
:102F00002EAF38E744F62401C4F2010100220A6022
:102F100007E000BF0A68824228BF70470A68824201
:102F200005D20A68824202D20A688242F2D370470E
:102F300044F62401C4F2010100220A6043F69822FB
:102F40004A6051F8102C00EB800042F00102400072
:102F500041F8102C0A68824208D20A68824205D2DF
:102F60000A68824202D20A688242F3D396204860FD
:102F700051F8100C40F0010041F8100C70470000AF
:102F8000B0B540F23C5CC2F2000C40F25C0EDCF8E2
:102F90000040C2F2000E44F6206200230021AEF889
:102FA000022002E02833782B7AD00CEB030045682E
:102FB0002C1B1BD18468651B21D1C5682C1B27D114
:102FC0000469651B2DD145692C1B33D18469651BB0
:102FD00039D1C5692C1B3FD1046A651B45D1456AAF
:102FE0002C1B4BD1846A601BDCD051E021449442FD
:102FF0003CBFA2B2AEF802408468651BDDD0294414
:1030000095423CBFAAB2AEF80250C5682C1BD7D07F
:10301000214494423CBFA2B2AEF802400469651B51
:10302000D1D0294495423CBFAAB2AEF802504569BE
:103030002C1BCBD0214494423CBFA2B2AEF802403C
:103040008469651BC5D0294495423CBFAAB2AEF83D
:103050000250C5692C1BBFD0214494423CBFA2B290
:10306000AEF80240046A651BB9D0294495423CBFC2
:10307000AAB2AEF80250456A2C1BB3D02144944248
:103080003CBFA2B2AEF80240846A601B3FF48AAF34
:10309000014490423CBF82B2AEF8020082E700BF1A
:1030A00040F2C543C2F20003187840F2884C4C0944
:1030B000C2F2000C0128CCF8184030D1941E022C2A
:1030C0000ED8CC090E2C0BD840F2F004C2F200044A
:1030D0000025257001248CF806401C700E2410E099
:1030E000541F032C1BD8CC09182C18D840F2F0051B
:1030F0000124C2F200051C702C7003248CF80640D9
:10310000072440F2EC05C2F200052C7020248EF852
:10311000004040F2C444C2F200040125257040F290
:10312000C644C2F200042578012D11D1A2F1C900D4
:1031300044F65651884288BFB0BD0120207040F24D
:10314000F000C2F200009521017002202BE000BFC8
:10315000284330D1901E02280ED8C8090E280BD85B
:1031600040F2F000C2F200000021017001208CF852
:10317000060018700E2010E0501F0328D6D8C8098A
:103180001828D3D840F2F0010120C2F200011870D3
:10319000087003208CF80600072040F2EC01C2F210
:1031A0000001087020208EF8000040F2C440C2F2F6
:1031B000000001210170B0BD40F2600040F200410A
:1031C000C2F20000C4F2010140680A6810430860BE
:1031D0007047000042F62040C4F20100016820223E
:1031E00041F001010160016841F0100101600168D6
:1031F00041F480710160016841F0040101600168DF
:1032000041F040010160016841F48061016050F8C3
:10321000201C41F0010140F8201C416A41F40041AA
:10322000416250F80C1C41F0010140F80C1C44F2C2
:103230000000C4F20100016A41F00101016201686D
:1032400041F001010160D0F8001441F00101C0F823
:10325000001444F20C40C4F20100816841F0010105
:103260008160016841F001010160016821F0010104
:103270000160D0F8F41341F00101C0F8F413D0F864
:10328000081441F00101C0F808144FF080400168B3
:1032900041F0010101601420C4F20000016841F016
:1032A0000101016041F20000C4F20000016841F038
:1032B00001010160416941F001014161C16841F0D2
:1032C0000101C16040F20020C4F20100416841F0F8
:1032D00001014160016841F0010101604EF20411F9
:1032E000CEF2000181F824234FF480720A60D0F8F6
:1032F000001241F40041C0F8001270470820C4F2E7
:103300000200016841F004010160704741F2004190
:10331000C4F600010A68012060F301020A608861B6
:103320004FF090410A684FF4806360F315520A60D1
:103330002822C4F600021360D2F8D83360F30103E8
:10334000C2F8D833C2F8F0030B6860F393430B6004
:103350004FF4007313600B6860F38F330B608023AE
:1033600042F8103C0B6860F311434FF480700B601F
:103370001060704742F61440C4F20100016841F049
:103380000101016070470000401A48BF4042704789
:1033900040F26000C2F2000000680068C0F3807074
:1033A000704700001020C4F60000006800F0040020
:1033B000704700004EF6085041F20001CEF20000C6
:1033C000C0F60001016062B6704700002DE9F04FC1
:1033D00087B041F24C05C4F20205686940F0010073
:1033E0006861686900F0010001900198E86840F0A8
:1033F0008050E860E86800F080500190019842F247
:103400000000C4F20200016841F48071016047F2DB
:103410000800C4F20000016841F480410160FEF739
:103420008FFE28684EF20B4140F02000286028688B
:10343000CEF2000100F020000190019828684EF2C1
:10344000001A40F0010028602868CEF2000A00F05F
:103450000100019001982868894640F00200286028
:10346000286800F002000190019855F8040C40F023
:10347000040045F8040C55F8040C00F00400019019
:10348000019855F8040C40F0010045F8040C55F87B
:10349000040C00F0010001900198102008704FF416
:1034A0000060CAF80000FEF7AFFBFEF7D1FC002673
:1034B0000596CDE90366CDE90166E8684A2440F047
:1034C0000100E860E8684FF6FF7800F00100069020
:1034D000069801A94FF08040ADF80440CDF80C806B
:1034E0004FF08047FEF7F0F838684BF6F87220F09E
:1034F000800038600820C4F200000168CFF6FE7238
:103500001140016050F8041C4FF68F72CFF6FF5245
:10351000114040F8041C01684EF60C5B21F080015C
:10352000016001946869CEF2000B40F400306861DC
:10353000686944F2004400F4003006900698DBF815
:10354000000089F80E604FF00070CAF80000C4F265
:10355000010401A920464F46CDE90268CDE9046681
:10356000FEF7B2F8206820F080002060FEF7E4FA51
:103570004FF09509CDF80490686901A940F48020C6
:103580006861686900F480200690069804F5806000
:10359000CDE90268CDE90466FEF796F8D4F8000498
:1035A00001A940F08000C4F800040596CDE9036647
:1035B000CDE90166E86841F2000440F01000E860DF
:1035C000E868C4F2000400F0100006900698DBF8EA
:1035D000000087F82B604FF48000CAF80400322006
:1035E00003902046ADF804900296FEF76DF820682F
:1035F0004FF68F7120F0800020606068CFF6FF5199
:1036000008406060A06820F08000A060FEF796FB94
:1036100007B0BDE8F08F0000F0B581B0242540F27E
:10362000A444C4F20005C2F200042868616FA4F843
:103630004C007E2928D3286840F220567C28C2F20C
:1036400000060BD8B4F84400C0084A2806D83068F1
:10365000B0F5FA7F02D201B0F0BD00BF40F2000128
:10366000C2F200012868B1F85010B0EB510FF2D34C
:10367000607F0130C1B26529607705D301F0ECF8B5
:103680000020306001B0F0BD40F20006C2F200063A
:10369000717EF07D61B1A8B1002700BFFFF778FE11
:1036A0000028D8D1F07D01378742F7D30AE000BF68
:1036B00040B10027FFF76CFE0028CCD0F07D013729
:1036C0008742F7D301F0C8F872B62A68B4F84C10F4
:1036D00000208A424FF0000284BF2A68521A2A60F2
:1036E000B4F84610327DD14044F20C42C4F20102DB
:1036F000A4F84610906111625060106840F001001B
:10370000106062B601B0F0BD2DE9F04182B040F228
:103710003D64C2F200044FF60001C0F600012046ED
:10372000B02201F005FB607CA17C0138B0FA80F08A
:1037300040F2A4454009C2F20005A870481EE27C90
:10374000B0FA80F04009012AE87004BF0120A87196
:10375000207D617D0138B0FA80F040F2000640091A
:10376000C2F200067070481EA27DB0FA80F04009D7
:10377000B070501EB0FA80F04009E37DF070207EFA
:1037800042F62C48042BA0F10801C4F2010828BF1E
:1037900002232829B37115D8182823D2A0F10C01CF
:1037A0000B2930D900F0FC0108293DD142F29C4799
:1037B0000721102244F63B13009701F025F8A6F8E4
:1037C000400033E041F66900F087C8F80000607EF1
:1037D000A0F13201642935D99620B0865520708732
:1037E0003BE000BF40F634471821302241F6690320
:1037F000009701F009F80146207EA6F84010A0F1DC
:103800000C010B29CED841F669070C21182243F28E
:10381000D203009700F0F8FF0146207EA6F8401082
:1038200000F0FC010829C1D0B6F8400081B2C8F808
:103830000010A6F84A00A6F84200607EA0F132010E
:103840006429C9D800F1A001B1861A2101EB500109
:103850007187242101EB5000B087A07E227F00EB0E
:103860008000142707EBC0003084501E637FB0FA3D
:1038700080F040092871581EB0FA80F0E17E4009BE
:1038800068710220F17101F0CDFF6078002800F02E
:10389000B580A07F0B2888BF052001F0C3FFE07F23
:1038A00094F820100138B0FA80F04009E87140F235
:1038B000EE2094F8212000EB410094F8223030856E
:1038C00040F2D66000EB4200708503F25E50B08596
:1038D00094F8230094F824107073481EB0FA80F016
:1038E00094F825104009A87201F1FA0094F8261006
:1038F000F085481EB0FA80F04009E87294F828007C
:103900000021421F142A297298BF307394F82900AD
:10391000411E092998BF707294F82A00411EC9B24D
:1039200008291ED8B07200EB80006FF01901A1EBDE
:103930004000C0B2C82828BFC820617EF0720A18B3
:10394000B286B6F8482000EB510171871118328F0A
:10395000A6F8481011183187D8F818100843C8F88D
:10396000180094F82B00A0F14601462998BF707109
:1039700094F82C00411E622903D840007084012075
:10398000A87394F82D00411E092998BF307294F84D
:103990002E10092908D804290FD805F12200DFE8E4
:1039A00001F003430A0C47000020A5F8210040F273
:1039B0002940C2F2000001210170308C20278108CB
:1039C0004A299CBF0021F17348F21F51C5F2EB1147
:1039D000A0FB01124FF2F101CFF2F001A0FB0113A5
:1039E000F1795209B7FBF1F11B09B2FBF1F2B3FB1C
:1039F000F1F1A6F84420A6F8461000E0308C4FF410
:103A0000FA774FF4967140F6B8324FF47A73009714
:103A100000F0FAFE71787086002904BF0020E8707B
:103A200002B0BDE8F08100BF012085F82100BEE7AB
:103A300040F22840C2F200000121017040F229400A
:103A4000C2F200000021017005F12100B3E700007F
:103A500082B0FFF7AFFCFFF7B9FCFFF7BBFBFFF746
:103A600053FE40F6FC70C0F60000017840F23D6065
:103A7000C2F20000C27840F2A44840F2000BC2F249
:103A80000008022AC2F2000B88F8251002D1017941
:103A900005294BD040F20251A0F8031046F25251D2
:103AA000C2F26601C0F8051043F24741C3F2331178
:103AB000C0F809104FF02031C0F80D109BF800102D
:103AC00098F80360417098F8021098F80670013970
:103AD000B1FA81F149094174711EB1FA81F14909C4
:103AE0008174791E9BF80120B1FA81F14909C174F2
:103AF000511E9BF80230B1FA81F149090175591E36
:103B00009BF803C0B1FA81F149094175ACF101019B
:103B10009BF80620B1FA81F14909C2754FF60002FF
:103B20008175C0F60002B02101F0D0F998F80600C6
:103B300044F6D35700281CBFBBF83600ABF834005E
:103B4000BBF84000BBF83810C1F262074143A1FB4B
:103B50000712BBF8481098F802304143A1FB071741
:103B6000591E18BF01218BF81A109BF80B10ABF8E7
:103B70003E0001EBD2119BF80120ABF83810F90997
:103B8000ABF84810002AABF84A0004BF002088F8C0
:103B9000060098F80B0000B34FF47A70ABF84800B9
:103BA000012088F8030000218BF80F00BBF83A00D1
:103BB00088F80610ABF801108BF80310BBF83C1026
:103BC0003230ABF83A0001F13200BBF83410ABF8F8
:103BD0003C0001F13200ABF8340043F20005C4F2BE
:103BE000000501F013F80024A8F83E40FEF77EF827
:103BF0004AF6AA2AC5F800A001F0CCF898F800000F
:103C000040F220599FEDDE8AC2F2000900281CBF55
:103C1000012088F80D000BE042F63440C4F20100A8
:103C2000046044608460FEF79DFBA8F8604000BF1C
:103C3000C5F800A0B9F80C00B9F80E10B9F81020BA
:103C4000B9F812300844B9F814701044B9F8166085
:103C50001844384430449BF8021004304008C9F836
:103C6000040059B1BBF84070BBF850007B086021DC
:103C7000C822009700F0C8FDABF83E00B8F8480035
:103C800042F2117188424FF0010609D398F81F10D3
:103C9000002940F0AD8449F64141884280F0A88473
:103CA000B8F8300044F62161884243D3B8F93200B5
:103CB00040F22D4100EE100AB8EEC00A80EE080A6C
:103CC000C2F2000198ED1B1A0978032931EE000AAF
:103CD00088ED1B0A0AD0022918D0012928D198F8AA
:103CE0002600022100F5007018E000BFB8F8560069
:103CF00044F2AF714143A0EB1140400800EB11408A
:103D00000009042161F31F20012107E080B2C0B245
:103D100029214843C00A00F5C060032140F22E4229
:103D2000C2F20002108040F22D40C2F20000017089
:103D3000A8F83040B8F83810D9F80000C8294FF07A
:103D4000000238BF012264284FF0000388BF01231E
:103D5000B0F57A7F58D8002956D01A4018BF88F895
:103D60001A4098F806201AB19F2998BF88F81A407F
:103D700098F8102032B10909182998BF88F81A401C
:103D800006E000BF95298CBF0A2164218BF8111031
:103D9000D9F8041045F25652C5F2555251FB02F1C2
:103DA00098F8142001EBD171002AC8F8741040D0A3
:103DB0000B283ED3D9F80800FFF7E6FAD8F87410BC
:103DC0000A097C2A31D84A0890422ED998F8030073
:103DD000B8F84020B0FA80F040092F2A4FF00002D6
:103DE00088BF0122104298F80F00C9F8004000F186
:103DF000010088F80F000FD1BBF85000B0F57A7FB2
:103E000088BF88F81B4009E088F81A4098F8062017
:103E1000002AA9D1ACE700BF88F81B40BBF83400EA
:103E20008BF815604008A8F8340088F81440C9F8E9
:103E3000081098F81800BBF85010002818BF01208F
:103E40003C294FF0000188BF01214EF20B4208408F
:103E50004FF01001CEF200021CBF002110201170A3
:103E6000907382F8350098F815000130C1B2C92965
:103E700088F81500C0F08E80B8F85E00AA4640F6BB
:103E8000E44540F201116843C0F21001A0FB0112A9
:103E9000801A02EB50009BF81010C00A484348F209
:103EA0001F51C5F2EB11A0FB010C98F8190040F26C
:103EB0008A7EC2F2000ED8F878203EF81030B8F8AA
:103EC0004A70D21A3A44A2FB0136C6F34F1340F2AD
:103ED000FF415D43C4F6EC71A5FB0154B8F85610E0
:103EE000C8F87820C1EBC101421C98F85C5001EB86
:103EF0005C112EF81070D0B263284FEAD1004FEA5F
:103F0000561188F8265098F80A70A8F8560088BF0D
:103F10000022A8F83A10210A09044FF0000188F89D
:103F20001920C8F8703058BF210A0024A8F83210B0
:103F300057B398F81110BBF82E2080B2514381423C
:103F400020D9B8F82E0098F81C104FF67C470130A5
:103F500044F62063CFF6FF7782B211FB073191421E
:103F6000A8F82E0010DAA8F84040FEF7FBF900F0A0
:103F700073FC88F81B40A8F83E4088F81F4003E017
:103F80000000B443A8F82E4055464AF6AA2A012656
:103F900088F8154098F81C0088F81D40002845D086
:103FA000B8F840003128C0F0818098F81F1000292F
:103FB0007CD0882800F2148198F80900A0B144F25E
:103FC0000C41C4F20101086820F00100086000F013
:103FD00043FC42F63440C4F2010004604460846053
:103FE000FEF7F4F988F809409BF81A10B8F84E006B
:103FF000002900F07581013801B2002948BF40F264
:104000006710B8F85010A8F84E0001390AB2002A1B
:1040100048BF40F26711B8F85220A8F85010511E5E
:104020000AB2002A48BF40F2671173E1D9F80400D0
:1040300042F2C072C0F2090298F81B1092FBF0F035
:104040004843A8F8600080B24CF6CD4148439BF845
:104050000F10C00CA8F8620061B1BBF84410BBF8A7
:104060004620BBF84830BBF84A70009700F0CCFB04
:10407000ABF8420098F826009BF8052090420AD938
:10408000BBF84A30A2F10A010A325B08009600F040
:10409000BBFBABF84200D9F80000632830D8BBF86E
:1040A0005010B1F5FA7F2BD90C2035E098F80400B8
:1040B00088F8096000283FF4AFADBBF840009BF8DA
:1040C0000910BBF83E2000EB410113398BB25A4373
:1040D000B2FBF0F2A8F84410801A0130A8F85A0098
:1040E00000F0F4FDB8F85A0042F63441C4F2010180
:1040F00008604860886088F81760A8F8604097E515
:10410000D8F8740064214FF4FA7203230C27009747
:1041100000F07AFBBBF85010642938BF0220BBF8CE
:10412000201024228908C4F200027C298BF8170091
:104130009CBF40008BF8170010684AF6C97188428E
:10414000FFF476AD98F81B0001287FF471AD98F864
:104150001A00013088F81A0000F07EFBB8F8400021
:104160008BF81560242330283ABF88F81B4041F2B1
:104170008830BBF85000C4F20003C9F80040196849
:1041800000EB4000A8F84C101C6010FA81F09BF87E
:1041900018208108C0F38F00B0FBF2F2ABF850108A
:1041A000D9F80010C2EB50000A29A8F83C20A8F862
:1041B000460039D218689BF81A109BF81E00012996
:1041C00042D10130C1B207298BF81E0022BF012065
:1041D0008BF81E0088F8140000F0010040E000BFDA
:1041E0009BF81A10B8F84E00002988F8096000F012
:1041F0000D81013801B2002948BF40F26710B8F8BC
:104200005010A8F84E0001390AB2002A48BF40F207
:104210006711B8F85220A8F85010511E0AB2002AAF
:1042200048BF40F267110BE180B200BF19688142BC
:10423000C1D219688142BED219688142BBD21968C5
:104240008142F3D3B7E700BF013801068BF81E00A7
:1042500004D106208BF81E0088F8146026EA0000BE
:104260008BF8190072B698F8170018B99BF81E0061
:10427000FEF774F962B6FEF701F998F8050098F8B0
:104280000B10084318BF012006D0D8F87410B1F500
:10429000FA6F88BF8BF815609BF81E10B8F84C2099
:1042A00009EB41014A81D9F8001001F10101A8F898
:1042B000234088F81E40C9F8001048B11429FFF4C3
:1042C000B7ACBBF85000B0F5FA6F04D9B0E400BF4A
:1042D0001F29FFF4ADAC8BF81540FEF76DFFA7E486
:1042E000013001B2B1F5B47FA8BF0020B8F850107A
:1042F000A8F84E0001310AB2B2F5B47FA8BF002180
:10430000B8F85220A8F85010511C0AB2B2F5B47F88
:10431000A8BF002140F2F80600B2C2F20006A8F8D9
:10432000521036F91000BBF84E10BBF8402008447C
:1043300044F6D3545043C1F2620450FB04F0C1115F
:104340009BF8082001EBD07046F267675043C6F235
:10435000666750FB07F0810801EBD07080B201F076
:104360004FFAB8F95000BBF84E1036F91000BBF800
:1043700040200844504350FB04F0C1119BF8082032
:1043800001EBD070504350FB07F0810801EBD07077
:1043900080B201F03BFAB8F95200BBF84E1036F982
:1043A0001000BBF840200844504350FB04F0C111FA
:1043B0009BF8082001EBD070504350FB07F08108B8
:1043C00001EBD07080B201F027FA9BF8071041F69C
:1043D0005832B2FBF1F340F22A32B8F84000B2FB97
:1043E000F1F730217822009700F00EFAABF84C007C
:1043F00080B2FEF787FDBBF84C004FF41671B1FB9D
:10440000F0F00024A8F86000FFF712BC013001B200
:10441000B1F5B47FA8BF0020B8F85010A8F84E003E
:1044200001310AB2B2F5B47FA8BF0021B8F852201A
:10443000A8F85010511C0AB2B2F5B47FA8BF0021F1
:1044400040F2F80700B2C2F20007A8F8521037F99C
:104450001000BBF84E10BBF84020084444F6D3547B
:104460005043C1F2620450FB04F0C1119BF80820D4
:1044700001EBD07046F2676A5043C6F2666A50FBA1
:104480000AF0810801EBD07080B201F0B9F9B8F9F7
:104490005000BBF84E1037F91000BBF8402008441C
:1044A000504350FB04F0C1119BF8082001EBD07081
:1044B000504350FB0AF0810801EBD07080B201F04C
:1044C000A5F9B8F95200BBF84E1037F91000BBF847
:1044D00040200844504350FB04F0C1119BF80820D1
:1044E00001EBD070504350FB0AF0810801EBD07013
:1044F00080B201F091F9B8F84000C82806D900242C
:104500005020A8F84E40ABF84C0002E0BBF84C003D
:1045100000244AF6AA2AFEF7F5FCB8F84E00002857
:104520007FF486AB242042F22831C4F20000A8F8C0
:104530001B608BF81560ABF85010C8F87410C9F800
:104540000810016098F805001421C9F8001088F8D7
:10455000174000281CBFBBF83C00A8F834009BF8AB
:104560001A109BF8160001290ED10130C1B207299B
:104570008BF81E0022BF01208BF81E0088F8140063
:1045800000F001000CE000BF013801068BF81E00AE
:1045900004D106208BF81E0088F8146026EA00007B
:1045A0008BF8190072B698F8170018B99BF81E001E
:1045B000FDF7D4FF62B6FDF761FF98F8050098F8A3
:1045C0000B10084306D0D8F87400B0F5FA6F88BF16
:1045D0008BF815609BF81E00B8F84C1009EB4000F2
:1045E000A8F823404181FEF7C5FEFFF721BB00BFBD
:1045F000FDF7B8FE42F634410020C4F20101A8F8EC
:104600001F00C8F83E0008604860886000F014FC95
:1046100040F23C50C2F200004FF48071FCF76CFE97
:10462000FDF78AFE2DE9F04F40F2284CC2F2000C53
:10463000BCF8061021B10020ACF806001CE000BF59
:1046400040F2BF41C2F20001097800294FF0000199
:1046500008BF4FF6FF70B1EBD03F07D100F44041E7
:10466000B1F5804F40F0A880062100E00721C84046
:10467000CCF8101040EA4121080980EA1120484096
:104680000F24844344EA011046F23C02CCF81400A3
:10469000C0F60002C1F303100B0A155CD65CA80239
:1046A00040EAC63701F00F0012F80080135D40F2B7
:1046B000EC02C2F2000292F800E040F2F060C2F2B6
:1046C000000000EB8E02802020EAC60A06F00806F1
:1046D0008AEA061B00EA972147EA481481EA0B019F
:1046E00000EA572644EA03094E4000EA1727CCF8AF
:1046F0001890774005F0100C87EACC0C05F00805FF
:104700008CEA0515C2F808A002F1100A8AE8C21066
:1047100000EA541125F07F0787EA010C00EA14171C
:1047200050608CEA070A00EAD40080EA0A0008F028
:104730001006156280EAC60608F0080586EA051527
:1047400009F080046C4009F0400824F07F0181EA00
:10475000480109F0200781EA8707C2E90B0603F048
:104760001000C2E90F1787EAC00003F0080180EAD1
:10477000011103F0040781EA471703F00206C2E9BA
:1047800009CA87EA8616DB0102F1440CC2E90D541E
:10479000DBB226F07F058CE8830040F2F0616B40CD
:1047A0000020C2F20001C2F80CB0C2E9146341F863
:1047B0002E00BDE8F08F00BF00F46041B1F5005F4E
:1047C00002D1052153E700BF00F47041B1F5805FCD
:1047D00002D104214BE700BF00F47841B1F5006F2E
:1047E00002D1032143E700BF00F47C41B1F5806FA3
:1047F00002D102213BE700BF00F47E41A1F5007128
:10480000B1FA81F1490932E710B5DDF808C09E46DA
:104810000C461146634600BF81429C4617DD0A469E
:104820008C420DDCE64511D0111949100CEB0E033A
:104830008C424FEA63030DD08142EDDA0131E6E7A5
:10484000114622466346F446E1E700BFF44660465F
:1048500010BD00BF184610BD40F20040C4F2010078
:10486000016821F400110160016821F480010160F8
:104870004FF4800141614FF4001141617047000025
:104880002DE9F04381B042F62848C4F2010841F610
:104890006900C8F8040040F2385072B6C2F2000055
:1048A000007843F200094CF6CD447925C4F20009A2
:1048B0004AF6AA27CCF6CC440A26C8F80C00C8F859
:1048C0001000C8F8140000BF023DA5FB0401080950
:1048D000C9F80070FDF742FE06EB5500C8F800006D
:1048E0000A20FEF725FB022DEED8FDF73BFD002048
:1048F00040F24002C8F80000C2F2000240F2EC416F
:104900001288C2F200010880C8F8042062B601B023
:10491000BDE8F0832DE9F04F81B042F6284543F21F
:1049200000080320C4F20105C4F20008FDF716FEDA
:1049300040F2EC4940F23D6600274AF6AA24C2F252
:104940000009C2F200064FF0000B4FF0000A07E02A
:104950000AF1010A0BF134000BF1020BAE2861D20F
:10496000C8F8004006EB0B0191F83400A9F800707C
:10497000FF28EDD091F83510002941D04FF47A622C
:10498000F72311FB032149F28062C0F29802B2FBC7
:10499000F1F148F2A0635FFA8AF2C0F20103C2EBC0
:1049A000C212B3FBF1F300EB420048F21F5258432E
:1049B000C5F2EB12A0FB020243F60060C0F2490010
:1049C000B0FBF1F00A21296040F238516860C2F270
:1049D00000010978484341F28F71C4F69971A0FB38
:1049E0000113C01A03EB5000000BE86028616861F6
:1049F000C2F34F10FEF79CFA4FF0000AAAE700BF7F
:104A00005FFA8AF1C1EBC11100EB41004FF0000ADF
:104A1000C5F80CA0C5F810A0C5F814A0FEF788FAD8
:104A200098E700BFFDF79EFC002040F2400128609F
:104A3000C2F2000109886960A9F800004AF6AA20BC
:104A4000C8F8000001B0BDE8F08F000010B542F6D4
:104A50002844C4F2010441F6690060602820206007
:104A600040F23850C2F200000078E06020616061DE
:104A70000220FDF773FD9620FEF75AFA43F200007C
:104A8000C4F200004AF6AA2101605020206096205E
:104A9000FEF74EFAFDF766FC002040F2400220606F
:104AA000C2F2000240F2EC411288C2F2000108801A
:104AB000626010BD10B542F62844C4F2010441F60C
:104AC000690060603220206040F23850C2F200007D
:104AD0000078E060206160610220FDF73FFD9620D4
:104AE000FEF726FA43F20000C4F200004AF6AA21BB
:104AF00001601E2020609620FEF71AFAFDF732FCB6
:104B0000002040F240022060C2F2000240F2EC417C
:104B10001288C2F200010880626010BD10B542F632
:104B20002844C4F2010441F6690072B6606043F2A1
:104B30000000C4F200004AF6AA2101605020206063
:104B400040F23850C2F200000078E06020616061FD
:104B50000320FDF703FD6420FEF7EAF946202060FC
:104B60006420FEF7E5F9282020606420FEF7E0F9D4
:104B7000FDF7F8FB002040F240022060C2F2000284
:104B800040F2EC411288C2F200010880626062B615
:104B900010BD000070B542F62844C4F2010441F68D
:104BA000690043F200056060C4F200054AF6AA26D7
:104BB0003C2072B62E60206040F23850C2F20000F5
:104BC0000078E060206160610120FDF7C7FC4B20A8
:104BD000FEF7AEF9502020604B20FEF7A9F95A20CD
:104BE00020604B202E60FEF7A3F9FDF7BBFB0020F1
:104BF00040F240022060C2F2000240F2EC41128812
:104C0000C2F200010880626062B670BD10B54FF656
:104C1000300072B6C0F60000007842F62844FF2843
:104C2000C4F2010402D0FFF775FE2BE041F66900E3
:104C3000606040F23850C2F200000078E06020610D
:104C400060610320FDF78AFC37202060C820FEF752
:104C50006FF90520FDF782FC28202060C820FEF7B0
:104C600067F90620FDF77AFC19202060C820FEF7BE
:104C70005FF9FDF777FB40F2EC410020C2F2000142
:104C80002060088040F24000C2F2000000886060AE
:104C900062B610BD10B540F2A444C2F200046078C0
:104CA000022809D0012803D1FDF7D8FD002060704B
:104CB000BDE8104000F066BA40F22050C2F2000099
:104CC0008088FFF7AFFC0020607010BD4FF090406F
:104CD0000168012262F3155101602821C4F6000128
:104CE0004FF480630B60036841F2004C62F393431E
:104CF00003604FF400730B600368C4F6000C62F3AA
:104D000011434FF4807203600A60DCF80030022225
:104D100062F30103CCF80030D1F8D83362F3010319
:104D2000C1F8D833016862F38F3101607047000029
:104D300070B5012A2CDB531E032B02F0030C01D2A9
:104D4000002211E022F0030E431C00228D5C9E180D
:104D50008C1806F8015C65789D54A578043275704E
:104D6000E4789645B470F1D1BCF1000F10D0535CDB
:104D7000BCF1010F83540BD0531C13F801E0BCF1BC
:104D8000020F00F803E008BF70BD0232515C81548D
:104D900070BD000041F24000C4F202000168002230
:104DA00041F480310160016821F48031016044F2F6
:104DB0002000C4F2010040F2016140F8081C0A2101
:104DC000016040F2F001C2F20001097881604FF603
:104DD000FF71C16050F80C1C41F0010140F80C1C3F
:104DE00040F28441C2F200010A70426040F23C513C
:104DF0000822C2F20001C4F20202D16000F11401E3
:104E0000916040F25C01C2F200010978516040F605
:104E10008B11116050F8141C41F4007140F8141CFF
:104E2000016841F00101016050F8201C41F00101CE
:104E300040F8201C7047000044F22400C4F2010036
:104E40000021416001607047B0B540F20001C2F23C
:104E5000000140F23D600A78C2F20000427040F268
:104E6000A442C2F200029478D57892794B78013A44
:104E7000B2FA82F25209C2745A1E91F802C0B2FA12
:104E800082F252090275ACF1010291F803E0013C93
:104E9000B2FA82F2B4FA84F4520964094275AEF1AE
:104EA000010244746C1EB2FA82F2B4FA84F452091C
:104EB0008B79640982754FF600028474C0F6000293
:104EC000B021C375BDE8B040AFF300802DE9F04FCD
:104ED00003AF85B08246C81701EB90704FEAA00877
:104EE00020F00300073020F007009146ADEB000BE7
:104EF0000C46DD4658464146FCF7FEF9042C40DBE3
:104F0000A8F10100032808F0030003D2002130BB00
:104F100037E000BF28F00301C1F1000E0BF10803D8
:104F20000022002447F8200C0AEB04005AF8041071
:104F3000D0F808C04568C068043A0BEB04064BF88B
:104F40000410191943F804C0964504F1100441F8FF
:104F5000045CF060E8D157F8200C514288B15AF84F
:104F6000212001284BF821200BD04A1C5AF822306E
:104F700002284BF8223004D0881C5AF820104BF835
:104F8000201042F21000C4F2020047F8148C0168AD
:104F9000C90309D50168C90344BF01685FEAC1318B
:104FA00002D50168C903F2D44168B1F1FF3F03DDC6
:104FB0005FEA495132D10CE040F26801C2F20001CF
:104FC0000A6840F8082C496840F8081C5FEA495113
:104FD00024D1416841F0020141606FF0070142684D
:104FE00001EA192111434160416841F48031416077
:104FF0000168C90309D50168C90344BF01685FEAB4
:10500000C13102D50168C903F2D40168C9071CBFC8
:1050100001210160416821F002014160002147F84F
:10502000181C47F81C1C57F81C1C57F8142C9142EC
:105030003ED209F10401012218E000BF0368DB073A
:1050400018BF0260436823F00103436057F8183C1F
:10505000083347F8183C57F81C3C023347F81C3C0F
:1050600057F81C3C57F8146CB34221D2436843F004
:105070000103436057F81C3C5BF8233057F8186C69
:1050800046F8093057F81C3C0BEB83035B6857F874
:10509000186C8B510368DB03D0D50368DB0344BF76
:1050A00003685FEAC333C9D50368DB03F2D4C5E7FD
:1050B0004168A7F10C0441F000414160A546BDE8FC
:1050C000F08F000080B544F6240C41F24002C4F297
:1050D000010CC4F20202DCF80010136840F2844EA6
:1050E00043F4803313601368C2F2000E23F480335C
:1050F000136044F22002C4F20102602342F8083C2B
:105100000323136040F28E43C2F200031B78012098
:1051100093605C23D3608EF8000052F80C0C0823D7
:1051200040F0010042F80C0C40F2F060C2F20000C6
:10513000C4F20203D86002F11400986040F2EC005F
:10514000C2F2000000781730586040F69B101860DB
:1051500052F8140C40F4007042F8140C106840F03F
:1051600001001060506A40F40040506252F8200C78
:1051700040F0010042F8200CDCF80000401AAEF8C4
:10518000020080BD2DE9F04182B040F2A444C2F299
:105190000004E07840F20005C2F2000530B194F856
:1051A000210038B1B4F8420013E100BFB4F8420066
:1051B00020877EE1E17A6B7BB4F842004FF47A728B
:1051C000002902EB430115D0814252D2AA7EA77872
:1051D000BA423DD1267B4FF0000C0127002EA4F8E7
:1051E00038C0E77545D0C2F10102AA7684F817C02D
:1051F00030E000BF81420DD34FF47A76A6EB430234
:10520000824200F29980A6EB4301814240F2D680AF
:10521000DBE000BFAA7EA3789A4279D1B5F85000AE
:105220006B8E00269842B4F844304FF0000088BFDF
:105230000120C82B4FF0000338BF0123184253D17F
:10524000207F002850D14FF47A70A4F842005FE02C
:10525000E27D72B90022227340F2FF774FF4FA62C6
:105260002F230097FFF7D0FA0146B4F842006B7B7A
:1052700021874FF47A78A8EB4302824222D9A178A1
:10528000AF7EC1F10106BE420CD1267B4FF0000C6F
:105290000127A4F838C0E775A6B1A97684F817C02D
:1052A00002E000BFE17D69B9002121732F270021B1
:1052B00040F2FF730097FFF7A7FA0146B4F84200E7
:1052C0006B7B2187A8EB430181427ED808EB430129
:1052D00081427AD3E27D0021002A218775D0E175D1
:1052E0000121217371E000BFC2F10100A87640F2F4
:1052F0002050C2F20000066001206875FFF7ACFA8A
:10530000697BB4F842004FF47A72A67402EB410153
:1053100040F2FF774FF4FA622F230097FFF774FAF9
:105320000146B4F842006B7B21874FF47A76A6EBF6
:10533000430282427FF667AFA178AB7EC1F10107DD
:105340009F422BD1B5F850006B8E00279842B4F8DD
:1053500044304FF0000088BF0120C82B4FF00003FD
:1053600038BF0123184207D1207F28B94FF47A7043
:10537000A4F8420012E000BF40F22050C2F2000048
:10538000076001206875A976FFF766FA697BB4F8B3
:1053900042004FF47A72A774A2EB41022F2700213A
:1053A00040F2FF730097FFF72FFA0146B4F842006E
:1053B0006B7B2187A6EB4301814206D806EB4301B4
:1053C000814222BF00212187A17494F82110002975
:1053D0006FD0B0F5836F30D3A97EA278914226D1E9
:1053E000B5F850006A8E00269042B4F844204FF081
:1053F000000088BF0120C82A4FF0000238BF0122F8
:10540000104205D1207F18B90020A4F842000EE018
:10541000C1F10100A87640F22050C2F200000660FF
:1054200001206875FFF718FAB4F84200A674A97C49
:10543000C1EB4001A1F601012187A0F1300189B241
:10544000C9087C2930D8A178AA7EC1F10103934212
:1054500025D1B5F850006A8E00269042B4F8442059
:105460004FF0000088BF0120C82A4FF0000238BF6B
:105470000122104206D1207F20B90020A4F842006A
:105480000DE000BF40F22050C2F200000660012093
:105490006875A976FFF7E0F9B4F84200A674A97C14
:1054A000C1EB4001313921872F2802D80020208705
:1054B000A074A07E697C88420CD9E87850B1FCF7D2
:1054C00051FFFFF7C9F90020A4F840006620A0763C
:1054D00071E000BFA07938B1208F1D282AD80021A3
:1054E000A4F8401054E000BF607B002860D0207812
:1054F00020B3208FD5E915732F2140F2FF7200975A
:10550000FFF782F948F20071C0F29331EA7991FB1A
:10551000F0F05108228F90FBF1F02E2AA0850DD8D3
:1055200040F270010020C2F20001A4F840000860BF
:10553000606640E01E281BD11E2029E094ED190A68
:105540009FEDA81A9FEDA82AB4EE410AF1EE10FAD9
:10555000B8BFB0EE401ABDEEC11AB4EE420A11EE69
:10556000100AF1EE10FAA4F8400024DA302020E00E
:10557000297B01EB81018A00824209D9A0271E21E3
:105580002F230097FFF740F90146208FA8E700BFBF
:10559000297B01EB8101890081420CD840F2FF7721
:1055A00040F2FF72A0230097FFF72EF901E000BF41
:1055B000208FA4F84000207F10B102B0BDE8F08138
:1055C000A279B4F8400002EB82012F2606EB01110C
:1055D000814223D8E07F08B3E07E58B9FCF7C2FED1
:1055E000687D002808BF00F027F90120E076A88E2A
:1055F000A279A086B4F840006B8FB5F8407089217D
:10560000002A40F2FF7208BF2F210097FFF7FCF835
:10561000E17AE086002904BF0020E075A079B4F8A3
:10562000401000EB800006EB0010884248D9E07C77
:10563000052813D8DFE800F01404080C100400BF9C
:10564000FFF738FA0AE000BFFFF700FA06E000BFF4
:10565000FFF716F902E000BFFFF79CFA0020E074A4
:10566000687800286CD0E07E002879D0A87FE98C8B
:10567000C0EB001001EB8000A0F13C010AB2B2F5D2
:10568000B47FA8BFA0F5D27108B27722A4F84E105B
:10569000F028C8BF6FF0F0020A44EF23A4F85020AE
:1056A0006FF0F0027828C8BF02F17803A07919449E
:1056B0000128A4F8521004BF012020770020E086C2
:1056C000E07D00287FF479AFB4F840002F2814D390
:1056D00040F22051C2F2000162790968142323FAD2
:1056E00002F2914209D2E18EAA8E91423CBFE2863B
:1056F00011462A8F914288BFE286E18EB5F842209A
:10570000914284BFE2861146A27B2AB1B5F93020CE
:105710009142C4BF91B2E18694ED1A0AB5EE400AF7
:10572000F1EE10FA7FF749AF3028FFF446AFBDEE37
:10573000C00A10EE100A0844E08602B0BDE8F0810D
:10574000E17E0020E08681BB01216975217940F26C
:105750002052C2F20002106011B3FDF7D7FD24E021
:1057600001202279687540F22050C2F20000002129
:105770000160A17782B1A07900287FF477AFB5F8F6
:105780004000697A00EB41001338A4F84400FFF7A9
:105790009DFA0120E07569E7FCF7E4FD66E700BFCC
:1057A000E07D002808BFFCF7DDFDE17AE07D0029FF
:1057B00018BF00283FF485AFB4F842104FF47A7058
:1057C000FDF7E2FD00F57A7081B240F2CF729142AE
:1057D000E08603D3FDF79AFD72E700BFFFF776FA84
:1057E0006EE700BF00E0FF440000404244F22000AA
:1057F000C4F20100016821F00A0101607047000055
:1058000042F63441C4F201010860704742F6384163
:10581000C4F201010860704742F63C41C4F2010144
:10582000086070470B2828BF0B2040F23851400019
:10583000C2F2000108707047B0B540F2A444C2F251
:105840000004E07E20B1BDE8B040FDF7B5BC00BF6C
:1058500040F20005C2F20005A97EA87F01290BD104
:105860000130C1B20729A87722BF0120A87720758F
:1058700000F001000BE000BF01380106A87703D15A
:1058800006200121A8772175012121EA0000687610
:1058900072B6E07D10B9A87FFCF760FE62B6FCF737
:1058A000EDFD6079E17A084305D0606FB0F5FA6FDD
:1058B00084BF012068750020A97F40F22052A4F81F
:1058C0002300B4F84C00C2F2000202EB410148810F
:1058D00042F21070A5F850002420C4F2000041F2FA
:1058E000883101600120E076BDE8B040FDF764BC7E
:1058F0002DE9F04140F2A444C2F20004E08E218E72
:10590000A4F84400481C218D2086481C2085E07F97
:10591000618D002801F1010060854AD1607C00287A
:1059200047D194F82000002843D0208F20B10020D8
:10593000A4F854003DE000BFB4F8540044F62162DE
:10594000013081B29142A4F8540032D3E08F1F2875
:1059500024D3A07A0121E17720B3B4F856004DF2A8
:10596000B9324108CBF21F12A1FB0212D109B0F5E6
:10597000B97F617418D343F200060025C4F2000613
:105980004AF6AA27FFF7CAF86420FDF7D1FA376074
:10599000607C01358542F5D306E000BF002084F825
:1059A0002000C5E7FFF7BAF894F8220008B90020F4
:1059B000E072E079A0B140F20001B4F85800C2F200
:1059C00000010979013082B201EB8101B2EB810F54
:1059D000A4F8580004D90120A0750020A4F85800AC
:1059E000207F38B1B4F848000130A4F84800BDE881
:1059F000F08100BF40F20008C2F2000898F81500DC
:105A0000002848D0E07E002845D0FEF725FFFDF7AE
:105A1000BFFC98F8191079B178B1A07F98F81B20D5
:105A20000130C3B29342A07718D894F8230090BBFA
:105A300094F8240019E000BF40B194F8240001302C
:105A400094F8232084F824002ABB0DE0A07F98F866
:105A50001B200130C3B29342A0770DD9002094F8E7
:105A6000232084F82400B2B959B198F81C10C0B2B0
:105A700088420BD80FE000BF94F8230058B994F87F
:105A8000240098F81D10C0B2884204D9012084F87F
:105A9000230000F039FA608D1528C0F0AA80A17BA0
:105AA00094F81BC000200029608518BFBCF1000FCE
:105AB0004AD0B4F93200B8F822106FF0630201FB4B
:105AC000020140F27002C2F20002936BD2E90B7045
:105AD000966C00FB0133506BB342A8BF3346156C84
:105AE0007642B342D8BF33464E1B06FB00359FEDCE
:105AF000A11A07FB0157D56C7043AF42A8BF2F46D0
:105B00006D42AF42D8BF2F4600EE107AB8EEC00A01
:105B100080EE010AC2E90F01B8F8300091625764C3
:105B20009363BDEEC00A10EE101A401AB8F83A108E
:105B300002B28A42B8BF0846B8F83E1002B28A42A2
:105B4000C8BF0846A8F830006079002818BFBCF12B
:105B5000000F48D0B8F85000B8F8241040F2700296
:105B6000C2F20002411A136ED2E91570166F00FBE3
:105B70000133D06DB342A8BF3346956E7642B3422F
:105B8000D8BF33464E1B06FB00359FED7A1A07FB44
:105B90000157556F7043AF42A8BF2F466D42AF42C9
:105BA000D8BF2F4600EE107AB8EEC00A80EE010A88
:105BB00094ED1A1AD766116513665066916631EE38
:105BC000000A9FED6D1AB4EE410AF1EE10FAC8BF5B
:105BD000B0EE410AB5EE400AF1EE10FA84ED1A0A71
:105BE000DCBF0020A066607B002818BFBCF1000F5E
:105BF00066D198F80E0030B3626F2821A08EB2F5FE
:105C0000FA7F88BF0A21B4F844209628A2EB00034B
:105C100038BF02218B4288F813100BDD0844B8F816
:105C20005010A4F844000020B1F5FA7F88BF01208D
:105C300007E000BF821A8A42C4BF401AA4F8440099
:105C4000002088F81400E07F90B1E07E80B1B4F8C5
:105C5000400030280CD3B4F84400B8F83E10B8F82F
:105C6000402001FB00F3B3FBF2F2013214E000BF6D
:105C7000E07D38B1B8F84010B4F844000A1AB8F81A
:105C80003E1009E0B4F84400B8F83E10B8F84020DF
:105C900001FB00F3B3FBF2F2A08642F62C40C4F203
:105CA0000100A4F85A20016091B28160C1600161D5
:105CB000B4F848000130A4F84800BDE8F08100BF06
:105CC00040F2205CC2F2000CDCF80400A18D9FEDD4
:105CD000291A421A40F27000C2F200000369D0E9AA
:105CE0000171066A01FB0233C168B342A8BF3346A3
:105CF00085697642B342D8BF3346561B06FB013551
:105D0000714307FB0257456AAF42A8BF2F466D4259
:105D1000AF42D8BF2F4600EE107AB8EEC00A80EE30
:105D2000010A94ED191AC761DCF800700260036182
:105D30004161826131EE000A9FED101AB4EE410A12
:105D4000F1EE10FAC8BFB0EE410AB5EE400AF1EE2E
:105D500010FA9FED0B1AB8BFB0EE410A632F84ED25
:105D6000190A9CBF0021016198F80E0000287FF4F9
:105D700043AF68E700401C460000164300E0FF44C4
:105D800000000000B0B540F2C344C2F2000440F28B
:105D9000BC402178C2F200000078002918BF00281A
:105DA0000ED140F2C441C2F200010978012917D096
:105DB00000294FD1FDF7E4F8BDE8B040FEF7EABF97
:105DC00040F28440C2F200000078E8B1FEF7E2FF42
:105DD00040F2A540C2F2000002210170B0BD00BF38
:105DE000E0B140F28440C2F200000078A0B340F27B
:105DF0002450C2F200000088FEF714FCFCF72EFDD0
:105E0000BDE8B040FEF7C6BFFFF75CF940F2A54021
:105E1000C2F2000001210170B0BD00BF40F2C545D3
:105E2000C2F200052878012803D1FCF717FDFEF720
:105E3000B1FF40F2C640C2F200000078012807D14D
:105E4000FCF770FFFFF7D2FCFEF7A4FFFDF756FA50
:105E5000207828B1B0BD00BFBDE8B040FFF732B92F
:105E600040F2E24C2878C2F2000CBCF8002040F26C
:105E70008844C2F20004E8B1607907281AD8062ADB
:105E800018D3431C40F23C50C2F200000568C06FBA
:105E90006169401B0844082B637160610AD1C10825
:105EA00040F2EE0501EBD013C2F20005A1EBD010D9
:105EB0002B80A08140F2DC45C2F20005288828B979
:105EC000617819B9501CACF80000B0BD40F2DD5249
:105ED00000219042ACF8001038BFB0BD6189FDF7D9
:105EE00053FA2278E17801323228C8BF0022D0B2BA
:105EF0003328227005D321B9FEF7C2FC4FF480701D
:105F0000208028886081B0BD70B52420C4F20000D4
:105F1000016840F2A445C2F20005002240F20004EC
:105F2000A5F84C100260C2F20004B4F85020237EA1
:105F300002EB420212FA81F140F220568A08C1F3C4
:105F40008F01C2F20006B1FBF3F3A4F850203268CF
:105F5000C3EB51010A2AAB87A5F8461010D200689E
:105F6000A17EA07F01291BD10130C1B20729A077F2
:105F700022BF0120A077287500F001001BE000BFC0
:105F800089B200BF02688A42EAD202688A42E7D236
:105F900002688A42E4D202688A42F3D3E0E700BF93
:105FA00001380106A07703D106200121A0772975C9
:105FB000012121EA0000607672B6E87D10B9A07F69
:105FC000FCF7CCFA62B6FCF759FA6879E97A08432B
:105FD00018BF012005D0696FB1F5FA6F84BF0121A8
:105FE0006175A27FB5F84C3006EB420253813268EE
:105FF0000021A5F82310A977511C316070B1142934
:106000000ED3B4F85000B0F5FA6F88BF70BD002011
:106010006075BDE87040FDF7CFB800BF1F29F6D20C
:1060200070BDF1EE100A4FF6FF71C0F2C03120EAE8
:10603000010040F04070E1EE100A7047191B121386
:106040001D1516171A090A0B1E0D0E0F7060000899
:1060500000000020C8030000141200086863000854
:10606000C8030020900A0000701200080000000021
:106070001814020101011EFF020E050A0A500564F0
:1060800001016E0A0113100A05050601010603034A
:106090000114D007CA14204EB4180A4C046C07DC53
:1060A000054A01D00612781278147C015012502B48
:1060B000691802121412461E90016918641223D442
:1060C0003023102723E8031A203A25040201401246
:1060D00040400923016745AB89EFCD720A02136482
:1060E000293C6350C3639001294C011023204E4B7F
:1060F000A0862172020A1A32501324F41A070A32B7
:106100001932FA12B412B712BA12BD12C112C41265
:10611000C712CA12CD12D012D312D612D912DC1263
:10612000E012E312E612E912EC12EF12F212F51A83
:10613000F73222FD1867010301060109010B010E68
:106140000111011301160119011B011E0120012378
:1061500001250128012A012C012F013101330135CC
:106160000138013A013C013E01400142014401462F
:1061700001470149014B014D014E015001510153AD
:106180000154015601570158015A015B015C015D40
:10619000015E015F0160016101620163021C640133
:1061A00065021A66023A6702FA680249182922292A
:1061B0002A3A64361A62401A60481A5E501A5C58CD
:1061C0001A5A601A57681A54701A51781A4E801A5F
:1061D0004B881A47901A44981A40A01A3CA81A38BB
:1061E000B01A33B81A2FC01A2AC81A25D01A20D8C4
:1061F0001A1BE01A16E81A11F01A0BF8150601031B
:10620000011301FD12FA12F712F512F212EF12EC5D
:1062100012E912E612E312E012DC12D912D612D3FE
:1062200012D012CD12CA12C712C412C112BD12BAB4
:1062300012B712B412B112AE12AB12A712A412A16D
:10624000129E129B129812951292128F128C128823
:1062500012851282127F127C1279127612731271D9
:10626000126E126B126812651262125F125D125A80
:10627000125712551252124F124D124A124812451D
:1062800012431240123E123C1239123712351233A9
:106290001230122E122C122A122812261224122226
:1062A0001221121F121D121B121A12181217121588
:1062B0001214121212111210120E120D120C120BD5
:1062C000120A12091208120712061A050212041AFB
:1062D00003021A020219D9190201124918292229A6
:1062E0002A3A04361A06401A08481A0A501A0C5854
:1062F0001A0E601A11681A14701A17781A1A801A6E
:106300001D881A21901A24981A28A01A2CA81A302D
:10631000B01A35B81A39C01A3EC81A43D01A48D82C
:106320001A4DE01A52E81A57F01A5DF81262126517
:106330001268126B126E1271127312761279127C3D
:10634000127F128212851288128C128F129212956D
:106350001298129B129E12A112A412A712AB12AE97
:0863600012B100000000000072
:020000040800F2
:10F7E0005245465F473433310000000000000000FE
:10F7F0000000000000000000000000000000000009
:04000005080011D905
:00000001FF
