:020000040800F2
:10100000600D0020D1100008751F0008311700087E
:1010100000000000000000000000000000000000D0
:101020000000000000000000000000006D2000082B
:101030000000000000000000771F00086F2000087B
:10104000E3100008E3100008E3100008E3100008B4
:10105000E3100008E3100008E31000081D17000863
:10106000E3100008251600084D1600086D1600084C
:10107000A9140008D9210008E3100008E3100008B3
:101080000122000829220008000000009921000820
:10109000AD210008D5210008E3100008E310000886
:1010A000E3100008E3100008E310000845220008E0
:1010B000E310000800000000E31000080348854624
:1010C00000F0B4F900480047813A0008600D0020A4
:1010D0000448804704480047FEE7FEE7FEE7FEE7D6
:1010E000FEE7FEE795210008BD10000803460B430C
:1010F0009B0703D009E008C9121F08C0042AFAD2CE
:1011000003E00B780370401C491C521EF9D2704753
:10111000D2B201E00270401C491EFBD2704700228F
:10112000F6E710B513460A4604461946FFF7F0FFE6
:10113000204610BDF8B502464A40D40F42004B008D
:1011400052085B089A4202D20246084611464A00FB
:1011500023D0C30D4A00DDB2120EAD1A202D35DAB0
:1011600049020126490AF6058A19002C00D052428C
:1011700020214F1B1146B9402A411018C20D9A4236
:1011800021D0002C17D0012D08DCDA05801AD20FEF
:101190008019D207DBB200F00FF9F8BDDA05801A2A
:1011A000012340001B06C01880185A428018CA0F3D
:1011B0001043490007E04908C2071143DA05801AC5
:1011C00080194008801800F0EFF8F8BD6100012296
:1011D000511A001BF7E70122D2075140AAE701226A
:1011E000D2075040A6E770B502464A40D50F4000EE
:1011F0004A00ED0740085208002814D0002A12D0F7
:10120000C40DD30D41020120C0055202490A520A01
:10121000E41A091812187D34914201D3641C00E0CD
:101220004900002C01DA002070BD0023914201D357
:10123000891A0343400849000028F7D100290AD041
:10124000914202D10121C90705E0914201D2012159
:1012500001E00121C943E005C018401900F0A4F8DD
:1012600070BD0122D207002800DB101A002900DB24
:10127000511A814201D80120704700207047012295
:10128000D207002800DB101A002900DB511A814226
:1012900001D201207047002070470122D2070028A8
:1012A00000DB101A002900DB511A814201D3012012
:1012B0007047002070470122D207002800DB101A77
:1012C000002900DB511A814201D90120704700201A
:1012D0007047C217C10F504010B54018CA07962377
:1012E000002100F069F810BDC20F41004002012347
:1012F000400ADB05D207090EC0187F2901DA002059
:101300007047962903DC9623591AC84001E09639A4
:101310008840002AF4D04042704770B50446002946
:1013200003D000202022012310E0002801D000205B
:10133000C043C046C0460DE02546D5408D4205D38A
:101340000D469540641B1D46954040191546521E9A
:10135000002DF1DC214670BD70B5002504462E46F7
:10136000002911D0002C01DA01254442002901DABC
:10137000012649422046FFF7D0FFB54200D0404247
:10138000002D00D0494270BD002C02DA0121C907AE
:1013900002E0002C00DD03490846C046C046214655
:1013A00070BD0000FFFFFF7F002904DA401C4900E8
:1013B00001D140084000704770B40024050C05D1ED
:1013C0001024000402D1002921D01124050E01D1DE
:1013D00000020834050F01D10001241D850F01D141
:1013E0008000A41C002801DB4000641C002908D0F8
:1013F00020252E1B0D46F540A14000D00121294398
:10140000084301061B1B000ADB1D02D5002070BC2F
:101410007047DB05181880180029F8DA401C4900CD
:10142000F5D170BC4008400070470000064C012513
:10143000064E05E0E36807CC2B430C3C984710347C
:10144000B442F7D3FFF73EFE206D0008406D000860
:1014500070B58C180578401C6B075B0F01D10378C1
:10146000401C2A1106D10278401C03E006780E7059
:10147000401C491C5B1EF9D12B0705D40023521ECA
:101480000DD40B70491CFAE70378401CCB1A921C50
:1014900003E01D780D70491C5B1C521EF9D5A1425A
:1014A000D8D3002070BD000080B5A0480168890233
:1014B00004D501214905016002F076F880BDC046DF
:1014C00005488188054A11800188054A11804088B5
:1014D000044908807047C046E4050020A2050020AA
:1014E000A60500208C050020F0B593B000270997D1
:1014F000089707970697012148020B460291444935
:101500004A6802434A604A6802400A920A985804AC
:101510000A6802430A60096801400A910326059699
:101520000A984020019004900920C40604AD20468A
:10153000294600F02FF9089705960820039004909B
:101540002046294600F026F932480168324A0A400E
:101550000260310302688A430260016820220A4364
:1015600002600168019CA1430160016880220A4376
:101570000260310202688A43029B1902511801601D
:10158000B10202688A4399021E4651180160234D38
:1015900028680399084328602868204328601804B5
:1015A000296801432960072080051D490A68824394
:1015B000D80510180860D8070F9012971197109748
:1015C0002C46283C0FA9204600F0B4F80E970D9643
:1015D0000C970B970A970AA9204600F0C5F804203B
:1015E000C04329461C390A6802400A60294614395A
:1015F0000A6806231343B3430B60243D2968014066
:101600002960286803998843286013B0F0BDC0465C
:101610001410024008000240EFBFFFFF28240140E1
:101620000827014010B5104C2068800703D42068BB
:10163000000707D410BD01206060FFF741FF20685C
:101640000007F7D50820606010BDC0460648016855
:10165000890602D40168090605D510214160C169D7
:1016600001229143C16170470000024070B52448D7
:101670000078002813D02148007800280FD00124DA
:10168000200320490A6802430A60002008642148B8
:101690000078002827D003F08BFC022026E00124EC
:1016A0001848011F0A6852040CD5174A1278002AFC
:1016B00008D0A203154B1D6802262E430825AE4311
:1016C0001E6002600A68920405D40968090401D505
:1016D0002103016070BD21030160016CA14301641D
:1016E00005F028F804E003F067FF20460A49087077
:1016F000E00307490A6802430A6070BD50050020F4
:1017000057050020040002405A0500202004004034
:1017100010040140100500203905002080B501208B
:10172000C0030249086003F0B7FB80BD1404014008
:10173000FEE700008268D20712D1C268094B13404D
:101740004A681A438B681343CA681A43C26003226B
:1017500092070369934309681943016100207047A8
:1017600001207047C73FFFFF70B58268D2070CD1D8
:10177000C268074B134074C909681A4322432A43BD
:1017800032430A43C260002070BD012070BDC046D4
:101790003CC2FEFFF0B584B00B68002B49D0002599
:1017A0000191009010E07F437F433B460F21594356
:1017B0008E435D433543009805510199039D6D1C8F
:1017C0000B681C46EC4035D00122AA401A40F6D0E6
:1017D0000395144654434B6826465E4303276743EC
:1017E0000568BD4335430560FE4302935D1E2346F5
:1017F000012D05D88D685D43876837402F4387608A
:101800000D695D43C76837402F43C760029D022DB5
:10181000039DD4D1170A05D024244D690659002F01
:10182000C1D104E020244D690659002FBBD15B4390
:10183000BCE700234A68521E012A05D8C9685943EB
:1018400042689A430A434260002004B0F0BD0000A1
:1018500080B57D21C900FFF760FD401E0349486047
:10186000002088600520086080BDC04610E000E0D0
:10187000B0B504463E4D28680C2101403D4808297A
:101880000FD12968C90300D43B48A96A0F220A4036
:10189000511CFFF742FD014628688002000F801CA2
:1018A0004843206029680906090F354A515CC84041
:1018B000606029684905490F304A515CC840A06002
:1018C000B0BDC04610B5002801D0002010BD284C86
:1018D000E16A0320084003281AD002281FD00128FB
:1018E00023D120680C210140224808293FD12168DA
:1018F000C90300D42048A16A0F220A40511CFFF7F7
:101900000CFD014620688002000F801C484310BD7A
:10191000201F00688007C1171648084010BD01202D
:10192000C103E0698003084010BD20680C2101401C
:10193000104808290FD12168C90300D40E48A16AB4
:101940000F220A40511CFFF7E8FC01462068800284
:10195000000F801C4843216822685205520F074B34
:101960009A5C0906090F064B595CC840D04010BD6F
:101970000410024000127A0000093D00066B0008C6
:10198000F66A0008014908607047C046A8010020B7
:10199000B0B51F22D30234C99C433F239B029D4311
:1019A0000B782B4323430F242403A2431A4303231E
:1019B0009B034C688D689C4314434988034A0A4042
:1019C00022432A4342640020B0BDC046FF1F0000EE
:1019D000B0B5056801229407A04205D0234B984278
:1019E00002D0234B984217D170239D434B682B4361
:1019F000204DA84214DD204CA04206DC1B4CA04226
:101A000016D0204CA04213D02EE01C4CA0420FD088
:101A10001B4CA0420CD027E02B46164DA842EADC16
:101A2000A04205D0124CA04202D0174CA0421BD1BC
:101A300003242402A343CC681C4304608B68C36264
:101A40000B8883629A4BC3180A24E341072B06D8FC
:101A500014469C40E1231C4201D0097C016341698A
:101A6000114341610020B0BD1C46E6E7002C014057
:101A700000040040FF2B0140FF43014000480140AB
:101A8000004401400040014000200040F0B584B017
:101A90000123FF2945DC01296CD0102967D1016A97
:101AA000102399430162016A3023994313695B084B
:101AB0005C010C4317685168090121437C4C0619ED
:101AC0000A24E64145688469072E1ED8039701273A
:101AD000B740E126374217D00326B602B543536913
:101AE00002939769D369BF002646744C3C402C434F
:101AF000DD0025433446C0239943029B5B08DB018C
:101B00000B43916889011943039F456073231B02AE
:101B10009C433B0223438361D268826301620023BA
:101B200025E001273D02A9425FD03D03A9421ED115
:101B3000016AA94301625E4945180A21CD41016A43
:101B40004368146801945468039414690294C66944
:101B5000072D00D98FE03C46AC40E1252C4200D156
:101B600089E0BC03A3439469A4011C4384E01846A4
:101B700004B0F0BD0127F943036A0B400362136907
:101B80000B40046A032102918C431C431668516880
:101B90002143474BC3180A24E34145688469072B56
:101BA0001BD803963E469E40E1231E4214D0029B62
:101BB0001B029D437B02566902969769D6699F4333
:101BC0002F4375003D430C239943029B5B08DB00C8
:101BD0000B43916889001943039E456073239C431E
:101BE00034438461D26842635CE0016AA9430162C4
:101BF0003149491C13691B020B4003210291090260
:101C0000056A8D431D431168039151680B022B43F4
:101C1000274941180A25E9414668C56907291DD8A1
:101C20008F40E1210F4219D0029C21038E4351695C
:101C300001919169D769009709011E4F0F40374301
:101C400000994E013E43A1028B431C49091D019C92
:101C5000A4020C401C4391688B022343466073210D
:101C60008D4303990D43C561D168C16303620023AD
:101C7000184604B0F0BD1C46446073231B029E430B
:101C8000019B1B023343C361D26802640322120327
:101C90009143084A1032029B1B0313400B430399E4
:101CA0000903194301620023184604B0F0BDC04681
:101CB00000D4FEBFF0DFFFFFFFFDFFFFFCF7FFFFDB
:101CC00070B584B0044600680125C00724D10E46D3
:101CD00020682449014070680843F1680143306975
:101CE0000843B169014321600320010362688A430C
:101CF000B168114361600002A168814370690843C3
:101D0000A060194884420AD01848844204D10020B7
:101D1000FFF7D8FD002808D1284604B070BD01A8FF
:101D2000FFF7A6FD03980028F6D031680029F3D00C
:101D30000122D203B36993420AD140004A08101825
:101D4000FFF7EBFA0A4901400007400F401804E092
:101D50004A081018FFF7E1FA80B2E0600025284633
:101D600004B070BDF369FFFF00440040003801403B
:101D7000F0FF0000064807490160074901600221A1
:101D800041607D2149018160044901607047C0467E
:101D900000300040CCCC000055550000AAAA00003D
:101DA000F0B59FB000251D951C951B951A951995AA
:101DB0000E950124E3020393694A5068184350606A
:101DC00019A90D740D8050681840119018463138CB
:101DD0001B901198634E3046FFF7FAFD3068802162
:101DE000049108433060B0685F490140B160B06958
:101DF000082101910843B06112951395149515952A
:101E00001695179518956020119011AF3046214610
:101E10003A46FFF73BFE0420C1430091B0690840F9
:101E2000B061B06903990843B06113951295102110
:101E300030463A46FFF72AFEB0694C490840B06187
:101E4000F06901990843F0611395129521020191FF
:101E500030463A46FFF71AFEF06900990840F061F3
:101E6000F06903990843F0611395129521033046F8
:101E70003A46FFF70BFEF0693C490840F061706894
:101E80007021884370600BA9CD8146200873B0682B
:101E9000049A9043B060109560030F900D950C95D7
:101EA0000B953046FFF774FD274660042C4B1968EC
:101EB000014319601968014005910598A004029436
:101EC000196801431960196801401E9102240A949F
:101ED000099508950795069405941E98244805AE23
:101EE0003146FFF757FC0A94099508950795069423
:101EF00005971F483146FFF74DFC0A940995089550
:101F000007950694049805900920C706384631467F
:101F1000FFF740FC0A9409950895079506940298E6
:101F20008002059038463146FFF734FC0A94099543
:101F30000895079506940298400205903846314668
:101F4000FFF728FC0A9409950895079506940198CF
:101F5000059038463146FFF71DFC1FB0F0BDC04666
:101F600014100240002C0140F8BFFFFFFFFBFFFFF1
:101F70000004004870477047F0B581B036480168EA
:101F80000126B14301602024344D285D297F0129B9
:101F90000AD1401C2855C1B2072903D32E55304819
:101FA00006773046304009E0411E2955080603D126
:101FB000062129552A48067730468843E876EFF30C
:101FC000108072B6264FF87F002802D1285D00F0FD
:101FD00043FA62B600F012FAF87C797B014321489B
:101FE00007D080697D210901884202D9EE75002061
:101FF00002E0E97D484248412B2100227A542D21FC
:102000007A545E21795A5622AB5A03265E437318DE
:102010009E08AE521A0AEE7956434A22BE529A03DD
:10202000520C921B5423FA522A5D52000D4BD218C7
:102030005185002805D1186A0B49884208D901B09A
:10204000F0BD00F0EDFF074B186A07498842F6D84B
:10205000401C186201B0F0BD0C200040C000002000
:1020600030050020AC0500200F27000070477047A6
:10207000B0B545490A68012002430A600968434D2A
:102080002968014329602968890708D429688907D4
:1020900005D42968890702D429688907F3D52B68F4
:1020A00080210B43782293432B606B6B03436B635C
:1020B0006B6B9B0708D46B6B9B0705D46B6B9B0703
:1020C00002D46B6B9B07F3D56B6B0B4393436B6332
:1020D000696A01436962696A890708D4696A89077C
:1020E00005D4696A890702D4696A8907F3D53D2155
:1020F00009046A688A430521C90451186960E96ABC
:102100000F229143E96201062A680A432A604106C8
:102110002A680A4208D12A680A4205D12A680A4276
:1021200002D12A680A42F3D06968F02291436960BB
:10213000072109026A688A436A60696802220A43C1
:1021400082436A6069680C20014008290BD06968E5
:102150000140082907D069680140082903D069684F
:1021600001400829EED10A4C2046FFF771FB2046BA
:10217000FFF708FC686B042188436863286B032120
:1021800088432863B0BDC0460020024000100240D2
:10219000006CDC027047000080B50120C04302499A
:1021A0000860FFF7E9FE80BD102000400220C04318
:1021B00007490A68920703D40A68D20704D1704716
:1021C00008600A68D207FAD0401C08607047C04611
:1021D00010400140704700000220C04307490A68D0
:1021E000920703D40A68D20704D1704708600A68CE
:1021F000D207FAD0401C08607047C046102C01403E
:102200000220C04307490A68920703D40A68D2072C
:1022100004D1704708600A68D207FAD0401C0860F1
:102220007047C0461004004080B505480168C907E2
:1022300004D00121C943016004F020F880BDC046EC
:102240001010004080B508480168C9060AD5102161
:1022500041600648016801229143016003F01AFAC7
:1022600002F090FE80BDC0461C38014030000240A4
:1022700081B0002000902248026822490A4052188A
:10228000183202600268002A08D50268002A05D5C3
:102290000268002A02D50268002AF3D401220092C3
:1022A000009B002B17D0009B5B1E0093009B002B14
:1022B00011D0009B5B1E0093009B002B0BD0009B5A
:1022C0005B1E0093009B002B05D0009B5B1E0093C0
:1022D000009B002BE7D103680B40134303600146CA
:1022E00008390A68D20708D10A68D20705D10A68F6
:1022F000D20702D10968C907F1D001B07047C046C2
:1023000008240140E8FFFF7F70B53B4B18680421AB
:10231000014308208143196002249C6203210A05BD
:102320000920C0060568954301221605AD19056010
:10233000950285621D681543A5431D609A628B0452
:1023400004689C439304E3180360530283628B0385
:1023500004689C439303E3180360802383620904A9
:1023600003688B431104591801601102816270BD2A
:1023700070B5E5490A78E54C20680C239843002A9B
:1023800003D008221043206004E0042210432060A0
:102390000220A062032213050920C00605689D43A0
:1023A00001235E05AD1905600E7825689543002E62
:1023B00003D002263543256002E01D432560A36259
:1023C00094040568A543DC042C1904600C7895037B
:1023D0000168A943002C03D0DC032143016004E021
:1023E0009C032143016080218162110402688A43B9
:1023F00059045118016070BD00040048124A117858
:102400001248042901D0012902D16121016011780B
:10241000052901D0022902D1512101601178062934
:1024200001D0032901D14121016001204005084963
:102430000A780849002A03D000220A6048607047E1
:1024400000224A6008607047E00000201C00014044
:10245000DB0000200804014070B5401E052800D9AB
:1024600050E1C0467844007940008744020F3D6A3D
:1024700088A6A5480278A54908680C239843002A35
:1024800000D1A6E0082210430860A7E09F4B18681F
:102490000421014308208143196002249C62032126
:1024A0000A050920C0060568954301221605AD19E5
:1024B0000560950285621D681543A5431D609A61FC
:1024C0008B0404689C439304E31803605302836203
:1024D0008D4B1C788D030368AB43002C00D1A6E024
:1024E000D40323430360ADE0884B18680421014303
:1024F00008208143196002249C6103210A050920F8
:10250000C0060568954301221605AD1905609502C0
:1025100085621D681543A5431D609A628B0404689B
:102520009C439304E318036053028362764B1C7848
:102530008D030368AB43002C7FD0D4032343036097
:1025400080E0724B18680421014308208143196020
:1025500002249C6103210A050920C00605689543F1
:1025600001221605AD19056095028562664D2E782B
:102570001D688D43002E6CD025431D606CE0634BBD
:1025800018680421014308208143196002249C62D9
:1025900003210A050920C006056895430122160596
:1025A000AD19056095028562574D2E781D688D43E3
:1025B000002E60D025431D6060E0534802785349E7
:1025C00008680C239843002A6FD008221043086043
:1025D00070E0042210430860022088620322130581
:1025E0000920C00604689C4301235D05641904604A
:1025F0000C681C430225AC430C608B619104046899
:102600008C43990461180160590281629103046846
:102610008C43990361180160802181621104026872
:102620008A431904511801601902816270BD940334
:10263000234303608023836204E094032343036005
:1026400080238362090403688B4351045918016095
:1026500070BD15431D609A628B0404689C43D304CB
:10266000E31803608B0304689C439303E31803603F
:102670008023836210E015431D609A628B04046816
:102680009C43D304E31803608B0304689C439303C7
:10269000E318036080238361090403688B431104FA
:1026A000591801601102816270BD04221043086054
:1026B00002208862032213050920C00604689C4397
:1026C00001235D05641904600C681C430225AC43BA
:1026D0000C608B62910404688C439904611801605A
:1026E00059028162910304688C4399036118016067
:1026F00080218161110402688A4319045118016024
:102700001902816270BDC046C2000020000400486A
:10271000F0B58DB0DF480168C56F6A1ADE4E728170
:1027200093B25A093281DE4C2488A34200D80EE1CC
:10273000DA4C2488A34200D309E10A954368591A68
:10274000012500230C939142294600D80C99099148
:10275000F1618168C368591A9142294600D80C99E1
:102760000891316201694369591A9142294600D89A
:102770000C99079171628169C369591A914229467E
:1027800000D80C990691B162016A436A591A9142C4
:10279000294600D80C990591F162816AC36A591AD9
:1027A00091422F4600D80C9F3763016B436B591A37
:1027B00091422C4600D80C9C7463816BC36B591AF0
:1027C0009142294600D80C990B91B163016C436C7E
:1027D000591A9142294600D80C990391F163816CF2
:1027E000C36C591A9142294600D80C990291316460
:1027F000016D436D591A9142294600D80C990191F7
:102800007164816DC36D591A9142294600D80C99A3
:102810000491B164016E436E591A9142294600D861
:102820000C990091F164816EC36E591A91422B4646
:1028300000D80C9B3365016F466F711A914229468F
:1028400000D80C99944E7165806F0A9E301A9042A0
:1028500000D80C9D904885650998059A42400398D8
:102860004240D000089A5740029A5740BA001718C1
:10287000079844400198444064000B98069A5040E1
:102880000B900098C0009A0010184900461885481F
:1028900000788549097801430DD100F0D1FC00286A
:1028A00009D07D490879401C0871C0B2652802D35F
:1028B00001207C490870701939190B9B049A534008
:1028C000784A1278002A01D00F225040724D1943E5
:1028D000884239D11C353CCD6F48C66A6E48076BBB
:1028E0006D48416B6C48806B92025B02134322027D
:1028F0001A43EB011343B201674E1A437B011343A2
:1029000009011943C000084334463C341ECC8D00F5
:102910000543510029431943CB4A00201080B28956
:10292000521CB281012C02D1604A0123137030295C
:102930000FDB7278002A0CD05D4800220270C64876
:102940000180B2700DB0F0BDE889401CE8810DB087
:10295000F0BD4A1E2E2A06D855480170BE480022F6
:102960000280C8B20EE0002902D05148007809E088
:102970003178012901D1002171704D490870B649A3
:102980000880B0700028E2D04A4909780029DED1D9
:10299000454909780029DAD0F178884202D000212F
:1029A000B170F070052805D3B178491CB170C9B277
:1029B0000629CCD30025B570411E142900D962E048
:1029C0007944097949008F440A14181C205E242B8D
:1029D00032365E3B45505E5E5E5E5E570E003849A5
:1029E000012008704FE03448007834490870152001
:1029F00049E033490220087045E03149032008705E
:102A000041E02F49042008703DE02D490520087061
:102A100039E02A480121017027480570072032E07B
:102A20002648057024480121017008202BE08848C1
:102A30000570092027E08648012101700A2022E064
:102A400002F09EFC1C480078401C1D490870184884
:102A5000007818E00121717107204002F08032787F
:102A60000D20012A0FD171700DE075710720400211
:102A7000FF30F0800E2006E00F4800780121081A90
:102A80000E49087014200A490D700E4908700DB0E7
:102A9000F0BDC0465C060020900400202401002008
:102AA0002005002050050020570500204E0500207D
:102AB0005C070020530500203A050020DC000020C0
:102AC0004B050020F4080020F0B581B0564E03CE2F
:102AD000081A564C0119574A083E91420BD8564DD8
:102AE0006978002909D0E97800295FD1A9780029FF
:102AF0002DD028892CE04E4E7FE0554909780029D9
:102B00000DD054490A887D21CB00904216D94B4CF8
:102B1000248809010091511C5B1C224612E04749A0
:102B20000A884A4909887D231B012F3300932F23EC
:102B300001F0B8FF312807DA002005E04349098891
:102B40000093002301F0AEFF28613F4E55E028813D
:102B5000491CA970394F398880B200F055FB3328E1
:102B600002DB002068701AE038880721414305CE57
:102B7000101A4018C0083880A978083E33290ED3AF
:102B8000193881B22E4A8918CA0F8918490821229A
:102B90002C4B99540121E970388002F0ADF8388847
:102BA0002881E8780028D0D003CE081A29797D2220
:102BB000D200FA32904208D2491C2971234A138864
:102BC00007265E433018C0081080C8B21E4E4C283D
:102BD00013D31E48018819318AB2A2183332D30F99
:102BE000D21852082023174CE25400246C70018044
:102BF00002F0C6FB2C7102F05BF800203080164812
:102C00000288F54909698C1A144B1B689C4201DD46
:102C1000D11806E0541A9C4203DDD11A018001B09C
:102C2000F0BD018001B0F0BD5C060020DFFCFFFFBD
:102C30007C0500207605000014050020EE00002031
:102C40002AF9FFFF5D07002086050020EC00002028
:102C50003B050020F000002080050020B40100208A
:102C6000F0B58FB00024059401260696B2030192B8
:102C70003C484168114341604168114008910899FE
:102C8000B10402680A430260006808400890079493
:102C9000022003900898402000900290032504959C
:102CA000314802A9FEF776FD304F386830490140BF
:102CB000396028033968814339603868202101432D
:102CC000396038680099884338603868802101434A
:102CD00039602802396881433960A8023968814324
:102CE0003960FF20000623490A688243F007101864
:102CF0000860F006204908600E940D9404200C90A2
:102D00000B940A9409941D4808901D4C08A920466C
:102D1000FEF7D6FFB002A1688143A160A068082138
:102D20000143A16020683043206001991031386868
:102D30000840102805D120462430F8601148B860BA
:102D400004E020462430B8600E48F8607868B34943
:102D500001404031796020681021014321600FB0AB
:102D6000F0BDC0461410024000040048300002408C
:102D7000EFBFFFFF18E400E000E100E0A0680600FC
:102D800000380140F5050020184900220A600A6851
:102D9000824208D20A68824205D20A68824202D27E
:102DA0000A688242F3D3704710B5104900220A60C6
:102DB0004B2292014A600A46103A146801231C43D0
:102DC00014600A2444430868A04208D20868A0425C
:102DD00005D20868A04202D20868A042F3D330208E
:102DE000486010681843106010BDC0462448014078
:102DF000F0B5764BC9337648438076490F68002595
:102E00002A4603E052182835782D77D071494E199B
:102E10007168CF1B1BD1B768791A21D1F168CF1B1C
:102E200027D13769791A2DD17169CF1B33D1B76991
:102E3000791A39D1F169CF1B3FD1376A791A45D157
:102E4000716ACF1B4BD1B76A791ADCD050E09CB2C3
:102E5000A74201D247803B46D219B768791ADDD024
:102E60009CB2A14201D241800B465218F168CF1B9F
:102E7000D7D09CB2A74201D247803B46D2193769CE
:102E8000791AD1D09CB2A14201D241800B4652188E
:102E90007169CF1BCBD09CB2A74201D247803B4681
:102EA000D219B769791AC5D09CB2A14201D241802A
:102EB0000B465218F169CF1BBFD09CB2A74201D27A
:102EC00047803B46D219376A791AB9D09CB2A142E1
:102ED00001D241800B465218716ACF1BB3D09CB20D
:102EE000A74201D247803B46D219B76A791A8AD0E5
:102EF0009CB2A14286D241800B4683E75109364DF0
:102F0000A961364C2178012925D1991E89B202295F
:102F10000AD80F21C9018A4206D20021A971304E78
:102F200031700E262D490EE0591F89B2032912D89F
:102F30001921C9018A420ED2294901260E7027495A
:102F40000E70A91D0726274F3E7001260E70202106
:102F5000017025490E70254E317801290BD1C93BEE
:102F600099B21A4A914230D21D492F220A7001218A
:102F70003170022125E02778002F26D1002924D1A5
:102F8000991E89B2022909D80F21C9018A4205D2A6
:102F90000021A971124A11700E210DE0591F89B24A
:102FA0000329DCD81921C9018A42D8D20C4901224F
:102FB0000A702270AC1D07210A4A1170012121708C
:102FC0002021094A012313700170F0BD574D000004
:102FD000200100205C060020140500205905002077
:102FE000B001002011050020580500205A050020DE
:102FF0000748084981600849C1604168074A0A409A
:10300000D11C4160016801220A4302607047C0463A
:103010000800024040240140E40500200000FFFFBA
:103020000120400558490A6802430A607047C046BB
:10303000B0B582B04C4801680124214301600168A9
:1030400010220A430260210202680A4302600168FA
:1030500004220A430260016840220A430260A1027E
:1030600002680A430260210302680A430260642185
:103070000162014620390A6822430A60E503416A79
:10308000294341620C380168214301603748016AD5
:1030900021430162016821430160354801460C3932
:1030A0000A6822430A6081682143816001682143E4
:1030B00001600168A14301602E480168214301605D
:1030C000416921434161A0070168214301604169D1
:1030D000214341612848016821430160416921433E
:1030E0004161C1682143C160FEF7FEF9FFF780FF2F
:1030F000FFF7BEF8002001905048016821430160AD
:10310000A14800681D49FEF708F9062141430191D5
:103110000198002817D00198401E019001980028BE
:1031200011D00198401E0190019800280BD0019801
:10313000401E01900198002805D00198401E019082
:1031400001980028E7D1FF2000060D490A68824354
:10315000E007101808600B48802101600A480168E8
:103160002943016002B0B0BD202C014000040040A2
:103170000C2000400048014000100040400D0300BA
:1031800004E400E000E100E00004014070B5194BE8
:1031900018680421014308208143196002249C61BE
:1031A00003210A050920C00605689543012216057A
:1031B000AD190560950285621D681543A5431D6024
:1031C0009A618B0404689C439304E31803605302E0
:1031D00083628B0304689C439303E318036080239A
:1031E0008361090403688B431104591801601102BB
:1031F000816270BD000400480248016801220A4350
:1032000002607047142C0140401AC1174840401A10
:103210007047000007480068C000074940180121B6
:1032200089038140054A12680A400E30C240D0B27C
:103230007047C046AC01002020FFF7FF1C00014092
:1032400002480168102008407047C046100400483A
:1032500010B582B047490B680120420713604B68E4
:1032600053608B689360CB68D3600B6913614B69C3
:1032700053618B699361CB69D3610B6A13624B6AAB
:1032800053628B6A9362CB6AD3620B6B13634B6B93
:1032900053638B6B9363CB6BD3630B6C13644B6C7B
:1032A00053648B6C9364CB6CD3640B6D13654B6D63
:1032B00053658B6D9365CB6DD3650B6E13664B6E4B
:1032C00053668B6E9366CB6ED3660B6F13674B6F33
:1032D00053678B6F9367C96FD16727490B68274A7C
:1032E00013604B6853608B689360CB68D3600B6945
:1032F00013614B6953618B699361CB69D3610B6A2D
:1033000013624B6A53628B6A9362CB6AD3620B6B14
:1033100013634B6B53638B6B9363C96BD163184916
:103320000A6802430A600968014001910198154842
:1033300001680324A14301600168214301607D20ED
:10334000C10011480068FDF7E8FF401E010E00D0E3
:10335000FEE78E490D4A50600D4803680B40A107F7
:1033600059180160002090600720106062B602B01A
:1033700010BDC0460010000880100008800000202A
:103380001810024000000140A801002010E000E0F9
:1033900020ED00E0F0B593B0FEF76AFE774F786855
:1033A0000126019630437860786830400C900C9884
:1033B0003007B9680143B960B96801400C910C98B5
:1033C0006F48016810220792114301607504386844
:1033D00028433860386828400C900C98B104089154
:1033E000386808433860386808400C900C98092009
:1033F000C1060391F003886238683043386038684A
:1034000030400C900C98FF200B9000045D4A11682E
:103410008143B00508181060B0025B49086010686D
:103420005A4B1840B40700191060F0020990086068
:10343000FEF7B6FCB8683043B860B86830400C900E
:103440000C98172002900694A0625148E062002078
:103450000A90119010900F900E90386804952843B0
:10346000386038682840129003260D960220059097
:103470000C9012980CAD039C20462946FEF78AF961
:103480000A9810900D9620200C9020462946FEF7B1
:1034900081F93C4948680B9A904348600D467D206D
:1034A000400101466031384B1960019C2102BA6825
:1034B0000A43BA60BA680A400C920C993549029ADC
:1034C0008A62C862A868314A1040A860E0041860A7
:1034D0000A68802002430A60B968079D2943B960E1
:1034E000B96829400C910C990B990902254B9A68EF
:1034F0008A43B103511899601E462349049A0A6011
:1035000025492F220A6032234B607968089B1943B2
:103510007960796819400C910C9920498A621C4A9B
:10352000CA620A6882430A60B86805990843B860AD
:10353000B86808400C900C983868184338603868B0
:103540001840129011940A9C10940F940E940D91AF
:103550000C95129812480CA9FEF71CF930680B491B
:1035600008400699401830600998074908600D48DE
:1035700004603F21416013B0F0BDC046141002400A
:103580000020024008E400E000E100E0FFFFFF004F
:10359000FFFF0000002000402810004000480140CC
:1035A0000004004828040040F0B581B0344DA869FB
:1035B00034497E2824D30B46096833487C290AD82D
:1035C0005221415AC9084A2905D8296A89087D2902
:1035D00001D201B0F0BD56212C4A515A49081A684F
:1035E0008A42F6D32521425C521C4254D0B265284F
:1035F000194605D301F07AFA0020286201B0F0BD27
:1036000008685E27204CE053204E707EF17E002932
:103610000BD0002814D00025FFF7FCFD0028D8D1DE
:103620006D1C707E8542F7D30AE0002808D0002583
:10363000FFF7F0FD0028CCD06D1C707E8542F7D3DB
:1036400001F054FAEFF3108072B6E15B0D4B1A688B
:1036500000208A42024601D91A68521A1A6054217F
:10366000625AB37DDA406252094988610A62486051
:103670000868012202430A6062B601B0F0BDC0468C
:10368000AC0500202400004030050020C0000020D0
:103690000C200040F0B585B001263402E74DE84922
:1036A0002846224601F044FC687804280BD8BFF372
:1036B0004F8FF148F1490160BFF34F8F00BF00BF4A
:1036C00000BF00BFFAE7687C401E41424141DD4A2D
:1036D0009172A87C401E41424141D172E87C012890
:1036E00000D196730496E87D1F2800D31020D64F92
:1036F000F871287D401E41424141B970687D401EED
:1037000041424141F970A87D401E41424141397119
:10371000287E01460839CD4ECE4B582929D8CE4EA9
:1037200018280AD32146F33100911821602233462C
:1037300001F0B8F946217852287E01460C390B2950
:1037400008D800960C211822C44B01F0ABF9462191
:103750007852287EBF4EFC210140082910D1BC4977
:10376000009107211022BE4B01F09CF946217852AE
:1037700008E03046F93044217852B748186008E034
:103780004620385AAF4A502178524821785280B2A8
:1037900030600394687E01463239C9B2642901D889
:1037A0003138F874E87E3872A87E282460431430DB
:1037B000B884287F401E414241411173687F401EFA
:1037C0004142414151730226304602F043FC687881
:1037D00000282CD0A87F0B2800D9052002F03AFC45
:1037E0002320285CB8732220285C9E494018388624
:1037F0002020285C40009C494018B8852120285C86
:10380000400092494018F885E87F401E41424141FE
:103810008C4BD9732420285C02280BD0012810D1AE
:10382000049898742520285CFA3078860BE0BD8CCB
:10383000039CD6E09E742520285C64214143798452
:1038400001E0002098748348002102911974262118
:10385000695C491E4A424A41DA74295D4A1F142AAA
:1038600000D8797329216A5C531E092B00D8BA72DB
:103870002A22AB5C5C1EE4B2082C0CD8FB72092433
:10388000E4435C43243CE3B2C82B00D3C8233B731E
:1038900084691C4384612B23EB5C1C46463C462C0C
:1038A00000D8BB712C23EC5C661E622E04D86548E0
:1038B000049E86756400FC842D242C5D661E092EF2
:1038C00000D87C722E242C5D092C0AD8042C5D486B
:1038D0000ED8C0467C4424796400A74402999EA275
:1038E000A6005848029C845444546049049A0A70C3
:1038F0003521695C491E4A424A41C2543621695CFD
:10390000012921D13721695C142251432F315823D9
:10391000C1523821695C51432F315A228152049996
:1039200041703B21695C534A3C23EB5C3D242C5D98
:10393000121D1AC23921695C64224A433A21695C2A
:10394000C8234B43BB65FA653F21695C14224A4397
:1039500040217A524E23FC5A3E7BA419FC523E234E
:10396000EB5C8386FB7CD3187B879219FB8FD21884
:10397000FA87695C552901D1049901704121695C7C
:1039800081704221695CC1714321695C39704421B5
:10399000695C01724521695C5529039C01D1049938
:1039A00001714621695CC170BD8CA9084A2901D802
:1039B00002983874397A2020FDF7AFFC06461121B1
:1039C0002846FDF7AAFC3146FDF7A7FC4C217852AA
:1039D00064212846FDF7A1FC3146FDF79EFC4A21F3
:1039E00078522046F43000902C341948C21C7D20B7
:1039F000C3002846214601F055F83887B8780028DA
:103A000001D005B0F0BD00200E49C87205B0F0BD70
:103A10000C48049A4254154969E70A4804998154AC
:103A200066E705210748417162E70648049A425457
:103A30000E49029C0C700E4959E7C0465D070020F4
:103A4000007C000830050020C0000020D6060000E1
:103A5000B50B00002C2C0140CF0700009E0F00008A
:103A60006D1700005E050000EE02000091040020CA
:103A700090040020300100200CED00E00400FA0565
:103A800000B593B0FFF7E4FBFFF784FCFFF7D0FA33
:103A9000FFF700FEE04C207901256840E178032221
:103AA00002925140014328020390002931D00120A5
:103AB00020710320E070601DD8A10C22FDF716FBD9
:103AC000DA4841786170C179E175D9498A7A521E24
:103AD000534253416374CA7A521E53425341A374F2
:103AE000897B491E4A424A41E2748178491E4A4212
:103AF0004A412275C178491E4A424A41627500799D
:103B0000401E41424141A175CA4A2046039901F035
:103B10006BFC0695C648807B002802D0C348818F85
:103B200041874620C14F0E903D5A44200D903D5292
:103B3000502001903D524E26B85B68437D21129182
:103B40000C012146FDF7E9FB1196B853B84EB07A47
:103B5000401E411E88413877F88F68430C942146F7
:103B6000FDF7DBFB397B4018F887B878002801D1D6
:103B70000020B0731298C100F07C0028344615D0A4
:103B80001198395240200A46395A3231395242206E
:103B9000395A323139520020A0730121E17239744F
:103BA000114638717880788F323078876079401F7D
:103BB000A14DA24E01280A910AD8FFF751F801F051
:103BC000E1F928200121215401F022F935600CE0AF
:103BD00002F0AEFA4C2000212152356001F0E8F9E4
:103BE0006078002801D00120607520789449002871
:103BF00008D0562039520020A07300F077FF01F062
:103C00001DF801E001F004F98E4801688E4A0A406F
:103C100002608E498A600068010F02D11921C943F0
:103C200000E000212F22A154000C8849C86002F056
:103C3000F3F9FEF79FF8FF20049068300F9000F032
:103C4000B0FDA079002815D0607A022809D001289B
:103C500003D1FEF75DFD0020607201F04FFE774951
:103C600006E07A48808C00F03FFE744900206072C4
:103C70000020A0710D60754AD08D918D0818118EAD
:103C80004018518E4018918E4018D18E4018001D5A
:103C900040085062F87800280BD05620385A0E9908
:103CA000795A00914B086021C82200F0FBFE0D9963
:103CB00078525622A05A6649884225460BD32724BB
:103CC000295D002901D000F06FFD62498842584DFE
:103CD00001D300F08EFD1292E88F5F4988422C4696
:103CE0005A4D3CD34020245E2046FDF7F2FA5B4952
:103CF000FDF779FA01462869FDF71CFA2861584852
:103D0000007803280BD0022819D00128484C24D170
:103D10002E20215C0F9899300843022119E06A2077
:103D2000434C205A4F494143090C401A400840185F
:103D30000009C1B20A9818300843012109E0A0B275
:103D4000C0B229214143C80A029A510240181146C3
:103D5000374C434A1170444908800020E0872E6A9E
:103D60002078002800D14AE1686A03210B91FDF711
:103D7000F3FA0146A861207F00282FD00B2E2DD307
:103D8000324DA86AFFF740FAA9690C9A914222D2F3
:103D90004A0890421FD900202862E27D521CE27539
:103DA000129ABA5A0A9B9A4200D90120119AA25A31
:103DB0002F2A069A00D874E3E37A002B00D075E32B
:103DC000012A02D1232000222254788F4008422267
:103DD000A0520120F875A9620020207712983A5A63
:103DE00020201090235C214808380168204D29408C
:103DF000002B41D0472A3FD301601C4A10681C4960
:103E000008401C49243901431160101F01684020FB
:103E10000843BF213CE0C0465D070020464C5943A3
:103E20004F4C4F522048562000000000C000002098
:103E300030050020007C0008AAAA000000300040E5
:103E40008813000000580140FF0F0000AC0500205F
:103E500011270000419C0000214E00000000B443E7
:103E600095040020AF4700009604002010E400E015
:103E7000FFFFFF0024000040DE4A243A11430160A6
:103E8000DD4A1068DD4908401060101F0068049981
:103E90008843111F0860A07F002818D0607900288F
:103EA00015D1D7480069FDF71FFA03464020225A72
:103EB0006A20215A2E20205C7024D24D2C5B009465
:103EC000D04C00F0D5FC01F0BFFB0020A077607F54
:103ED000401C6077C0B2652800D2CBE0FDF7F0FA55
:103EE000C94D286840000321FDF717FA0D99795A4A
:103EF000401C80B2884200D30846B8866860C34937
:103F00000868C34A1040001D0860C24908884989F2
:103F1000091A7222A25A121A50205043FDF71CFAB5
:103F20001E302E2160547421605221200990275C9C
:103F30007800B94A115A08915C21615A07911152CF
:103F40006A25605B072646437620205AB3494843DA
:103F5000B349FDF7E2F9B349497C48436421FDF7D1
:103F6000DCF98019C00805906053781CC1B20026A6
:103F70003129314600D8014609982154A04FF869EB
:103F80000899401A07994018F8613221FDF7C5F9E0
:103F90004821605285B2A1486843CD218900FDF7D0
:103FA000BCF9010400D53046402160527D61A07CFF
:103FB00000289C4F5CD0059880B2798C814255D9FD
:103FC000A08F401CA0872421615C974A51430A9A24
:103FD000891880B281424BDA00248A4811994452F0
:103FE000FEF792F900F082FD4C2086490C52232006
:103FF00084490C54272083490C54824C38E00E9895
:10400000205A424242410A998E42069C214600D8DB
:1040100011460023642E22460F9D04D9C82805D2DC
:10402000002906D007E01A46C828F9D31C46002903
:1040300001D1224003D022210022724B5A54714CEC
:10404000A17B002904D09F2802D82221002262549B
:10405000217E002900D11FE2294629318842684D7E
:1040600000D381E62220002121547DE60020A08794
:10407000002060772520002626542423E05C0028B9
:1040800000D1DDE01198205A312800D229E1272102
:10409000615C002900D124E1882800D97EE1607CA0
:1040A0000028594D12D0614A1068012188431060E0
:1040B00000F01CFD2846083800240460281F046016
:1040C0002C60FEF755F94F4844744E4C6222A05ABA
:1040D000397F002900D1C9E2411E08B200280F9D96
:1040E000284600D40846A0526421625A521E13B2D8
:1040F000002B2B4600D4134663526621615A4A1E98
:1041000011B20029294600D4114666221292A1520A
:104110005426B95B00B24000454A105E09180E9F54
:104120004048C05B48430C9D2946FDF715F93D49C1
:10413000497A48430A242146FDF70EF980B201F07E
:1041400077FF3848805B64212E4A515E4900384A27
:10415000515E41183348C05B48432946FDF7FCF8DF
:104160003049497A48432146FDF7F6F880B201F01C
:1041700065FF2C48805B2349129A895E49002C4ACE
:10418000515E41182748C05B264F48432946FDF73A
:10419000E3F8797A48432146FDF7DEF880B201F072
:1041A00053FF0A98BE3880B23C7A2146FDF7B5F835
:1041B000064620482146FDF7B0F8034611481199FC
:1041C000405A00963021782200F06CFC522438537B
:1041D00080B2FEF7D9FD395B0A4C0F98F130FDF73C
:1041E0009CF870216052144920780028134D00D0AB
:1041F000D5E226E52400004010E400E0FFFFFF00C8
:10420000AC050020300500203C2C01400824014072
:10421000E8FFFF7FB8F7FF1FF6080020E40C00005E
:10422000FF0F0000C00000207CFCFFFF0C200040BE
:10423000BA010020581B000000300040AAAA00006C
:104240002325FA48445DFA48416AFA48FDF784F8A4
:104250006043F64C7021605280B2F7494843C00C6D
:1042600078216052397C00290DD011997B5A4C215C
:104270007A5A4A21795A50243C5B0094F24C00F05F
:1042800011FC482178522E20205CBA7990420BD93B
:104290005021795A012300934B0811460A390A32FA
:1042A00000F000FC482178522C20205C00280AD025
:1042B0001198205A109900910C9A2F322F21022325
:1042C00000F0F0FBF8710F9E8D36E048006A63281D
:1042D00012982FD8395AB1422CD90C20642937D3DF
:1042E00037E001256574207B002800D1E3E00E98BB
:1042F0003C5AB87A4000201813385221D24A505202
:104300000D99795A80B248432146FDF706F8201AE4
:10431000401C6E24CC49085300F0D8FDCA48005B0D
:10432000C94CCB4A114608390860111F086010605B
:10433000E577C9E0C54880690C210091039AF43201
:104340006421032300F0AEFB1299795A642900D24C
:1043500002207876B98CB14201D240007876BD480F
:104360000068BD498842BD4900D258E1605D01281E
:1043700000D054E12220215C491C215400F0B6FBFE
:104380000121F9751198205A3028099100D3A5E030
:1043900000206055B2480890129AA2E001200B90CC
:1043A00060746222A05A397F00290992059300D1D6
:1043B00078E1411E08B200280F9800D40846A052A8
:1043C0006421625A521E13B2002B0F9B00D4134675
:1043D00063526621615A4A1E11B200290F9900D416
:1043E0001146079666220892A1525426B95B00B284
:1043F00040009C4A105E09180E9F9B48C05B4843D2
:104400000C9D2946FCF7A8FF9749497A48430A249E
:104410002146FCF7A1FF80B201F00AFE9248805BC2
:104420006421894A515E49008E4A515E41188E4886
:10443000C05B48432946FCF78FFF8B49497A4843C4
:104440002146FCF789FF80B201F0F8FD8648805BC9
:104450007D49089A895E4900824A515E4118F748B1
:10446000C05BF64F48432946FCF776FF797A48430C
:104470002146F34CFCF770FF80B201F0E5FD119886
:10448000205AC82800D8C0E0522001993952099E0C
:104490000798A0530846BBE0952800D9CEE06420D9
:1044A000CDE00246E37A002B00D189E40246012ADE
:1044B00000D187E489E4EA49084608380660081F05
:1044C00006600E60FDF720FFDF497020265220783D
:1044D0000028DC4D00D062E1FFF7B3FB129AB85A16
:1044E00008900B9B0020D94E3062DB4E31685E2570
:1044F0000B95615305460898434388B21818800805
:10450000B852356084B2B97E2046FCF706FF4A21D6
:10451000CB4A50526108CA4C081A5421605280B2EA
:10452000CA49096A0A2912D23168CC490862109A2C
:10453000B85C397F0129099E16D1401CB854C1B21C
:10454000072902D3BE5426773046304015E0316843
:104550008142EAD231688142E7D231688142E4D2B5
:1045600031688142F3D3E0E7411EB954080602D115
:104570000621B954267730468843F876EFF3108049
:1045800072B6E07F002803D11098385CFDF764FF15
:1045900062B6FDF733FFE17C481E8141607B002855
:1045A000069800D10846012805D1A84989690C9AC6
:1045B000914200D9FE752B2165542D216554262189
:1045C0006554A24E316A491C31620B9AA25A109B63
:1045D000FB5C5B009B195A85002808D014299A4976
:1045E00012981CD3385AA14A904203D317E01F29CE
:1045F000954914D3FD75FEF713FD934920780028E3
:10460000904D00D0CBE0FFF71CFB5220385A099E9A
:10461000FEF7BAFBA05B00288B49129A5CD0207889
:104620000028884D00D0BAE0FFF70BFB30050020D2
:10463000AC050020C0270900CDCC00000A20B874CA
:10464000824DFFF791FBC04630050020AC050020ED
:104650003C2C014024000040C9AF00000030004065
:1046600088130000BA010020C0000020431C18B2CB
:1046700000210F9EB042084600DC1846A05264227A
:10468000A35A5B1C25461CB2B4420C4600DC1C46F7
:10469000AC526622AA5A521C13B2B3422C4600DC1A
:1046A00032E532E5411C08B20F9DA842304600DCDD
:1046B0000846A0526421625A521C13B2AB423346E0
:1046C00000DC134663526621615A4A1C11B2A942AA
:1046D000314600DC84E684E623200B992154079EB2
:1046E000059826545A48B852F975584DA862A861E1
:1046F00059490860E67714202862607B002802D0C0
:104700004220395A2152387E397F0129109A0AD124
:10471000401CB854C1B2072902D30B98B854207773
:104720000B99084009E0411EB954080603D106213F
:10473000B9540B9820770B988843F876EFF31080E4
:1047400072B6E07F002803D11098385CFDF784FE34
:1047500062B6FDF753FEE07C411E8841617B002973
:10476000069900D101460129109A05D1A8690C9932
:10477000884201D90B98F8752B2026542D202654F9
:104780005E20205AB95C490049194885FEF734FD7E
:10479000F24920780028F24D01D1FFF752FA00F0DB
:1047A0005BFCEE49FFF74DFAFDF7AEFD0020244A11
:1047B000105528215054119950524C215052284ADA
:1047C000114608390860111F0860106000F03CFCB9
:1047D000012001022448FCF7A2FCBFF34F8F1D48C3
:1047E00020490860BFF34F8F00BF00BF00BF00BF6C
:1047F000FAE7FDF789FD0020285528216854119912
:1048000068524C216852164A114608390860111F37
:104810000860106000F018FC012001021248FCF74B
:104820007EFCBFF34F8F0B480E490860BFF34F8FDC
:1048300000BF00BF00BF00BFFAE7C046C0000020B5
:1048400030050020AAAA000000300040AC0500207E
:10485000282300000400FA05240000400C2000403A
:104860003C2C01400CED00E05C060020D10700006C
:10487000F0B583B01E4615460346194C08980290C1
:104880002072A6712271A1702370000A0190E0715C
:10489000300A00906071120AE270080A6070114FCD
:1048A000FB5C4340D8B2385C4840C0B2385C5040F2
:1048B000C0B2385C6840C0B2385C00994840C0B2B1
:1048C000385C7040C0B2385C01994840C0B2385C76
:1048D00002994840C0B2385C607203B0F0BDC04677
:1048E000EA0500201E6C0008F0B583B0664EF5881E
:1048F000002D02D00020F08015E0644909780029DD
:1049000000D16348C10B09D1032293030340012165
:104910008C03A34200D090E0062200E0072232611F
:10492000D040550205435C480078800001905B4907
:104930000C1840236360290A5948405C00908200AB
:1049400018469043A0602F09794069400F260296CF
:104950008E43290189194C4A51610099CA001A40B5
:104960004240E260C8030090029807404C48C75D8F
:10497000B90200980143029805404948405D009003
:1049800045010D434648805D02902E4606433E4851
:104990008661C80A1840504020618A0A1A40424085
:1049A0006261480A18405040A061B9001940414076
:1049B000E161FA001A404A4022623F20C0430240AF
:1049C000A9091940514061626A091A404A40A2622D
:1049D000290919405140E162009DAA001A404A404D
:1049E0002263E90019405140616372081A404A404D
:1049F000A263024071001E405640E66319407140B8
:104A000021640022254D019EAA51029DAA001A4050
:104A10004A406264E90019405140A1642A011A40E9
:104A20004A40E26469011940514021650140E807AC
:104A3000400E4840606503B0F0BD07235B030340B0
:104A40004C03A34201D1052269E70F231B03034056
:104A50000C03A34201D1042261E71F23DB020340C0
:104A6000CC02A34200D15AE73F22920202408902BF
:104A70008A4201D1022252E77F2149020140054AC0
:104A800089184A424A414AE7900400205305002011
:104A9000FFFF000000FEFFFF11050020600800205E
:104AA0000E6C0008F0B5059E1D460B46344682424A
:104AB00017DD174693420EDCA54211D061194E1046
:104AC000F9184A1093420ED08242EFDA511C3A464E
:104AD00033462646E8E739461A4623462E46E3E79C
:104AE0002C462046F0BD3046F0BD000001204005B8
:104AF00002490A6882430A60486170470004014025
:104B0000F0B581B0BD4DBE486860EFF3108072B65D
:104B1000BE480078E860286168617924B94EBA4FD0
:104B20003760A41E14212046FCF7F7FBC0B2FDF746
:104B300093FC60080A3028600A20FEF735F9022C41
:104B4000EED8FDF7E1FB00202860D1490880D1486C
:104B50000088686062B601B0F0BDC0460030004019
:104B6000AAAA0000F0B581B00320FDF775FC00266D
:104B70003225009603E0761CAD1CAE2D47D2A2482C
:104B8000A0490860C24800990180284840198778E8
:104B9000FF2FF0D0C07800282CD00A21B94A11602C
:104BA000F72141437D20400109182148FCF7B5FB5E
:104BB000044620482146FCF7B0FBB2494860B3499F
:104BC00009784843B049FCF7A8FBAE49C8600861C2
:104BD0004861F0B2FE214143CE1917482146FCF747
:104BE0009CFB70436421FCF798FB80B2FEF7DCF875
:104BF0000026C1E70024A348C46004614461F0B208
:104C0000FE214143C819FEF7CFF82646B4E7FDF769
:104C10007BFB00209B4A10609E49098851609C499B
:104C2000088079487749086001B0F0BD5D07002031
:104C300080969800003E4900A0860100B0B5EFF3D1
:104C4000108072B68F4D9048686090480078E86098
:104C5000286168610120FDF7FFFB282028604B20B8
:104C600084002046FEF7A0F80220FDF7F5FB1E2089
:104C700028602046FEF798F80320FDF7EDFB192089
:104C800028602046FEF790F80420FDF7E5FB14208D
:104C900028602046FEF788F8FDF736FB00202860E4
:104CA0007B4908807B480088686062B6B0BDC0461A
:104CB000B0B5744D74486860282028607348007847
:104CC000E860286168610220FDF7C6FB9624204653
:104CD000FEF76AF84B484C49016050202860204696
:104CE000FEF762F8FDF710FB002028606849088095
:104CF000684800886860B0BDB0B5624D62486860C1
:104D00003220286061480078E860286168610220EC
:104D1000FDF7A2FB96242046FEF746F839483A49AB
:104D200001601E2028602046FEF73EF8FDF7ECFAF1
:104D30000020286056490880564800886860B0BD49
:104D4000B0B5EFF3108072B64E4D4F4868602D48F5
:104D50002D490160502028604C480078E8602861A7
:104D600068610320FDF778FB64242046FEF71CF8F9
:104D7000462028602046FEF717F8282028602046A5
:104D8000FEF712F8FDF7C0FA0020286040490880BD
:104D900040480088686062B6B0BDC046F0B581B0DA
:104DA000384D39486860EFF3108072B6154E164FD3
:104DB00037603C20286035480078E86028616861E9
:104DC0000120FDF749FB4B242046FDF7EDFF502065
:104DD00028602046FDF7E8FF5A202860376020460B
:104DE000FDF7E2FFFDF790FA0020286028490880CF
:104DF00028480088686062B601B0F0BD282C0140E8
:104E0000CF07000000300040AAAA0000F4050020EF
:104E1000B0B5EFF3108072B619480078194DFF282D
:104E200002D0FFF79FFE25E017486860174800781A
:104E3000E860286168610320FDF70EFB37202860D9
:104E4000C8242046FDF7B0FF0520FDF705FB28200C
:104E500028602046FDF7A8FF0620FDF7FDFA19207F
:104E600028602046FDF7A0FFFDF74EFA0848002114
:104E70000180296007480088686062B6B0BDC046FE
:104E8000807C0008282C0140CF070000F40500209A
:104E9000860500200601002010B50A4C607A022821
:104EA00008D0012803D1FDF733FC0020607200F028
:104EB00025FD10BD0448808CFFF716FD00206072B0
:104EC00010BDC04630050020AC050020B0B5032160
:104ED0000A050920C00603689343012214051B1923
:104EE0000360930283628B0404689C439304E31879
:104EF0000360530283620B0404689C431304E318A9
:104F0000036013028362094B1C68082525430424AF
:104F1000A5431D601C680225254395431D60890338
:104F200003688B43D10359180160B0BD00040048E9
:104F3000F0B5012A24DB032413462340551E032D1C
:104F400001D200240EE0A24300240D5D0555051991
:104F50000E1977786F70B778AF70F678EE70241D01
:104F6000A242F2D1002B0BD0625C0255012B07D07C
:104F7000621C555C8554022B02D0A21C515C8154EA
:104F8000F0BD000007484168074A0A4040324260CD
:104F900006490A68402313430B60016801220A4353
:104FA00002607047300002400000FFFF08380140F7
:104FB000B0B51B48016802221143016001689143AA
:104FC0000160184801460839174A0A600A21016041
:104FD0001649097881601649C16002460C3A136887
:104FE00001210B43136000224260124B124CDC6023
:104FF000044614349C60114C24785C60104C1C6096
:105000004B020446143C25681D43256003680B438E
:1050100003600C4B1A70203802680A430260B0BD6E
:10502000101002402004004001600000B001002088
:10503000FFFF0000440002405C0600202001002029
:105040008B0900001005002002480021416001602A
:105050007047C04624040040F0B587B04626DE4BBA
:10506000985BC2494143090D401A069085B2DC4F56
:10507000387900283FD02724395DF87A0029059433
:10508000049626D0002824D068080390B85B0095C9
:10509000B74E2F3E0027394632463B46FFF702FD0A
:1050A0000446CF48008E0095394632463B46CC4FE9
:1050B000FFF7F8FC0646039800F0C0FFA0B2059C7D
:1050C00000F0B6FFB0B2049E00F0BEFFC24B395DE7
:1050D000F87A421E90414A424A41024300D043E1DD
:1050E0001C7FFDF711F90A20FDF74EFE002C16D0AB
:1050F00001F0DAFB15E0B85BB97E002900D0BCE016
:10510000312800D2B9E01C7FFDF7FEF80A20FDF738
:105110003BFE002C00D1ABE001F0C6FBAAE001F0A1
:1051200003FCB85B00953024914A002621463346A3
:10513000FFF7B8FC0390388E009521468C4A029602
:105140003346FFF7AFFC04462E20385CA24A917923
:105150008842069B0BD9049BD25A01230093530823
:105160000A461432FFF79EFC9B4A034685B248204C
:105170001352A0B2A84219464FD9039CA0B2A8422C
:1051800050D9974EB07D002851D00C46069340254B
:10519000705F6321C943D28C4A43101875498862F5
:1051A0000A6C831A0E6B4A6B8F6B5A43CA6308648E
:1051B0004643F3198E6CB34200DB33467642B3426A
:1051C00000DC33468B63D218CB6A58431018CA6C84
:1051D0009042834E00DB10465242904200DC104663
:1051E0004864FCF776F86449FBF7FDFFFCF77CF8B0
:1051F000794BD98E091A0AB2585B824200DB084605
:10520000D88602B2A1B29142014600DC2146069C3A
:10521000A3B293420CDC20460AE02146039CA0B2D4
:10522000A842AED823466E4EB07D0028ADD11846B8
:105230008CB2621E21469141020400D00121012955
:105240000ED10599715C00290AD080B200F0F0FE01
:10525000002000F0F3FE204600F0F6FE07B0F0BD9F
:1052600046480299016041608160B17607B0F0BDA7
:1052700001F05AFB0120B876B85B34460095302126
:105280003B4A00230593FFF70DFC534A06462E20A8
:10529000385C91798842069B0AD9125B01230093FE
:1052A00053080A461432FFF7FDFB4B4A034685B20A
:1052B00048201352B0B2A84200D83346B87D002827
:1052C0003FD006934025785F6321C943D28C4A437F
:1052D0001018284988620A6C831A0E6B4A6B8F6B10
:1052E0005A43CA6308644643F3198E6CB34200DB29
:1052F00033467642B34200DC33468B63D218CB6A26
:1053000058431018CA6C9042354F00DB1046524289
:10531000904200DC10464864FBF7DBFF1649FBF7C0
:1053200062FFFBF7E1FF2C4BD98E091A0AB2585BDA
:10533000824200DB0846D88601B2069B9AB28A42B6
:1053400000DC184601040D4909D02722BA5C002A66
:1053500005D080B208604860886007B0F0BD05984D
:10536000086048608860B87607B0F0BDCDCC00001A
:10537000FF0700003001002000401C46342C014093
:1053800010B515494A7815484270CA79C275144A51
:10539000937A5B1E5C425C414474D37A5B1E5C4230
:1053A0005C418474927B521E53425341C3748A7889
:1053B000521E534253410375CA78521E5342534101
:1053C00043750979491E4A424A4182750121090201
:1053D000044A00F009F810BDC00000205D0700205D
:1053E00030050020007C0008F0B503AF8BB06E469E
:1053F000F41D193415467161B061C80F0B180122F4
:105400001946F2609143C91D072291436A46501A1A
:1054100059108546F0613161FBF781FE7069022801
:1054200059DBB2690320336919460140B160591E46
:1054300003297460356001D2002121E08343736148
:1054400000231946D25CB069C01844782402A2181F
:10545000F569EA528278C4782402A218EC186280B6
:10546000027945792D02AA18A2808279C0790002BA
:105470008018E080B2690833091D70698842E1D163
:10548000B368002B7468356825D04900B069405C6A
:10549000B2695218527812021018F26971615052B2
:1054A000012B18D07069801CB1690A5CB1690B18B6
:1054B0005B781B029A18F3691A52B169B068022826
:1054C00009D00A467069001D095C12185278120250
:1054D0005118F26911523069A06035480168C90756
:1054E00008D00168C90705D00168C90702D0016862
:1054F000C907F3D14168090606D52E490A68034653
:10550000083B1A6049681960A905F3681DD1426813
:1055100002210A434260856042684023134343608E
:105520000268D20708D00268D20705D00268D20705
:1055300002D00268D207F3D10268920601D5202278
:10554000026042688A434260F3680021616007E0BC
:105550004168994341606168891C61602168491C08
:1055600021602168A26891421AD2416819434160C2
:1055700021684900F269515A626851530168C907AC
:1055800008D00168C90705D00168C90702D00168C1
:10559000C907F3D101688906DAD520210160D7E770
:1055A000416880220A434260FC1F053CA546F0BDCD
:1055B0000C20024028010020B0B51C4801680222DE
:1055C000114301600168914301601948014608399F
:1055D00060220A60032101601649097881603D213B
:1055E000C16002460C3A136801210B431360124B51
:1055F000124ADA60024614329A60114A547817341B
:105600005C60104C1C604B020446143C25681D4332
:10561000256003680B430360CB03446A1C43446268
:105620001170203802680A430260B0BD10100240B9
:10563000200400401A0500204400024060080020B9
:10564000100500209B090000B0B50E480368082132
:105650000B430422934303600B4B5C680B4D2540C6
:105660000B4C24782C195C60846880252543856068
:105670001C68012525431D60036813438B430360A9
:10568000B0BDC046003801401C0002400000FFFFD2
:10569000B8010020F0B581B089484178012904D1D2
:1056A000407E002800D0C1E0ADE08A1ED4B2651C67
:1056B00003232A461A40032C02D2831C002412E042
:1056C0009D43831C00247F4E1F786740F45D5F7804
:1056D0006740F45D9F786740F45DDF786740F45D74
:1056E0001B1D2D1FF0D1002A0DD01E786640754D70
:1056F000AC5D012A07D05E786640AC5D022A02D01C
:105700009A786240AC5C427E944200D08EE01829C8
:1057100079D1C17804796207520D52186A498A809A
:10572000072212021346E03345796E011E40E40859
:105730003419CC80AC098579AD002C19C579EE07F8
:10574000760D34190C8114468034067AF70127400F
:105750006D087D194D811546F035477A01463801AF
:10576000284036098019584EB081F8098E7A7600A3
:105770003018CE7AB7077F0D3818534FF881C032F2
:10578000087B87011740B608BE194F4F3E8240097B
:105790004E7BF60030187882887BCE7B77077F0DB2
:1057A0003818494FB882087C47011F40F308FB189E
:1057B000454FFB8280094B7C9B0018188B7CDE07D1
:1057C000760D30183883C87CC60126405B08F31874
:1057D0007B830B7D1C012C4000092018B883D8095D
:1057E0004B7D5B0018188B7D9C07640D2018F88397
:1057F000C87D44090D7EED002C197C848001104089
:105800009A08801838843148007840002E4F3818A4
:1058100080882F49097800290ED02E4941180E2979
:1058200010D80120800218382C492AE02648016847
:10583000491C016001B0F0BDAE280AD827480021FC
:1058400001801FE0244A1446BE340094AE26002591
:1058500005E0214A1446ED340094AE263025314649
:105860002B46FFF71FF91D4908801D4800784000AE
:105870003818808800943146174A2B46FFF712F9F2
:105880001849088018480121017018490020088033
:1058900017490A781749002A024606D0164B1B887A
:1058A000002B08D0088001B0F0BD0A88521C124BB2
:1058B0001B88002BF6D11046088001B0F0BDC04611
:1058C000F50500200E6B0008EC04002032050020D6
:1058D0003B0500202BFCFFFF120700008005002085
:1058E00033050020600500203605002086050020D5
:1058F000570500207C05002076050020F0B587B014
:10590000FA4EF07A002806D02924305D002807D00E
:105910005020305A1DE15020305A462170529CE1EF
:105920005027F05B7D22D500F1498B7B590006950D
:105930004919F57C002D059717D0814245D2EC4AD4
:10594000127FB57AAA4244D1462700250395F55324
:105950000127F777357D002D37D0039BF377BA1AEF
:10596000E34B1A77069D059F37E001258142049499
:1059700003952CD2DE4B1B7FB47AA3426AD124203C
:10598000305C441EA0415224345BC82C2F4600D307
:1059900007465624D64D2C5B2D8FAC4200D80746C7
:1059A000012F069D78D1D348002404620120D049FC
:1059B000C875C01A0877FFF799F8B476059FF05BB1
:1059C000CB49897B4900491969E0069D12E0069D93
:1059D00071E0F27F002A069D0CD100223275C64A82
:1059E00000922F3A2F23FFF75DF846217052F05BAB
:1059F000BF498B7B0127F94359434A1982422ED96B
:105A00000494B47A012103910D1BB949097F8D4299
:105A10000DD14621002575520399F177317D00297A
:105A20001BD0F577B2490C77049C069D04E0F17F0A
:105A30000029049C069D12D1002131752F2300936B
:105A4000AD4BFFF72FF8462170520598305AA84900
:105A50008B7B04E0049C069D22E0049C069D5B0079
:105A6000591900228142394606D31146EB1A834266
:105A700005D90F4306D068E0EB1A8342F9D81746E0
:105A80000F4362D146220021B152F27F002A5CD03E
:105A900001223275F17758E0D000059FF053049C45
:105AA000954A00922F3A2F23FEF7FCFF46217052B1
:105AB000F05B8F498B7B01210291CF4339465943DB
:105AC0004A1982422FD9B17A01230191591A884C7F
:105AD000247FA14200D09CE12420305C411E8841FB
:105AE0005221715AC829039900D301465624804D8A
:105AF0002C5B2D8FAC4200D801460129069D00D0B9
:105B00008AE17B4901980877CB757A4800240462C2
:105B1000FEF7ECFFB476059BF05A7549897B4F433D
:105B20007A191F467BE159004A19824200D287E167
:105B300000220292691A8142039900D885E1002966
:105B400003D1462100227252B276315D002900D184
:105B500083E07D21CC0021462F31884236D9644D27
:105B6000297FB27A91422AD12420305C421E904192
:105B70005622AA5A2E8F01230027B2421A4600D875
:105B80003A465226594DAE5BC82E00D33B461A40CA
:105B90000243012A564D0ED15648002606620120C6
:105BA000E875401A2877FEF7A1FF5048867606462A
:105BB0005020305A03E0502100204C4E7052297D75
:105BC0004200511A904A89184622B1520146303992
:105BD00089B2A1423BD2B17A0122531A444C257FAB
:105BE000AB422ED124203746305C431E98415623C9
:105BF000E35A268F0025B342134615D82B4652266A
:105C0000BE5BC82E14D213400343012B15D121775C
:105C10000120E075F94800250562FEF767FF3E4662
:105C2000BD765020385A0CE05226BE5BC82EEAD30F
:105C30002A4613400343012BE9D0502100203E4661
:105C40007852217D4200511A31394622B1522F2813
:105C500003D8462000213152B1763078002800D098
:105C60004EE12224305DE34DA97C88420CD928798D
:105C7000002809D0FCF748FBFEF738FF66203055B6
:105C80004E20002131526EE0B07B002807D0462420
:105C9000305B1D2826D84E210022725254E0707DC0
:105CA00000285CD07078002828D04624305BA96D8D
:105CB000EB6D00912F21D04AFEF7F4FE0146D0484B
:105CC000FBF74AFB297A4908FBF746FB7087305BF4
:105CD0002E2813D84E2000213152CC480160C748ED
:105CE000016040E01E2821D11E202DE0300500205B
:105CF000C0000020AC050020FF070000BF4804687A
:105D0000C04D20462946FBF7BAFA0028204600D1AC
:105D10002846FBF7E9FA4E257053BB492046FBF7AE
:105D2000BCFA00281FD1302070531CE0697B14227C
:105D30004A43824208D9A02100911E212F23FEF759
:105D4000B1FE4E217052305B6A7B14215143814277
:105D500009D8A94A0092A023FEF7A4FE01E046203C
:105D6000305A4E2170522424305D002800D0C7E004
:105D70004E25705BB17B50273A464A432F32824210
:105D800030D82720305C00282CD006972F462325BA
:105D9000705D00280ED1FCF7B7FADF49C87D0028F6
:105DA00002D100F061F9DC4901207055488F422191
:105DB0007052B17B4020D84D2B5AF05B4622AA5A34
:105DC0000092002901D0892100E02F218A4AFEF7A4
:105DD00069FE44217052F07C00283D46069F01D1A7
:105DE0000020F077705BB17B79432F31814200D87E
:105DF00082E0F07E052835D8784400794000874459
:105E00003305292C2F05C046FFF7FFFFFEF774FF6F
:105E100028E0049C059F03E0059FF5532846049C59
:105E20002F2100910021744BFEF73CFE4621705259
:105E3000F05BB9498B7B59004A19824200D377E65F
:105E4000691A8142039900D979E60299002900D1A3
:105E500077E67AE6FEF72CFF04E0FEF751FE01E05C
:105E6000FEF79CFF0020F076AB48807800281AD01F
:105E70002320305C00287FD02020A74A105C3C21E2
:105E80004143508D40183C38614902B2FF236833CA
:105E90009A4200DD40186222B05202B22F46782AA0
:105EA00014DCEF2314E04424002030532321715CE0
:105EB000002900D084E09949086201209649C875FC
:105EC000307B002877D0FDF761F979E00B46EF339E
:105ED0001B1866257353F02A01DC772100E0773127
:105EE0003D46081864217052B07B012801D1012081
:105EF0003055442000213152F07F0028864B01D0DC
:105F000007B0F0BD745B2F2C11D3707B1421C140FE
:105F10008248006A88420AD24420315A5A8F9142FC
:105F200001D232521146DA8F914200D932524820C2
:105F3000185A4427F55B854201D9F0530546B07DD8
:105F40000028069406D036207349085E854201DD9C
:105F500085B2F5537148446800212046FBF781F96A
:105F60000028CDD106983028CAD32046FBF7BCF9CB
:105F70002818F05307B0F0BD26200021315467489F
:105F8000016201276448C775307B002810D0B07BC0
:105F9000002800D070E746205F49085A897A4900F6
:105FA0004018133860217052FEF790FFF77763E7CF
:105FB000FCF7AAF960E7F07F002801D1FCF7A4F90B
:105FC000F07FF17C002998D0002896D0F15B7D20ED
:105FD0002746C4002046FDF717F90019F05380B298
:105FE0000C49884202D3FDF7D1F885E7FEF76EFF32
:105FF00082E7C046C0000020FF070000AC0500207B
:106000000087930300E0FF4400004042300100207D
:1060100098FEFFFFCF0700000320000203490A6833
:106020008243012000021018086070470C040048E9
:10603000014908607047C046342C0140014908609E
:106040007047C046382C0140014908607047C0467F
:106050003C2C01400B2800D30B2040000149087064
:106060007047C046F4050020F0B581B02325294CC7
:10607000605D002803D0FCF7D3FF01B0F0BD2026FF
:10608000254FB85D397F01290AD1401CB855C1B2EE
:10609000072902D30120B85520770121014009E0EA
:1060A000401EB855010603D10620B85501212177BD
:1060B00001218143F976EFF3108072B6E07F00286A
:1060C00002D1B85DFCF7C8F962B6FCF797F9E07C3D
:1060D000617B0143114805D08169114A914201D386
:1060E0000121F9752B21002262542D216254562181
:1060F0000C4A7A52B95D0C4A0C4B1360012262556E
:106100005E22A25A490008184285FCF789FF01B0B7
:10611000F0BDC04630050020C0000020AC050020C6
:10612000D107000010270000240000408813000061
:10613000F0B591B0012008908203029203460090CE
:106140004448416811434160416811400A910A99ED
:10615000990402680A430260006808400A9000241B
:10616000099407940220039005900A98402504950D
:1061700003260696384804A9FBF70CFB374F38680E
:106180003749014010313960300339688143396043
:1061900038682021884338603868A84338603868F8
:1061A0008021014339603002396881433960B0028F
:1061B000396881433960FF2000062A490A68824312
:1061C000B00710180860009DE80627490860109481
:1061D0000F94082001900E900D940C940B94E120E4
:1061E00040020A90214E3446083C0AA92046FBF79B
:1061F00067FDA8023168814331600920C002311F68
:106200000A6882430A6030682A2188433060206827
:10621000284320600299103138680840102804D1C2
:106220001348F8602036BE6003E01148B86020369D
:10623000FE6078680F4901400F48007808187860C0
:106240003868039908433860386801990843386012
:1062500011B0F0BD14100240000400481C000240C0
:10626000EFBFFFFF18E400E000E100E00838014064
:10627000EA0500200000FFFFB8010020F0B587B05C
:106280004425F74F785B5226B853F88F401CF887A7
:10629000F88E401CF886388F401C3887788E401C5A
:1062A0007886282006902724385D00284DD1787EF6
:1062B00000284AD10698385C002846D04620385A33
:1062C000002803D06820002139523EE06820395A66
:1062D000491C395289B2E34A914236D34C21795A4A
:1062E0001F2922D302950396012004943855B87CC7
:1062F00001281FD16A20385ADB494143C90C7976FD
:10630000DA4A538E4B4353844008B92814D30024EF
:10631000D84DD74EFEF714FD6420FCF745FD2E60E6
:10632000641C787E8442F5D306E00021395228208F
:1063300039540AE0FEF704FD2A20385C0028039E49
:10634000029D049C01D10020F874F87B00280ED037
:106350006C20395A491C3952EF4A5279142353435D
:1063600089B28B4203D2002139520120B877242010
:10637000385C3978014300D0C7E1049423200590AC
:10638000E54AD07D00284DD00598385C002849D0DA
:10639000FEF7ACFBFCF73EFFDF49C97E002912D0B7
:1063A000002812D026203A5C521C3A54D0B2DA4A65
:1063B000527F904216D82B20385C0028D64A31D123
:1063C0002D20385C18E0002803D02D20385C401CBC
:1063D00009E026203A5C521C3A54D0B2CE4A527F91
:1063E00090420ED900202D22B8542B22BA5C002AEC
:1063F000C94A17D100290BD0917FC0B288420BD86F
:1064000010E02B20385C0028C34A0BD12D20385CCB
:10641000D17FC0B2884205D92B200121395400F028
:10642000C1FABD4A388F152800D2E5E00396002056
:10643000009038870598395CB87D00280295019155
:1064400042D0002940D04024385F6321C943D28C18
:106450004A431018B14988620A6C831A0D6B4A6B63
:106460008E6B5A43CA6308644543AB198D6CAB42CB
:1064700000DB2B466D42AB4200DC2B468B63D2180F
:10648000CB6A58431018CA6C904200DB1046524247
:106490009042029D00DC10464864FAF71AFFA049BA
:1064A000FAF7A1FEFAF720FF9B4BD98E091A0AB220
:1064B000185B824200DB084602B2595B8A4200DC6C
:1064C0000146D9861A460199787B002845D00029D3
:1064D00043D05620105A118D401A904908658A6E93
:1064E000831A8C6DCA6D0D6E5A434A6688664443A2
:1064F00063190C6FA34200DB23466442A34200DC15
:1065000023460B66D2184B6D584310184A6F9042C1
:1065100000DB10465242904200DC1046C866FAF793
:10652000D8FE7F49FAF75FFE01467E4C6068FAF7B5
:1065300001FE06467C4D2946FAF7BDFE002800D133
:1065400035466560002628463146FAF7B4FE002835
:10655000029D714A019900D16660787D0028039EF2
:106560004AD0002948D0788F6E4E716A081A6B4C59
:106570002060A169421AA368E168256951436161FD
:10658000A06143435A19236A9A4200DB1A465B42D0
:106590009A4200DC1A462261891862685043081842
:1065A000616A884200DB08464942884200DC0846AE
:1065B000E061FAF78EFE5A49FAF715FE0146306897
:1065C000FAF7B8FD0646594D2946FAF774FE002839
:1065D00000D135462846009E3146FAF750FE002885
:1065E00000D12E464F480660006A6328039E029D34
:1065F000494A01D800202061D07B0028049B4AD062
:10660000B88E798E81420CD9002078864220385A83
:1066100095281AD802245475B95B0A1AA24208DCDC
:1066200031E0002454754220385AB95B0A1AA2425C
:1066300029DD0019B8535620374A105AB9214900AC
:106640008231884209D8002124E0FF21F631354A01
:1066500092698A4210D30A240FE001211AE0C04651
:1066600030050020214E000089050000C0000020F8
:10667000AAAA000000300040069C27494C75B95B6F
:106680000A1AA242D5DC421A0021A24201DD001BF7
:10669000B853214A9175FC5C002C11D00598385CE8
:1066A00000280DD04E20385A302809D3BE5B555BE8
:1066B000304668434621515AFAF72FFE441C1AE02F
:1066C000F87F00280ED06020385A555B6843462179
:1066D000545A2146FAF721FE201A441C6E203C52DF
:1066E000BE5B0AE0BE5B555B304668434621515AAB
:1066F000FAF713FE44436E203C5242203E520C48AF
:106700000560A1B28160C16001615620395A491CFF
:10671000395207B0F0BDC046C00000203001002053
:1067200000401C46AC0500200000164300E0FF447A
:106730002C2C014070B54E4800784E4C2178002931
:106740000BD0002809D04D480078002810D0FEF763
:106750002FFC54480221017070BD47490978012976
:106760000CD0002924D1FCF743FBFEF721FC70BDBF
:10677000FEF722FF4B480121017070BD00280CD0AC
:106780003E480078002814D03D480088FEF7ACF859
:10679000FBF7BEFFFEF70CFC70BD3A4D28780128D0
:1067A0000AD03948007801280ED0207800281DD062
:1067B00070BDFEF701FF70BDFBF7AAFFFEF7F8FB07
:1067C000314800780128F0D1FCF73AFD002803D0C9
:1067D0002E480321017004E02C4802210170FCF7CF
:1067E00073F9FEF7E5FB20780028E1D128490A88F3
:1067F000284C2878002816D06079072813D8062A54
:1068000011D3431C637124480568C06F401B656940
:1068100040196061082B06D1C309C008C51AA581BB
:10682000C0181A4B98801D4D2888002805D1637820
:10683000002B02D1501C088070BD00260E80184924
:106840008842B5D36189FCF7DFFC322801DC20786F
:10685000461C2670F0B2332807D3E078002804D114
:10686000FEF74EF90120000220802888608170BD6B
:106870005005002057050020580500201005002075
:10688000D0050020590500205A05002020010020D5
:106890007C050020140500205C0600207605002001
:1068A000DD0500003905002070B53D490A783B4CF4
:1068B00020680C239843002A03D00822104320604C
:1068C00004E00422104320600220A062032213058A
:1068D0000920C00605689D4301235E05AD190560CA
:1068E00025681D430226B5432560A361940405680D
:1068F000A5439C042C1904605C0284620C78950307
:106900000168A943002C03D0DC032143016004E0AB
:106910009C032143016080218162110402688A4343
:1069200059045118016070BD70B51C4B18680421E2
:10693000014308208143196002249C6103210A0558
:106940000920C0060568954301221605AD190560AA
:1069500095028562124D2E781D688D43002E02D05F
:1069600025431D6002E015431D609A628B04046894
:106970009C43D304E31803608B0304689C43930394
:10698000E318036080238361090403688B431104C7
:10699000591801601102816270BDC04600040048B0
:1069A000C2000020F0B583B0454D28685E21454EF9
:1069B000029170525624444B195B03224A4380B221
:1069C000101880080094185300272F6084B2997E15
:1069D0002046FAF7A2FC4A2170526108081A542195
:1069E000705280B23949096A0A2913D22968384994
:1069F00008602024344D285D297F012917D1401CCF
:106A00002855C1B2072902D301202855307701212A
:106A1000014016E029688142E9D229688142E6D224
:106A200029688142E3D229688142F3D3DFE7401E1F
:106A30002855010603D1062028550121317701216F
:106A40008143E976EFF3108072B6F07F002802D11F
:106A5000285DFBF701FD62B6FBF7D0FCF07C717B93
:106A600001434A1E08469041002906D0174989690A
:106A7000184A914201D30121E9752B2177542D2128
:106A80007754262101977754104F396A491C39628F
:106A9000029AB25A2B5D5B00DB195A85002807D099
:106AA00014290BD30098285A0A49884202D305E0DA
:106AB0001F2903D30198E875FCF7B2FA03B0F0BDC3
:106AC0002400004030050020C0000020AC0500205C
:106AD0002C200040D107000002E008C8121F08C1A6
