:020000040800F2
:10100000900C0020D1100008E12700085D180008AE
:1010100000000000000000000000000000000000D0
:10102000000000000000000000000000D5280008BB
:101030000000000000000000E3270008D728000897
:10104000E3100008E3100008E3100008E3100008B4
:10105000E3100008E3100008E31000084918000836
:10106000E310000829170008D9170008B516000872
:10107000A9140008E3100008E3100008E3100008BA
:101080002D2A0008552A0008E3100008F12900085D
:10109000E3100008052A0008E3100008E310000828
:1010A000E3100008E3100008E3100008712A0008AC
:1010B000E3100008E3100008E31000080348854629
:1010C00000F0B4F900480047DD420008900C002011
:1010D0000448804704480047FEE7FEE7FEE7FEE7D6
:1010E000FEE7FEE7E1290008BD10000803460B43B8
:1010F0009B0703D009E008C9121F08C0042AFAD2CE
:1011000003E00B780370401C491C521EF9D2704753
:10111000D2B201E00270401C491EFBD2704700228F
:10112000F6E710B513460A4604461946FFF7F0FFE6
:10113000204610BDF8B502464A40D40F42004B008D
:1011400052085B089A4202D20246084611464A00FB
:1011500023D0C30D4A00DDB2120EAD1A202D35DAB0
:1011600049020126490AF6058A19002C00D052428C
:1011700020214F1B1146B9402A411018C20D9A4236
:1011800021D0002C17D0012D08DCDA05801AD20FEF
:101190008019D207DBB200F00FF9F8BDDA05801A2A
:1011A000012340001B06C01880185A428018CA0F3D
:1011B0001043490007E04908C2071143DA05801AC5
:1011C00080194008801800F0EFF8F8BD6100012296
:1011D000511A001BF7E70122D2075140AAE701226A
:1011E000D2075040A6E770B502464A40D50F4000EE
:1011F0004A00ED0740085208002814D0002A12D0F7
:10120000C40DD30D41020120C0055202490A520A01
:10121000E41A091812187D34914201D3641C00E0CD
:101220004900002C01DA002070BD0023914201D357
:10123000891A0343400849000028F7D100290AD041
:10124000914202D10121C90705E0914201D2012159
:1012500001E00121C943E005C018401900F0A4F8DD
:1012600070BD0122D207002800DB101A002900DB24
:10127000511A814201D80120704700207047012295
:10128000D207002800DB101A002900DB511A814226
:1012900001D201207047002070470122D2070028A8
:1012A00000DB101A002900DB511A814201D3012012
:1012B0007047002070470122D207002800DB101A77
:1012C000002900DB511A814201D90120704700201A
:1012D0007047C217C10F504010B54018CA07962377
:1012E000002100F069F810BDC20F41004002012347
:1012F000400ADB05D207090EC0187F2901DA002059
:101300007047962903DC9623591AC84001E09639A4
:101310008840002AF4D04042704770B50446002946
:1013200003D000202022012310E0002801D000205B
:10133000C043C046C0460DE02546D5408D4205D38A
:101340000D469540641B1D46954040191546521E9A
:10135000002DF1DC214670BD70B5002504462E46F7
:10136000002911D0002C01DA01254442002901DABC
:10137000012649422046FFF7D0FFB54200D0404247
:10138000002D00D0494270BD002C02DA0121C907AE
:1013900002E0002C00DD03490846C046C046214655
:1013A00070BD0000FFFFFF7F002904DA401C4900E8
:1013B00001D140084000704770B40024050C05D1ED
:1013C0001024000402D1002921D01124050E01D1DE
:1013D00000020834050F01D10001241D850F01D141
:1013E0008000A41C002801DB4000641C002908D0F8
:1013F00020252E1B0D46F540A14000D00121294398
:10140000084301061B1B000ADB1D02D5002070BC2F
:101410007047DB05181880180029F8DA401C4900CD
:10142000F5D170BC4008400070470000064C012513
:10143000064E05E0E36807CC2B430C3C984710347C
:10144000B442F7D3FFF73EFE90760008B07600086E
:1014500070B58C180578401C6B075B0F01D10378C1
:10146000401C2A1106D10278401C03E006780E7059
:10147000401C491C5B1EF9D12B0705D40023521ECA
:101480000DD40B70491CFAE70378401CCB1A921C50
:1014900003E01D780D70491C5B1C521EF9D5A1425A
:1014A000D8D3002070BD000080B501229104EA4825
:1014B00043685B030BD403680B4206D151044268B6
:1014C000920304D402680A4204D0016000E0416043
:1014D00002F0A4FC80BDC04605488188054A118001
:1014E0004188054A11800088044908807047C04639
:1014F00018050020DC040020E0040020C6040020C1
:10150000F0B597B000260D960C960B960A960996A4
:1015100001231A0506925E48C1681143C160C16883
:1015200011401191119901680093194301600068FD
:1015300018401190032708971198202004900790D5
:1015400005200590040707AD2046294600F0E8F97C
:101550000B960897102007902046294600F0E0F9E6
:101560004C480168059A1143FA22914301604A48A8
:1015700001684A4A0A4002603B4602973903026802
:101580008A43009F79030591511801600168049A0C
:10159000114301600168402291430160016880228B
:1015A0000A430260190202688A43790251180160F5
:1015B0009A02049201689143BA028918016038487E
:1015C0000168384A0A403849511801601696159743
:1015D000149613960F200390000312901196334C2B
:1015E00020461438019011A900F054F9201F016819
:1015F000B94301601121490602688A4379065118EE
:10160000016079052246083A13680B4313600168AC
:10161000274A0A40F904511801602068042528432C
:101620000299C94301402160206870210143216073
:10163000204610380168A9430160016808229143DF
:10164000016010960F960E960DA9019800F008F90A
:10165000606928430B218843606138032168814316
:101660002160606950210143A020814361612068AD
:1016700005998843206003980002616981430498BA
:1016800008186061206806990843206017B0F0BD13
:1016900034100240040802401C000240EFBFFFFF6C
:1016A00008270140FFEF3F4E001000B01424014016
:1016B000FFFFF73FB0B5194801466C390A680A6860
:1016C000920216D40968090212D50121CA4303689F
:1016D00013400360CB03124C656C9D436564236823
:1016E000134023600F4A0023137068380905016016
:1016F000B0BD01466839012213050B60D143036870
:101700000B400360D003064A536C83435364106854
:1017100008401060034800210170B0BD6C00024019
:10172000004401409006002010B5244800780028AD
:1017300012D02148007800280ED0214801680124E9
:10174000214301600021416021480078002827D012
:1017500004F038F8022026E01948011F0A685207F1
:101760000CD5184A1278002A08D0174A13680224A8
:101770001C4308239C431460042202600A689207F9
:1017800005D40968090701D50121016010BD016870
:101790000124214301600021416005F05FFC04E069
:1017A00004F05CFB20460B490870E00307490A6817
:1017B00002430A6010BDC0468C0400209304002040
:1017C0000400024096040020204401400818024012
:1017D000290800207504002010B5184C20688006E8
:1017E0000FD42068000613D42068800515D4206823
:1017F000000505D5012001026160216B8143216351
:1018000010BD10206060FFF767FE20680006EBD572
:101810008020606020688005E9D5012001026160B8
:10182000216B8143216306480078052802D103F02B
:10183000B3FF10BD03480021017010BD000002403D
:10184000710400208A04002080B50120C0030249F1
:10185000086003F02BFF80BD0C180240FEE700007B
:101860008268D20712D1C268094B13404A681A43F2
:101870008B681343CA681A43C26003229207036944
:1018800093430968194301610020704701207047A4
:10189000C73FFFFF10B58268D20713D1C26892021A
:1018A000134A11D54B68F02B0ED1C36813400A6858
:1018B0001A43CB680C694969134323430B43C36044
:1018C000F0210FE0012010BDC36813400A681A43DD
:1018D0008B681343CA681A430B6913434A691A4356
:1018E000C2604968826A0A438262002010BDC04615
:1018F0003CC2FEFFF0B50268002A0DD40268074B17
:101900001340F4C909681A4322432A4332433A4335
:101910000A4302600020F0BD0120F0BD0F7C00FEF4
:10192000F0B584B00B68002B49D0002501910090E0
:1019300010E07F437F433B460F2159438E435D4375
:101940003543009805510199039D6D1C0B681C4699
:10195000EC4035D00122AA401A40F6D00395144637
:1019600054434B6826465E43032767430568BD43DF
:1019700035430560FE4302935D1E2346012D05D8C5
:101980008D685D43876837402F4387600D695D43ED
:10199000C76837402F43C760029D022D039DD4D1F5
:1019A000170A05D024244D690659002FC1D104E03F
:1019B00020244D690659002FBBD15B43BCE70023AF
:1019C0004A68521E012A05D8C968594342689A4399
:1019D0000A434260002004B0F0BD000080B57D21C4
:1019E000C900FFF79AFC401E034948600020886048
:1019F0000520086080BDC04610E000E070B50446D8
:101A0000904E351F2868382101409048082921D080
:101A1000102919D1316803220A408B49032A00D0CA
:101A20000846022A00D0014630684004400E484370
:101A300031684906490F491CFFF76FFC3168490FAF
:101A4000491CFFF76AFC05E00C3E30688004410F3A
:101A50007D48C8402060296889093C220A407D49A8
:101A600089581F221140C84060602968890A1C23D8
:101A70000B407749C9581140C840A06070BDC046AE
:101A8000B0B50C2825D0032851D16E4CA06C032191
:101A900008400A048018704A904251D06F4A904220
:101AA00047D06F4A904251D1201F0068382202402F
:101AB0006648082A00D1C4E0102A00D08BE02268D2
:101AC0000A406149032A00D00846022A1FD0014675
:101AD0001DE05C4CA06C0007800F032830D002286A
:101AE00027D0012854D1201F0068382101405748D1
:101AF000082900D1A5E010296DD1216803220A40F0
:101B00005149032A00D00846022A00D00146206825
:101B10004004400E484321684906490F491CFFF71D
:101B2000FCFB2168490F491CFFF7F7FBB0BD002003
:101B3000B0BD0C3C20684005C11743480840B0BD0B
:101B40000120C103206D80030840B0BD251F286817
:101B5000382202403D48082A4AD0102A42D1226841
:101B60000A403949032A00D00846022A00D001461B
:101B700020684004400E484321684906490F491C2B
:101B8000FFF7CBFB2168490F491CFFF7C6FB2FE08D
:101B9000251F2868382101402C48082940D01029E9
:101BA00038D1216803220A402749032A00D0084679
:101BB000022A00D0014620684004400E48432168B4
:101BC0004906490F491CFFF7A8FB2168490F491C2A
:101BD000FFF7A3FB24E00C3C20688004410F1A4867
:101BE000C840B0BD0C3C20688004410F1648C84076
:101BF00029682A68920A1C231340154AD2581F23C9
:101C00001A4089093C240C40124909591940C8401E
:101C1000D040B0BD0C3C20688004410F0A48C84049
:101C200029682A68920A1C231340094AD2581F23A4
:101C30001A4089093C240C40064909591940C840FA
:101C4000D040B0BD0C1002400024F40000127A0015
:101C50006074000820740008030003000200030001
:101C600001000300014908607047C046F0000020F1
:101C7000B0B51F22D30234C99C433F239B029D432E
:101C80000B782B4323430F242403A2431A4303233B
:101C90009B034C689C4314434A88154B13402343D1
:101CA0000A6A1A433D4B0C39984202D04264002024
:101CB000B0BD104B1A404B690F4C1C4014438A694D
:101CC0000E4B13402343232212064C6A94431C43B9
:101CD00011225206CB6993432343012252070C6A17
:101CE00094431C438A6A224342640020B0BDC0462C
:101CF000FF1F0000FFFF00CCFFFF0FCCFFFF0FDC3A
:101D0000B0B5056801229407A04205D0234B984244
:101D100002D0234B984217D170239D434B682B432D
:101D2000204DA84214DD204CA04206DC1B4CA042F2
:101D300016D0204CA04213D02EE01C4CA0420FD055
:101D40001B4CA0420CD027E02B46164DA842EADCE3
:101D5000A04205D0124CA04202D0174CA0421BD189
:101D600003242402A343CC681C4304608B68C36231
:101D70000B888362CE4BC3180A24E341072B06D895
:101D800014469C40E1231C4201D0097C0163416957
:101D9000114341610020B0BD1C46E6E7002C014024
:101DA00000040040FF2B0140FF4301400048014078
:101DB000004401400040014000200040F0B584B0E4
:101DC0000123BA4CA1424EDC012900D18BE010293D
:101DD00000D1C3E001273C02A14200D080E0016AAB
:101DE000A1430162B749491C13691B020B4003213F
:101DF00002910902046A8C431C43116803915168E3
:101E00000B022343AA4941180A24E1414568C469E9
:101E100007291DD88F40E1210F4219D0029F3903B5
:101E20008D43516901919169D66900960901A44ECB
:101E30000E402E4300994D013543B9028B43A24910
:101E4000091D019EB6020E401E4391688B0233436A
:101E5000456099490C4003990C43C461D168C16342
:101E6000036200233CE001242503A94200D1B4E031
:101E70002504A94200D1E2E02505A94230D1016A3A
:101E8000A94301628A4943180A21CB41016A1568B6
:101E9000039555681669476D072B11D80291314695
:101EA0002E4625469D40E1231D4235460E460299A9
:101EB00006D0A30444689C4393699B022343436078
:101EC0007C4B1F40039B1B023B434365D268C265AA
:101ED000032212059143720852050A432905DBE0EB
:101EE000184604B0F0BD0127F943036A0B400362B2
:101EF00013690B40046A032102918C431C4316684A
:101F0000516821436A4BC3180A24E3414568846938
:101F1000072B1BD803963E469E40E1231E4214D059
:101F2000029B1B029D437B02566902969769D66904
:101F30009F432F4375003D430C239943029B5B084D
:101F4000DB000B43916889001943039E45605A4B9F
:101F50001C4034438461D26842639EE0016A1023CE
:101F600099430162016A3023994313695B085C015C
:101F70000C4317685168090121434D4C06190A2486
:101F8000E64145688469072E1ED803970127B740AC
:101F9000E126374217D00326B602B54353690293B0
:101FA0009769D369BF002646474C3C402C43DD006F
:101FB00025433446C0239943029B5B08DB010B4356
:101FC000916889011943039F45603C4B1C403B02CB
:101FD00023438361D26882635FE0016AA94301629F
:101FE000334945180A21CD41016A436816680296B3
:101FF000566817690397C769072D55D80196264675
:10200000AE40E1252E424DD0A403A3439469A40120
:102010001C43019E4460294B1F40029B1B023B4313
:10202000C361D2680264032212039143244A10322E
:10203000039B1B0313400B43310319432DE01E4F39
:102040007337016A39400162194946180A21CE41A5
:10205000016A15685368039313690293436D072E51
:1020600009D8B440E126344205D044683C40966922
:10207000360226434660104CE41C23402B43436544
:10208000836DD2688265032212049143029A52083A
:1020900052040A43039909041143016200231846BC
:1020A00004B0F0BD1C46B4E71C46B3E7FF0F0000C8
:1020B00000D4FEBFFF8FFFFE8CFFFEFFFF8CFFFEF4
:1020C000F0DFFFFFFFFDFFFFFCF7FFFFF0B583B080
:1020D00004460068C00724D10D46206833490140FA
:1020E000A86808432969014368690843E96901430D
:1020F00021600320010362688A43E968114361603B
:102100000002A1688143A8690843A060012628480D
:1021100084420ADC2948844216D0294884420CD0E3
:102120003BE00126304603B0F0BD2248844204D093
:102130002148844231D1032007E06846FFF75EFC66
:102140000298002805D128E00C20FFF799FC002810
:1021500023D06F68002F20D0296800260B291CD8B7
:10216000890018A25158FFF7D8F80121C903EA697C
:102170008A420BD17908400040183946FFF7CDF864
:102180001C4901400007400F401805E0790840183D
:102190003946FFF7C2F880B2E060E06A0F21884359
:1021A00029880143E162304603B0F0BDF369FFEFD7
:1021B000FF4B0040004C004000380140004400400C
:1021C0000048004001000000020000000400000080
:1021D00006000000080000000A0000000C000000DB
:1021E00010000000200000004000000080000000FF
:1021F00000010000F0FF0000F0B58FB00027089745
:102200000797069705970497012200920292EC49DE
:10221000086810430860086810400E900E9808681F
:10222000022630430860086830400E900320019079
:1022300003900E980520040702AD20462946FFF7BB
:102240006FFB069701980390029620462946009D51
:10225000FFF766FBDA49C8682843C860C8682840A9
:102260000E9068050D900C970B9780200A906802DD
:1022700009900E98264C08A92046FFF73BFB0198D1
:10228000800421688143216060686F490840606074
:1022900020680840206060686C49084060602068E1
:1022A000084020600E976A4800686A49FFF735F8D1
:1022B000C82141430E910E98002817D00E98401E59
:1022C0000E900E98002811D00E98401E0E900E9879
:1022D00000280BD00E98401E0E900E98002805D0B6
:1022E0000E98401E0E900E980028E7D15A4841687B
:1022F000084A114041600168114001605848016876
:10230000FF22914301602803B24908600FB0F0BD7D
:1023100000020140FFFFFDFFF0B58FB000270897D6
:102320000797069705970497A54A10680121019120
:1023300008431060106808400E900E981068022143
:1023400008431060106808400E900326039604208E
:1023500002900E980520050702AC28462146FFF79B
:10236000DFFA069703960820029028462146FFF7D9
:10237000D7FA069703968025029531482146FFF744
:10238000CFFA8F4AD06801990843D060D0680840DE
:102390000E9048050D900C970B970A950D46480234
:1023A00009900E98274C08A92046FFF7A3FAB0041D
:1023B0002168814321602068234908402060201F54
:1023C00002680A4002602168204A114021600168C9
:1023D000114001600E971E4800681E49FEF79DFFE0
:1023E000C82141430E910E98002817D00E98401E28
:1023F0000E900E98002811D00E98401E0E900E9848
:1024000000280BD00E98401E0E900E98002805D084
:102410000E98401E0E900E980028E7D10E48416895
:102420000E4A114041600168114001600C4801688A
:10243000FF22914301602803664908600FB0F0BD98
:102440000004005004020140FFF7FFFFFFBFFFFF41
:10245000F000002080841E0080180240FFFFFBFF78
:102460000CE400E00E4908460C380E4A02600E4AA1
:1024700002600A46083A002313600B1F0B4A1A60D9
:102480000B685B0708D00B685B0705D00B685B0720
:1024900002D00B685B07F3D14A60054901607047C1
:1024A0000C300040CCCC000055550000FF0F000060
:1024B000AAAA0000F0B58DB000240B940A940994E8
:1024C0000894079401256804C049CA680243CA6099
:1024D000CA680240019201980868284308600868A9
:1024E00028400C900594049403940C9802200090CA
:1024F00002904026019605200690000701A9FFF7EB
:102500000FFA304801682C220A43D3218A43026023
:102510002D4801682D4A0A40026003210A0303681E
:1025200093430360026820239A4302600268B24327
:10253000026002688026324302600A020368934305
:102540002A029A180260890202688A43E902511835
:102550000160FF2000021E490A6882430A60680584
:102560001C49086007A90C800A941B48099008942C
:102570001A4F3C46183C2046FFF7C2FBF043216847
:1025800001402160394614390A6870239A430A6071
:10259000394610390A6802400A60386828430099B1
:1025A0008843386038680C21884338603868F021E7
:1025B00088433860B8680A210143B9600DB0F0BDA6
:1025C000341002400008024008000240EFBFFFFF45
:1025D00014E400E000E100E0FFFF000018440140C7
:1025E000F0B5A7B000252595249523952295219532
:1025F00010950C950124E3020693744AD0681843A1
:10260000D06021A90D740D80D068184019907048D1
:10261000239019986F4E3046FFF772FB3068802187
:10262000019108433060B069082105910843B06109
:102630001A951B951C951D951E951F95209560203C
:10264000199019AF304621463A46FFF7B7FB0420F0
:10265000C1430491B0690840B061B069069908436C
:10266000B0611B951A95102130463A46FFF7A6FB3C
:10267000B06959490840B061F06905990843F061B3
:102680001B951A952102029130463A46FFF796FBB8
:10269000F06904990840F061F06906990843F06117
:1026A0001B951A95210330463A46FFF787FBF069E0
:1026B00049490840F061706D0599084370651B95A4
:1026C0001A95210430463A46FFF778FB706D04995D
:1026D0000840706570687021884370600F200005A5
:1026E0007168814371600DA9CD813C200873B06889
:1026F000019FB843B0601895179516956006159020
:10270000149513951295600311900F950E950D95E4
:102710003046FFF7ADFA2D49086820430860086885
:102720002040264626902698086802242043086008
:102730000868204026900C940B950A9509950894FA
:102740000797269805200007069007AF3946FFF740
:10275000E7F80C940B950A9509950894039607964B
:102760001E483946FFF7DCF80C940B950A9509953D
:102770000894F003079019483946FFF7D1F80C94F4
:102780000B950A950995089402980790069E304685
:102790003946FFF7C5F80C940B950A9509950894EE
:1027A00003984002079030463946FFF7B9F80C9479
:1027B0000B950A9509950894039880020790304676
:1027C0003946FFF7ADF827B0F0BDC04634100240DF
:1027D000B80B0000002C0140FFFBFFFF000400507D
:1027E00070477047F0B581B0354801680126B143A4
:1027F00001602024334D285D297F01290AD1401C26
:102800002855C1B2072903D32E552F4806773046E5
:10281000304009E0411E2955080603D106212955FB
:102820002948067730468843E876EFF3108072B681
:10283000254FF87F002802D1285D00F0A1FA62B68A
:1028400000F03EFAF87C797B0143204807D0C0684D
:102850007D210901884202D9EE75002002E0E97D60
:10286000484248412B2100227A542D217A545C2180
:10287000795A5622AB5A03265E4373189E08AE520D
:102880009A03520CEB7973439B09D21A5226BA531E
:102890002A5D52000D4C121951846361002805D144
:1028A000A0690B49884207D901B0F0BD01F084F856
:1028B000A06907498842F7D8401CA06101B0F0BD6B
:1028C0000C200040100000206C040020E8040020D0
:1028D0000F2700007047704770B53C4A136802200C
:1028E000034305218B431360126801263202384DE1
:1028F0002B6813432B60B2022B68134208D12B685C
:10290000134205D12B68134202D12B681342F3D036
:102910002A6E32432A662A6E920708D42A6E9207DC
:1029200005D42A6E920702D42A6E9207F3D5EA687C
:10293000284B1340284A9A18EA6032062B68134342
:102940002B603207EB681343EB6072062B6813426F
:1029500008D12B68134205D12B68134202D12B6892
:102960001342F3D00F221202AB689343AB60AA6804
:1029700002438A43AA60A9683820014010290BD07D
:10298000A9680140102907D0A9680140102903D087
:10299000A96801401029EED107200003A9688143EE
:1029A000A9600E4C2046FFF719F82046FFF75AF9A8
:1029B0002046FFF757F9B005696D8143696503202B
:1029C0008007696D8143696570BDC0460020024083
:1029D000001002408C80FF1F020800200090D003EE
:1029E0000120C006014908607047C04608ED00E0BC
:1029F00080B5FFF7F7FE0120C0430149086080BDA4
:102A0000102000400220C04307490A68920703D4FF
:102A10000A68D20704D1704708600A68D207FAD062
:102A2000401C08607047C046104401400220C0436B
:102A300007490A68920703D40A68D20704D170478D
:102A400008600A68D207FAD0401C08607047C04688
:102A50001004004080B505480168C90704D0012171
:102A6000C943016004F09EF880BDC04610100040CC
:102A700080B508480168C9060AD51021416006489A
:102A8000016801229143016003F05AFA02F084FECA
:102A900080BDC0461C38014030000240B0B582B055
:102AA000002001900090404C2068C0077AD1206837
:102AB0003E49014001252807081820603C4800686D
:102AC0003C49FEF72AFC400001900198002817D0ED
:102AD0000198401E01900198002811D00198401ED5
:102AE0000190019800280BD00198401E0190019898
:102AF000002805D00198401E019001980028E7D1D8
:102B00006068032108400090606888436060226824
:102B1000294802401218183222602268002A08D57B
:102B20002268002A05D52268002A02D52268002AD8
:102B3000F3D4009A63688B4313436360402101918F
:102B40000199002917D00199491E01910199002985
:102B500011D00199491E0191019900290BD00199C9
:102B6000491E01910199002905D00199491E019141
:102B700001990029E7D121680140294321602046BD
:102B800008380168C90708D10168C90705D101687B
:102B9000C90702D10068C007F1D0E80507490A68F3
:102BA00002430A6002B0B0BD08240140E8FFFF6F95
:102BB000F0000020400D0300E8FFFF7F08270140E0
:102BC000B0B53D4B18683D4908404018401C18609E
:102BD0000120C103996203221405052109070D682C
:102BE000A54304052C190C6084028C621C68044304
:102BF0000225AC431C60986293040C689C438304D8
:102C0000E3180B6043028B6293030C689C438303BD
:102C1000E3180B6080238B6212040B689343020459
:102C20009A180A6000028862B0BDC046F0B5214B18
:102C30001E78214D2A68214C22400120C103002E1C
:102C400003D0C40712192A6003E0641C22432A60DF
:102C5000A96203242605052212071768B743460513
:102C6000BE1916601F782E68A643002F03D00227D6
:102C70003E432E6002E006432E60A862A50416685B
:102C8000AE43C504751915601D78A6031368B343D8
:102C9000002D02D00B43136004E081030B4313604B
:102CA00080219162210413688B434004181810603E
:102CB000F0BDC0461200002000040050FFFFFF3F9F
:102CC000F0B5274B1D780520C1012648264A042D62
:102CD00001D0012D0AD101246404244D6C60041F2D
:102CE000266816400E4326602C601D780124A4043B
:102CF000052D01D0022D09D11C4D6C6006681640CF
:102D00000F46103F3743076028601D78062D01D01D
:102D1000032D05D1154B11C3036813400B4303600A
:102D20001348037813481449144A002B0BD0036846
:102D30000B4003600168114001600C49496842681A
:102D40000A434260F0BD094B5B6804681C430460A1
:102D500043681340436042680A404260F0BDC04689
:102D600030000020040201400FFCFFFF00000020A3
:102D70002B00002000180240FFFFFBFFFFFFFDFFBC
:102D800070B5401E052800D957E1C0467844007947
:102D90004000874402103E6C8BAAA8480378A849DB
:102DA0000868A84A1040002B00D1ABE00122D207EE
:102DB00080180860ACE0A24C2068A2490840401886
:102DC000401C20600120C303A362032215050521D6
:102DD00009070E68AE43050575190D6085028D6201
:102DE000256805430226B5432560A06194040D685B
:102DF000A54384042C190C6044028C628F4C257806
:102E000096030C68B443002D00D1AAE01C430C606B
:102E1000B2E08B4C20688B4908404018401C206071
:102E20000120C303A36103221505052109070E68CC
:102E3000AE43050575190D6085028D622568054351
:102E40000226B5432560A06294040D68A54384045E
:102E50002C190C6044028C62784C257896030C681F
:102E6000B443002D00D182E01C430C6084E0744B1D
:102E70001868744908404018401C18600120C103BC
:102E8000996103221405052109070D68A54304056E
:102E90002C190C6084028C62684C25781C68944361
:102EA000002D70D002252C431C606FE0644B186825
:102EB000644908404018401C18600120C103996211
:102EC00003221405052109070D68A54304052C19E3
:102ED0000C6084028C62594C25781C689443002D48
:102EE00063D002252C431C6062E0544803785449A7
:102EF0000868544A1040002B71D00122D207801874
:102F0000086072E0521C104308600120C003886210
:102F1000032213050520000704689C4301235D0577
:102F2000641904600C681C430225AC430C608B617F
:102F3000910404688C43990461180160590281620C
:102F4000910304688C4399036118016080218162B8
:102F5000110402688A431904511801601902816240
:102F600070BD83031C430C6080238B6204E08303E9
:102F70001C430C6080238B6212040B689343400453
:102F80001818086070BD04431C60986293040C68B4
:102F90009C43C304E3180B6093030C689C438303B6
:102FA000E3180B6080238B6210E004431C6098627E
:102FB00093040C689C43C304E3180B6093030C68F0
:102FC0009C438303E3180B6080238B6112040B681E
:102FD000934302049A180A600002886270BD521C72
:102FE000104308600120C0038862032213050520F6
:102FF000000704689C4301235D05641904600C68A4
:103000001C430225AC430C608B62910404688C4322
:1030100099046118016059028162910304688C432C
:1030200099036118016080218161110402688A435B
:103030001904511801601902816270BD120000204C
:1030400000040050FFFFFF3FF0B58DB0DF4801687E
:10305000C56F6A1ADE4E728193B25A093281DE4C14
:103060002488A34200D80EE1DA4C2488A34200D37E
:1030700009E10A954368591A012500230C939142EE
:10308000294600D80C990991F1618168C368591AE1
:103090009142294600D80C9908913162016943692F
:1030A000591A9142294600D80C9907917162816999
:1030B000C369591A9142294600D80C990691B16208
:1030C000016A436A591A9142294600D80C99059120
:1030D000F162816AC36A591A91422F4600D80C9F47
:1030E0003763016B436B591A91422C4600D80C9CF4
:1030F0007463816BC36B591A9142294600D80C99AD
:103100000B91B163016C436C591A9142294600D866
:103110000C990391F163816CC36C591A9142294651
:1031200000D80C9902913164016D436D591A914296
:10313000294600D80C9901917164816DC36D591AAB
:103140009142294600D80C990491B164016E436EF6
:10315000591A9142294600D80C990091F164816E68
:10316000C36E591A91422B4600D80C9B3365016FF0
:10317000466F711A9142294600D80C99944E716598
:10318000806F0A9E301A904200D80C9D9048856549
:103190000998059A424003984240D000089A574047
:1031A000029A5740BA0017180798444001984440C3
:1031B00064000B98069A50400B900098C0009A004B
:1031C0001018490046188548007885490978014358
:1031D0000DD100F0FDFC002809D07D490879401C84
:1031E0000871C0B2652802D301207C4908707019AB
:1031F00039190B9B049A5340784A1278002A01D05F
:103200000F225040724D1943884239D11C353CCDB4
:103210006F48C66A6E48076B6D48416B6C48806B9F
:1032200092025B02134322021A43EB011343B201E1
:10323000674E1A437B01134309011943C000084339
:1032400034463C341ECC8D000543510029431943BC
:10325000CB4A00201080B289521CB281012C02D1CD
:10326000604A0123137030290FDB7278002A0CD0DA
:103270005D4800220270C6480180B2700DB0F0BDFA
:10328000E889401CE8810DB0F0BD4A1E2E2A06D800
:1032900055480170BE4800220280C8B20EE00029E5
:1032A00002D05148007809E03178012901D100218C
:1032B00071704D490870B6490880B0700028E2D09E
:1032C0004A4909780029DED1454909780029DAD030
:1032D000F178884202D00021B170F070052805D342
:1032E000B178491CB170C9B20629CCD30025B5709C
:1032F000411E142900D962E07944097949008F44BC
:103300000A14181C205E242B32365E3B45505E5E4C
:103310005E5E5E570E003849012008704FE0344869
:10332000007834490870152049E0334902200870BC
:1033300045E031490320087041E02F49042008701E
:103340003DE02D490520087039E02A48012101702F
:1033500027480570072032E02648057024480121DF
:10336000017008202BE088480570092027E0864876
:10337000012101700A2022E002F00EFC1C480078B6
:10338000401C1D4908701848007818E0012171712F
:1033900007204002F08032780D20012A0FD1717091
:1033A0000DE0757107204002FF30F0800E2006E02E
:1033B0000F4800780121081A0E49087014200A49A4
:1033C0000D700E4908700DB0F0BDC046900500208C
:1033D000D0030020740000205C0400208C04002036
:1033E000930400208A040020910600208F0400200E
:1033F000760400202C0000208704002028080020EC
:10340000F0B581B0564E03CE081A564C0119574AF2
:10341000083E91420BD8564D6978002909D0E978C9
:1034200000295FD1A97800292DD028892CE04E4EA3
:103430007FE05549097800290DD054490A887D213B
:10344000CB00904216D94B4C248809010091511CA5
:103450005B1C224612E047490A884A4909887D23B5
:103460001B012F3300932F2301F014FF312807DABB
:10347000002005E0434909880093002301F00AFF7A
:1034800028613F4E55E02881491CA970394F398881
:1034900080B200F08FFB332802DB002068701AE056
:1034A00038880721414305CE101A4018C0083880DB
:1034B000A978083E33290ED3193881B22E4A8918CB
:1034C000CA0F8918490821222C4B99540121E9700F
:1034D000388002F01BF838882881E8780028D0D09E
:1034E00003CE081A29797D22D200FA32904208D2FE
:1034F000491C2971234A138807265E433018C008E7
:103500001080C8B21E4E4C2813D31E4801881931B2
:103510008AB2A2183332D30FD21852082023174C84
:10352000E25400246C70018002F036FB2C7101F033
:10353000C9FF00203080164802880D4909698C1A9D
:10354000144B1B689C4201DDD11806E0541A9C42C2
:1035500003DDD11A018001B0F0BD018001B0F0BDE2
:1035600090050020DFFCFFFFB60400207605000078
:10357000500400203E0000202AF9FFFF92060020A0
:10358000C00400203C000020770400204000002000
:10359000BA040020F8000020F0B591B0002508958D
:1035A0000595012006908203019206464748C168AE
:1035B0001143C160C1681140109110990168022245
:1035C0001143016000681040109007950492039227
:1035D0001098402402943E4802A9FEF7A1F93D4804
:1035E000016832220A43CD218A4302603A4F38688B
:1035F0003A4901403960032001033A688A433A603E
:10360000396820220A433A603968A1433960396831
:1036100080220A433A6001023A688A433A60800293
:10362000396881433960FF2000062D490A688243CA
:10363000F00710180860F0060096DA4908600720C5
:103640004107284C22688A43226040062168814352
:10365000216070072646083E3168814331600F952E
:103660000E9504200D900C950B950A951E48099017
:1036700008A93046FEF72AFD009B98022168814385
:1036800021600920C002211F0A6882430A60206865
:10369000222188432060206808210143216030688E
:1036A0001843306001991031386808401C341028E4
:1036B00003D1FC600D48B86002E0BC600B48F860C4
:1036C000306810210143316011B0F0BD3410024068
:1036D000000400500808024030000240EFBFFFFF26
:1036E00018E400E008380140A06806002905002021
:1036F000184900220A600A68824208D20A68824297
:1037000005D20A68824202D20A688242F3D3704725
:1037100010B5104900220A60192212024A600A46B6
:10372000103A146801231C4314600A2444430868B7
:10373000A04208D20868A04205D20868A04202D27E
:103740000868A042F3D34020486010681843106016
:1037500010BDC04624480140F0B5764BC9337648C9
:10376000438076490F6800252A4603E05218283521
:10377000782D77D071494E197168CF1B1BD1B7686E
:10378000791A21D1F168CF1B27D13769791A2DD148
:103790007169CF1B33D1B769791A39D1F169CF1B60
:1037A0003FD1376A791A45D1716ACF1B4BD1B76ABD
:1037B000791ADCD050E09CB2A74201D247803B4648
:1037C000D219B768791ADDD09CB2A14201D24180EA
:1037D0000B465218F168CF1BD7D09CB2A74201D23A
:1037E00047803B46D2193769791AD1D09CB2A142A1
:1037F00001D241800B4652187169CF1BCBD09CB2CD
:10380000A74201D247803B46D219B769791AC5D081
:103810009CB2A14201D241800B465218F169CF1BE4
:10382000BFD09CB2A74201D247803B46D219376A2B
:10383000791AB9D09CB2A14201D241800B465218EC
:10384000716ACF1BB3D09CB2A74201D247803B46DE
:10385000D219B76A791A8AD09CB2A14286D2418025
:103860000B4683E75109364DA961364C2178012971
:1038700025D1991E89B202290AD80F21C9018A428D
:1038800006D20021A971304E31700E262D490EE06E
:10389000591F89B2032912D81921C9018A420ED2AF
:1038A000294901260E7027490E70A91D0726274FAA
:1038B0003E7001260E702021017025490E70254EA4
:1038C000317801290BD1C93B99B21A4A914230D2C1
:1038D0001D493F220A7001213170022125E027781D
:1038E000002F26D1002924D1991E89B2022909D896
:1038F0000F21C9018A4205D20021A971124A117013
:103900000E210DE0591F89B20329DCD81921C90104
:103910008A42D8D20C4901220A702270AC1D0721BC
:103920000A4A1170012121702021094A01231370D4
:103930000170F0BD574D0000700000209005002080
:103940005004002095040020F5000020F400002021
:103950009404002096040020FF20000410490A6807
:1039600082430320800510180860012081026E4AFE
:1039700011600D490D4A8A600D4ACA604A680D4BB4
:103980001340DA1C4A600A68022313430B600A687A
:10399000082313430B600A6802430A607047C0465D
:1039A00008E400E000E100E01C0002404024014087
:1039B000180500200000FFFF844840685B490A6842
:1039C00002430A607047C046B0B582B04F480168F4
:1039D000012421430160016810220A430260210290
:1039E00002680A430260016804220A430260016817
:1039F00040220A430260A10202680A4302602104D5
:103A000002680A430260210302680A4302606421DB
:103A10000162014620390A6822430A60E503416ACF
:103A2000294341620C380168214301603848016A2A
:103A300021430162016821430160364801460C3987
:103A40000A6822430A60816821438160016821433A
:103A500001600168A1430160EE48016821430160F3
:103A6000416921434161A007016821430160416927
:103A700021434161E84801682143016041692143D4
:103A80004161C1682143C160FDF73AFDFFF764FF62
:103A9000FFF704F8002001901F484168214341606E
:103AA0000168214301601D4800681D49FDF735FC90
:103AB000C00001900198002817D00198401E019085
:103AC0000198002811D00198401E0190019800280B
:103AD0000BD00198401E01900198002805D0019854
:103AE000401E019001980028E7D1FF2000060D49F3
:103AF0000A688243E00710180860C148802101600D
:103B00000A4801682943016002B0B0BD202C014081
:103B1000004401400C20004000020140F000002061
:103B2000400D030004E400E000E100E080180240E2
:103B3000B0B51A4B18681A4908404018401C186064
:103B40000120C103996103221405052109070D68AD
:103B5000A54304052C190C6084028C621C68044384
:103B60000225AC431C60986193040C689C43830459
:103B7000E3180B6043028B6293030C689C4383033E
:103B8000E3180B6080238B6112040B6893430204DB
:103B90009A180A6000028862B0BDC0460004005056
:103BA000FFFFFF3F0248016801220A43026070479D
:103BB000142C0140401AC1174840401A70470000B9
:103BC0000248006800684000C00F704700000020F5
:103BD00002480168402008407047C046100000506D
:103BE00002480349016062B67047C04608ED00E034
:103BF00000100008F0B58DB07C4A506801252843BC
:103C000050605068284007900798280711680143C2
:103C100011601168144601400791079874480168C3
:103C200008220A43026001681022059211430160D4
:103C3000280270490A6802430A60FEF74DFE2046DA
:103C400008380168294301600168294007910799F4
:103C50000168022211430160006810400790079834
:103C6000201F0168294301600068284007900798D9
:103C7000614A106861490840A90340181060680251
:103C80005F4908600B46FF200290000411688143E1
:103C9000A80508181060A8021860FEF73DFBFEF7A3
:103CA0009FFC00270B970A970997089707972068AA
:103CB0002843206007A91F20009008802068284022
:103CC0000C90504809900C984F4E3446083C2046C2
:103CD000FEF716F880200390C143206808400A468A
:103CE0000691206030684949014031607020C3432B
:103CF0000493301F01681940016030681040306043
:103D0000FEF7D8FBFEF778FA0B970A970997089702
:103D10000797EA03019235494868104348604868AC
:103D20000E4610400C900C9802980006324A91689A
:103D300081439160E8043249086007A9009808802F
:103D40000A97304809900897314C2046FDF7D8FF74
:103D500020680699084020600B970A9709970897F2
:103D60000797A804324671680143716007A90F7470
:103D70003F260E80526802400C92224809900C980F
:103D8000244C2046FDF7BCFF2068039908432060BF
:103D90000B970A97099708970797144A106805998F
:103DA00008431060106808400C900C98124A906804
:103DB0001249084001994018906068041049086051
:103DC00007A90E80322009900897134C2046FDF772
:103DD00097FF20680699084020606068049A1040A8
:103DE0006060A0680840A0600DB0F0BD3C100240CB
:103DF000000001400020024008E400E0FF00FFFF57
:103E000000E100E0FFFF000008000040F8BFFEFFF7
:103E1000002000400048014000100040B0B5324C86
:103E2000E0687E2821D331490A6831487C2A09D8C4
:103E30005022825AD2084A2A04D8A26992087D2ABE
:103E400000D2B0BD56222B4B9A5A520809689142B3
:103E5000F7D32521425C521C4254D0B2652804D3CA
:103E600001F046FA0020A061B0BD224C607EE17EE8
:103E700000290BD0002814D00025FFF7A1FE002850
:103E8000DFD16D1C607E8542F7D30AE0002808D0A0
:103E90000025FFF795FE0028D3D06D1C607E85427B
:103EA000F7D301F025FAEFF3108072B60F4A1068CD
:103EB0005C23F949C85283B2156800209D4205462B
:103EC00001D91568ED1A156052228B5AA47DE34082
:103ED0008B52094988615A1C0A62486008680122AD
:103EE00002430A6062B6B0BDE8040020240000402E
:103EF0006C040020100000200C200040F0B585B0BC
:103F000001263402E24DE3492846224601F01AFC1C
:103F1000687804280BD8BFF34F8FEE48EE49016054
:103F2000BFF34F8F00BF00BF00BF00BFFAE7687C40
:103F3000401E41424141D84A9172A87C401E4142F4
:103F40004141D172E87C012800D196730496E87D46
:103F5000212800D31020D14FF871287D401E414206
:103F60004141B970687D401E41424141F970A87DD0
:103F7000401E414241413971287E01460839C84BF3
:103F8000582928D8C74E182809D3C74900911821A5
:103F90006022334601F07EF946217852287E0146A0
:103FA0000C390B2908D800960C211822BF4B01F0C0
:103FB00071F946217852287EB94EFC21014008292A
:103FC0000ED1BB49009107211022BA4B01F062F9D2
:103FD0004621785206E04420B2493952196008E07F
:103FE0004620385AAC4A502178524821785280B243
:103FF00030600394687E01463239C9B2642901D821
:104000003138F874E87E3872A87E28246043143072
:10401000B884287F401E414241411173687F401E91
:104020004142414151730226304602F07BFC6878E0
:1040300000282CD0A87F0B2800D9052002F072FCA4
:104040002320285CB8732220285C9B4940183886BE
:104050002020285C400099494018B8852120285C20
:10406000400097494018F885E87F401E4142414191
:10407000894BD9732420285C02280BD0012810D149
:10408000049898742520285CFA3078860BE0BD8C63
:10409000039CD2E09E742520285C642141437984EE
:1040A00001E0002098747E480021029119742621B5
:1040B000695C491E4A424A41DA74295D4A1F142A42
:1040C00000D8797329216A5C531E092B00D8BA7273
:1040D0002A23EA5C541EE4B2082C09D8FA72092497
:1040E000E44354432E3C3C73E2B28469144384613C
:1040F0002B22AA5C1446463C462C00D8BA712C22CE
:10410000AC5C661E622E04D86348049E867564000B
:10411000FC842D242C5D661E092E00D87C722E2472
:104120002C5D092C09D8042C5B480DD87C442479DB
:104130006400A74402989DA1A5005748029CC4545E
:1041400044546049049B0B703521695C491E4B4205
:104150004B4183543621695C012921D13721695CA7
:10416000142251432F315623C1523821695C5143E7
:104170002F3158228152049941703B21695C534A86
:104180003C23EB5C3D242C5D121D1AC23921695C75
:1041900064224A433A21695CC8234B43BB65FA65F4
:1041A0003F21695C14224A4340217A524E23FC5A33
:1041B0003E7BA419FC523E23EB5C8386FB7CD31828
:1041C0007B879219FB8FD218FA87695C552901D138
:1041D000049901704121695C81704221695CC1715F
:1041E0004321695C39704421695C01724521695C35
:1041F0005529039C01D1049901714621695CC17064
:10420000BD8CA9084A2901D802983874397A20202F
:10421000FDF783F8064611212846FDF77EF8314662
:10422000FDF77BF84C21785264212846FDF775F89C
:104230003146FDF772F84A2178522046F43000905A
:104240002C347D20C300224A2846214601F022F862
:104250003887B878002801D005B0F0BD00200E499D
:10426000C87205B0F0BD0C48049B435415496AE779
:1042700009480499C15467E705210748417163E77C
:104280000548049B43540F49029C0C700E495AE7A1
:104290009206002000F800086C04002010000020A6
:1042A0002C2C01406B0A00009A020000D61400007A
:1042B0009F0F0000411F00005E050000EE0200009D
:1042C000D6060000D1030020D00300207800002093
:1042D000B80B00000CED00E00400FA0500B595B045
:1042E000FFF77EFCFFF786FCFFF76EFBFFF706FE8D
:1042F000CB4C207903225040E17801925140014398
:1043000001200F9000020290002930D0032020717C
:10431000E070601DC3A10C22FCF7E8FEC54841789F
:104320006170C179E175C4498A7A521E5342534182
:104330006374CA7A521E53425341A374897B491E47
:104340004A424A41E2748178491E4A424A412275F2
:10435000C178491E4A424A4162750079401E414275
:104360004141A175B54A2046029901F049FCB24E7F
:10437000B07B002802D0AF48818F41874620AD4FE7
:1043800011903D5A44200E903D52502004903D52D1
:104390004E24385B68437D21149109010B91FCF791
:1043A000BCFF03943853B07A401E411E88413877D1
:1043B000F88F68430B99FCF7B0FF397B4018F887FA
:1043C000B878002801D10020B073F07C9C49002807
:1043D00015D00846BE30039978524020395A323100
:1043E00039524220395A323139520020B0730121FA
:1043F000F172397438717880788F323078877079BB
:10440000401F904C904D01280AD8FFF7C5F801F0E5
:10441000C3F928200121315401F004F92C600CE08B
:1044200002F0EEFA4A20002131522C6001F0CAF964
:104430007078002801D001207075307883490028F9
:1044400008D0562039520020B07300F051FF00F020
:10445000FFFF01E001F0E6F802F046FAFEF702F88D
:10446000FF20109068300C901498C0000590B0792F
:10447000002813D0707A022808D0012803D1FEF753
:10448000E3FD0020707201F09BFE05E07048808B18
:1044900000F020FE002070720020B0712C606C4A89
:1044A000D08C918C0818118D4018518D4018918D29
:1044B0004018D18D4018001D4008D061F8780028C0
:1044C0000BD05620385A1199795A00914B08602127
:1044D000C82200F0DFFE0E99785254201290305A14
:1044E0005C4988420AD32724315D002901D000F0BD
:1044F00053FD5949884201D300F072FDF08F5749AE
:1045000088423FD32F464020345E2046FCF7E1FE30
:104510005349FCF768FE01464D4D6868FCF70AFEFA
:1045200068605048007803280CD0022819D0012870
:104530003D46404F24D12E20315C0C9899300843E1
:10454000022119E06820305A47494143090C401ABA
:10455000400840180009C1B23948D630084301214B
:1045600008E0A0B2C0B229214143C80A019A510211
:10457000401811463D462F4F3A4A11703B4908807A
:104580000020F08730780028314C00D13CE1E06910
:1045900003210D91FCF7E0FE0146E060307F00282A
:1045A0001ED0A06915281AD3206AFFF703FBE16823
:1045B0000B9A914211D24A0890420ED92320002131
:1045C0003154788F40084222B052A1610120F87521
:1045D0002749E160F07D401CF075002030772162B2
:1045E000562014903A5A20201390335C10980402FD
:1045F000204808380168A143002B41D03D2A3FD311
:1046000001601C4A10681C4908401C4924390143B8
:104610001160101F016840200843BF213CE0C046E4
:104620009206002041494B4F4E2050524F203530CA
:1046300000000000100000206C04002000F80008BA
:104640002A030000AAAA00000030004088130000DE
:10465000E804002011270000419C0000214E0000CA
:104660000000B443D5030020AF470000D60300206C
:104670001027000010E400E0FFFFFF0024000040CE
:104680000122920311430160DA4A1068DA490840B6
:104690001060101F006810998843111F0860B07FD8
:1046A000002816D07079002813D1D4484068FCF750
:1046B0001BFE03464020325A6820315A2E20305CBF
:1046C0006E24345B009400F0C9FC01F013FC002060
:1046D000B077707F401C7077C0B2652800D2D1E0FF
:1046E000FCF7FAFEC64C206840000321FCF715FEDB
:1046F0000E99795A401C80B2884200D30846B88689
:104700006060C0490868C04A1040001D0860702001
:10471000305ABE494843BE49FCF7FFFDBD490A88EF
:10472000498C891A801A642207925043FCF714FEC0
:104730001E302E2170547221705221200A90305C5C
:1047400006904000B44A115A09915A21715A0891B1
:1047500011526825705B3C46072747437420305A46
:10476000AA494843AD49FCF7D8FD617C4843079905
:10477000FCF7D3FDC019C008079070530698401C81
:10478000C1B200273129394600D801460A98315470
:104790009A4C20690999401A0899401820613221E1
:1047A000FCF7BBFD4821705285B2984868439C498C
:1047B000FCF7B3FD010400D5384640217052A560D6
:1047C000B07C0028974F984D5AD0079880B2798CCA
:1047D000814253D9B08F401CB0872421715C934A29
:1047E0005143059A891880B2814249DA4C2000244D
:1047F0003452FEF7E5F900F07BFD4A2034522320C5
:104800003454272034543BE01198305A43424341FA
:10481000A26905998A420F9909D90023642A0F9A3F
:104820000AD9C8280F9C0BD200290CD00DE01946DC
:104830000023642A0F9AF4D81A46C8280F9CF3D391
:104840001C46002901D1224002D0222100227254AC
:10485000B17B002904D09F2802D822210022725463
:10486000317E0029654C00D11BE20C992931884228
:1048700000D38CE622200021315488E60020B08746
:10488000002070772520002333542424305D002835
:1048900000D1D9E04C22B05A312800D226E127219C
:1048A000715C002900D121E188280D9200D978E1BE
:1048B000707C0028524D10D05D4A10680121884359
:1048C000106000F015FD2846083800240460281FF9
:1048D00004602C60FEF7AAF974746022B05A397F24
:1048E000002900D1BAE2411E08B200280C9C2046E3
:1048F00000D40846B0526221725A521E13B2002BE5
:10490000234600D4134673526421715A4A1E11B2D1
:104910000029214600D4114664221492B152129902
:10492000795A00B24000434A105E0918119EB85BE4
:1049300048430B9D2946FCF70FFD797A48430A242A
:104940002146FCF709FD80B201F0DAFF1298385ACF
:104950006221394A515E4900364A515E4118B85BBE
:1049600048432946FCF7F8FC797A48432146FCF78E
:10497000F3FC80B201F0CAFF1298385A2E49149AFB
:10498000895E49002B4A515E4118B85B484329466D
:10499000FCF7E2FC797A48432146FCF7DDFC80B263
:1049A00001F0BAFF3C7A25482146FCF7B6FC0646E2
:1049B00023482146FCF7B1FC03461F480D99405A95
:1049C00000961D4E3021782200F064FC52243853AA
:1049D00080B2FEF78DFE395B0C98F130FCF79DFC40
:1049E0006E217052104D30780028164C00D017E21E
:1049F0003DE5C04610E400E0FFFFFF00E8040020B2
:104A00003C2C014008240140E8FFFF7FE40C00003B
:104A1000B80B0000A875FF1F2A080020FF0F000038
:104A2000BB0A000010000020003000407CFCFFFFAB
:104A30000C200040FE0000206C0400202A0300002F
:104A4000581B0000AAAA00002324355DF848C1695C
:104A5000F848FCF781FC68436E21705280B2F64939
:104A60004843C00C76217052397C00290CD0039940
:104A70007B5A4C217A5A4A21795A50257D5B009500
:104A800000F008FC482178522E20305CBA79904220
:104A90000BD95021795A012300934B0811460A394A
:104AA0000A3200F0F7FB482178522C20305C0028B5
:104AB000E24D0AD04C20305A139900910B9A2F32B4
:104AC0002F21022300F0E6FBF871D94880696328A2
:104AD000149835D8395A0C988D30814230D96420D9
:104AE000D74AD061082064293BD33BE00127777483
:104AF000307B002800D1D9E01198D24D2C5AA87AE9
:104B0000400020181338049970520E99695A80B2E7
:104B1000484321461D46FCF700FC201A401C6C242B
:104B2000305300F0DDFD2B46305BC54A1146083995
:104B30000860111F08601060F777C24FBF4DC1E0D9
:104B40000520BF49C861BA48C0680C210091029A8B
:104B5000F4326421032300F09DFB1499795A6429EF
:104B600000D202207876B8480068B849884200D25E
:104B700050E1305D012800D04CE12220315C491C1D
:104B8000315400F0B5FB0121F9754C20305A302822
:104B90000A9100D39FE000203055AD481290149A3E
:104BA0009CE006940120099070746024305B397F8A
:104BB000002907930A9400D16AE1411E08B2002837
:104BC0000C9D284600D408460A9970526221725AF8
:104BD000521E13B2002B2B4600D41346735264218D
:104BE000715A4A1E11B2002900D415466422089257
:104BF000B552129EB95B00B24000964A105E091889
:104C0000119F9048C05B48430B9D2946FCF7A4FBCD
:104C10008C49497A48430A242146FCF79DFB80B21F
:104C200001F06EFE8748805B62218B4A515E49002D
:104C3000884A515E41188348C05B48432946FCF7C7
:104C40008BFB8049497A48432146FCF785FB80B2BB
:104C500001F05CFEF448805BF449089A895E4900E3
:104C60007C4A515E4118F048C05BEF4F48432946EB
:104C7000FCF772FB797A48432146EC4EFCF76CFB5B
:104C800080B201F049FE0D98305AC82800D8B7E02C
:104C900052200499395207980A9C30530846E54D32
:104CA000B2E0952800D9BFE06420BEE0E64908469E
:104CB00008380360081F03600B601C46FDF780FF87
:104CC0002346D94F6E20335230780028D84C00D07C
:104CD000A6E0FFF7CCFB149AB85A12900D9B002760
:104CE000DB4CA761D64D29685C200D90315212989B
:104CF000434388B21E18B008CB4CA05212972F60C5
:104D000080B2A17EFCF709FBF108C84E091A5222B5
:104D1000B152CF4A506188B291690A29274612D20E
:104D20002968C8490862139AB85C397F01290A9C2E
:104D300016D1401CB854C1B2072902D3BC543477F1
:104D40002046204015E029688142EAD22968814244
:104D5000E7D229688142E4D229688142F3D3E0E7AF
:104D6000411EB954080602D10621B95434772046B1
:104D700088430D9DF876EFF3108072B6F07F00281F
:104D800002D1B85CFDF7FCFF62B6FDF799FFF17C3C
:104D9000481E8141707B00280F9800D108460128E9
:104DA00005D1AB49C9680B9A914200D9FC752B21FA
:104DB000129A72542D21725426217254A44CA16966
:104DC000491CA161725B139BFB5C5B001B195A843D
:104DD000002808D01429974D14981BD3385A9E499F
:104DE000884203D316E01F29924D13D31298F87509
:104DF000FEF7E2FD307800288D4C11D1FFF737FB2C
:104E00005220385A8B4D0A9CFEF772FC305B00280A
:104E1000149958D030780028854C01D1FFF727FB32
:104E200000F024FDFFF723FB0A20B874FFF7AFFB67
:104E3000E8040020C0270900CDCC0000003000406D
:104E40003C2C01401000002024000040C9AF0000AD
:104E500088130000FE0000206C040020431C18B2E0
:104E600000210C9DA842084600DC1846B052622280
:104E7000B35A5B1C1CB2AC420C4600DC1C46B4525C
:104E80006422B25A521C13B2AB4200DC43E543E544
:104E9000411C08B20C9CA04218461D4600DC084686
:104EA0000A9970526221725A521C13B2A3422B46C5
:104EB00000DC134673526421715A4A1C11B2A1429C
:104EC00000DC92E692E62320099B3354079A069869
:104ED000325459487852FB755D4C2062E060584965
:104EE0000860F2771420A061707B002802D0422075
:104EF000395A3152387E397F01290DD1401C13991E
:104F00007854C1B2072904D31398099939543177D9
:104F10000846099908400BE0411E139839540806C9
:104F200004D1062113983954099830770998884399
:104F30001446F876EFF3108072B6F07F002803D1A4
:104F40001398385CFDF71CFF62B6FDF7B9FEF07CE4
:104F5000411E8841717B00290F9900D1014601292A
:104F60003B4A05D1D0680B99884201D90998F87558
:104F70002B2034542D2034545C20305A1399795C02
:104F8000490089184884FEF70DFE30780028F94C56
:104F900000D045E7FFF76BFAFDF712FE0020305511
:104FA000282170544C2170524A217052264A1146D1
:104FB00008390860111F0860106000F04FFC0120E4
:104FC00001022448FCF7ABF8BFF34F8F1B481F4981
:104FD0000860BFF34F8F00BF00BF00BF00BFFAE7FC
:104FE000FDF7EEFD00203055282170544C21705201
:104FF0004A217052144A114608390860111F08608E
:10500000106000F02BFC012001021248FCF787F829
:10501000BFF34F8F09480D490860BFF34F8F00BFA2
:1050200000BF00BF00BFFAE7100000206C040020A2
:10503000AAAA000000300040282300000400FA055E
:10504000240000400C2000403C2C01400CED00E00E
:10505000E804002090050020D1070000F0B583B0DF
:105060001E4615460346194C089802902072A671F8
:105070002271A1702370000A0190E071300A009043
:105080006071120AE270080A6070114FFB5C4340C5
:10509000D8B2385C4840C0B2385C5040C0B2385CCE
:1050A0006840C0B2385C00994840C0B2385C70407B
:1050B000C0B2385C01994840C0B2385C029948409F
:1050C000C0B2385C607203B0F0BDC0461E0500205F
:1050D00090750008F0B584B0674EF588002D02D0B9
:1050E0000020F08015E065490978002900D1644866
:1050F000C10B09D103229303034001218C03A34276
:1051000000D091E0062200E007223261D040550233
:1051100005435D480078800002905C490C188023AC
:105120006360290A5A48405C0190C20018469043C7
:10513000A0602F09794069400F2603968E4329010C
:1051400089194D4A516101990A011A404240E260B1
:10515000C8030090039807404D49C85D0F46019071
:1051600081020098014303980540785D3D46039015
:1051700047010F43AE5D3D4635433F488561880A90
:105180001840504020614A0A1A4042406261080AB1
:1051900018405040A061019AD10019404140E1619E
:1051A00012011A404A4022627F20C043024079091E
:1051B0001940514061623A091A404A40A262F90816
:1051C00019405140E162039FFA001A404A402263AD
:1051D00039011940514061632A461A404A40A2638E
:1051E0000240690019405140E163AA001A404A4058
:1051F00022640021254D029FE951F10019405140E0
:10520000616432011A404A40A26471011940514060
:10521000E164B2011A404A4022650240F001C0B286
:105220005040606504B0F0BD07235B0303404C03AE
:10523000A34201D1052268E70F231B0303400C039F
:10524000A34201D1042260E71F23DB020340CC020A
:10525000A34200D159E73F229202024089028A42CA
:1052600001D1022251E77F2149020140054A8918F4
:105270004A424A4149E7C046D00300208F0400203B
:10528000FFFF000000FEFFFFF40000209407002055
:1052900080750008F0B5059C88421EDD0F461D464E
:1052A000264682421EDD1346974210DCB5421BD0D3
:1052B00071194C10D9194A10974217D08242EFDA6F
:1052C000511C1A46234634468142E7DB05E0194665
:1052D0003A4633462C468142E0DB824200DC2346DC
:1052E0001846F0BD3046F0BD2846F0BD2046F0BD62
:1052F00010B501208104084A13688B4313601346DC
:10530000743B19601446703C21604004116881436D
:1053100011601860206010BD80180240F0B581B0A7
:10532000BB4DBC486860EFF3108072B6BC48007893
:10533000E860286168617924B74EB84F3760A41ED1
:1053400014212046FBF7E9FFFDF71AFD60080A303B
:1053500028600A20FEF7DCF9022CEFD8FDF730FCBC
:1053600000202860CF490880CF480088686062B676
:1053700001B0F0BDAAAA0000F0B581B00320FDF78E
:10538000FFFC00263225009603E0761CAD1CAE2DF6
:1053900047D2A248A0490860C24800990180284825
:1053A00040198778FF2FF0D0C07800282CD00A2130
:1053B000B94A1160F72141437D2040010918214875
:1053C000FBF7ABFF044620482146FBF7A6FFB24996
:1053D0004860B34909784843B049FBF79EFFAE499E
:1053E000C86008614861F0B2FE214143CE191748F8
:1053F0002146FBF792FF70436421FBF78EFF80B2DA
:10540000FEF786F90026C1E70024A348C4600461C2
:105410004461F0B2FE214143C819FEF779F92646EE
:10542000B4E7FDF7CDFB00209B4A10609E49098838
:1054300051609C49088079487749086001B0F0BD07
:10544000920600208096980000A86100A0860100C6
:10545000B0B5EFF3108072B68F4D904868609048F9
:105460000078E860286168610120FDF789FC282048
:1054700028604B2084002046FEF74AF90220FDF701
:105480007FFC1E2028602046FEF742F90320FDF72E
:1054900077FC192028602046FEF73AF90420FDF732
:1054A0006FFC142028602046FEF732F9FDF788FBD8
:1054B000002028607B4908807B480088686062B6CD
:1054C000B0BDC046B0B5744D7448686028202860EF
:1054D00073480078E860286168610220FDF750FC9D
:1054E00096242046FEF714F94B484C4901605020A1
:1054F00028602046FEF70CF9FDF762FB00202860CB
:1055000068490880684800886860B0BDB0B5624DE1
:10551000624868603220286061480078E86028614D
:1055200068610220FDF72CFC96242046FEF7F0F877
:1055300039483A4901601E2028602046FEF7E8F805
:10554000FDF73EFB00202860564908805648008839
:105550006860B0BDB0B5EFF3108072B64E4D4F48E5
:1055600068602D482D490160502028604C48007823
:10557000E860286168610320FDF702FC642420468E
:10558000FEF7C6F8462028602046FEF7C1F828201E
:1055900028602046FEF7BCF8FDF712FB00202860CB
:1055A0004049088040480088686062B6B0BDC04687
:1055B000F0B581B0384D39486860EFF3108072B6AD
:1055C000154E164F37603C20286035480078E8605B
:1055D000286168610120FDF7D3FB4B242046FEF7CC
:1055E00097F8502028602046FEF792F85A2028604D
:1055F00037602046FEF78CF8FDF7E2FA00202860BD
:105600002849088028480088686062B601B0F0BD6B
:10561000282C01406B0A000000300040AAAA0000BC
:1056200028050020B0B5EFF3108072B61948007855
:10563000194DFF2802D0FFF79FFE25E0174868604C
:1056400017480078E860286168610320FDF798FB3F
:1056500037202860C8242046FEF75AF80520FDF7B9
:105660008FFB282028602046FEF752F80620FDF721
:1056700087FB192028602046FEF74AF8FDF7A0FABC
:10568000084800210180296007480088686062B6E8
:10569000B0BDC04680F80008282C01406B0A00000D
:1056A00028050020C00400205600002010B50A4C38
:1056B000607A022808D0012803D1FDF7C5FC00203C
:1056C000607200F07DFD10BD0448808BFFF702FD85
:1056D0000020607210BDC0466C040020E804002069
:1056E000B0B503210A050520000703689343012292
:1056F00014051B190360930283628B0404689C43A6
:105700009304E3180360530283620B0404689C4310
:105710001304E3180360130283628B07084C2568A7
:105720009D43D307EB182360236802251D4395434F
:105730002560890303688B43D10359180160B0BD0C
:1057400000040050F0B5012A24DB03241346234053
:10575000551E032D01D200240EE0A24300240D5D4E
:10576000055505190E1977786F70B778AF70F67810
:10577000EE70241DA242F2D1002B0BD0625C0255C8
:10578000012B07D0621C555C8554022B02D0A21C51
:10579000515C8154F0BD000007484168074A0A4047
:1057A0004032426006490A68402313430B60016897
:1057B00001220A4302607047300002400000FFFFF0
:1057C00008380140B0B5012041041A4A13680B4360
:1057D000136013688B43136017490A46083A174B46
:1057E00013600A220A60164A12788A60154ACA6053
:1057F0000A460C3A13680343136000224A60124BB6
:10580000124CDC600C4614349C60114C24785C60B3
:10581000104C1C6043020C46143C25681D43256057
:105820000B6803430B600C4B1A7020390A68024363
:105830000A60B0BD30100240204401400160000009
:10584000F5000020FFFF0000080002409005002046
:10585000700000208B090000290800200248002168
:10586000416001607047C04624440140F0B587B0F4
:105870004625DF4B585BC3494143090D401A06904A
:1058800086B2DD4F3879002841D02724395DF87A77
:1058900000290594049528D0002826D0785B00962E
:1058A0003025B94A002729463B46FFF7F3FC04465A
:1058B000D148008E00962946B34A3B46CE4FFFF7AB
:1058C000E9FC85B2A4B2281940080699081A80B2EA
:1058D00001F01CF82046059C01F012F82846049DB2
:1058E00001F01AF8C24B395DF87A421E90414A42E3
:1058F0004A41024300D042E11C7FFDF761F90A20D2
:10590000FDF7F6FE002C16D001F062FC15E0785B86
:10591000B97E002900D0BCE0312800D2B9E01C7F5C
:10592000FDF74EF90A20FDF7E3FE002C00D1ABE0B5
:1059300001F04EFCAAE001F08BFC785B009630246D
:10594000914A002521462B46FFF7A4FC0390388E90
:10595000009621468C4A02952B46FFF79BFC044695
:105960002E20385CA24A91798842069B0BD9049B71
:10597000D25A0123009353080A461432FFF78AFCD7
:105980009B4A034686B248201352A0B2B042194641
:105990004FD9039CA0B2B04250D9974EB07D002899
:1059A00051D00C4606934025705F6321C943D28CC9
:1059B0004A431018754988620A6C831A0E6B4A6B49
:1059C0008F6B5A43CA6308644643F3198E6CB34223
:1059D00000DB33467642B34200DC33468B63D21899
:1059E000CB6A58431018CA6C9042834E00DB1046B5
:1059F0005242904200DC10464864FBF76AFC64495E
:105A0000FBF7F1FBFBF770FC794BD98E091A0AB250
:105A1000585B824200DB0846D88602B2A1B29142AE
:105A2000014600DC2146069CA3B293420CDC2046D2
:105A30000AE02146039CA0B2B042AED823466E4E87
:105A4000B07D0028ADD118468CB2621E214691412E
:105A5000020400D0012101290ED10599715C0029B1
:105A60000AD080B200F04CFF002000F04FFF20462B
:105A700000F052FF07B0F0BD464802990160416056
:105A80008160B17607B0F0BD01F0E2FB0120B8768D
:105A9000785B009630213C4A00230593FFF7FAFB20
:105AA000534A04462E20385C91798842069B0AD9D5
:105AB000525B0123009353080A461432FFF7EAFBB6
:105AC0004B4A034686B248201352A0B2B04200D8D7
:105AD0002346B87D00283FD006934024385F6321D9
:105AE000C943D28C4A431018284988620A6C831A29
:105AF0000E6B4A6B8F6B5A43CA6308644643F319B3
:105B00008E6CB34200DB33467642B34200DC334650
:105B10008B63D218CB6A58431018CA6C9042364F28
:105B200000DB10465242904200DC10464864FBF70E
:105B3000D0FB1749FBF757FBFBF7D6FB2C4BD98E55
:105B4000091A0AB2185B824200DB0846D88601B205
:105B5000069B9AB28A4200DC184601040D4909D01E
:105B60002722BA5C002A05D080B2086048608860AD
:105B700007B0F0BD0598086048608860B87607B047
:105B8000F0BDC046CDCC0000FF070000780000202B
:105B900000401C46342C014010B515494A78154880
:105BA0004270CA79C275144A937A5B1E5C425C41AA
:105BB0004474D37A5B1E5C425C418474927B521EB7
:105BC00053425341C3748A78521E53425341037562
:105BD000CA78521E5342534143750979491E4A42BD
:105BE0004A41827501210902044A00F009F810BDFA
:105BF00010000020920600206C04002000F800082D
:105C0000F0B503AF8BB06E46F41D1934B26171610B
:105C10000546C817800F0B1803201946F060814312
:105C2000C91D072291436A46501A99108546F061B2
:105C3000B160FBF774FA7069042874617CDBB168A9
:105C40000A46F3681A40481E0328726001D20021F8
:105C50003AE09943F160002319463561E818C278AB
:105C6000120685782D04AA1845782D025219346938
:105C7000E55C5219F469E250C279120685792D0467
:105C8000AA1845792D02521905795519E21855605F
:105C9000C57A2D06847A24046419457A2D02641984
:105CA000057A64199460C47B2406857B2D042C1925
:105CB000457B2D0264193569007B2018D0601033B4
:105CC000091DF0688842C9D17268002A746933D00E
:105CD00089006818C278120683781B049A184078E5
:105CE000000210186A5C8018F26950507268012A2C
:105CF00022D0081D30602A18D3781B06F3609378F1
:105D00001B04F0681B18527812029A1830682B5C3A
:105D1000D218F3691A50706802280DD0083168183B
:105D2000C278120683781B049A1840780002101873
:105D30006A5C8018F2695050B068A0600120306140
:105D4000020444480368134208D00368134205D094
:105D50000368134202D003681342F3D14368002B57
:105D600003D4B3695B052DD10AE03B4B1C680546A3
:105D7000083D2C6074695B682B60B3695B0521D1B9
:105D8000446802231C434460B469E40AE4004568A3
:105D9000254345604468144344600468144208D0B5
:105DA0000468144205D00468144202D00468144206
:105DB000F3D10468E40701D03169016044689C4371
:105DC0004460746900236360236025682346A468E7
:105DD000A542316935D2B469241DF4600DE04468F0
:105DE0008C43446073695C6808345C601C68A41C64
:105DF0001C601C689D68AC4223D244680C4344601C
:105E00001C68A400F1690C595D68B1696C501C688C
:105E1000A400F169641864685D68F1684C51046815
:105E2000144208D00468144205D00468144202D019
:105E300004681442F3D10468E4073169CFD00160EB
:105E4000CDE7C90742680A434260FC1F053CA546EE
:105E5000F0BDC046102002400800002010B501200F
:105E600041041C4A13680B43136013688B4313608F
:105E700019490A46083A6023136003220A60174A48
:105E800012788A605C22CA600A460C3A136803439F
:105E90001360134A134BD3600B4614339360124BB9
:105EA0001B7817335360114B136042020B46143BAF
:105EB0001C6814431C600A6802430A60C2034B6AF0
:105EC00013434B620A4A107020390A6802430A6081
:105ED00010BDC0463010024020440140560400204E
:105EE0000800024094070020F40000209B090000F5
:105EF00029080020B0B50E48036808210B4304228E
:105F0000934303600B4B5C680B4D25400B4C24788E
:105F10002C195C6084688025254385601C680125F8
:105F200025431D60036813438B430360B0BDC04627
:105F300000380140300002400000FFFFFC0000205C
:105F4000F0B581B08F484178012904D1407E002806
:105F500000D0C1E0ADE08A1ED4B2651C03232A46FE
:105F60001A40032C02D2831C002412E09D43831CA0
:105F70000024854E1F786740F45D5F786740F45DCC
:105F80009F786740F45DDF786740F45D1B1D2D1F2F
:105F9000F0D1002A0DD01E7866407B4DAC5D012A01
:105FA00007D05E786640AC5D022A02D09A786240E3
:105FB000AC5C427E944200D08EE0182979D1C17841
:105FC00004796207520D521870498A800722120222
:105FD0001346E03345796E011E40E4083419CC8045
:105FE000AC098579AD002C19C579EE07760D341909
:105FF0000C8114468034067AF70127406D087D191C
:106000004D811546F035477A01463801284036095A
:1060100080195E4EB081F8098E7A76003018CE7AFB
:10602000B7077F0D3818594FF881C032087B8701B8
:106030001740B608BE19554F3E8240094E7BF60008
:1060400030187882887BCE7B77077F0D38184F4FCA
:10605000B882087C47011F40F308FB184B4FFB82B6
:1060600080094B7C9B0018188B7CDE07760D30185E
:106070003883C87CC60126405B08F3187B830B7D00
:106080001C012C4000092018B883D8094B7D5B0007
:1060900018188B7D9C07640D2018F883C87D44096F
:1060A0000D7EED002C197C84800110409A08801828
:1060B0003884374800784000344D281880883549A6
:1060C0000978354C00290DD0344941180F290DD2DB
:1060D00001208002183811E02C480168491C016039
:1060E00001B0F0BDAF2816D200201CE02146BE3121
:1060F0000091AE2100232246FFF7CCF82849088002
:10610000284800784000281880882146BE31009138
:10611000AE21002313E02146ED310091AE21302362
:106120002246FFF7B7F81E4908801E480078400055
:10613000281880882146ED310091AE213023224677
:10614000FFF7A8F81849088018480121017018497C
:106150000020088017490A781749002A024606D00D
:10616000164B1B88002B08D0088001B0F0BD0A88B0
:10617000521C124B1B88002BF6D11046088001B030
:10618000F0BDC04629050020807400082C040020C2
:106190006E04002077040020120700002BFCFFFF94
:1061A000BA0400206F0400209C0400207204002028
:1061B000C004002093040020B6040020B204002094
:1061C000F0B587B0FA4EF07A002806D02924305D69
:1061D000002807D04E20305A1DE14E20305A46216B
:1061E00070529CE14E27F05B7D22D500F1498B7BFC
:1061F000590006954919F57C002D059717D0814265
:1062000045D2EC4A127FB57AAA4244D146270025EE
:106210000395F5530127F777357D002D37D0039B84
:10622000F377BA1AE34B1A77069D059F37E00125ED
:106230008142049403952CD2DE4B1B7FB47AA34297
:106240006AD12420305C441EA0415024345BC82C09
:106250002F4600D307465624D64D2C5B2D8FAC42DB
:1062600000D80746012F069D78D1D34800248461C9
:106270000120D049C875C01A0877FFF739F8B476FD
:10628000059FF05BCB49897B4900491969E0069D70
:1062900012E0069D71E0F27F002A069D0CD10022DB
:1062A0003275C64A00922F3A2F23FEF7F3FF46219C
:1062B0007052F05BBF498B7B0127F94359434A1960
:1062C00082422ED90494B47A012103910D1BB9495D
:1062D000097F8D420DD14621002575520399F17732
:1062E000317D00291BD0F577B2490C77049C069DBF
:1062F00004E0F17F0029049C069D12D10021317534
:106300002F230093AD4BFEF7C5FF46217052059831
:10631000305AA8498B7B04E0049C069D22E0049C33
:10632000069D5B00591900228142394606D3114669
:10633000EB1A834205D90F4306D068E0EB1A83427B
:10634000F9D817460F4362D146220021B152F27F9D
:10635000002A5CD001223275F17758E0D000059F09
:10636000F053049C954A00922F3A2F23FEF792FF98
:1063700046217052F05B8F498B7B01210291CF4304
:10638000394659434A1982422FD9B17A01230191E2
:10639000591A884C247FA14200D09CE12420305C13
:1063A000411E88415021715AC829039900D30146E2
:1063B0005624804D2C5B2D8FAC4200D8014601291C
:1063C000069D00D08AE17B4901980877CB757A4811
:1063D00000248461FEF78CFFB476059BF05A754962
:1063E000897B4F437A191F467BE159004A19824243
:1063F00000D287E100220292691A8142039900D8F3
:1064000085E1002903D1462100227252B276315D26
:10641000002900D183E07D21CC0021462F31884224
:1064200036D9644D297FB27A91422AD12420305C3A
:10643000421E90415622AA5A2E8F01230027B242B3
:106440001A4600D83A465026594DAE5BC82E00D3A6
:106450003B461A400243012A564D0ED156480026AB
:1064600086610120E875401A2877FEF741FF504801
:10647000867606464E20305A03E04E2100204C4ED0
:106480007052297D4200511A904A89184622B15211
:106490000146303989B2A1423BD2B17A0122531A66
:1064A000444C257FAB422ED124203746305C431E1E
:1064B00098415623E35A268F0025B342134615D838
:1064C0002B465026BE5BC82E14D213400343012B2B
:1064D00015D121770120E075374800258561FEF749
:1064E00007FF3E46BD764E20385A0CE05026BE5B74
:1064F000C82EEAD32A4613400343012BE9D04E218C
:1065000000203E467852217D4200511A3139462200
:10651000B1522F2803D8462000213152B17630786D
:10652000002801D007B0F0BD2224305DE74DA97CE2
:1065300088420CD92879002809D0FCF741FBFEF7E6
:10654000D7FE662030554C20002131526CE0B07BE4
:10655000002807D04624305B1D2825D84C21002276
:10656000725252E0707D00285AD07078002827D0EF
:106570004624305BA96DEB6D00912F21D44AFEF7C4
:1065800089FE0146D348FAF7E7FE297A4908FAF767
:10659000E3FE7087305B2E2812D84C200021315248
:1065A000CF480160B1673FE01E2820D11E202CE0BB
:1065B0006C04002010000020E8040020FF07000009
:1065C000B46FC54D20462946FAF759FE00282046EB
:1065D00000D12846FAF788FE4C257053BF49204663
:1065E000FAF75BFE00281FD1302070531CE0697B56
:1065F00014224A43824208D9A02100911E212F2350
:10660000FEF748FE4C217052305B6A7B14215143E7
:10661000814209D8AE4A0092A023FEF73BFE01E07A
:106620004620305A4C2170522424305D002800D07E
:1066300078E74C25705BB17B50273A464A432F32AE
:1066400082422FD82720305C00282BD006952325A6
:10665000705D00280ED1FCF7B3FAE349C87D00282D
:1066600002D100F069F9E04901207055488F4221BC
:106670007052B17B4020DC4D2B5A0698305A46228E
:10668000AA5A0092002901D0892100E02F21904AC6
:10669000FEF700FE44217052F07C0028069D01D1D7
:1066A0000020F077705BB17B4F432F378742CE4F8E
:1066B00000D8CBE0F07E052836D8C0467844007973
:1066C000400087443305292C2F05C046FFF7FFFF04
:1066D000FEF71CFF28E0049C059F03E0059FF5538F
:1066E0002846049C2F2100910021794BFEF7D2FD12
:1066F00046217052F05BBC498B7B59004A1982429B
:1067000000D377E6691A8142039900D979E60299A4
:10671000002900D177E67AE6FEF7D4FE04E0FEF722
:10672000FDFD01E0FEF744FF0020F076B878002878
:106730001AD02320305C00283FD02020AA4F385C9C
:106740003C214143788D40183C38664902B2FF2312
:1067500068339A4200DD40186022B05202B22F46E0
:10676000782A12DCEF2312E044210020705223210A
:10677000715C002944D19D4988610120F875307B06
:10678000002838D0FDF7D4F93AE00B46EF331B1858
:1067900064257353F02A01DC772100E077313D4610
:1067A000081862217052B07B01288F4F01D101205F
:1067B000305544200021315248E026200021315438
:1067C0008A48816101278848C775307B00280FD02F
:1067D000B07B0028B1D146208349085A897A490004
:1067E000401813385E217052FEF77AFFF777A4E75E
:1067F000FCF7E6F9A1E7F07F002801D1FCF7E0F90A
:10680000F07FF17C002922D0002820D006954E2070
:10681000315A7D25EC002046FDF7CCF946213A4659
:106820003746565A001970432901FAF795FD5E2143
:106830003C46785280B2711E884202DAFEF750FF61
:1068400001E0FDF775F92646674F069DF07F0028A9
:1068500000D067E6735B2F2B11D3707B1421C140EE
:106860006248806988420AD24420315A7A8F914224
:1068700001D232521146FA8F914200D93252482049
:10688000385A4427F55B854201D9F0530546B07D5F
:106890000028069306D036205349085E854201DD64
:1068A00085B2F5535148046800212046FAF7D9FC17
:1068B000002800D036E60698302800D232E620467E
:1068C000FAF712FD2818F05307B0F0BD10000020B1
:1068D000FF0700000087930300E0FF4400004042F0
:1068E0007800002098FEFFFF0320000303490A6898
:1068F0008243012000031018086070470C0000500C
:10690000014908607047C046342C014001490860C5
:106910007047C046382C0140014908607047C046A6
:106920003C2C01400B2800D30B204000014908708B
:106930007047C04628050020F0B581B02325294CBA
:10694000605D002803D0FDF737F801B0F0BD2026C8
:10695000254FB85D397F01290AD1401CB855C1B215
:10696000072902D30120B85520770121014009E011
:10697000401EB855010603D10620B85501212177E4
:1069800001218143F976EFF3108072B6E07F002891
:1069900002D1B85DFCF7F4F962B6FCF791F9E07C3E
:1069A000617B0143114805D0C168114A914201D36E
:1069B0000121F9752B21002262542D2162545621A8
:1069C0000C4A7A52B95D0C4A0C4B13600122625595
:1069D0005C22A25A490008184284FCF7EDFF01B07E
:1069E000F0BDC0466C04002010000020E804002028
:1069F000D107000010270000240000408813000089
:106A0000F0B591B000240E940125AA035A48C1683C
:106A10001143C160C16800921140029102990222A3
:106A200003920168114301600068019210401090C8
:106A300007940695059504941098402602964F48B1
:106A400002A9FAF76DFFFF2000064D490A6882434C
:106A500003208307D2180A60E9064A4A11604A49AE
:106A60000A6833231343CC2293430B60474F3968A2
:106A7000474A0A4010323A6001033A688A433A6052
:106A800039682022914339603968B14339603968E7
:106A900080220A433A6001023A688A433A608002DF
:106AA0003968814339600F940C200D900C940B943D
:106AB0000A94E120400209900894364C2646083E8C
:106AC00008A93046FBF702FB0720410722688A43EA
:106AD0002260400621688143216068073168814354
