:020000040800F2
:10100000600D0020C9100008C51F0008591700080E
:1010100000000000000000000000000000000000D0
:10102000000000000000000000000000B9200008DF
:101030000000000000000000C71F0008BB200008DF
:10104000DB10000800000000DB100008DB100008C7
:10105000DB100008011700082D17000841170008D1
:10106000000000000916000859160008E1160008E3
:10107000DB100008DB100008DB1000080000000097
:10108000DB100008DB10000800000000DD21000874
:10109000DB10000811220008DB100008DB1000083C
:1010A000DB100008DB100008DB10000861240008DA
:1010B000DB1000080348854600F0B4F900480047FB
:1010C0007D3C0008600D002004488047044800472C
:1010D000FEE7FEE7FEE7FEE7FEE7FEE7D9210008B0
:1010E000B510000803460B439B0703D009E008C96D
:1010F000121F08C0042AFAD203E00B780370401CC8
:10110000491C521EF9D27047D2B201E00270401C55
:10111000491EFBD270470022F6E710B513460A4677
:1011200004461946FFF7F0FF204610BDF8B5024609
:101130004A40D40F42004B0052085B089A4202D248
:101140000246084611464A0023D0C30D4A00DDB2CC
:10115000120EAD1A202D35DA49020126490AF6058C
:101160008A19002C00D0524220214F1B1146B94051
:101170002A411018C20D9A4221D0002C17D0012DFF
:1011800008DCDA05801AD20F8019D207DBB200F032
:101190000FF9F8BDDA05801A012340001B06C018BC
:1011A00080185A428018CA0F1043490007E04908C6
:1011B000C2071143DA05801A80194008801800F030
:1011C000EFF8F8BD61000122511A001BF7E7012278
:1011D000D2075140AAE70122D2075040A6E770B5D6
:1011E00002464A40D50F40004A00ED074008520829
:1011F000002814D0002A12D0C40DD30D41020120C2
:10120000C0055202490A520AE41A091812187D341C
:10121000914201D3641C00E04900002C01DA002057
:1012200070BD0023914201D3891A0343400849004D
:101230000028F7D100290AD0914202D10121C90723
:1012400005E0914201D2012101E00121C943E005FD
:10125000C018401900F0A4F870BD0122D207002880
:1012600000DB101A002900DB511A814201D801204D
:101270007047002070470122D207002800DB101AB7
:10128000002900DB511A814201D201207047002061
:1012900070470122D207002800DB101A002900DB6A
:1012A000511A814201D3012070470020704701226A
:1012B000D207002800DB101A002900DB511A8142F6
:1012C00001D90120704700207047C217C10F50405C
:1012D00010B54018CA079623002100F069F810BD28
:1012E000C20F410040020123400ADB05D207090E6C
:1012F000C0187F2901DA00207047962903DC962365
:10130000591AC84001E096398840002AF4D040427A
:10131000704770B50446002903D000202022012325
:1013200010E0002801D00020C043C046C0460DE0B8
:101330002546D5408D4205D30D469540641B1D467C
:10134000954040191546521E002DF1DC214670BD16
:1013500070B5002504462E46002911D0002C01DA74
:1013600001254442002901DA012649422046FFF7BF
:10137000D0FFB54200D04042002D00D0494270BDA0
:10138000002C02DA0121C90702E0002C00DD03492C
:101390000846C046C046214670BD0000FFFFFF7FE3
:1013A000002904DA401C490001D140084000704780
:1013B00070B40024050C05D11024000402D10029CA
:1013C00021D01124050E01D100020834050F01D1EE
:1013D0000001241D850F01D18000A41C002801DB21
:1013E0004000641C002908D020252E1B0D46F54026
:1013F000A14000D001212943084301061B1B000A1C
:10140000DB1D02D5002070BC7047DB051818801862
:101410000029F8DA401C4900F5D170BC40084000B2
:1014200070470000064C0125064E05E0E36807CC36
:101430002B430C3C98471034B442F7D3FFF73EFEE1
:10144000407300086073000870B58C180578401C64
:101450006B075B0F01D10378401C2A1106D102787B
:10146000401C03E006780E70401C491C5B1EF9D13D
:101470002B0705D40023521E0DD40B70491CFAE72C
:101480000378401CCB1A921C03E01D780D70491C98
:101490005B1C521EF9D5A142D8D3002070BD0000BC
:1014A00005488188054A11804188054A11800088D5
:1014B000044908807047C046E0050020A2050020CE
:1014C000A60500208C050020F0B593B000260996F3
:1014D000089607960696012148020B460291444958
:1014E0004A6802434A604A6802400A920A985804CD
:1014F0000A6802430A60096801400A9103200590C6
:10150000074603900A988020019004900920C406A1
:1015100004AD2046294600F0A5F908960597202736
:10152000049700972046294600F09CF9314801684D
:10153000314A0A400260039B190302688A43026031
:1015400001683943016001684022914301600168EC
:10155000019C21430160190202688A43029F3902FB
:10156000521802609A0203689343BA029A18026002
:10157000224802680A430260214D286820432860FF
:1015800028680099084328603804296801432960C5
:10159000072080051B490A688243F8051018086077
:1015A000F8070F901296119610962C46283C0FA91A
:1015B000204600F0D3F80E960D970C960B960A96DF
:1015C0000AA9204600F0E4F80420C04329461C394B
:1015D0000A6802400A60294614390A68039B1A43C4
:1015E00002400A60243D29680140296013B0F0BD23
:1015F000141002401C000240EFBFFFFF000001403A
:10160000282401400827014010B53C4801684907DB
:101610000ED53049097800290AD0052149022E4A01
:1016200013688B430121490259181160042141605C
:101630000168890705D40168090701D501214160C6
:1016400010BD012444608168A143816005F0FEFB68
:101650002248047010BDC04670B501256802274CB1
:10166000216849050CD51B490978002908D0A90231
:1016700005225202184B1E68964306431E606160A5
:101680002168014209D12068000513D42068800632
:1016900015D42068000619D470BD28026060206B44
:1016A000A843206305F0D2FB0C4805702068800633
:1016B000EFD504E02802606020688006E9D510209C
:1016C0006060FFF7EDFE20680006E5D580206060D1
:1016D00070BDC0465D050020200000403A05002096
:1016E00006480168890402D40168090405D501216E
:1016F0000A034260426C8A43426470470000024021
:1017000010B5144C2068C00703D12068800707D4A7
:1017100010BD0120206002F029F820688007F7D56D
:101720000220206002F022F810BDC04680B50948B2
:101730000168490703D50421016002F017F880BD54
:1017400080B504480168490603D54021016002F0D4
:101750000DF880BD14040140FEE700008268D20746
:1017600012D1C268094B13404A681A438B6813436D
:10177000CA681A43C2600322920703699343096847
:10178000194301610020704701207047C73FFFFFE8
:1017900070B58268D2070CD1C268074B134074C978
:1017A00009681A4322432A4332430A43C260002095
:1017B00070BD012070BDC0463CC2FEFF10B50146A1
:1017C00002680079002814D0002A1BD04879244BE5
:1017D000022819D001281AD0002831D15868904326
:1017E000586018681043186000208979032918D9B7
:1017F0002AE01B48016891430160416891434160C0
:10180000002010BD002010BD1868104301E01868CA
:101810009043186058681043586000208979032964
:1018200012D8C0467944097949008F4401020F1249
:10183000E7E7D9689143D96099681143996010BD71
:10184000012089790329ECD9012010BD99689143C1
:1018500001E0996811439960D9681143D96010BDBE
:1018600000040140F0B584B00B68002B49D000257E
:101870000191009010E07F437F433B460F21594385
:101880008E435D433543009805510199039D6D1CBE
:101890000B681C46EC4035D00122AA401A40F6D015
:1018A0000395144654434B6826465E43032767431B
:1018B0000568BD4335430560FE4302935D1E234624
:1018C000012D05D88D685D43876837402F438760B9
:1018D0000D695D43C76837402F43C760029D022DE5
:1018E000039DD4D1170A05D024244D690659002F31
:1018F000C1D104E020244D690659002FBBD15B43C0
:10190000BCE700234A68521E012A05D8C96859431A
:1019100042689A430A434260002004B0F0BD0000D0
:1019200080B57D21C900FFF7F4FC401E03494860E3
:10193000002088600520086080BDC04610E000E0FF
:1019400010B5002801D0002010BD284CE16A03200A
:10195000084003281AD002281FD0012823D120686C
:101960000C210140224808293FD12168C90300D435
:101970002048A16A0F220A40511CFFF7CAFC014609
:1019800020688002000F801C484310BD201F0068A3
:101990008007C1171648084010BD0120C103E06947
:1019A0008003084010BD20680C2101401048082920
:1019B0000FD12168C90300D40E48A16A0F220A4042
:1019C000511CFFF7A6FC014620688002000F801C16
:1019D0004843216822685205520F074B9A5C09065A
:1019E000090F064B595CC840D04010BD041002409E
:1019F00000127A0000093D002672000816720008E5
:101A0000014908607047C046A8010020B0B51F22F8
:101A1000D30234C99C433F239B029D430B782B4345
:101A200023430F242403A2431A4303239B034C683C
:101A30008D689C4314434988034A0A4022432A4341
:101A400042640020B0BDC046FF1F0000B0B505686D
:101A500001229407A04205D0A54B984202D01E4B0C
:101A600098420FD170239D434B682B431B4DA842D6
:101A70000CDCA04213D0184CA04210D0184CA0424D
:101A80000DD026E02B46154DA842F2DD984CA04221
:101A900005D0984CA04202D0974CA04219D1032403
:101AA0002402A343CC681C4304608B68C3620B8888
:101AB00083628F4B984205D08E4B984202D08E4B5A
:101AC000984201D1097C01634169114341610020C1
:101AD000B0BD1C46E8E7C04600040040FF2B0140B3
:101AE00000200040F0B584B00123FF2943DC012928
:101AF00066D0102961D1016A102399430162016AFD
:101B00003023994313695B085C010C4317685168E3
:101B10000901214345688369754EB04205D0754E71
:101B2000B04202D0744EB04219D10326B602B5437A
:101B3000546903943E469769D4690294BF00714C7E
:101B40003C4037462C43029DED002543C024A14371
:101B5000039C6408E4010C439168890121434560BA
:101B600073242402A3433C021C438461D268826331
:101B70000162002321E001263402A14257D0340340
:101B8000A1421AD1016AA1430162016A4368156842
:101B90005468039414690294C769554CA04206D056
:101BA000544CA04203D0544CA04200D084E0B40373
:101BB000A3439469A6011E437FE0184604B0F0BD1C
:101BC0000126F143036A0B40036213690B40046A68
:101BD0000327BC431C4311680391516821434568A6
:101BE0008469F54B984205D0424B984202D0424B53
:101BF000984213D13B029D4373025669029697693E
:101C0000D6699F432F4375003D430C239943029BA4
:101C10005B08DB000B43916889001943039E456014
:101C200073239C4334438461D26842635AE0016A5F
:101C3000A14301623249491C13691B020B40032175
:101C400002910902046A8C431C4311680391536892
:101C50001B0223434568C469D74FB84205D0254FBE
:101C6000B84202D0244FB84219D102990F03BD43A4
:101C7000566901969669D769009737011F4E3E4015
:101C80002E43009D6D01354389028B431D49091D7B
:101C9000019EB6020E401E4391688B02334345609D
:101CA00073218C4303990C43C461D168C1630362FF
:101CB0000023184604B0F0BD1E46466073231B0285
:101CC0009F432B023B43C361D26802640322120389
:101CD00091430A4A1032029B1B0313400B430399A2
:101CE0000903194301620023184604B0F0BDC04641
:101CF000002C01400048014000440140F0DFFFFF9C
:101D0000FFFDFFFFFCF7FFFFF0B581B00D46016856
:101D10000124C9071BD10168204A0A4069681143A0
:101D2000EA680A4329691143AA690A430260032148
:101D30000A0343689343AA681A434260090282680F
:101D40008A43696911438160154FB84202D0204629
:101D500001B0F0BD00263046FFF7F2FD0028F6D0B6
:101D600029680029F3D00122D203AB6993420AD13A
:101D700040004A081018FFF7CCFA0A490140000752
:101D8000400F401804E04A081018FFF7C2FA80B26A
:101D9000F8603446204601B0F0BDC046F369FFFF4D
:101DA00000380140F0FF00000E4908460C380E4A8A
:101DB00002600E4A02600A46083A012313600B1FB4
:101DC0000B4A1A600B685B0708D00B685B0705D0ED
:101DD0000B685B0702D00B685B07F3D14A600549CB
:101DE000016070470C300040CCCC0000555500001D
:101DF000FF0F0000AAAA0000F0B59FB000241D94B8
:101E00001C941B941A9419940E940125EB020493CC
:101E1000684A50681843506019A90C740C805068C7
:101E200018401190184631381B901198624E304678
:101E3000FFF70CFE30688021019108433060B069E3
:101E4000082102910843B0611294139414941594DC
:101E50001694179418946020119011AF30462946BB
:101E60003A46FFF73FFE0420C1430091B0690840A5
:101E7000B061B06904990843B061139412941021C1
:101E800030463A46FFF72EFEB0694C490840B06133
:101E9000F06902990843F0611394129429020291A7
:101EA00030463A46FFF71EFEF06900990840F0619F
:101EB000F06904990843F0611394129429033046A1
:101EC0003A46FFF70FFEF0693C490840F061706840
:101ED0007021884370600BA9CC813C200873B068E6
:101EE000019A9043B0601094680304900F900D9491
:101EF0000C940B943046FFF789FDA8042D4B19680C
:101F00000143196019680140059105986804196832
:101F100001431960196801401E9102270A9709942C
:101F2000089407940697049805901E98244805AED7
:101F30003146FFF797FC0A9709940894079406978F
:101F40000395A80305901E483146FFF78BFC0A97BE
:101F50000994089407940697E803059018483146B9
:101F6000FFF780FC0A970994089407940697029853
:101F700005900920C50628463146FFF773FC0A97ED
:101F80000994089407940697039840020590284600
:101F90003146FFF767FC0A9709940894079406975F
:101FA00003988002059028463146FFF75BFC1FB07E
:101FB000F0BDC04614100240002C0140FFFBFFFFA3
:101FC0000004004870477047F0B581B0354801689B
:101FD0000126B14301602024334D285D297F01296A
:101FE0000AD1401C2855C1B2072903D32E552F48CA
:101FF00006773046304009E0411E2955080603D1D6
:10200000062129552948067730468843E876EFF3BC
:10201000108072B6254FF87F002802D1285D00F0AD
:102020005BFB62B600F006FBF87C797B014320483D
:1020300007D0C0687D210901884202D9EE750020D1
:1020400002E0E97D484248412A2100227A542C21AD
:102050007A545A21795A5622AB5A03265E43731892
:102060009E08AE529A03520CEB7973439B09D21A25
:102070005026BA532A5D52000D4C121951846361E7
:10208000002805D1A0690B49884207D901B0F0BDED
:1020900001F01EF9A06907498842F7D8401CA061E9
:1020A00001B0F0BD0C200040C0000020340500202D
:1020B000B00500200F27000070477047B0B54349B6
:1020C0000A68012002430A600968414D29680143FA
:1020D00029602968890708D42968890705D42968EF
:1020E000890702D429688907F3D52B6880210B431F
:1020F000782293432B606B6B03436B636B6B9B0783
:1021000008D46B6B9B0705D46B6B9B0702D46B6B7E
:102110009B07F3D56B6B0B4393436B63696A014376
:102120006962696A890708D4696A890705D4696A96
:10213000890702D4696A8907F3D53D2109046A68D1
:102140008A430521C90451186960E96A0F22914345
:10215000E96201062A680A432A6041062A680A429F
:1021600008D12A680A4205D12A680A4202D12A689F
:102170000A42F3D06968F02291436960072109029D
:102180006A688A436A60696802220A4382436A6015
:1021900069680C20014008290BD0696801400829B2
:1021A00007D069680140082903D0696801400829FF
:1021B000EED1084C2046FFF7B3FB2046FFF720FC8A
:1021C000686B042188436863B0BDC04600200240AC
:1021D00000100240006CDC027047000070B5094C32
:1021E0002068C0070CD0084D2868084E3060FFF703
:1021F000EBFE0120C043206028683168401A30603F
:1022000070BDC0461020004024480140F008002066
:1022100080B505480168C90704D00121C9430160A0
:1022200004F0A6FB80BDC04610440140F0B58DB05F
:102230004A480B9002200A90002709970124A10523
:10224000834802680A43026002680A400C920C99B3
:10225000610402680A43026002680A400C920C9909
:10226000A10402680A430260006808400C900C98C0
:102270000920C506E0020290A862394E4020019074
:10228000B06280200390B0623648016850220A4351
:10229000A0218A430260016805220A430A218A4379
:1022A00002600F21090242688A4342600C20C04349
:1022B000F1680140F1600321C943F2680A40F2600D
:1022C000EA68294B1A40EA6032680240326030689E
:1022D0000840306000952868184028600AAE3046F3
:1022E000FFF76CFAB471B4800A943046FFF766FACF
:1022F000B471B480019D0A953046FFF75FFA0897E4
:102300000797069705940298049004AE009831460A
:10231000FFF7A8FA08970797069705940495EB4DE1
:1023200028463146FFF79EFA0897079706970594C7
:10233000039C049428463146FFF794FAFF200102DB
:102340000A4A13688B431360094920230B60000677
:102350001368834313600C600DB0F0BD01000100F1
:102360000014004808000140FFCFFFFF04E400E034
:1023700000E100E0F0B58DB000240B940A940994BC
:1023800008940794012505953148816829438160A7
:10239000816829400C910C99690402680A43026023
:1023A000006808400C90022000900690049402906F
:1023B000042001900C98032703970920C00601A967
:1023C000FFF750FA23480168234A0A4002603903A4
:1023D00002688A430260016820229143016001681B
:1023E0004022914301600168802631430160390237
:1023F00002688A4329025118016007A90C740C80F5
:10240000BA0203689343EA029A1802600A943F20D2
:1024100009900894114F3C461C3C2046FFF716FBE0
:102420002068B043206038682843009988433860AA
:1024300038680C21884338603868F0218843386058
:10244000052040027968014379600DB0F0BDC046B7
:102450001410024008000240EFBFFFFF1C000040C4
:1024600080B508480168C9060AD5102141600648B0
:10247000016801229143016003F078FC03F0B0F899
:1024800080BDC0461C3801403000024081B00020B1
:1024900000902248026822490A405218183202600D
:1024A0000268002A08D50268002A05D50268002AB9
:1024B00002D50268002AF3D401220092009B002B6F
:1024C00017D0009B5B1E0093009B002B11D0009B3C
:1024D0005B1E0093009B002B0BD0009B5B1E0093A8
:1024E000009B002B05D0009B5B1E0093009B002BE4
:1024F000E7D103680B4013430360014608390A68BB
:10250000D20708D10A68D20705D10A68D20702D1DA
:102510000968C907F1D001B07047C04608240140DE
:10252000E8FFFF7FB0B503210807404A13688343E3
:10253000012004071B191360830393628C04092391
:10254000DB061D68A54384042C191C6044029C62B0
:102550008C061568A54384062C1914604403946204
:102560000C041D68A54304042C191C6004029C6221
:1025700014682F4D2C406419641C1460C4039462C9
:1025800009051A688A43010551181960800298628A
:10259000B0BDC046F0B5244A14780320050723498E
:1025A0000B68AB43002C04D00124640723430B6069
:1025B00005E0012425072B430B60A3038B628404F1
:1025C0000923DB061D68A5430124E604AD191D603F
:1025D000167887060D68BD43002E03D0E606354306
:1025E0000D6004E0A60635430D6065038D620504A9
:1025F0001E68AE43650475191D6016780A68EF4DB4
:102600002A40002E03D0E50752190A6004E06D1C31
:102610002A430A60E2038A62000519688143600563
:1026200008181860F0BDC046C20000200004004831
:10263000FFFFFF3FB0B523480178062925D80120C8
:1026400002468A4012231A4206D124231A420FD18D
:1026500048210A4214D118E01B4A402306240925C8
:10266000ED06146053609560032909D002290CD14E
:10267000154A164B0024146050609360032904D15E
:102680001149124A022309C10A600F4A1168012048
:1026900003468B400E490C780E49002C08D00C687C
:1026A0001C430C60126890404A6882434A60B0BD87
:1026B0004C681C434C60126890400A6882430A6070
:1026C000B0BDC046E000002008050020001400480E
:1026D000DB0000200804014070B5401E052800D929
:1026E00067E1C04678440079400087440211427394
:1026F00093B3B048037803200407AF490A68A243A4
:10270000002B00D1B4E001235B071A430A60B5E057
:1027100003200107A84A13688B4301210C071B19EA
:1027200013608B03936284040923DB061D68A543B1
:102730008C042C191C604C029C6284061568A5430D
:102740008C062C1914604C03946104041D68A54385
:102750000C042C191C600C029C62964C26781468A0
:10276000964D2C40002E00D1B2E0CD0764191460C4
:10277000B9E003200107904A13688B4301210C073D
:102780001B1913608B03936184040923DB061D6806
:10279000A5438C042C191C604C029C6284061568AD
:1027A000A5438C062C1914604C03946204041D6824
:1027B000A5430C042C191C600C029C627D4C2678ED
:1027C00014687E4D2C40002E00D187E0CD0764199F
:1027D000146088E003210807774A136883430120C7
:1027E00004071B191360830393618C040923DB0620
:1027F0001D68A54384042C191C6044029C626D4C26
:1028000025788E061468B443002D73D0C5062C437A
:10281000146074E003210807674A136883430120AA
:1028200004071B191360830393628C040923DB06DE
:102830001D68A54384042C191C6044029C625D4CF5
:1028400025788E061468B443002D67D0C5062C4346
:10285000146068E0574803780320040756490A6863
:10286000A243002B76D001235B071A430A6077E06E
:1028700001231C0722430A609A038A628304092207
:10288000D20614689C430123DD0464191460840695
:102890000D68A5439C062C190C605C038C61040434
:1028A0001568A5431C042C1914601C0294620C6862
:1028B000424D2C406419641C0C60DC038C620005E2
:1028C000116881431805081810609802906270BD65
:1028D0006D1C2C431460CC03946204E06D1C2C43EB
:1028E0001460CC03946200051A68824348051018EE
:1028F000186070BD85062C431460440394620C0478
:102900001D68A54344042C191C6014682B4D2C40F1
:102910006419641C1460C403946212E085062C439D
:102920001460440394620C041D68A54344042C19EC
:102930001C601468214D2C406419641C1460C4038D
:10294000946109051A688A430105511819608002CB
:10295000986270BD01231C0722430A609A038A62B1
:1029600083040922D20614689C430123DD04641900
:10297000146084060D68A5439C062C190C605C034A
:102980008C6204041568A5431C042C1914601C02F5
:1029900094620C68094D2C406419641C0C60DC03C3
:1029A0008C610005116881431805081810609802B1
:1029B000906270BDC200002000040048FFFFFF3F8E
:1029C000F0B58DB0DF480168C56F6A1ADE4E7281BE
:1029D00093B25A093281DE4C2488A34200D80EE11A
:1029E000DA4C2488A34200D309E10A954368591AB6
:1029F000012500230C939142294600D80C99099196
:102A0000F1618168C368591A9142294600D80C992E
:102A10000891316201694369591A9142294600D8E7
:102A20000C99079171628169C369591A91422946CB
:102A300000D80C990691B162016A436A591A914211
:102A4000294600D80C990591F162816AC36A591A26
:102A500091422F4600D80C9F3763016B436B591A84
:102A600091422C4600D80C9C7463816BC36B591A3D
:102A70009142294600D80C990B91B163016C436CCB
:102A8000591A9142294600D80C990391F163816C3F
:102A9000C36C591A9142294600D80C9902913164AD
:102AA000016D436D591A9142294600D80C99019144
:102AB0007164816DC36D591A9142294600D80C99F1
:102AC0000491B164016E436E591A9142294600D8AF
:102AD0000C990091F164816EC36E591A91422B4694
:102AE00000D80C9B3365016F466F711A91422946DD
:102AF00000D80C99944E7165806F0A9E301A9042EE
:102B000000D80C9D904885650998059A4240039825
:102B10004240D000089A5740029A5740BA0017180E
:102B2000079844400198444064000B98069A50402E
:102B30000B900098C0009A0010184900461885486C
:102B400000788549097801430DD100F081FC002807
:102B500009D07D490879401C0871C0B2652802D3AC
:102B600001207C490870701939190B9B049A534055
:102B7000784A1278002A01D00F225040724D194332
:102B8000884239D11C353CCD6F48C66A6E48076B08
:102B90006D48416B6C48806B92025B0213432202CA
:102BA0001A43EB011343B201674E1A437B011343EF
:102BB00009011943C000084334463C341ECC8D0043
:102BC0000543510029431943CB4A00201080B289A4
:102BD000521CB281012C02D1604A012313703029AA
:102BE0000FDB7278002A0CD05D4800220270C648C4
:102BF0000180B2700DB0F0BDE889401CE8810DB0D5
:102C0000F0BD4A1E2E2A06D855480170BE48002243
:102C10000280C8B20EE0002902D05148007809E0D5
:102C20003178012901D1002171704D490870B649F0
:102C30000880B0700028E2D04A4909780029DED126
:102C4000454909780029DAD0F178884202D000217C
:102C5000B170F070052805D3B178491CB170C9B2C4
:102C60000629CCD30025B570411E142900D962E095
:102C70007944097949008F440A14181C205E242BDA
:102C800032365E3B45505E5E5E5E5E570E003849F2
:102C9000012008704FE0344800783449087015204E
:102CA00049E033490220087045E0314903200870AB
:102CB00041E02F49042008703DE02D4905200870AF
:102CC00039E02A480121017027480570072032E0C9
:102CD0002648057024480121017008202BE088480F
:102CE0000570092027E08648012101700A2022E0B2
:102CF00002F094FE1C480078401C1D4908701848DA
:102D0000007818E00121717107204002F0803278CC
:102D10000D20012A0FD171700DE07571072040025E
:102D2000FF30F0800E2006E00F4800780121081ADD
:102D30000E49087014200A490D700E4908700DB034
:102D4000F0BDC04658060020880400202401002061
:102D500024050020580700205A05002052050020B5
:102D600059070020560500203E050020DC00002009
:102D70004F050020F4080020F0B581B0564E03CE78
:102D8000081A564C0119574A083E91420BD8564D25
:102D90006978002909D0E97800295FD1A97800294C
:102DA0002DD028892CE04E4E7FE055490978002926
:102DB0000DD054490A887D21CB00904216D94B4C46
:102DC000248809010091511C5B1C224612E04749EE
:102DD0000A884A4909887D231B012F3300932F233A
:102DE00002F090F9312807DA002005E0434909880C
:102DF0000093002302F086F928613F4E55E02881B8
:102E0000491CA970394F398880B200F01BFB332868
:102E100002DB002068701AE038880721414305CEA4
:102E2000101A4018C0083880A978083E33290ED3FC
:102E3000193881B22E4A8918CA0F891849082122E7
:102E40002C4B99540121E970388002F09BFA3888A4
:102E50002881E8780028D0D003CE081A29797D226D
:102E6000D200FA32904208D2491C2971234A1388B1
:102E700007265E433018C0081080C8B21E4E4C288A
:102E800013D31E48018819318AB2A2183332D30FE6
:102E9000D21852082023174CE25400246C70018091
:102EA00002F0BCFD2C7102F049FA00203080164877
:102EB0000288F54909698C1A144B1B689C4201DD94
:102EC000D11806E0541A9C4203DDD11A018001B0EA
:102ED000F0BD018001B0F0BD58060020DFFCFFFF0F
:102EE0007C0500207605000018050020EE0000207B
:102EF0002AF9FFFF5A07002086050020EC00002079
:102F00003F050020F000002080050020B0010020D7
:102F1000F0B58FB00024059401260696B203019205
:102F20003C4841681143416041681140089108994B
:102F3000B10402680A4302600068084008900794E0
:102F400002200390089840200090029003250495E9
:102F5000314802A9FEF786FC304F386830490140FD
:102F6000396028033968814339603868202101437A
:102F70003960386800998843386038688021014397
:102F800039602802396881433960A8023968814371
:102F90003960FF20000623490A688243F0071018B1
:102FA0000860F006204908600E940D9404200C90EF
:102FB0000B940A9409941D4808901D4C08A92046BA
:102FC000FEF7A2FEB002A1688143A160A0680821BB
:102FD0000143A160206830432060019910313868B6
:102FE0000840102805D120462430F8601148B86008
:102FF00004E020462430B8600E48F8607868B34991
:1030000001404031796020681021014321600FB0F8
:10301000F0BDC046141002400004004830000240D9
:10302000EFBFFFFF18E400E000E100E0A068060049
:1030300000380140F1050020184900220A600A68A2
:10304000824208D20A68824205D20A68824202D2CB
:103050000A688242F3D3704710B5104900220A6013
:103060004B2292014A600A46103A146801231C431D
:1030700014600A2444430868A04208D20868A042A9
:1030800005D20868A04202D20868A042F3D33020DB
:10309000486010681843106010BDC04624480140C5
:1030A000F0B5764BC9337648438076490F680025E2
:1030B0002A4603E052182835782D77D071494E19E9
:1030C0007168CF1B1BD1B768791A21D1F168CF1B6A
:1030D00027D13769791A2DD17169CF1B33D1B769DF
:1030E000791A39D1F169CF1B3FD1376A791A45D1A5
:1030F000716ACF1B4BD1B76A791ADCD050E09CB211
:10310000A74201D247803B46D219B768791ADDD071
:103110009CB2A14201D241800B465218F168CF1BEC
:10312000D7D09CB2A74201D247803B46D21937691B
:10313000791AD1D09CB2A14201D241800B465218DB
:103140007169CF1BCBD09CB2A74201D247803B46CE
:10315000D219B769791AC5D09CB2A14201D2418077
:103160000B465218F169CF1BBFD09CB2A74201D2C7
:1031700047803B46D219376A791AB9D09CB2A1422E
:1031800001D241800B465218716ACF1BB3D09CB25A
:10319000A74201D247803B46D219B76A791A8AD032
:1031A0009CB2A14286D241800B4683E75109364D3D
:1031B000A961364C2178012925D1991E89B20229AD
:1031C0000AD80F21C9018A4206D20021A971304EC6
:1031D00031700E262D490EE0591F89B2032912D8ED
:1031E0001921C9018A420ED2294901260E702749A8
:1031F0000E70A91D0726274F3E7001260E70202154
:10320000017025490E70254E317801290BD1C93B3B
:1032100099B21A4A914230D21D492F220A700121D7
:103220003170022125E02778002F26D1002924D1F2
:10323000991E89B2022909D80F21C9018A4205D2F3
:103240000021A971124A11700E210DE0591F89B297
:103250000329DCD81921C9018A42D8D20C4901229C
:103260000A702270AC1D07210A4A117001212170D9
:103270002021094A012313700170F0BD574D000051
:103280002001002058060020180500205C050020C1
:10329000AC010020150500205B0500205D05002025
:1032A0000748084981600849C1604168074A0A40E7
:1032B000D11C4160016801220A4302607047C04688
:1032C0001C00024040240140E00500200000FFFFF8
:1032D0000448006801218140034802680A430260F3
:1032E0007047C046080500200004014010B5304971
:1032F0000A68012002430A600A68102313430B6026
:1033000002020B6813430B600B6804241C430C601F
:103310000B6840241C430C6083020C681C430C6047
:1033200003030C681C430C6064230B620B46203BB8
:103330001C6804431C60C3034C6A1C434C620C3978
:103340000B6803430B6081070B6A13430B620A6827
:1033500002430A6017490A460C3A13680343136094
:103360008A6802438A600A6802430A600A688243E4
:103370000A60FC490A6802430A604A6902434A61DA
:103380000D490A6802430A604A6902434A61F649E4
:103390000A6802430A604A6902434A61CA680243F2
:1033A000CA60FEF791F8FFF77BFFFFF76FF810BDDB
:1033B000202C01400C20004000040040B0B5032147
:1033C00008071A4A13688343012004071B19136076
:1033D000830393618C040923DB061D68A5438404E1
:1033E0002C191C6044029C628C061568A543840657
:1033F0002C191460440394610C041D68A543040453
:103400002C191C6004029C621468094D2C4064193C
:10341000641C1460C403946109051A688A43010599
:103420005118196080029862B0BDC046000400487F
:10343000FFFFFF3F0248016801220A430260704714
:10344000142C0140401AC1174840401A7047000030
:1034500002480168042008407047C0461000004838
:1034600010B582B047490B680120420713604B68D2
:1034700053608B689360CB68D3600B6913614B69B1
:1034800053618B699361CB69D3610B6A13624B6A99
:1034900053628B6A9362CB6AD3620B6B13634B6B81
:1034A00053638B6B9363CB6BD3630B6C13644B6C69
:1034B00053648B6C9364CB6CD3640B6D13654B6D51
:1034C00053658B6D9365CB6DD3650B6E13664B6E39
:1034D00053668B6E9366CB6ED3660B6F13674B6F21
:1034E00053678B6F9367C96FD16727490B68274A6A
:1034F00013604B6853608B689360CB68D3600B6933
:1035000013614B6953618B699361CB69D3610B6A1A
:1035100013624B6A53628B6A9362CB6AD3620B6B02
:1035200013634B6B53638B6B9363C96BD163844998
:103530000A6802430A600968014001910198144831
:1035400001680324A14301600168214301607D20DB
:10355000C10010480068FDF7DCFE401E010E00D0DF
:10356000FEE70D490D4A50600D4803680B40A10766
:1035700059180160002090600720106062B602B008
:1035800010BDC04600100008801000088000002018
:1035900000000140A8010020FFFFFF0010E000E054
:1035A00020ED00E0F0B589B0654A10680125284398
:1035B0001060106828400390039828075168014361
:1035C000516051681646014003910398FEF776FD5D
:1035D0005C48016810220A430260FEF727FE301F94
:1035E0000168294301600068284003900398FF2088
:1035F0000104554B1A688A43A90551181960A9029C
:10360000524C21601968524A1140AA038918196066
:10361000690221600027079706970597049703978B
:10362000290272680A43726072680A400892089917
:103630000006996881439960E804206003A9172077
:10364000009008800697434805900497424C204616
:10365000FEF7FCF980200290C143019120680840E8
:103660002060FEF7C9FB0797069705970497039715
:10367000706802221043706003A900980880706887
:1036800010400890334805900898344E3446083C62
:103690002046FEF7DBF92068019B18402060306867
:1036A0002F4901403160301F016870229143016051
:1036B000306818403060079706970597049703977E
:1036C000A8041F4A11680143116003A90F742F2633
:1036D0000E801268024008921E4805900898214CFE
:1036E0002046FEF7B3F92068029908432060079747
:1036F00006970597049703976804114A11680143D8
:10370000116003A90F740E801268024008926420B1
:1037100005900898144C2046FEF798F92068029905
:1037200008432060084AD06809490840E903401866
:10373000D060680505490860FEF71CFE09B0F0BDC1
:10374000181002400020024008E400E000E100E020
:10375000FF00FFFFFFFF00000020004008040040C2
:10376000F8BFFFFF0048014000440140B0B5414CA4
:10377000E0687E2821D340490A6840487C2A09D85D
:103780004E22825AD2084A2A04D8A26992087D2A77
:1037900000D2B0BD56223A4B9A5A5208096891425B
:1037A000F7D32421425C521C4254D0B2652804D382
:1037B00001F0D6FC0020A061B0BD314C607EE17EFE
:1037C00000291AD0002832D02E4909682E4A1268E2
:1037D00013691942DDD0012829D013691942D8D0C4
:1037E000022824D013691942D3D003281FD01369AB
:1037F0001942CED0001FEBD119E0002817D0214983
:103800000968214A126813691942C2D101280ED0F1
:1038100013691942BDD1022809D013691942B8D1E0
:10382000032804D013691942B3D1001FEBD101F072
:1038300097FCEFF3108072B60F4A10685A230F49B5
:10384000C85283B2156800209D42054601D915680B
:10385000ED1A156050228B5AA47DE3408B520B4920
:1038600088615A1C0A6248600868012202430A60A3
:1038700062B6B0BDB005002024040040340500202D
:10388000C00000200C050020100500200C20004086
:10389000F0B585B001273C02E74DE84928462246AD
:1038A00001F074FE687804280BD8BFF34F8FF148FD
:1038B000F1490160BFF34F8F00BF00BF00BF00BFE1
:1038C000FAE7687C401E41424141DD4EB172A87C5E
:1038D000401E41424141F172E87C012800D1B7739A
:1038E0000497E87D212800D31020D64FF871287D59
:1038F000401E41424141B970687D401E41424141F4
:10390000F970A87D401E414241413971287E01462F
:103910000839CD4BCE4A582929D8CE4E18280AD37B
:103920002146F331009118216022334601F0EAFB71
:1039300046217852287E01460C390B2908D800967A
:103940000C211822C44B01F0DDFB46217852287E61
:10395000BB4EFC21014008290FD1BC490091072131
:103960001022BE4B01F0CEFB4621785207E01846EC
:10397000F93044217852B74807E04620385AB44A13
:10398000502178524821785280B21060687E0146FA
:103990003239C9B2642901D83138F874E87E3872F6
:1039A000A87E2821039148431430B884287F401E04
:1039B000414241413173687F401E41424141717330
:1039C0000226304602F0C2FE687800282DD0A87F7B
:1039D0000B2800D9052002F0B9FE2320285CB8731B
:1039E0002220285C9E49401838862020285C400010
:1039F0009C494018B8852120285C40009249401815
:103A0000F885E87F401E414241418D48C173242022
:103A1000285C02280BD0012811D1894B0498987496
:103A20002520285CFA3078860CE0BD8CD6E0844BEB
:103A30009E742520285C64214143798402E00020A3
:103A40007F4B98740020029018742621695C491EEF
:103A50004A424A41DA740398295C4A1F142A00D862
:103A600079732922A95C4B1E092B00D8B9722A212F
:103A7000695C4B1EDBB2082B0AD8F9720923DB43C1
:103A80004B432E3B3B73D9B2714883690B4383612F
:103A90002B216B5C1E46463E462E00D8BB712C2364
:103AA000EB5C5E1E622E04D86548049E86755B0042
:103AB000FB8401942D23EB5C5E1E092E00D87B72E3
:103AC0002E23EB5C092B5E4C0AD8042B0DD8C04684
:103AD0007B441B795B009F4402989EA2A600584C31
:103AE00002982085604A049810703522AA5C521E04
:103AF0005342534163543621695C012921D1372156
:103B0000695C142251432F315423E1523821695CFE
:103B100051432F315622A152049860703B21695CB9
:103B2000534A3C23EB5C3D26AE5D101D4AC0392153
:103B3000695C64224A433A21695CC8234B43BB65F4
:103B4000FA653F21695C14224A4340217A524E2390
:103B5000FE5A387B3618FE523E23EB5C6386FB7CB4
:103B6000D3187B871018FA8F8018F887685C55285F
:103B700001D1049820704120285CA0704220285C6C
:103B8000E0714320285C38704420285C2072452076
:103B9000285C552801D1049820714620285CE070EB
:103BA000BD8CA8084A2801D802983874397A202098
:103BB000FDF7AFFB064611212846FDF7AAFB31466B
:103BC000FDF7A7FB4C21785264212846FDF7A1FBA5
:103BD0003146FDF79EFB4A217852019C2046F43085
:103BE00000902C341948C21C7D20C3002846214671
:103BF00001F088FA3887B8780028114901D005B05B
:103C0000F0BD0020C87205B0F0BD0D4C0498039AB9
:103C1000A054154A68E70A4C0498A05465E70522A9
:103C2000074C627161E7064C0498039AA0540E4A4F
:103C3000029B13700D4A57E75A070020007C0008CA
:103C400034050020C0000020D6060000B50B00009F
:103C50002C2C0140CF0700009E0F00006D170000C4
:103C60005E050000EE0200008904002088040020A8
:103C7000300100200CED00E00400FA0500B593B01F
:103C8000FFF7EEFBFFF78EFCFFF730FBFFF700FEC0
:103C9000A24C207903225040E17802925140014326
:103CA0000120109000020490002930D003202071E0
:103CB000E070601D9AA10C22FDF714FA9C4841782F
:103CC0006170C179E1759B498A7A521E5342534112
:103CD0006374CA7A521E53425341A374897B491EAE
:103CE0004A424A41E2748178491E4A424A41227559
:103CF000C178491E4A424A4162750079401E4142DC
:103D00004141A1758C4A2046049901F0BBFE8948C7
:103D1000807B002802D08648818F41874620844FCF
:103D200011903C5A442012903C52502001903C5239
:103D30004E26B85B60437D210F910D012946FDF7AA
:103D4000E8FA0896B8537B4EB07A401E411E88416F
:103D50003877F88F60430D952946FDF7DAFA397BFD
:103D60004018F887B878002801D10020B073F07CA3
:103D70007249002815D00846BE3008997852402074
:103D8000395A323139524220395A323139520020AF
:103D9000B0730121F172397438717880788F3230C4
:103DA00078876748402103910160802101610D9867
:103DB0003030644908607079401F634C634D0128BE
:103DC0000BD8FFF7A5F801F00BFC27200121315497
:103DD00001F064FB2C600F9C0DE002F025FD4820F3
:103DE000002131522C6001F00FFC707800280F9CEC
:103DF00001D00120707530785549002808D0562030
:103E000039520020B07301F0ABF901F05DFA01E026
:103E100001F044FB02F07EFCFDF7C6FFFF20683096
:103E20000F90E00009904B4E4B4C424DA879002872
:103E300012D0687A022808D0012803D1FEF7C0FD0D
:103E40000020687202F0D2F804E0A08B01F07CF848
:103E5000002068720020A8713B483C490860E08C53
:103E6000A18C0818218D4018618D4018A18D401833
:103E7000E18D4018001D4008E061F87800280BD063
:103E80005620385A1199795A00914B086021C8225E
:103E900001F038F9129978525222A85A2C498842D6
:103EA0000AD92621695C002901D000F0E3FC2B49E6
:103EB000884201D300F0FCFC0E92A88F284988426A
:103EC00066D33E202F5E3846FDF7FFF92549FDF702
:103ED00086F901466068FDF729F96060224800789C
:103EE00003280BD0022843D00128114F4ED12D209A
:103EF000295C0F9899300843022143E06620285A34
:103F00001A494143090C401A400840180009C1B23F
:103F10000A48D6300843012133E0C0465A07002042
:103F2000463033312052656620455343000000007F
:103F3000C000002034050020007C00082A03000097
:103F40001814004828000048AAAA000000300040C9
:103F5000881300003C2C0140B0050020214E0000D9
:103F6000112700000000B4438D040020AF4700007B
:103F7000B8B2C0B229214143C80A029A510240187E
:103F80001146E94FE94A1170E94908800020A887E5
:103F90002878002800D1D3E0E06903210C91FDF7D7
:103FA000D7F90146E060287F00281ED0A0691528B7
:103FB0001AD3206AFFF746FAE1680D9A914211D2AE
:103FC0004A0890420ED9222000212954788F4008B7
:103FD000039AA852A1610120F875D649E160E87DF5
:103FE000401CE875002028772162A87F002815D0A2
:103FF0006879002812D16068FDF772F903466620DF
:10400000295A2D20285C6C22AC5AEA8F0094CA4CA5
:1040100000F082FC01F084FE0020A877687F401C3D
:104020006877C0B2652800D2C8E0FDF739FA306879
:1040300040000321FDF76DF91299795A401C80B2B6
:10404000884200D30846B8867060BC490868BC4AFC
:104050001040001D0860BB4908884989091A6E2272
:10406000AA5A121A50205043FDF772F91E302D2122
:1040700068547021685220200B902F5C7800B24A5F
:10408000115A0A9158216C5A14526625AF48405B68
:10409000072646437220AD49085AAD494843AD4909
:1040A000FDF737F9A049497C48436421FDF731F910
:1040B0008019C608A5484653A44D781CC1B20027F4
:1040C0003129394600D801460B9829549A49086984
:1040D0000A9A801A00190C4608613221FDF719F975
:1040E0001199685280B2A060994948439A49FDF7F6
:1040F00010F9010400D53846E887A87C00288A4FCB
:104100005AD0B0B2798C814254D9688F401C6887EC
:104110002321695C914A5143099A891880B28142EE
:104120004ADA4A2000242C52FEF7FCF901F018F874
:1041300048202C5222202C5426202C547E4C3BE02C
:104140001298285A43424341A26909998A42109918
:1041500009D90023642A109A0AD9C828109C0BD2C6
:1041600000290CD00DE019460023642A109AF4D8D7
:104170001A46C828109CF3D31C46002901D12240BE
:1041800002D0212100226A54A97B002904D09F2853
:1041900002D8212100226A54297E0029664C00D1D0
:1041A00009E20F992931884200D3F5E62120002148
:1041B0002954F1E600206887002068772420002633
:1041C0002E542320285C002800D1D3E04A22A85A8C
:1041D000312800D21DE12621695C002900D118E1B7
:1041E00088280C9200D96BE1687C00285C4E10D0C6
:1041F0005C4A106801218843106000F0B1FF30462E
:10420000083800240460301F04603460FEF7C2F9EF
:104210006C745E22A85A397F002900D1B6E2411E93
:1042200008B200280F9C204600D40846A8526021FE
:104230006A5A521E13B2002B234600D413466B5207
:104240006221695A4A1E11B20029214600D4114642
:1042500062220B92A9525425795B00B24000424A77
:10426000105E0918119C385B48430D9E3146FDF7DE
:104270006FF8797A48430A273946FDF769F880B222
:1042800002F052FA2848405B6021304A515E4900F2
:10429000354A515E41182448005B48433146FDF7DA
:1042A00057F82149497A48433946FDF751F880B219
:1042B00002F040FA1C48405B244D0B99695E4900AE
:1042C000294A515E41181848005B48433146FDF7C2
:1042D0003FF81549497A48433946FDF739F880B225
:1042E00002F02EFA1048077A20483946FDF711F8F7
:1042F00006461F4839460C4FFDF70BF803460C984D
:10430000285A00963021782200F0FCFE0E9C38538B
:1043100080B2FEF791FE395B0F98F130FCF7F9FFA0
:104320006C216852044C9BE2C00000208D040020E8
:104330008E04002010270000B00500200824014052
:10434000E8FFFF7FB8F7FF1FF608002034050020C4
:10435000E40C0000FF0F00009C0900007CFCFFFF44
:104360003C2C01400C200040B60100202A03000034
:10437000581B000022262046AC5DC169F948FCF7B5
:10438000E7FF60436C21685280B2F7494843C00C94
:1043900074216852397C00290CD008997B5A4C2131
:1043A0007A5A4A21795A50243C5B009400F0AAFEC4
:1043B000482178522D20285CBA7990420BD950219F
:1043C000795A012300934B0811460A390A3200F04A
:1043D00099FE482178522B20285C0028E34C0AD013
:1043E0004A20285A202100910D9A2F322F21022392
:1043F00000F088FEF8715621A06963280E9134D828
:10440000795A0F988D3081422FD90C20642939D3E5
:1044100039E001246C74287B002800D1D0E0119889
:10442000D3490F5AD248807A400038181338089977
:104430006852CF49129A895A80B248433946FCF7EC
:1044400068FF381ACA4F401C6A25CA49485301F010
:1044500069F8C848405BC74DC74A1146083908602B
:10446000111F08601060EC77B3E0E0680C21009148
:10447000049AF4326421032300F044FE0E99795A21
:10448000642900D202207876BC480068BC49884282
:1044900000D2E5E1A85D012800D0E1E12120295CFE
:1044A000491C295400F05CFE01200B90F8754A204D
:1044B000285A302800D390E00020A855B1488EE05B
:1044C00001200B9068745E23E85A397F00290A9313
:1044D00000D175E1411E08B200280F9800D40846AB
:1044E000E85260216A5A521E13B2002B0F9B00D46F
:1044F00013466B526221695A4A1E11B200290F9964
:1045000000D41146059662220792A9525425795B80
:1045100000B240009C4A105E0918119C385B484369
:104520000D9E3146FCF714FF797A48430A21069123
:10453000FCF70EFF80B202F0F7F8785B6021EC4ADE
:10454000515E4900F24A515E4118385B484331469A
:10455000FCF7FEFE797A4843069E3146FCF7F8FEEA
:1045600080B202F0E7F8785BE14D0799695E490097
:10457000E74A515E4118385B48430D99FCF7E8FE65
:10458000797A48433146FCF7E3FE80B202F0D8F86E
:104590000C98285AC82800D8B1E001980E99785292
:1045A0000A9E0599A953D84CFEF746FDA85B002842
:1045B00000D055E1ADE0952800D9CFE06420CEE0F1
:1045C000CF49084608380660081F06600E60FDF7F0
:1045D000A9FFCD4C6C202E5242E10E98385A0C9A0D
:1045E0003B460027A761C54E31685A240C942953D5
:1045F000424388B21418A0080E9958520A9737609F
:1046000080B2997EFCF785FEE108BF4C091A502262
:10461000A9526061A0690A2813D230682027B34AE2
:10462000D05D117F01291AD1401CD055C1B2072994
:1046300004D3AE480B99C155297708460B99084019
:1046400018E088B231688142E8D231688142E5D20F
:1046500031688142E2D231688142F3D3DEE7411E04
:10466000D155080604D10621A048C1550B982877DA
:104670000B9888430A9E9D49C876EFF3108072B666
:10468000E87F002803D19948C05DFEF725F862B69F
:10469000FDF7D0FFE97C481E8141687B0028109817
:1046A00000D10846012806D1E1680D9A914202D94D
:1046B0008E490B9ACA752A216E542C216E542521DD
:1046C0006E54A169491CA1610C9AAA5A874CE35DFA
:1046D00027468D4C5B001B195A84002808D01429EA
:1046E0000E9800D2BCE0385A8A49884203D3B7E01A
:1046F0001F2900D2B4E0FE75FEF7EAFDB0E00E9887
:10470000385A814C0A9EFEF797FCA85B002800D01F
:10471000A6E05620774939520B986884F8752162D3
:10472000E16076480160059EEE771420A061687B09
:10473000002803D04220385A03996852387E397FC6
:10474000012957D1401C20217854C2B2072A02D334
:104750000B98785428770B99084056E00A20B874D3
:104760001AE4C046C0270900CDCC0000B0050020E7
:10477000C0000020340500203C2C014024040040EF
:10478000C9AF000088130000B6010020431C18B216
:1047900000210F9EB042084600DC1846A852602255
:1047A000AB5A5B1C1CB2B4420C4600DC1C46AC523B
:1047B0006222AA5A521C13B2B34200DC47E547E515
:1047C000411C08B20F9CA042304600DC0846E8526B
:1047D00060216A5A521C13B2A342334600DC1346CE
:1047E0006B526221695A4A1C11B2A142314600DC67
:1047F00087E687E6411E202039540A0603D10621A8
:1048000039540B9828770B988843F876EFF310808B
:1048100072B6E87F002803D12020385CFDF75CFFEA
:1048200062B6FDF707FFE87C411E8841697B0029DD
:10483000109900D10146012905D1E0680D998842FF
:1048400001D90B98F8752A202E542C202E545A206A
:10485000285A2021795C490009194884FEF7EAFDAD
:1048600028780028264E01D1FFF7E0FA00F03EFF3D
:10487000FFF7DCFAFDF756FE0020A864E884314615
:1048800008390860311F0860306000F027FF012000
:1048900001021E48FCF73FFCBFF34F8F1648194931
:1048A0000860BFF34F8F00BF00BF00BF00BFFAE733
:1048B000FDF738FE0020A864E88431460839086016
:1048C000311F0860306000F009FF012001020F482D
:1048D000FCF721FCBFF34F8F07480A490860BFF37C
:1048E0004F8F00BF00BF00BF00BFFAE7C00000202D
:1048F00034050020282300000400FA0524040040A9
:104900003C2C01400CED00E0B005002058060020D2
:10491000B6010020D1070000F0B583B0EF4C089D30
:104920002572A3712271A170207002952D0A019544
:10493000E57100931B0A6371170AE7700E0A66702F
:104940004400072540B2002800D571E1600064B240
:10495000002C00D572E1440040B2002800D573E17C
:10496000600064B2002C00D574E1440040B200281D
:1049700000D575E1600064B2002C00D576E14400FA
:1049800040B2002800D577E1600064B2002C00D569
:1049900068407040440040B2002800D573E16000D8
:1049A00064B2002C00D574E1440040B2002800D568
:1049B00075E1600064B2002C00D576E1440040B29D
:1049C000002800D577E1600064B2002C00D578E1C2
:1049D000440040B2002800D579E1600064B2002CA8
:1049E00000D568404840410040B2002800D577E13A
:1049F000480049B2002900D578E1410040B20028C2
:104A000000D579E1480049B2002900D57AE141009A
:104A100040B2002800D57BE1480049B2002900D50A
:104A20007CE1410040B2002800D57DE1480049B258
:104A3000002900D568404740780079B2002900D5A8
:104A400079E1410040B2002800D57AE1480049B23E
:104A5000002900D57BE1410040B2002800D57CE16F
:104A6000480049B2002900D57DE1410040B200284C
:104A700000D57EE1480049B2002900D57FE1410020
:104A800040B2002800D569404A40500051B2002988
:104A900000D57BE1410040B2002800D57CE1480010
:104AA00049B2002900D57DE1410040B2002800D57F
:104AB0007EE1480049B2002900D57FE1410040B2C3
:104AC000002800D580E1480049B2002900D581E1E5
:104AD000410040B2002800D569404B40580059B20F
:104AE000002900D57DE1410040B2002800D57EE1DB
:104AF000480049B2002900D57FE1410040B20028BA
:104B000000D580E1480049B2002900D581E141008B
:104B100040B2002800D582E1480049B2002900D502
:104B200083E1410040B2002800D56940009A4A4024
:104B3000500051B2002900D57EE1410040B200286A
:104B400000D57FE1480049B2002900D580E141004D
:104B500040B2002800D581E1480049B2002900D5C3
:104B600082E1410040B2002800D583E1480049B20B
:104B7000002900D584E1410040B2002800D56940F9
:104B8000019A4A40500051B2002900D57FE141000E
:104B900040B2002800D580E1480049B2002900D584
:104BA00081E1410040B2002800D582E1480049B2CD
:104BB000002900D583E1410040B2002800D584E1FE
:104BC000480049B2002900D585E1410040B20028E3
:104BD00000D56940029A4A40500051B2002900D5E0
:104BE00080E1410040B2002800D581E1480049B28F
:104BF000002900D582E1410040B2002800D583E1C0
:104C0000480049B2002900D584E1410040B20028A3
:104C100000D585E1480049B2002900D586E1410070
:104C200040B2002800D587E1C648417203B0F0BD0C
:104C30006C40600064B2002C00D48CE668404400F4
:104C400040B2002800D48BE66C40600064B2002CB7
:104C500000D48AE66840440040B2002800D489E6C7
:104C60006C40600064B2002C00D488E668404400C8
:104C700040B2002800D487E66C40600064B2002C8B
:104C800000D585E685E66C40600064B2002C00D457
:104C90008AE66840440040B2002800D489E66C40AF
:104CA000600064B2002C00D488E66840440040B242
:104CB000002800D487E66C40600064B2002C00D469
:104CC00086E66840440040B2002800D485E66C4087
:104CD000600064B2002C00D583E683E6E605002080
:104CE0006940480049B2002900D486E66840410086
:104CF00040B2002800D485E66940480049B2002946
:104D000000D484E66840410040B2002800D483E625
:104D10006940480049B2002900D482E66840410059
:104D200040B2002800D481E66940480049B2002919
:104D300000D57FE67FE66840410040B2002800D4FD
:104D400084E66940480049B2002900D483E66840FF
:104D5000410040B2002800D482E66940480049B2D0
:104D6000002900D481E66840410040B2002800D408
:104D700080E66940480049B2002900D47FE66840D7
:104D8000410040B2002800D57DE67DE66840410044
:104D900040B2002800D482E66940480049B20029A8
:104DA00000D481E66840410040B2002800D480E68B
:104DB0006940480049B2002900D47FE668404100BC
:104DC00040B2002800D47EE66940480049B200297C
:104DD00000D47DE66840410040B2002800D57BE663
:104DE0007BE66840410040B2002800D480E669407C
:104DF000480049B2002900D47FE66840410040B233
:104E0000002800D47EE66940480049B2002900D459
:104E10007DE66840410040B2002800D47CE669404D
:104E2000480049B2002900D47BE66840410040B206
:104E3000002800D579E679E66840410040B20028B4
:104E400000D47FE66940480049B2002900D47EE6DC
:104E50006840410040B2002800D47DE66940480027
:104E600049B2002900D47CE66840410040B20028E5
:104E700000D47BE66940480049B2002900D47AE6B4
:104E80006840410040B2002800D578E678E66840E6
:104E9000410040B2002800D47EE66940480049B293
:104EA000002900D47DE66840410040B2002800D4CB
:104EB0007CE66940480049B2002900D47BE668409E
:104EC000410040B2002800D47AE66940480049B267
:104ED000002900D479E66840410040B2002800D59E
:104EE00077E677E66840410040B2002800D47DE6CE
:104EF0006940480049B2002900D47CE6684041007E
:104F000040B2002800D47BE66940480049B200293D
:104F100000D47AE66840410040B2002800D479E627
:104F20006940480049B2002900D478E66840410051
:104F300040B2002800D477E669400248417203B0CD
:104F4000F0BDC046E6050020F0B583B0664EF5889A
:104F5000002D02D00020F08015E064490978002976
:104F600000D16348C10B09D10322930303400121FF
:104F70008C03A34200D090E0062200E007223261B9
:104F8000D040550205435C480078800001905B49A1
:104F90000C1840236360290A5948405C0090820045
:104FA00018469043A0602F09794069400F26029669
:104FB0008E43290189194C4A51610099CA001A404F
:104FC0004240E260C8030090029807404C48C75D29
:104FD000B90200980143029805404948405D00909D
:104FE00045010D434648805D02902E4606433E48EB
:104FF0008661C80A1840504020618A0A1A4042401F
:105000006261480A18405040A061B900194041400F
:10501000E161FA001A404A4022623F20C043024048
:10502000A9091940514061626A091A404A40A262C6
:10503000290919405140E162009DAA001A404A40E6
:105040002263E90019405140616372081A404A40E6
:10505000A263024071001E405640E6631940714051
:1050600021640022254D019EAA51029DAA001A40EA
:105070004A406264E90019405140A1642A011A4083
:105080004A40E26469011940514021650140E80746
:10509000400E4840606503B0F0BD07235B0303404A
:1050A0004C03A34201D1052269E70F231B030340F0
:1050B0000C03A34201D1042261E71F23DB0203405A
:1050C000CC02A34200D15AE73F2292020240890259
:1050D0008A4201D1022252E77F2149020140054A5A
:1050E00089184A424A414AE78804002056050020B0
:1050F000FFFF000000FEFFFF150500205C080020F8
:105100002E730008F0B5059C88421EDD0F461D4633
:10511000264682421EDD1346974210DCB5421BD064
:1051200071194C10D9194A10974217D08242EFDA00
:10513000511C1A46234634468142E7DB05E01946F6
:105140003A4633462C468142E0DB824200DC23466D
:105150001846F0BD3046F0BD2846F0BD2046F0BDF3
:1051600010B50B48006801210A46824009480346F1
:10517000143B1C6894431C6002680A430260016887
:1051800002220A430260016840220A43026010BD05
:105190000805002014040140F0B581B0BA4DBB48A9
:1051A0006860EFF3108072B6BB480078E860286151
:1051B00068617924B64EB74F3760A41E142120468B
:1051C000FCF7A7F8FDF788FA60080A3028600A2083
:1051D000FDF742FF022CEFD8FDF7A4F9002028606C
:1051E000CE490880CE480088686062B601B0F0BD44
:1051F000F0B581B00320FDF76FFA00263225009646
:1052000003E0761CAD1CAE2D47D2A248A049086031
:10521000C24800990180284840198778FF2FF0D0B4
:10522000C07800282CD00A21B94A1160F7214143E7
:105230007D20400109182148FCF76BF804462048FE
:105240002146FCF766F8B2494860B34909784843FB
:10525000B049FCF75EF8AE49C86008614861F0B239
:10526000FE214143CE1917482146FCF752F87043FE
:105270006421FCF74EF880B2FDF7EEFE0026C1E790
:105280000024A348C46004614461F0B2FE2141439C
:10529000C819FDF7E1FE2646B4E7FDF743F9002003
:1052A0009B4A10609E49098851609C490880794852
:1052B0007749086001B0F0BD5A0700208096980039
:1052C000003E4900A0860100B0B5EFF3108072B631
:1052D0008F4D9048686090480078E8602861686168
:1052E0000120FDF7F9F9282028604B208400204692
:1052F000FDF7B2FE0220FDF7EFF91E2028602046E0
:10530000FDF7AAFE0320FDF7E7F9192028602046E3
:10531000FDF7A2FE0420FDF7DFF9142028602046E7
:10532000FDF79AFEFDF7FEF8002028607B49088013
:105330007B480088686062B6B0BDC046B0B5744DA9
:10534000744868602820286073480078E860286105
:1053500068610220FDF7C0F996242046FDF77CFE27
:105360004B484C490160502028602046FDF774FEF0
:10537000FDF7D8F800202860684908806848008850
:105380006860B0BDB0B5624D624868603220286088
:1053900061480078E860286168610220FDF79CF9A7
:1053A00096242046FDF758FE39483A4901601E20F0
:1053B00028602046FDF750FEFDF7B4F80020286075
:1053C00056490880564800886860B0BDB0B5EFF314
:1053D000108072B64E4D4F4868602D482D490160CF
:1053E000502028604C480078E860286168610320FC
:1053F000FDF772F964242046FDF72EFE4620286052
:105400002046FDF729FE282028602046FDF724FECF
:10541000FDF788F80020286040490880404800884F
:10542000686062B6B0BDC046F0B581B0384D39484D
:105430006860EFF3108072B6154E164F37603C204F
:10544000286035480078E860286168610120FDF730
:1054500043F94B242046FDF7FFFD502028602046ED
:10546000FDF7FAFD5A20286037602046FDF7F4FD6D
:10547000FDF758F80020286028490880284800884F
:10548000686062B601B0F0BD282C0140CF07000073
:1054900000300040AAAA0000F0050020B0B5EFF3EC
:1054A000108072B619480078194DFF2802D0FFF716
:1054B0009FFE25E01748686017480078E86028617B
:1054C00068610320FDF708F937202860C8242046CA
:1054D000FDF7C2FD0520FDF7FFF8282028602046D3
:1054E000FDF7BAFD0620FDF7F7F8192028602046E1
:1054F000FDF7B2FDFDF716F808480021018029608C
:1055000007480088686062B6B0BDC046807C00086D
:10551000282C0140CF070000F00500208605002060
:105520000601002010B5032081040922D206136869
:105530008B4301218C041B1913604B0293620304FB
:1055400014689C430B04E31813600B029362030579
:1055500014689C430B05E31813608B0293620307E6
:10556000094A14689C434B07E318136083061468C8
:105570009C43CB06E3181360800713688343C80776
:105580001818106010BDC04600040048F0B5012A8C
:1055900024DB032413462340551E032D01D200248F
:1055A0000EE0A24300240D5D055505190E1977780C
:1055B0006F70B778AF70F678EE70241DA242F2D10A
:1055C000002B0BD0625C0255012B07D0621C555C8E
:1055D0008554022B02D0A21C515C8154F0BD000006
:1055E000074841683C4A0A404032426005490A681F
:1055F000402313430B60016801220A430260704795
:105600003000024008380140B0B5284A10682849E7
:105610000140116027490B68012003430B600B68B0
:1056200083430B6024490B1F244C1C6005235B0241
:105630000B60234B1B788B60224BCB600B460C3BE3
:105640001C6804431C6000234B601F4C23701368CC
:105650001E4C1C400B461C33102C03D1D3601C4B3A
:10566000936002E093601A4BD3601A4B1B78546826
:10567000194D2540EB185360136802241C43146035
:10568000136808241C431460136803431360C202A8
:105690000B46143B1C6814431C6002020B68134346
:1056A0000B6020390A6802430A60B0BD080002405E
:1056B000EFBFFFFF1010024020000040017000000B
:1056C000AC010020FFFF0000140500201040000086
:1056D00058060020200100200000FFFF02480021A2
:1056E000416001607047C04624000040F0B587B0BB
:1056F0004622E04B985AC4494143090D401A06908E
:1057000086B2DE4F38790028059240D02624395DD4
:10571000F87A0029049428D0002826D04420385A4A
:1057200000963025B94A002729463B46FFF7EAFC98
:105730000446D248C08D00962946B44A3B46CF4F16
:10574000FFF7E0FC85B2A4B2281940080699081AB0
:1057500080B200F0EFFF2046049C00F0E5FF2846F1
:1057600000F0EEFFC34B395DF87A421E90414A4289
:105770004A41024300D044E11C7FFCF7D3FE0A20DB
:10578000FDF75AFC002C17D001F01AFC16E0442457
:10579000385BB97E002900D0BDE0312800D2BAE0E4
:1057A0001D7FFCF7BFFE0A20FDF746FC002D00D14F
:1057B000ACE001F005FCABE001F046FC4420385AB7
:1057C00000963024914A002521462B46FFF79AFC8B
:1057D0000390F88D009621468C4A02952B46FFF7E0
:1057E00091FC04462D20385CA24A91798842069BA0
:1057F0000BD9059BD25A0123009353080A46143251
:10580000FFF780FC9B4A034686B248201352A0B2A1
:10581000B04219464FD9039CA0B2B04250D9974F1D
:10582000B87D002851D00C4606933E20385E632197
:10583000C943D28C4A431018754988620A6C831A8E
:105840000D6B4A6B8E6B5A43CA6308644543AB19B0
:105850008D6CAB4200DB2B466D42AB4200DC2B462D
:105860008B63D218CB6A58431018CA6C904200DB85
:1058700010465242904200DC10464864FBF725FD7A
:105880006449FBF7ACFCFBF72BFD7A4BD98E091A68
:105890000AB24020185A824200DB0846D88602B27B
:1058A000A1B29142014600DC2146069CA3B293427C
:1058B0000CDC20460AE02146039CA0B2B042AED8E0
:1058C00023466E4FB87D0028ADD118468CB2621EBB
:1058D00021469141020400D0012101290ED10499F1
:1058E000795C00290AD080B200F01EFF002000F091
:1058F00021FF204600F024FF07B0F0BD4648029982
:10590000016041608160B97607B0F0BD01F09CFB99
:105910000120B876385B009630213C4A00252B46A2
:10592000FFF7F0FB534A04462D20385C91798842FA
:10593000069B0BD9059BD25A0123009353080A46B4
:105940001432FFF7DFFB4B4A034686B2482013525E
:10595000A0B2B04200D82346B87D00283FD00693BD
:105960003E20385E6321C943D28C4A43101828492F
:1059700088620A6C831A0C6B4A6B8E6B5A43CA633B
:1059800008644443A3198C6CA34200DB23466442A1
:10599000A34200DC23468B63D218CB6A584310180D
:1059A000CA6C904200DB10465242904200DC104626
:1059B0004864FBF78AFC1749FBF711FCFBF790FCE6
:1059C0002C4BD98E091A0AB24020185A824200DBA9
:1059D0000846D88601B2069B9AB28A4200DC184675
:1059E00001040D4909D02622BA5C002A05D080B2F4
:1059F00008604860886007B0F0BD0D604D608D6044
:105A0000BD7607B0F0BDC046CDCC0000FF0700005A
:105A10003001002000401C46342C014010B51549CF
:105A20004A7815484270CA79C275144A937A5B1E47
:105A30005C425C414474D37A5B1E5C425C4184747A
:105A4000927B521E53425341C3748A78521E534272
:105A500053410375CA78521E534253414375097925
:105A6000491E4A424A41827501210902044A00F056
:105A700009F810BDC00000205A070020340500209E
:105A8000007C0008F0B503AF8BB06E46F41D1934EE
:105A900015467161B061C80F0B1801221946F260FA
:105AA0009143C91D072291436A46501A59108546F1
:105AB000F0613161FBF72FFB7069022859DBB26995
:105AC0000320336919460140B160591E03297460EF
:105AD000356001D2002121E0834373610023194620
:105AE000D25CB069C01844782402A218F569EA5261
:105AF0008278C4782402A218EC1862800279457971
:105B00002D02AA18A2808279C07900028018E08054
:105B1000B2690833091D70698842E1D1B368002B6E
:105B20007468356825D04900B069405CB269521884
:105B3000527812021018F26971615052012B18D07C
:105B40007069801CB1690A5CB1690B185B781B0233
:105B50009A18F3691A52B169B068022809D00A4646
:105B60007069001D095C1218527812025118F2690E
:105B700011523069A06035480168C90708D0016832
:105B8000C90705D00168C90702D00168C907F3D168
:105B90004168090606D52E490A680346083B1A6083
:105BA00049681960A905F3681DD1426802210A43BA
:105BB0004260856042684023134343600268D20715
:105BC00008D00268D20705D00268D20702D0026866
:105BD000D207F3D10268920601D520220260426802
:105BE0008A434260F3680021616007E0416899439D
:105BF00041606168891C61602168491C21602168DD
:105C0000A26891421AD24168194341602168490053
:105C1000F269515A626851530168C90708D0016896
:105C2000C90705D00168C90702D00168C907F3D1C7
:105C300001688906DAD520210160D7E74168802212
:105C40000A434260FC1F053CA546F0BD0C20024003
:105C500028010020B0B52A4A10682A4901401031B5
:105C6000116029490B68012003430B600B688343D3
:105C70000B6026490B1F60241C6043020B60244B01
:105C80001B788B603D23CB600B460C3B1C680443A8
:105C90001C60204B187014681F4D25401F4C102DA0
:105CA00004D1D4600C461C34946003E094600C462C
:105CB0001C34D46054682B4D25405B785B19173336
:105CC0005360136802241C431460136808241C43A7
:105CD0001460136803431360C2020B46143B1C6834
:105CE00014431C6002020B6813430B60C2034B6A2F
:105CF00013434B6220390A6802430A60B0BDC046B4
:105D000008000240EFBFFFFF1010024020000040DB
:105D10001E05002014050020104000005C08002033
:105D2000B0B50E48036808210B4304229343036077
:105D30000B4B5C680B4D25400B4C24782C195C6098
:105D400084688025254385601C68012525431D60E6
:105D5000036813438B430360B0BDC0460038014065
:105D6000440002400000FFFFB4010020F0B581B004
:105D70008F484178012904D1407E002800D0C1E03D
:105D8000ADE08A1ED4B2651C03232A461A40032CB8
:105D900002D2831C002412E09D43831C0024854E04
:105DA0001F786740F45D5F786740F45D9F786740D7
:105DB000F45DDF786740F45D1B1D2D1FF0D1002AD4
:105DC0000DD01E7866407B4DAC5D012A07D05E7811
:105DD0006640AC5D022A02D09A786240AC5C427E9A
:105DE000944200D08EE0182979D1C17804796207F5
:105DF000520D521870498A80072212021346E0336E
:105E000045796E011E40E4083419CC80AC098579CF
:105E1000AD002C19C579EE07760D34190C811446A6
:105E20008034067AF70127406D087D194D811546AB
:105E3000F035477A014638012840360980195E4E10
:105E4000B081F8098E7A76003018CE7AB7077F0DC8
:105E50003818594FF881C032087B87011740B608BF
:105E6000BE19554F3E8240094E7BF60030187882AD
:105E7000887BCE7B77077F0D38184F4FB882087C20
:105E800047011F40F308FB184B4FFB8280094B7CF6
:105E90009B0018188B7CDE07760D30183883C87C81
:105EA000C60126405B08F3187B830B7D1C012C4048
:105EB00000092018B883D8094B7D5B0018188B7D2A
:105EC0009C07640D2018F883C87D44090D7EED0001
:105ED0002C197C84800110409A0880183884374837
:105EE00000784000344D2818808835490978354CB1
:105EF00000290DD0344941180F290DD2012080020C
:105F0000183811E02C480168491C016001B0F0BD4F
:105F1000AF2816D200201CE02146BE310091AE21F0
:105F200000232246FFF7EEF8284908802848007829
:105F30004000281880882146BE310091AE21002300
:105F400013E02146ED310091AE2130232246FFF7C8
:105F5000D9F81E4908801E4800784000281880881B
:105F60002146ED310091AE2130232246FFF7CAF8D9
:105F7000184908801848012101701849002008803C
:105F800017490A781749002A024606D0164B1B8883
:105F9000002B08D0088001B0F0BD0A88521C124BBB
:105FA0001B88002BF6D11046088001B0F0BDC0461A
:105FB000F10500202E720008E404002036050020C0
:105FC0003F050020120700002BFCFFFF800500208A
:105FD00037050020620500203A05002086050020D4
:105FE0005A0500207C05002078050020F0B587B018
:105FF000FA4EF07A002806D02824305D002807D019
:106000004C20305A1DE14C20305A442170529CE102
:106010004C27F05B7D22D500F1498B7B590006951A
:106020004919F57C002D059717D0814245D2EC4ADD
:10603000127FB57AAA4244D1442700250395F5532F
:106040000127F777357D002D37D0039BF377BA1AF8
:10605000E34B1A77069D059F37E0012581420494A2
:1060600003952CD2DE4B1B7FB47AA3426AD1232046
:10607000305C441EA0414E24345BC82C2F4600D314
:1060800007465624D64D2C5B2D8FAC4200D80746D0
:10609000012F069D78D1D348002484610120D04986
:1060A000C875C01A0877FFF75BF8B476059FF05BF8
:1060B000CB49897B4900491969E0069D12E0069D9C
:1060C00071E0F27F002A069D0CD100223275C64A8B
:1060D00000922F3A2F23FFF715F844217052F05BFE
:1060E000BF498B7B0127F94359434A1982422ED974
:1060F0000494B47A012103910D1BB949097F8D42A3
:106100000DD14421002575520399F177317D002985
:106110001BD0F577B2490C77049C069D04E0F17F13
:106120000029049C069D12D1002131752F23009374
:10613000AD4BFEF7E7FF442170520598305AA8494D
:106140008B7B04E0049C069D22E0049C069D5B0082
:10615000591900228142394606D31146EB1A83426F
:1061600005D90F4306D068E0EB1A8342F9D81746E9
:106170000F4362D144220021B152F27F002A5CD049
:1061800001223275F17758E0D000059FF053049C4E
:10619000954A00922F3A2F23FEF7B4FF4421705204
:1061A000F05B8F498B7B01210291CF4339465943E4
:1061B0004A1982422FD9B17A01230191591A884C88
:1061C000247FA14200D09CE12320305C411E884105
:1061D0004E21715AC829039900D301465624804D97
:1061E0002C5B2D8FAC4200D801460129069D00D0C2
:1061F0008AE17B4901980877CB757A48002484614D
:10620000FEF7AEFFB476059BF05A7549897B4F4384
:106210007A191F467BE159004A19824200D287E170
:1062200000220292691A8142039900D885E100296F
:1062300003D1442100227252B276315D002900D18F
:1062400083E07D21CC0021462F31884236D9644D30
:10625000297FB27A91422AD12320305C421E90419C
:106260005622AA5A2E8F01230027B2421A4600D87E
:106270003A464E26594DAE5BC82E00D33B461A40D7
:106280000243012A564D0ED1564800268661012050
:10629000E875401A2877FEF763FF50488676064671
:1062A0004C20305A03E04C2100204C4E7052297D86
:1062B0004200511A904A89184422B152014630399D
:1062C00089B2A1423BD2B17A0122531A444C257FB4
:1062D000AB422ED123203746305C431E98415623D3
:1062E000E35A268F0025B342134615D82B464E2677
:1062F000BE5BC82E14D213400343012B15D1217766
:106300000120E075374800258561FEF729FF3E46EC
:10631000BD764C20385A0CE04E26BE5BC82EEAD320
:106320002A4613400343012BE9D04C2100203E466E
:106330007852217D4200511A31394422B1522F281E
:1063400003D8442000213152B1763078002801D0A2
:1063500007B0F0BD2124305DE74DA97C88420CD9FF
:106360002879002809D0FCF7DDF8FEF7F9FE662051
:1063700030554A20002131526CE0B07B002807D014
:106380004424305B1D2825D84A210022725252E055
:10639000707D00285AD07078002827D04424305BC4
:1063A000A96DEB6D00912F21D44AFEF7ABFE01469B
:1063B000D348FAF7CDFF297A4908FAF7C9FF3087A1
:1063C000305B2E2812D84A2000213152CF4801607C
:1063D000B1673FE01E2820D11E202CE034050020AC
:1063E000C0000020B0050020FF070000B46FC54DBD
:1063F00020462946FAF73FFF0028204600D12846CC
:10640000FAF76EFF4A257053BF492046FAF741FF5D
:1064100000281FD1302070531CE0697B14224A43AE
:10642000824208D9A02100911E212F23FEF76AFE87
:106430004A217052305B6A7B14215143814209D852
:10644000AE4A0092A023FEF75DFE01E04420305AE0
:106450004A2170522324305D002800D078E74A2575
:10646000705BB17B50273A464A432F3282422FD885
:106470002620305C00282BD006952225705D002850
:106480000ED1FCF74FF8E249C87D002802D100F098
:1064900067F9DF4901207055488F40217052B17B68
:1064A0004020DB4D2B5A0698305A4622AA5A0092B9
:1064B000002901D0892100E02F21904AFEF722FE19
:1064C00042217052F07C0028069D01D10020F07717
:1064D000705BB17B4F432F378742CD4F00D8CBE065
:1064E000F07E052836D8C0467844007940008744BD
:1064F0003305292C2F05C046FFF7FFFFFEF742FFAB
:1065000028E0049C059F03E0059FF5532846049C62
:106510002F2100910021794BFEF7F4FD44217052A8
:10652000F05BBB498B7B59004A19824200D377E666
:10653000691A8142039900D979E60299002900D1AC
:1065400077E67AE6FEF7FAFE04E0FEF725FE01E0C4
:10655000FEF76AFF0020F076B87800281AD02220D3
:10656000305C00283FD02020A94F385C3C214143BB
:10657000788D40183C38664902B2FF2368339A424E
:1065800000DD40185E22B05202B22F46782A12DC9B
:10659000EF2312E04221002070522221715C002979
:1065A00044D19C4988610120F875307B002838D09F
:1065B000FCF704FF3AE00B46EF331B1862257353D8
:1065C000F02A01DC772100E077313D460818602190
:1065D0007052B07B01288E4F01D1012030554220EE
:1065E0000021315248E02520002131548948816141
:1065F00001278748C775307B00280FD0B07B002863
:10660000B1D146208249085A897A49004018133886
:106610005C217052FEF786FFF777A4E7FBF782FF55
:10662000A1E7F07F002801D1FBF77CFFF07FF17C30
:10663000002922D0002820D006954C20315A7D25F3
:10664000EC002046FCF7FEFE46213A463746565AF5
:10665000001970432901FAF77BFE5C213C46785211
:1066600080B2711E884202DAFEF75CFF01E0FCF79F
:10667000A5FE2646664F069DF07F002800D067E6FF
:10668000735B2F2B11D3707B1421C140614880694B
:1066900088420AD24220315A7A8F914201D2325234
:1066A0001146FA8F914200D932524820385A422777
:1066B000F55B854201D9F0530546B07D002806936D
:1066C00006D036205249085E854201DD85B2F55379
:1066D0005048046800212046FAF7BFFD002800D08A
:1066E00036E60698302800D232E62046FAF7F8FD62
:1066F0002818F05307B0F0BDC0000020FF070000CD
:106700000087930300E0FF44000040423001002076
:1067100098FEFFFF0348016810220A4320218A43A4
:10672000026070470C000048014908607047C0468D
:10673000342C0140014908607047C046382C0140A4
:10674000014908607047C0463C2C01400B2800D32B
:106750000B204000014908707047C046F00500203A
:10676000F0B581B02225294C605D002803D0FCF7EC
:10677000AFFD01B0F0BD2026254FB85D397F01295E
:106780000AD1401CB855C1B2072902D30120B8551F
:1067900020770121014009E0401EB855010603D1D0
:1067A0000620B8550121217701218143F976EFF3C5
:1067B000108072B6E07F002802D1B85DFBF78CFF35
:1067C00062B6FBF737FFE07C617B0143114805D0DF
:1067D000C168114A914201D30121F9752A21002291
:1067E00062542C21625456210C4A7A52B95D0C4AEB
:1067F0000C4B1360012262555A22A25A4900081814
:106800004284FCF765FD01B0F0BDC04634050020B0
:10681000C0000020B0050020D107000010270000B4
:106820002404004088130000F0B58FB001200690CA
:10683000820301920346009042484168114341603F
:106840004168114008910899990402680A4302605E
:1068500000680840089000240794059402200390E3
:1068600008984026029603250495374802A9FAF7AE
:10687000F9FF364F38683649014010313960280336
:106880003968814339603868202188433860386826
:10689000B043386038688021014339602802396884
:1068A00081433960A802396881433960009E7002D3
:1068B00028490A6802430A60FF20000626490A6840
:1068C0008243A80710180860F006244908600E9457
:1068D0000D9408200C900B940A940994E120400236
:1068E00008901F4D2C46083C08A92046FBF70CFADF
:1068F000B0022968814329600920C002291F0A6863
:1069000082430A6028682A2188432860206830432F
:1069100020600199103138680840102804D11148CE
:10692000F8602035BD6003E00E48B8602035FD609A
:1069300078680D4901400D480078081878600FB05C
:10694000F0BDC0461410024000040048440002405C
:10695000EFBFFFFF0000014018E400E000E100E0AD
:1069600008380140E60500200000FFFFB4010020C8
:10697000F0B585B04220FD4F385A4E26B853B88F37
:10698000401CB887B88E401CB886F88E401CF8862C
:10699000388E401C38862625785D00284AD1787EBE
:1069A000002847D12720395C002943D04421795A57
:1069B000002903D06420002139523BE064217A5A37
:1069C000521C7A5292B2EA4B9A4233D34822BA5AB4
:1069D0001F2A21D30396012002957855B87C0128FF
:1069E0001ED16620385AE3494143C90C7976E24A00
:1069F000538E4B4353844008B92813D30024DF4DF2
:106A0000DF4EFEF7E3FC6420FCF726FB2E60641CDF
:106A1000787E8442F5D305E000227A523A5409E0A8
:106A2000FEF7D4FC2920385C0028039E029D01D18A
:106A30000020F874F87B00280ED06820395A491CD1
:106A40003952F94A52791423534389B28B4203D203
:106A5000002139520120B8772320385C397801436E
:106A600000D0DAE122200490EF4BD87D002865D0D9
:106A70000498385C002861D0FEF772FBEA4B2020B6
:106A8000185C042801D0012807D1E8490A68402190
:106A90001140E74A052804D105E00021E44A052811
:106AA00001D0022803D1136801211940DE4B0628CA
:106AB00001D0032802D1106802210140D87E0028AD
:106AC00010D000291AD125217A5C521C7A54D1B2F7
:106AD0005A7F914210D82A20385C00282ED12C20D1
