:020000040800F2
:10100000E80E0020A91100088915000859150008EC
:101010008515000815140008F518000800000000E8
:101020000000000000000000000000008D16000815
:1010300039150008000000008D1500089116000801
:10104000C3110008C3110008C3110008C311000830
:10105000C3110008C3110008C31100083D150008A2
:10106000000000001914000845140008811400084D
:10107000B1120008C3110008C311000800000000ED
:10108000ED170008C311000800000000B1170008A8
:10109000C5170008DD170008C3110008C3110008B8
:1010A000C3110008C3110008C31100089D180008EF
:1010B000C918000800000000000000000000000047
:1010C000C311000800000000C311000800F002F87E
:1010D00000F05AF80AA090E8000C82448344AAF178
:1010E0000107DA4501D100F04FF8AFF2090EBAE876
:1010F0000F0013F0010F18BFFB1A43F0010318474C
:1011000060670000806700000A444FF0000C10F890
:10111000013B13F0070408BF10F8014B1D1108BF75
:1011200010F8015B641E05D010F8016B641E01F815
:10113000016BF9D113F0080F1EBF10F8014BAD1C65
:101140000C1B09D16D1E58BF01F801CBFAD505E083
:1011500014F8016B01F8016B6D1EF9D59142D6D3DD
:10116000704700000023002400250026103A28BF05
:1011700078C1FBD8520728BF30C148BF0B60704709
:101180001FB51FBD10B510BD00F058F81146FFF790
:10119000F7FF02F057FD00F076F803B4FFF7F2FF17
:1011A00003BC00F07DF8000009488047094800476B
:1011B000FEE7FEE7FEE7FEE7FEE7FEE7FEE7FEE707
:1011C000FEE7FEE704480549054A064B7047000064
:1011D00095160008CD100008E8080020E80E002051
:1011E000E80A0020E80A00204FF0000200B513468C
:1011F00094469646203922BFA0E80C50A0E80C5037
:10120000B1F12001BFF4F7AF090728BFA0E80C50E7
:1012100048BF0CC05DF804EB890028BF40F8042BE0
:1012200008BF704748BF20F8022B11F0804F18BF4D
:1012300000F8012B7047704770477047754600F003
:101240002BF8AE4605006946534620F00700854658
:1012500018B020B5FFF7B6FFBDE820404FF00006FC
:101260004FF000074FF000084FF0000BAC46ACE821
:10127000C009ACE8C009ACE8C009ACE8C00921F07D
:1012800007018D46704710B50446AFF30080204635
:10129000BDE81040FFF781BF00487047C003002041
:1012A00001491820ABBEFEE726000200704700008F
:1012B00040F21440C4F201000168890258BF70472F
:1012C0004FF40011016002F033BA000040F26850A0
:1012D000C2F20000818840F22E52C2F20002118058
:1012E000018840F23252C2F200021180408840F27E
:1012F0001851C2F20001088070470000F0B587B0B5
:1013000042F200444FF09040032100224023C4F2F7
:101310000104002702F03EF94FF090400321002223
:10132000082302F037F94FF4A010012101F060FB0F
:101330000825C4F20205284601F02EFE02AE304612
:1013400001F0DCFD0320C0F20010CDF8120040F2E5
:101350006850C2F20000039004F14C00029040F289
:101360000110C0F20120CDF8160028463146ADF834
:10137000107001F0D3FD2846012101F0B9FD0920CC
:10138000C0F21800012101F033FB072001F092FAAE
:1013900001AD284600F0E8FA40F20110C0F200303A
:1013A00001902046294600F0BDFA20460321012283
:1013B000032300F001FB204606210222032300F054
:1013C000FBFA204610210322032300F0F5FA012046
:1013D00000F040FC20460721012200F01BFC2046C3
:1013E000012100F0D9FA2046012100F0DFFA204661
:1013F00000F0BEFA204600F0C1FA0028FAD12046DB
:1014000000F0C0FA204600F0C3FA0028FAD107B075
:10141000F0BD0000FEE70000B0B5022001F076FD4F
:10142000012818BFB0BD0424C4F2020401252560C0
:10143000FFF74CFF082001F069FD012808BF256077
:10144000B0BD000010B51C242020C4F2020401F03D
:101450005DFD012806D1102044F8180C206820F00A
:1014600001002060802001F051FD012818BF10BD4F
:10147000102044F8180C206820F00100206010BDF6
:1014800010B540F2E06040F2E542C2F20000C2F264
:10149000000201681278013101609AB10420C4F29F
:1014A00002004FF480510160016C21F001010164E0
:1014B00005F0AEFB40F21040C4F201004FF40041D1
:1014C000016010BD04244FF48040C4F2020401F016
:1014D0001DFD012810D140F2E640C2F20000007864
:1014E00050B140F22040C4F20000016841F0020116
:1014F00001604FF4804020604FF4005001F006FD81
:1015000001280FD14FF480502060206C20F00100A2
:10151000206405F07DFB40F21040C4F201004FF45E
:10152000004101604FF4004001F0F0FC012804BFCD
:101530004FF48050206010BD7047000040F214400E
:10154000C4F201000168090458BF70474FF400411C
:10155000016003F053BE0000FEE7000043F200000C
:10156000C4F2000045F2555101604CF6CC410160D7
:10157000032141604FF47A6181604AF6AA2101603B
:1015800070470000FEE70000704700007047000051
:1015900070B544F20C40C4F20100016840F200054D
:1015A00021F001010160C2F20005297F95F82000B9
:1015B00040F2BC440129C2F200040DD10130C1B295
:1015C000072985F8200022BF012085F82000207718
:1015D00000F001000DE000BF0138010685F8200091
:1015E00004D10620012185F820002177012121EA7C
:1015F0000000E876EFF3108072B6E07F18B995F836
:10160000200000F027FC62B600F0D6FB607BE17C96
:1016100040F238560843C2F2000607D03069B0F5F0
:10162000FA6F03D90120E875002003E0E87DB0FAE5
:1016300080F04009002184F82D1084F82B1095F8D3
:101640002010B4F85E2006EB41014A84B5F854102E
:10165000EB7901EB410111448A08A5F854200A0AEC
:10166000C1F3CE0102FB131102FB03F50028A4F81D
:101670004A50A4F8541018BF01F0AEFCB06942F211
:101680000F7188429CBF0130B06170BD704700008F
:10169000704700007047000010B50B20C0F2180022
:1016A000012101F0A5F942F60044C4F2010440F61C
:1016B000B830E0620020A06246F66800A0616820B1
:1016C000E06120460021012205F008FA20460221AF
:1016D000012205F003FA20460421012205F0FEF95B
:1016E0002046012105F02CFA606C502161F30700BF
:1016F00060641124C0F214042046012101F078F93D
:10170000601C012101F074F940F20044C4F60004A9
:10171000204602210022022301F03CFF2046022144
:101720000022012301F036FF4FF0904002210022F9
:10173000802301F02FFF20460121022201F04AFF01
:1017400020460021022201F045FF4FF09040072182
:10175000022201F03FFF4FF09040022100224FF49F
:10176000806301F017FF4FF09040022100224FF4F8
:10177000007301F00FFF4FF09040022100224FF460
:10178000807301F007FF4FF090400A21022201F020
:1017900021FF4FF090400921022201F01BFF4FF082
:1017A000904008210222BDE8104001F013BF000064
:1017B00042F21000C4F200004FF6FE71016004F026
:1017C000C9BE000044F21000C4F201004FF6FE71E1
:1017D00001604FF6FD7101607047000044F2104057
:1017E000C4F2010000210160FFF7D2BE40F21040B8
:1017F000C4F200000168890744BF4FF6FD71016023
:101800000168C9071CBF4FF6FE71016070470000F8
:10181000B0B51220C0F21400012101F0E9F8012056
:10182000C0F21C00012101F0E3F840F20044C4F6CC
:1018300000042046022100221023102501F0AAFEF8
:1018400020460421012201F0C5FE4FF4A010012121
:1018500001F0CEF84420C4F2020040F68A11016083
:101860004EF20B40CEF2000005704EF20010CEF2A8
:1018700000004FF40061016040F20040C4F200003B
:101880004FF6FF71C1628562016841F0800101601D
:10189000016841F001010160B0BD000080B543F670
:1018A0000000C4F20100102105F04CFB3020C4F20E
:1018B0000200016821F00101016004F06BF8BDE84D
:1018C000804003F025BD000080B544F20040C4F222
:1018D0000000102105F036FB5820C4F20200016818
:1018E00021F00101016004F055F8BDE8804003F0EB
:1018F0000FBD0000FEE700004EF60C50BFF34F8F07
:10190000CEF200000168042201F4E061C0F2FA5254
:1019100011430160BFF34F8F00BF00BF00BF00BF86
:10192000FAE700000A78436802F0010223F48073AA
:1019300043EA022242604A78836862F3410383608B
:101940008A78836802F0010223F4006343EAC2222A
:101950008260C978C26A013901F00F0122F4700275
:1019600042EA0151C16270474FF0807101607047D7
:10197000816841F008018160704700008068C0F311
:10198000C0007047816841F0040181607047000029
:101990008068C0F380007047826801F0010122F482
:1019A000807242EA0121816070470000826861F321
:1019B000000282607047000080B5112900F2BB80F0
:1019C000DFE801F00A121C26303A444E58626C746B
:1019D0007E88929CA6B000BFD0F810C063F3020CC2
:1019E000C0F810C0A7E000BFD0F810C003F0070E89
:1019F0002CF0380343EACE0303619CE0D0F810C01A
:101A000003F0070E2CF4E07343EA8E13036192E0B7
:101A1000D0F810C003F0070E2CF4606343EA4E23A5
:101A2000036188E0D0F810C003F0070E2CF4E04307
:101A300043EA0E3303617EE0D0F810C003F0070ED6
:101A40002CF4603343EACE33036174E0D0F810C065
:101A500003F0070E2CF4E01343EA8E4303616AE0BF
:101A6000D0F810C003F0070E2CF4600343EA4E5385
:101A7000036160E0D0F810C003F0070E2CF0E063C3
:101A800043EA0E63036156E0D0F810C003F0070E7E
:101A90002CF0605343EACE6303614CE0D0F80CC0F5
:101AA00063F3020CC0F80CC045E000BFD0F80CC0D6
:101AB00003F0070E2CF0380343EACE033AE000BFF0
:101AC000D0F80CC003F0070E2CF4E07343EA8E1339
:101AD00030E000BFD0F80CC003F0070E2CF46063B8
:101AE00043EA4E2326E000BFD0F80CC003F0070EF7
:101AF0002CF4E04343EA0E331CE000BFD0F80CC0E6
:101B000003F0070E2CF4603343EACE3312E000BF3B
:101B1000D0F80CC003F0070E2CF4E01343EA8E4318
:101B200008E000BFD0F80CC003F0070E2CF46003EF
:101B300043EA4E53C360013A0F2A88BF80BDDFE8F5
:101B400002F0090F151B21272D33393F454B515703
:101B50005D6300BF426B61F30402426380BD00BF5E
:101B6000426B61F34912426380BD00BF426B61F377
:101B70008E22426380BD00BF426B61F3D332426369
:101B800080BD00BF426B61F31852426380BD00BF4D
:101B9000426B61F35D62426380BD00BF026B61F323
:101BA0000402026380BD00BF026B61F3491202634D
:101BB00080BD00BF026B61F38E22026380BD00BF57
:101BC000026B61F3D332026380BD00BF026B61F32D
:101BD0001852026380BD00BF026B61F35D62026355
:101BE00080BD00BFC26A61F30402C26280BD00BF53
:101BF000C26A61F34912C26280BD00BFC26A61F36A
:101C00008E22C26280BD00BFC26A61F3D332C2625B
:101C100080BD00008368072923F0007388BF03F1AB
:101C200000738360836802F0010261F353438360B1
:101C3000816821F4801141EA0251816070470000FF
:101C4000826801F0010122F4800242EA8151816040
:101C50007047000042F20841C4F201010A6800F036
:101C6000010022F4000242EAC05008607047000000
:101C7000F0B581B02825C4F6000505F57674204638
:101C80000121002202230126022701F083FC4FF0EC
:101C90009040012100224FF48063C5F800744FF496
:101CA000806701F077FC20460121002201232F608C
:101CB00001F070FC4FF09040012100224FF40073BE
:101CC000C5F800644FF4007401F064FC4FF09040DC
:101CD0000121002280232C60802401F05BFC4FF066
:101CE0009040012100224FF480732C604FF48074E7
:101CF00001F050FC2C6001B0F0BD000070B540F266
:101D00000205C2F20005287840F20044C4F600043F
:101D10000028204606D002210022022301F03AFCCE
:101D200007E000BF012100220223022601F032FC5D
:101D3000A6624FF09040022100224FF4806301F030
:101D400029FC287830B1204602210022012301F02D
:101D500021FC07E02046012100220123012601F099
:101D600019FCA6624FF09040022100224FF400734C
:101D700001F010FC287838B14FF090400221002289
:101D8000802301F007FC0CE04FF09040012100227D
:101D90008023802501F0FEFB4FF62840CFF6FF7030
:101DA00025504FF09040022100224FF48073BDE88F
:101DB000704001F0EFBB000040F22003C2F20003CC
:101DC0001A781C20C121C4F20100042AC4F20001C7
:101DD00001D0012A03D101F1100202601A78052A0C
:101DE00001D0022A03D101F1200202601A78062AEA
:101DF00004D0032A08BF016001E000BF016040F287
:101E00001B01C2F200010A78D0F8EC1352B121F4A0
:101E10000011C0F8EC13D0F8F01341F40011C0F831
:101E2000F013704741F40011C0F8EC13D0F8F01330
:101E300021F40011C0F8F01370470000002818BF0B
:101E400070471C20C4F20100026861F300020260C6
:101E500070470000F0B581B00138052800F2D48148
:101E6000DFE800F004185694BEE800BF40F202001C
:101E7000C2F2000000782824C4F60004002804F50B
:101E8000767000F0EB8002210022022301F082FB39
:101E9000ECE000BF2825C4F6000505F57674204661
:101EA0000121002202230126022701F073FB4FF0DB
:101EB0009040012100224FF48063C5F800744FF474
:101EC000806701F067FB20460121002201232F607B
:101ED00001F060FB4FF09040012100224FF40073AD
:101EE000C5F8F0634FF4007401F054FB40F20200B7
:101EF0002C60C2F200000078002800F0EB804FF068
:101F0000904002210022802301F044FBF5E000BF55
:101F10002825C4F6000505F5767420460121002227
:101F200002230126022701F035FB4FF090400121EA
:101F300000224FF48063C5F8F0734FF4806701F01E
:101F400029FB20460121002201232F6001F022FB02
:101F50004FF09040012100224FF40073C5F8006457
:101F60004FF4007401F016FB40F202002C60C2F244
:101F700000000078002800F0B7804FF09040022168
:101F80000022802301F006FBB7E000BF2825C4F63D
:101F9000000505F576742046012100220223012662
:101FA000022701F0F7FA4FF09040012100224FF490
:101FB0008063C5F8F0734FF4806701F0EBFA40F2EC
:101FC00002002F60C2F200000078002800F0A0801C
:101FD000204602210022012301F0DCFAA0E000BF2C
:101FE0002825C4F6000505F5767420460121002257
:101FF00002230126022701F0CDFA4FF09040012183
:1020000000224FF48063C5F800744FF4806701F03C
:10201000C1FA40F202002F60C2F2000000780028EE
:1020200000F09080204602210022012301F0B2FA44
:1020300090E000BF40F20200C2F2000000782824C5
:10204000C4F60004002804F5767000F0A380022195
:102050000022022301F09EFAA4E000BF0121002229
:102060000223022501F096FAC4F800544FF0904084
:10207000022100224FF4806301F08CFA04F576709F
:10208000012100220123012501F084FA4FF0904044
:10209000012100224FF40073C4F8F0534FF400758F
:1020A00001F078FA4FF09040012100228023256052
:1020B000802501F06FFA4FF09040012100224FF48B
:1020C000807325604FF4807501F064FA256001B0DB
:1020D000F0BD00BF4FF090400121002280238024FA
:1020E00001F058FA2C6008E04FF0904001210022E6
:1020F0008023802401F04EFA2C604FF090400221A2
:1021000000224FF4807301B0BDE8F04001F042BA04
:10211000204601210022012301F03CFAC5F80064A9
:102120004FF09040022100224FF4007301F032FA88
:102130004FF09040012100228023802401F02AFAF0
:102140002C6019E0204601210022012301F022FA2F
:10215000C5F800644FF09040022100224FF4007354
:1021600001F018FA4FF090400121002280238024D2
:1021700001F010FA45F8104C4FF090400121002278
:102180004FF480734FF4807401F004FA2C6001B0B6
:10219000F0BD00BF012100220223022501F0FAF95F
:1021A000C4F800544FF09040022100224FF48063A5
:1021B00001F0F0F904F576700121002201230125D8
:1021C00001F0E8F94FF09040012100224FF4007334
:1021D000C4F800544FF4007501F0DCF94FF0904062
:1021E0000121002280232560802501F0D3F94FF0E2
:1021F0009040012100224FF4807344F8105C4FF4AA
:10220000807501F0C7F9256001B0F0BD2DE9F04FF0
:1022100087B040F2E057C2F200073A68D7F87CB0C6
:1022200040F22049ABEB0200C2F20009A9F80A0013
:1022300081B240F2AC40C2F20000038848099942E2
:10224000A9F8080040F2478140F26403C2F200039B
:102250001B88994280F03F81D7E90136D7E90351C5
:102260009A1A82424FF00002D7E9054ED7E907AC2F
:1022700088BF01220692AA1B82424FF00002A4EB03
:10228000010188BF012281424FF00001059288BF01
:1022900001210491AAEB0E0181424FF0000188BF99
:1022A000012107F1240603914ECED7E90D5EA1EB83
:1022B0000C0181424FF00001FC6BD7F840C088BF91
:1022C00001210291991A81424FF0000188BF01213A
:1022D0000191A91B81424FF0000188BF01210091AB
:1022E000796CA4EB0E0686424FF0000AA1EB0C01BC
:1022F00088BF4FF0010A8142D7E912414FF0000335
:1023000088BF0123091BD7E9144C0025814288BFEF
:102310000125ACEB040CD7E9164E8445AEEB040C5A
:102320004FF0000E88BF4FF0010ED7E918848445A6
:102330004FF0000CA4EB080488BF4FF0010CD7F855
:1023400068804E46D7F86C908442A9EB0808D7E91C
:102350001C94BF6FA4EB09094FF00004ABEB070717
:1023600088BF012480454FF0000B88BF4FF0010B60
:1023700081454FF0000188BF012187424FF00007DF
:1023800088BF012780454FEAC40888BF08F10408C8
:10239000814540F2E340C2F2000090F8009040F224
:1023A000DC40C2F20000007888BF08F1020850EA61
:1023B0000900716506980299F06180EA0100F162F6
:1023C000F36380EA03000599019B316281EA03010E
:1023D00081EA05014FEA810141EAC0000499009AAF
:1023E000716281EA020181EA0E01C6E9134B40EAFB
:1023F00041040398B765B06280EA0A00474440F29E
:10240000DC48356480EA0C05C2F20008336372636D
:10241000C6F844E0C6F838A0C6F848C00BD101F0B1
:1024200075F840B130790130C1B26529307124BFEF
:10243000012088F8000098F80000002844EA050010
:1024400018BF87F00F07874242D106F11C0C9CE8A9
:102450008F10490241EA802040EA022040EAC3107E
:10246000D6E90D5440EA871040EA4C1006F13C07CB
:1024700040EA05108ECF40EAC40040EA810040EAFD
:10248000420040EA030140F21250B389C2F2000058
:1024900000220280581C012FB08105D140F2DA40A1
:1024A000C2F2000001220270302917DB7078A8B157
:1024B00040F20C50C2F20000018040F2E460C2F22F
:1024C000000000210170B17007B0BDE8F08F00BFBF
:1024D000F0890130F08107B0BDE8F08F481E2E284A
:1024E0000CD840F20C50C2F200000022028040F2F0
:1024F000E462C2F20002C8B2117018E031B140F2D9
:10250000E460C2F20000007811E000BF307840F2D1
:102510000C51012804BF00207070C2F2000100209D
:10252000088040F2E461C2F200010870B070002837
:10253000D1D040F2DF41C2F2000109780029CAD1AE
:1025400040F2E341C2F2000109780029C3D0F178DA
:1025500088421EBFF0700021B170052805D3B17804
:102560000131CAB2062AB170B5D3411E0025142923
:10257000B57000F2A280DFE801F00B131B232BA043
:1025800033414F57A05F737FA0A0A0A0A087950004
:1025900040F2D741C2F20001012008708DE000BF77
:1025A00040F2D741C2F200010220087085E000BF6E
:1025B00040F2D741C2F20001032008707DE000BF65
:1025C00040F2D741C2F200010420087075E000BF5C
:1025D00040F2D741C2F20001052008706DE000BF53
:1025E00040F2C640C2F200000021017040F21C001F
:1025F000C2F200000121017007205EE040F2C640F7
:10260000C2F200000121017040F21C00C2F2000081
:1026100000210170082050E040F2C740C2F20000E3
:1026200000210170092048E040F2C740C2F20000DA
:10263000012101700A2040E003F07AF840F2C64020
:10264000C2F20000007840F2D742411C40F2E46040
:10265000C2F20000C2F20002007811702DE000BF4B
:10266000317801204FF4606270710129F28008BF57
:1026700070700D2021E000BF0020707140F6FF60F7
:10268000F0800E2019E000BF40F2C640C2F2000008
:10269000007840F21C01C0F10100C2F20001087094
:1026A00014200AE040F2C640C2F20000007840F276
:1026B0001C01C2F200010870152040F67C01C2F234
:1026C0000001087040F2E460C2F20000057007B03B
:1026D000BDE8F08F70B582B040F2E055C2F200055F
:1026E000D5E9000140F27652081AA0F2213140F2F9
:1026F000A0449142C2F2000436D86178D1B3E178A7
:10270000002951D0217940F2E14290420BD840F2A9
:102710002C02C2F2000213880131C3EBC303184438
:10272000C00821711080C8B24C2871D340F22C002F
:10273000C2F2000001880025193101804FF61250C5
:10274000CFF6FF7010FA81F000EBD07040F2E56137
:102750004008C2F2000181F82000657002F0E8FF35
:10276000257102F021FC53E040F20850C2F2000053
:1027700052E000BF40F2C741C2F20001097839B30C
:1027800040F23001C2F200010A88904234D940F28E
:102790002E01C2F200010B88511C4FF4FA661A4652
:1027A00040F2E93330E000BFA17840F22E06002964
:1027B0000CBF208120890131C2F20006A17031884E
:1027C00080B200F097FE332844DB0020607062E0A6
:1027D00040F22C0140F22E02C2F20001C2F20002CD
:1027E0000988128840F2FF762F23009602F044FAFF
:1027F0003128B8BF00200AE040F22C01C2F20001EB
:1028000009884FF47A760023009602F035FA2061A9
:1028100040F21250C2F2000040F20C51C2F200012C
:1028200040F2E40622690B88C2F200063668D51A27
:10283000B5424FF00005058004DD9A190A8002B008
:1028400070BD00BF981AB042C8BF9A1B0A8002B080
:1028500070BD00BF3088D5E90012C0EBC000511A2E
:102860000844A178C0083329308014D34FF62A11C8
:102870001938CFF6FF71308011FA80F000EBD0707C
:1028800040F2E5614008C2F2000181F82100012018
:10289000E07002F0BDFBE078318800282181B7D0DC
:1028A000D5E90001081A217940F2E14290427FF611
:1028B0002EAF38E741F20401C4F202010A6860F366
:1028C0008F320A600A68800860F31C720A607047E1
:1028D000F0B541F20401C4F202010A68C2F38103B7
:1028E00041F20022022BC0F27A020DD0002B4BD114
:1028F0000B6D9B0548D5CB6A9B0144BF46F6004251
:10290000C0F2DC2240E000BF0B688C6AC3F30047D2
:10291000002C17D40C680B68C4F38344C3F34173D1
:102920001D016E1C0F2C354618BF0225002B18BF49
:10293000354605EB0403FFB940F60012C0F23D0234
:102940005A4321E08B6A8C6AC3F3031E8B6A40F6FC
:10295000001CC0F23D0CC4F3082403F007031FB1B0
:102960000D68AD0358BF94460CFB04F20EFA03F356
:10297000B2FBF3F208E000BF0F68BF0344BF40F6AC
:102980000012C0F23D025A4302600B6812A7C3F363
:102990000313FB5C47F64607DA4042600B68C0F65B
:1029A0000007C3F30223FB5C22FA03F3C3600B6846
:1029B000C3F3C223FB5C0427DA4082600B6809681A
:1029C00007EA9363C1F38131194407A3595CB2FB51
:1029D000F1F10161F0BD00BF000000000000000047
:1029E000010203040607080902040608020C081085
:1029F00041F2000200F01F034FF0010CC4F202028A
:102A000001290CFA03F14FEA1040835814BF23EA5E
:102A1000010119438150704741F2000200F01F0389
:102A20004FF0010CC4F2020201290CFA03F14FEA43
:102A30001040835814BF23EA0101194381507047A5
:102A40002DE9F04F87B040F2C140C2F2000000789B
:102A50004EF21B444EF2001740F2300B44F2004895
:102A6000112640F2040A40F20015CEF20004CEF224
:102A70000007C4F2020BC4F20008C0F21406C0F250
:102A80000C0A0528C0F2021504D0062872D007B03F
:102A9000BDE8F08F0E20C0F218000121FFF7A8FF5B
:102AA000701C0121FFF7A4FF4FF4A0100121FFF7D4
:102AB0009FFF40F200464020C4F60006059005A99D
:102AC0003046069500F02AFD3046062100224FF0E0
:102AD000000900F07FFD584600F05EFA6E46304671
:102AE00000F00CFA4020C0F20010CDF80A0040F2CD
:102AF0007950C2F20000019043F60400C4F20100D4
:102B000000904FF48030CDF80E0058463146ADF8B5
:102B1000089000F003FA08F5744646F6A001304626
:102B2000C0F206010022002304F016FA304601210B
:102B300004F066FA3046012104F06CFA30460121B7
:102B400004F0E2F93046012104F0F2F9202020706F
:102B50004FF0006038603046112651460122C0F225
:102B6000140604F03DFA40F2C140C2F200000078C1
:102B700006288CD11120C0F21C000121FFF738FF7C
:102B800030460121FFF734FF4FF4A0100121FFF779
:102B90002FFF0420059005A94FF09040069500F006
:102BA000BDFC4FF090400221012200F013FD0BF11B
:102BB0002805284600F0F0F96E46304600F09EF9F0
:102BC0004020C0F20010CDF80A000020ADF8080047
:102BD00040F27950C2F20000019008F10400009028
:102BE0004FF48030CDF80E002846314600F096F9BB
:102BF00046F6A0014046C0F206010022002304F080
:102C0000ABF94046012104F0FBF94046012104F0F4
:102C100001FA4046012104F077F94046012104F011
:102C200087F9202060704FF0805038604046514650
:102C3000012204F0D5F907B0BDE8F08F44F6240175
:102C4000C4F2010100220A6007E000BF0A68824264
:102C500028BF70470A68824205D20A68824202D2BF
:102C60000A688242F2D3704744F62401C4F201019B
:102C700000220A6042F6E0624A6051F8102C00EB34
:102C8000800042F00102400041F8102C0A688242A4
:102C900008D20A68824205D20A68824202D20A68D1
:102CA0008242F3D37820486051F8100C40F00100C4
:102CB00041F8100C70470000B0B540F2E05CC2F281
:102CC000000C40F2600EDCF80040C2F2000E44F648
:102CD000206200230021AEF8022002E02833782B86
:102CE0007AD00CEB030045682C1B1BD18468651B54
:102CF00021D1C5682C1B27D10469651B2DD14569DD
:102D00002C1B33D18469651B39D1C5692C1B3FD17C
:102D1000046A651B45D1456A2C1B4BD1846A601B34
:102D2000DCD051E0214494423CBFA2B2AEF8024054
:102D30008468651BDDD0294495423CBFAAB2AEF839
:102D40000250C5682C1BD7D0214494423CBFA2B28C
:102D5000AEF802400469651BD1D0294495423CBFBE
:102D6000AAB2AEF8025045692C1BCBD02144944244
:102D70003CBFA2B2AEF802408469651BC5D02944AD
:102D800095423CBFAAB2AEF80250C5692C1BBFD019
:102D9000214494423CBFA2B2AEF80240046A651BD3
:102DA000B9D0294495423CBFAAB2AEF80250456A58
:102DB0002C1BB3D0214494423CBFA2B2AEF80240D7
:102DC000846A601B3FF48AAF014490423CBF82B2E8
:102DD000AEF8020082E700BF40F2E543C2F2000312
:102DE000187840F2A04C4C09C2F2000C0128CCF833
:102DF000184030D1941E022C0ED8CC090E2C0BD8C2
:102E000040F2E104C2F200040025257001248CF890
:102E100006401C700E2410E0541F032C1BD8CC0954
:102E2000182C18D840F2E1050124C2F200051C70EC
:102E30002C7003248CF80640072440F2E005C2F20F
:102E400000052C7020248EF8004040F2E444C2F2C9
:102E500000040125257040F2E644C2F20004257802
:102E6000012D11D1A2F1C90044F65651884288BF04
:102E7000B0BD0120207040F2E100C2F200007721D5
:102E8000017002202BE000BF284330D1901E0228A1
:102E90000ED8C8090E280BD840F2E100C2F200009B
:102EA0000021017001208CF8060018700E2010E03F
:102EB000501F0328D6D8C8091828D3D840F2E101FA
:102EC0000120C2F200011870087003208CF806007F
:102ED000072040F2E001C2F20001087020208EF8C5
:102EE000000040F2E440C2F2000001210170B0BDD8
:102EF000026861F300020260704700000021018255
:102F0000C0E90011C0E90211704700000021C4F2BD
:102F100002010968084018BF0120704702684BF69B
:102F2000EF731A4002600A8903681A4302604A7C00
:102F3000036802F0030223F4405343EA02320260C2
:102F4000CA7B036802F0030223F4406343EA82224F
:102F500002608A7B036802F0030223F4407343EAB1
:102F6000022202604A7B036802F0010223F0800320
:102F700043EAC21202600A7B036862F386130360AD
:102F80000A7C036862F3451303604A8942600A6859
:102F900082604968C1607047016800F0FC024CF62D
:102FA000CD43083ACCF6CC43A2FB032321F0010128
:102FB000016000210422016041608160C1606FF006
:102FC0000300C4F2020200EA93000F21136801FA21
:102FD00000F018431060704740F20040C4F2010056
:102FE000016841F4001101607047000010B542F61D
:102FF0000044C4F2010420460021012203F022FD16
:1030000020460221012203F01DFD20460421012259
:1030100003F018FD20460121012203F013FD204694
:103020000321012203F00EFD20460521012203F0B9
:1030300009FD206840F001002060606C40F4004011
:103040006064606940F00100606144F20040C4F2D5
:103050000100016840F2004441F001010160416952
:10306000C4F2000441F001014161C16821F0010195
:10307000C160D0F8001441F00101C0F80014D4F888
:10308000000C40F00100C4F8000C41F21400C4F23E
:103090000000016841F00101016042F20000C4F249
:1030A0000000016841F001010160416941F0010146
:1030B0004161C16841F00101C160FEF71FF920467E
:1030C0000021012203F0BEFC2068202140F0010015
:1030D00020604EF20740CEF2000001704EF2001068
:1030E000CEF200008021016040F20040C4F20100F5
:1030F000016841F40041016010BD000042F20C0182
:10310000C4F202010860704742F21000C4F20200EB
:10311000016841F0800101607047000042F20C013B
:10312000C4F202014A6842F002024A6088604868BC
:1031300040F0400048600868C0070DD108684007AB
:1031400046D40868C0064FF0020058BF03204A6802
:1031500022F002024A6070474FF080420868C007C0
:1031600000F08B800868C00738D00868C0073BD0E3
:103170000868C0073ED00868C00741D00868C0078B
:1031800044D00868C00747D00868C0074AD008681C
:10319000C0074DD00868C00750D00868C00753D09A
:1031A0000868C00756D00868C00759D00868C0072B
:1031B0005CD00868C0075FD00868C00768D0103AC4
:1031C000CCD104204A6822F002024A60704700BF56
:1031D00001204A6822F002024A607047013A0868FA
:1031E00040074DD558E000BF023A0868400747D570
:1031F00052E000BF033A0868400741D54CE000BFE9
:10320000043A086840073BD546E000BF053A086825
:10321000400735D540E000BF063A086840072FD583
:103220003AE000BF073A0868400729D534E000BFFC
:10323000083A0868400723D52EE000BF093A08681D
:1032400040071DD528E000BF0A3A0868400717D597
:1032500022E000BF0B3A0868400711D51CE000BF10
:103260000C3A086840070BD516E000BF0D3A086815
:10327000400705D510E000BF0E3A086840070BD4A0
:103280000868C0064FF0020058BF032005E000BFE9
:103290000F3A08684007F3D50120012A08BF04202F
:1032A0004A6822F002024A607047000042F20400BD
:1032B00040F22311C4F20200C4F26751016048F6E3
:1032C000AB11CCF6EF5101607047000042F20C02E6
:1032D000C4F20202536843F00103536001601068B6
:1032E000C0070DD11068400746D41068C0064FF0E3
:1032F000020058BF0320516821F00101516070475E
:103300004FF480111068C00700F08B801068C00770
:1033100038D01068C0073BD01068C0073ED0106896
:10332000C00741D01068C00744D01068C00747D01C
:103330001068C0074AD01068C0074DD01068C00799
:1033400050D01068C00753D01068C00756D010681E
:10335000C00759D01068C0075CD01068C0075FD0A4
:103360001068C00768D01039CCD10420516821F012
:1033700001015160704700BF0120516821F0010137
:10338000516070470139106840074DD558E000BFC3
:1033900002391068400747D552E000BF0339106872
:1033A000400741D54CE000BF0439106840073BD5C9
:1033B00046E000BF05391068400735D540E000BF42
:1033C0000639106840072FD53AE000BF073910686A
:1033D000400729D534E000BF08391068400723D5DD
:1033E0002EE000BF0939106840071DD528E000BF56
:1033F0000A391068400717D522E000BF0B39106862
:10340000400711D51CE000BF0C39106840070BD5F0
:1034100016E000BF0D391068400705D510E000BF69
:103420000E39106840070BD41068C0064FF0020038
:1034300058BF032005E000BF0F3910684007F3D5DF
:103440000120012908BF0420516821F001015160C9
:1034500070470000F0B581B02825C4F6000505F5D9
:10346000767420460121002202230126022700F063
:1034700091F84FF09040012100224FF48063C5F88D
:10348000F0734FF4806700F085F820460121002298
:1034900001232F6000F07EF84FF0904001210022C0
:1034A0004FF40073C5F8F0634FF4007400F072F845
:1034B0004FF090400121002280232C60802400F0F6
:1034C00069F84FF09040012100224FF4807345F8D5
:1034D000104C4FF4807400F05DF82C6001B0F0BD2A
:1034E00042F61440C4F20100016841F0010101609C
:1034F00070470000401A48BF404270471C20C4F289
:1035000001000068C0F380707047000040F2104076
:10351000C4F60000006800F010007047F0B50A889B
:10352000002A08BFF0BD00234FF0030C4FF0010E3E
:10353000002405E0520804F1010403F1020327D03E
:10354000D507F7D005680CFA03F6B54305608D7909
:1035500007689D403D43056045680EFA04F7BD438A
:1035600045600D794768A5403D4345608568B54392
:103570008560CD7987689D403D438560C568B543CA
:10358000C5604D79C6689D403543C560D2E700BF30
:10359000F0BD0000D0F800C05B4303EB43022CEA0F
:1035A00002025943114301607047000080B5D0F812
:1035B00000C05B4303EB430E2CEA0E0C594341EA77
:1035C0000C010160C1685A4321EA0E011143C16038
:1035D00080BD000010B51C2303EA810E24234FF0A8
:1035E0000F0C082938BF2023C4580CFA0EF124EA26
:1035F0000101C150C15802FA0EF21143C15010BD71
:1036000062B670472DE9F0474EF6085041F20001CE
:10361000CEF20000C0F6000101604FF4A0100121BD
:10362000FFF7E6F94EF20B4ACEF2000A10204EF2F6
:1036300000168AF80000CEF200064FF400603060F9
:10364000FEF72AF80424C0F21C0420460121FFF7EB
:10365000CFF941F22800C4F200004FF6FF784FF096
:103660003B09C0F80480C0F80090201D0121FFF73D
:10367000BFF942F22800C4F20000322141607721F4
:10368000016030208AF808004FF4002011243060D7
:10369000C0F2140420460121FFF7AAF94FF4C0102C
:1036A0000121FFF7A5F94FF09040032100220223EA
:1036B0000027FFF76FFF4FF09040032100222023E7
:1036C000FFF768FF8AF801704FF4805030600020E7
:1036D0000121FEF7B3FB1220C0F218000121FFF711
:1036E00087F944F62C0044F20045C4F20100C4F20C
:1036F0000105C0F80080C5F82894D5F80004012120
:1037000040F08000C5F8000404F58020FFF770F950
:103710004FF4FA70E862C5F82890286840F08000FD
:1037200028608AF80A704FF400103060BDE8F08716
:10373000F0B581B040F23856C2F20006306941F26D
:10374000240540F2BC44C4F200057E28C2F2000405
:1037500026D328687C280BD8B4F85200C0084A2821
:1037600006D8B069B0F5FA7F02D201B0F0BD00BF53
:1037700040F20001C2F200012868B1F85410B0EB29
:10378000510FF2D394F825000130C1B2652984F8B5
:10379000250005D301F098FA0020B06101B0F0BD1A
:1037A00040F20006C2F200062968F27E707EA4F89C
:1037B0005E105AB1A0B10027FFF7A0FE0028D4D1B7
:1037C000707E01378742F7D30AE000BF40B100277F
:1037D000FFF794FE0028C8D0707E01378742F7D3E8
:1037E00001F072FAEFF3108072B62A68B4F85E1036
:1037F00000208A424FF0000284BF2A68521A2A60D1
:10380000B4F85410B27DD14044F20C42C4F201022B
:10381000A4F85410906111625060106840F00100EB
:10382000106062B601B0F0BD2DE9F04182B040F207
:10383000E564C2F2000447F60041C0F600012046EC
:103840004FF4807201F032FD6078042840F2F88174
:10385000607CA17C0138B0FA80F040F2BC454009A0
:10386000C2F20005A872481EE27CB0FA80F040095E
:10387000012AE87204BF0120A873207D617D013810
:10388000B0FA80F040F200064009C2F20006B070C3
:10389000481EA27DB0FA80F04009F070501EB0FAC8
:1038A00080F04009E37D3071207E42F62C481F2BCA
:1038B000A0F10801C4F2010828BF10235829F371B0
:1038C00016D818281CD2A0F10C010B2929D900F018
:1038D000FC01082936D141F64C570721102243F646
:1038E0009823009701F0C8F9A6F844002CE000BF27
:1038F00041F28830A6F84200C8F800002BE000BF73
:1039000040F2E2471821602241F28833009701F02B
:10391000B3F90146207EA6F84410A0F10C010B2952
:10392000D5D841F288370C21182242F21073009743
:1039300001F0A2F90146207EA6F8441000F0FC0137
:103940000829C8D0B6F8440081B2C8F80010A6F81B
:103950004E00A6F84600607E1427A0F13201C9B2DD
:1039600064299CBF3138F074A07E227F00EB800078
:1039700007EBC000B084501E637FB0FA80F04009AE
:103980002873581EB0FA80F0E17E40096873022067
:10399000317202F0F3FC607880B3A07F0B2888BFFF
:1039A000052002F0EBFCE07F94F820100138B0FA1B
:1039B00080F04009E87340F2EE2094F8212000EBFB
:1039C000410094F82230B08540F2D66000EB42000E
:1039D000F08503F25E50308694F8240094F82310AA
:1039E0000228B1730CD0012812D194F825100120BF
:1039F000A87401F1FA0070860CE000BFB08CE8E01A
:103A00000220A87494F8250064214843708401E0E2
:103A10000020A87494F8261094F828000139B1FA0F
:103A200081F14909E974411F14294FF000012974FB
:103A300098BF707394F82900411E092998BFB0728D
:103A400094F82A00411EC9B2082910D8F07200EB80
:103A500080006FF01901A1EB4000C0B2C82828BF58
:103A6000C8203073D8F818100843C8F8180094F824
:103A70002B00A0F14601462998BFB07194F82C00A4
:103A8000411E622903D84000F0840120A87594F8F3
:103A90002D00411E092998BF707294F82E00092844
:103AA00006D804280DD8DFE800F003A9B3B7BB009F
:103AB0000020A5F8290040F22140C2F200000121B7
:103AC000017094F8350094F836100138B0FA80F09F
:103AD0004009012985F82C0028D10120687094F84C
:103AE000370094F8381000EB80002F2707EB800098
:103AF000A5F8580001EB810094F8392094F83A3089
:103B000007EB8000A5F85A006420C82150435943B0
:103B1000C6E9161040F2680194F83B00C2F20001B9
:103B2000043194F83C2094F83D300DC194F83E00E7
:103B300094F83F10A88601EB81008100F187F17CA9
:103B4000327B01EB80013187B6F84C1094F840309D
:103B50001144A6F84C10B18F02EB80000844552B9D
:103B6000B08704BF0120287094F8410094F84210F7
:103B700094F8432094F84430A87094F84500E97113
:103B8000327055282B7204BF01202871B08C94F834
:103B9000461082084A2AE9709CBF0021317448F21D
:103BA0001F51C5F2EB11A0FB01124FF2F101CFF250
:103BB000F001A0FB0113317A2027B7FBF1F1520984
:103BC0001B09B2FBF1F2B3FBF1F1A6F84820A6F80D
:103BD0004A104FF4FA774FF4967140F6B8324FF42A
:103BE0007A73009701F048F8B178F086002904BF95
:103BF0000020E87202B0BDE8F08100BF40F2214130
:103C00000120C2F2000185F82900087059E700BFC1
:103C1000012085F82A0054E70520687151E700BFAC
:103C200040F22040C2F200000121017040F2214028
:103C3000C2F200000022027085F8291041E700BF9F
:103C4000FDF75AFE82B0FFF7DBFCFFF7DBFCFFF766
:103C5000CDF9FFF7E9FD40F2E560C2F20000C1785E
:103C600040F2000940F2BC480329C2F20009C2F246
:103C7000000802D1017901294DD040F20311A0F8CA
:103C8000031046F25451C6F66B31C0F8051043F2EA
:103C90006F31C2F23201C0F8091043F24641C2F25C
:103CA0002001C0F80D1099F8011098F80B604170D0
:103CB00098F80A1098F80E500139B1FA81F14909C3
:103CC0004174711EB1FA81F149098174691E99F834
:103CD0000220B1FA81F14909C174511E99F80330EB
:103CE000B1FA81F149090175591E99F80470B1FAC8
:103CF00081F149094175791E99F80720B1FA81F1DE
:103D00004909C27547F600428175C0F600024FF4BA
:103D1000807101F051FD98F80E0044F6D357002849
:103D20001CBFB9F83A00A9F83800B9F84400B9F84E
:103D30003C10C1F262074143A1FB0712B9F84C10D5
:103D400098F80A304143A1FB0717591E18BF0121FB
:103D500089F81C1099F80C10A9F8420001EBD21157
:103D600099F80220A9F83C10F909A9F84C10002A8A
:103D7000A9F84E0004BF002088F80E0098F8130040
:103D800000B34FF47A70A9F84C00012088F80B00BA
:103D9000002189F81000B9F83E0088F80E10A9F843
:103DA000021089F80410B9F840103230A9F83E002A
:103DB00001F13200B9F83810A9F8400001F13200E1
:103DC000A9F8380098F8050043F2000405380128E6
:103DD000C4F200041AD8FEF733FE01F099FA01206C
:103DE00088F8280001F0C4F94AF6AA20206098F863
:103DF000000010B341F28830A9F85400002088F880
:103E00000E0000F061FF01F087F818E002F028FBD7
:103E1000FDF7FEFC0020A8F84C004AF6AA2020601E
:103E200001F0A0FA98F8010000281CBF012088F8D2
:103E3000150098F800000028DCD101F099F902F093
:103E400081FAFDF78BFB40F2385BC2F2000B4FF0BA
:103E5000000A012598F80600A0B198F80900022888
:103E600008D0012803D1FEF7D1F988F809A001F0A4
:103E7000F7FE05E0BBF81C0000F00CFE88F809A076
:103E800088F806A04AF6AA202060BBF82400BBF8F8
:103E90002610BBF82820BBF82A300844BBF82C7049
:103EA0001044BBF82E6018443844304499F803108D
:103EB00004304008CBF81C0059B1B9F84470B9F887
:103EC00054007B086021C822009700F0D5FEA9F8B5
:103ED0004200B8F8560042F21171884209D398F8AE
:103EE0002710002940F0348549F64141884280F08E
:103EF0002F85B8F83E0044F6216188424BD3B8F9CB
:103F00004050284603F0DEFA0021C4F2B43103F039
:103F1000C7F9DBF8081002460846114603F028F9F5
:103F200040F22541C2F200010978CBF808000329CC
:103F30000CD002291AD001294FF0010529D198F897
:103F40002E00022100F5007019E000BFB8F86A00E9
:103F500044F2AF714143A0EB1140400800EB114027
:103F60000009042161F31F20012107E0A8B2C0B2BB
:103F700029214843C00A00F5C0600321012540F211
:103F80002642C2F20002108040F22540C2F2000038
:103F90000170A8F83EA098F80010DBF8180049BBA3
:103FA000B8F846100022C82938BF012264284FF013
:103FB000000388BF0123B0F57A7F57D8002955D078
:103FC0001A4018BF88F822A098F80E201AB19F292D
:103FD00098BF88F822A098F818202AB10909182952
:103FE00098BF88F822A005E095298CBF0A2164219A
:103FF00089F81210DBF81C1045F25652C5F25552E2
:1040000051FB02F198F81C2001EBD171002ACBF88A
:10401000101040D00B283ED3DBF82000FFF76AFADF
:10402000DBF810100A097C2A31D84A0890422ED9B0
:1040300098F80B00B8F84E20B0FA80F040092F2A0B
:104040004FF0000288BF0122104298F81700CBF809
:1040500018A000F1010088F817000FD1B9F854003A
:10406000B0F57A7F88BF88F823A009E088F822A0FD
:1040700098F80E20002AAAD1ADE700BF88F823A047
:10408000B9F8380089F817504008A8F8420088F8B5
:104090001CA0CBF8201098F82000B9F85410002884
:1040A00018BF012032294FF0000188BF01214EF2D4
:1040B0000B4208404FF01001CEF200021CBF00215D
:1040C000102011709072507098F81E00F0B198F89E
:1040D0000500D8B9DBF8080098F82E50B8F86A60E7
:1040E000B8F8407003F0D2F9B8F87040034628469B
:1040F00031463A46009443F200040125C4F200041C
:1041000000F040FC01F038FC88F81EA098F81D0073
:104110000130C1B2652988F81D00C0F0A280FDF70A
:10412000D5F804F574400121FDF78AFDB8F8760052
:1041300040F6E44440F201116043C0F21001A0FBDC
:104140000112801A02EB500099F81110C00A48F2CF
:104150001F564843C5F2EB16A0FB061C98F8211029
:1041600040F67E0EC2F2000EDBF814203EF811304D
:10417000B8F85C70D21A3A44A2FB0636C6F30F15A3
:1041800040F2FF406C43C4F6EC70B8F87230A4FB08
:10419000004048F2E804634343F23814A4EB1333BD
:1041A0004FF2CF34CCF63C7453FB04F3DC1004EB39
:1041B000D3732EF8117001310F33CBF81420CAB22B
:1041C000A8F87430B8F86A4088F82E30312A88BFD1
:1041D000002188F821103109A8F84810010A0904C3
:1041E0004FF00001C4EBC403CBF80C5058BF010AD8
:1041F00098F8120003EB5C1300284FEAD300A8F8EC
:104200004010A8F86A0025D0B9F8221080B2814287
:104210001ED9B8F83C0098F824104FF67C470130BE
:104220004FF47A73CFF6FF7782B211FB07319142D8
:10423000A8F83C000EDAA8F84EA0FDF719FD00F032
:1042400043FD88F823A0A8F84CA088F827A001E037
:10425000A8F83CA043F20004C4F20004012588F849
:104260001DA098F8240088F825A0002848D0B8F8A8
:104270004E003128C0F0948098F82710002900F0F3
:104280008F80882800F2268198F81100A8B144F2A6
:104290000C41C4F20101086820F00100086000F040
:1042A00013FD42F63440C4F20100C0E900AAC0F890
:1042B00008A0FDF723FD88F811A099F81C10B8F8A4
:1042C0006200002900F0A281013801B2002948BF34
:1042D00040F26710B8F86410A8F8620001390AB219
:1042E000002A48BF40F26711B8F86620A8F86410A9
:1042F000511E0AB2002A48BF40F26711A0E100BF78
:10430000DBF81C0042F2C072C0F2090298F82310D8
:1043100092FBF0F04843A8F8700080B24CF6CD4113
:10432000484399F81010C00CA8F8780061B1B9F8AA
:104330004810B9F84A20B9F84C30B9F84E700097D7
:1043400000F09AFCA9F8460098F82E0099F806208B
:1043500090420AD9B9F84E30A2F10A010A325B083C
:10436000009500F089FCA9F8460098F82C0058B197
:10437000B8F84E002F2140F2FF7202232027009749
:1043800000F07AFC89F80700DBF8180063282FD8C2
:10439000B9F85410B1F5FA7F2AD90C2034E000BFE7
:1043A00098F80C0088F81150002800F0B780B9F890
:1043B000440099F80A10B9F8422000EB4101133982
:1043C0008BB25A43B2FBF0F2A8F85210801A0130B7
:1043D000A8F86E0000F02EFFB8F86E0042F63441E7
:1043E000C4F20101C1E90000886088F81F509FE015
:1043F000DBF8100064214FF4FA7203230C270097B6
:1044000000F03AFCB9F85410642938BF0220B9F81A
:10441000241041F224028908C4F200027C2989F8A0
:1044200019009CBF400089F8190010684AF6C9714C
:104430008842C0F0158298F82300012840F01082CD
:1044400098F82200013088F8220000F03DFCB8F80E
:104450004E0089F8175041F2240330283ABF88F8FB
:1044600023A041F28830B9F85400C4F20003CBF81D
:1044700018A0196800EB4000A8F85E10C3F800A06F
:1044800010FA81F099F81A208108C0F38F00B0FB70
:10449000F2F2A9F85410DBF81810C2EB50000A2908
:1044A000A8F84A20A8F854004AD2186899F81C10B5
:1044B00099F82000012953D10130C1B2072989F8A8
:1044C000200022BF012089F8200088F81C0000F09D
:1044D000010051E099F81C10B8F86200002988F832
:1044E000115000F03181013801B2002948BF40F27B
:1044F0006710B8F86410A8F8620001390AB2002AFF
:1045000048BF40F26711B8F86620A8F86410511E41
:104510000AB2002A48BF40F267112FE142F6344048
:10452000C4F20100C0E900AAC0F808A0FDF7A0FB92
:10453000A8F870A098F80000002840F0968189E45F
:1045400080B200BF19688142B0D219688142ADD2F1
:1045500019688142AAD219688142F3D3A6E700BF45
:104560000138010689F8200004D1062089F82000CE
:1045700088F81C5025EA000089F81B00EFF3108032
:1045800072B698F81F0018B999F82000FDF762FC80
:1045900062B6FDF711FC98F80D0098F81310084367
:1045A00018BF012006D0DBF81010B1F5FA6F88BFF4
:1045B00089F8175099F82010B8F85E200BEB4101EC
:1045C0004A84DBF8181001F1010188F82BA088F863
:1045D0002DA088F826A0CBF8181048B11429C0F0F7
:1045E0003F81B9F85400B0F5FA6F04D938E100BF43
:1045F0001F29C0F0358189F817A0FEF7EDFC98F867
:104600000000002840F03181FFF724BC013001B2E6
:10461000B1F5B47FA8BF0020B8F86410A8F8620014
:1046200001310AB2B2F5B47FA8BF0021B8F8662004
:10463000A8F86410511C0AB2B2F5B47FA8BF0021DB
:1046400040F2EA0600B2C2F20006A8F8661036F997
:104650001000B9F85210B9F84420084444F6D35475
:104660005043C1F2620450FB04F0C11199F80920D3
:1046700001EBD07046F267675043C6F2666750FBA5
:1046800007F0810801EBD07080B201F065FEB8F947
:104690006400B9F8521036F91000B9F84420084403
:1046A000504350FB04F0C11199F8092001EBD07080
:1046B000504350FB07F0810801EBD07080B201F04D
:1046C00051FEB8F96600B9F8521036F91000B9F881
:1046D00044200844504350FB04F0C11199F80920CC
:1046E00001EBD070504350FB07F0810801EBD07014
:1046F00080B201F03DFE99F8081041F65832B2FB45
:10470000F1F340F22A32B8F84E00B2FBF1F7302153
:104710007822009700F0B0FAA9F8500080B2FEF7B6
:104720008DFAB9F850004FF41671B1FBF0F043F276
:104730000004A8F87000C4F2000498F800000028F3
:1047400040F09380FFF786BB013001B2B1F5B47F32
:10475000A8BF0020B8F86410A8F8620001310AB2BE
:10476000B2F5B47FA8BF0021B8F86620A8F864109D
:10477000511C0AB2B2F5B47FA8BF002140F2EA068C
:1047800000B2C2F20006A8F8661036F91000B9F8B7
:104790005210B9F84420084444F6D3545043C1F2AF
:1047A000620450FB04F0C11199F8092001EBD070AC
:1047B00046F267675043C6F2666750FB07F0810810
:1047C00001EBD07080B201F0C7FDB8F96400B9F810
:1047D000521036F91000B9F844200844504350FBF9
:1047E00004F0C11199F8092001EBD070504350FB3F
:1047F00007F0810801EBD07080B201F0B3FDB8F989
:104800006600B9F8521036F91000B9F8442008448F
:10481000504350FB04F0C11199F8092001EBD0700E
:10482000504350FB07F0810801EBD07080B201F0DB
:104830009FFDB8F84E00C82806D95020A8F862A0FD
:10484000A9F8500002E000BFB9F8500043F200049C
:10485000C4F20004FEF7F2F9B8F8620050B100BFEC
:1048600098F8000000283FF4F5AA00F0C3FDFFF718
:10487000F1BA00BF41F2240042F22831C4F2000034
:10488000A8F8235089F81750A9F85410CBF8101045
:10489000CBF82010016098F80D001421CBF8181007
:1048A00088F81FA000281CBFB9F84000A8F84200F3
:1048B00099F81C1099F8180001290DD10130C1B2E6
:1048C000072989F8200022BF012089F8200088F8F4
:1048D0001C0000F001000BE00138010689F82000FF
:1048E00004D1062089F8200088F81C5025EA000031
:1048F00089F81B00EFF3108072B698F81F0018B902
:1049000099F82000FDF7A6FA62B6FDF755FA98F877
:104910000D0098F81310084306D0DBF81000B0F52E
:10492000FA6F88BF89F8175099F82000B8F85E1020
:104930000BEB400088F82DA088F82BA04184FEF7EF
:10494000CFFD98F8000000288FD1FFF783BA00BF91
:10495000FDF78EF942F634410020C4F20101A8F8B7
:104960002700C8F84C0008604860886000F03AFDF5
:1049700040F2E050C2F200004FF48071FCF734FCCA
:10498000FCF7BAFF80B540F26E5CC2F2000C8CF806
:104990000000080ADDF808E08CF80100100A8CF825
:1049A0000300180A8CF802108CF804208CF805001B
:1049B0004FEA1E208CF808E04FF0000E072100227D
:1049C0008CF806308CF807001CF80E305A4053B2B1
:1049D000D2B25000002B48BF81EA420081EA400277
:1049E000030658BF420081EA4200130658BF500038
:1049F00081EA4002030658BF420081EA42001306E2
:104A000058BF500081EA4002030658BF420081EAC5
:104A10004200130658BF500081EA4002030658BF07
:104A20004200BEF1080F31D00CEB0E0040780EF1C1
:104A3000020E504042B2C0B24300002A48BF81EA91
:104A4000400381EA43001A0658BF580081EA400239
:104A5000030658BF420081EA4200130658BF5000C7
:104A600081EA4002030658BF420081EA4200130671
:104A700058BF500081EA4003020658BF430081EA54
:104A80004302180658BF5A009EE700BF8CF8092061
:104A900080BD00002DE9F04F40F2204CC2F2000C26
:104AA000BCF8061021B10020ACF806001CE000BFE5
:104AB00040F2DF41C2F20001097800294FF0000105
:104AC00008BF4FF6FF70B1EBD03F07D100F4404173
:104AD000B1F5804F40F0A880062100E00721C840D2
:104AE000CCF8101040EA4121080980EA1120484022
:104AF0000F24844344EA011047F64E02CCF8140018
:104B0000C0F60002C1F303100B0A155CD65CA802C4
:104B100040EAC63701F00F0012F80080135D40F242
:104B2000E002C2F2000292F800E040F2E870C2F245
:104B3000000000EB8E02802020EAC60A06F008067C
:104B40008AEA061B00EA972147EA481481EA0B012A
:104B500000EA572644EA03094E4000EA1727CCF83A
:104B60001890774005F0100C87EACC0C05F008058A
:104B70008CEA0515C2F808A002F1100A8AE8C210F2
:104B800000EA541125F07F0787EA010C00EA1417A8
:104B900050608CEA070A00EAD40080EA0A0008F0B4
:104BA0001006156280EAC60608F0080586EA0515B3
:104BB00009F080046C4009F0400824F07F0181EA8C
:104BC000480109F0200781EA8707C2E90B0603F0D4
:104BD0001000C2E90F1787EAC00003F0080180EA5D
:104BE000011103F0040781EA471703F00206C2E946
:104BF00009CA87EA8616DB0102F1440CC2E90D54AA
:104C0000DBB226F07F058CE8830040F2E8716B4050
:104C10000020C2F20001C2F80CB0C2E9146341F8EE
:104C20002E00BDE8F08F00BF00F46041B1F5005FD9
:104C300002D1052153E700BF00F47041B1F5805F58
:104C400002D104214BE700BF00F47841B1F5006FB9
:104C500002D1032143E700BF00F47C41B1F5806F2E
:104C600002D102213BE700BF00F47E41A1F50071B3
:104C7000B1FA81F1490932E710B5DDF808C09E4666
:104C80000C461146634600BF81429C4617DD0A462A
:104C90008C420DDCE64511D0111949100CEB0E03C6
:104CA0008C424FEA63030DD08142EDDA0131E6E731
:104CB000114622466346F446E1E700BFF4466046EB
:104CC00010BD00BF184610BD40F20040C4F2010004
:104CD000016821F4001101604FF400114161704737
:104CE000B0B54EF60C5ECEF2000EDEF800304FF09E
:104CF000FF35C3F3022383F00704042C28BF0424E8
:104D0000033B05FA04F438BF0023A1434EF2001C14
:104D1000994005FA03F3CEF2000C9A43114300F0D8
:104D20000F0200EB0C030901043A03F5407300285D
:104D3000724448BF02F10C03197048BFB0BD00F0C7
:104D40001F01012202FA01F1C0F342104CF82010B9
:104D5000B0BD00002DE9F04381B042F62848C4F20E
:104D6000010841F28830C8F80400EFF3108072B6F1
:104D700040F27850C2F20000007843F200094CF68D
:104D8000CD447925C4F200094AF6AA27CCF6CC44D2
:104D90000A26C8E90300C8F8140000BF023DA5FBBD
:104DA00004010809C9F80070FDF754F806EB550036
:104DB000C8F800000A20FDF757FF022DEED8FCF7D7
:104DC00057FF002040F24402C8F80000C2F200027F
:104DD00040F212511288C2F200010880C8F8042083
:104DE00062B601B0BDE8F0832DE9F04F81B042F624
:104DF000284543F200080320C4F20105C4F200086C
:104E0000FDF728F840F2125940F2E56600274AF60D
:104E1000AA24C2F20009C2F200064FF0000B4FF0C4
:104E2000000A07E00AF1010A0BF134000BF1020B52
:104E3000AE285DD2C8F8004006EB0B0191F83400B3
:104E4000A9F80070FF28EDD091F8351000293FD067
:104E50004FF47A62F72311FB032149F28062C0F21A
:104E60009802B2FBF1F148F2A0635FFA8AF2C0F255
:104E70000103C2EBC212B3FBF1F300EB420048F2B4
:104E80001F525843C5F2EB12A0FB020241F600305C
:104E9000C0F2B700B0FBF1F00A21296080B240F205
:104EA00078516860C2F200010978484341F25971B3
:104EB000CDF2B711A0FB0101080BC5E90300686141
:104EC000C2F34F10FDF7D0FE4FF0000AACE700BF71
:104ED0005FFA8AF1C1EBC11100EB41004FF0000A0B
:104EE000C5E903AAC5F814A0FDF7BEFE9CE700BF04
:104EF000FCF7BEFE002040F244012860C2F200012F
:104F000009886960A9F800004AF6AA20C8F80000DC
:104F100001B0BDE8F08F000010B5EFF3108072B65D
:104F200042F62844C4F2010441F28830606040F245
:104F30007850C2F200000078C4E9030060610120EB
:104F4000FCF788FF282020604FF49670FDF78CFE58
:104F50000220FCF77FFF1E2020604FF49670FDF7C3
:104F600083FE0320FCF776FF192020604FF4967033
:104F7000FDF77AFE0420FCF76DFF142020604FF44B
:104F80009670FDF771FEFCF773FE002040F24402BC
:104F90002060C2F2000240F212511288C2F20001F7
:104FA0000880626062B610BD10B542F62844C4F2B3
:104FB000010441F2883060602820206040F278507F
:104FC000C2F200000078C4E9030060610220FCF72F
:104FD00041FF9620FDF748FE43F20000C4F20000B6
:104FE0004AF6AA210160502020609620FDF73CFE81
:104FF000FCF73EFE002040F244022060C2F20002B4
:1050000040F212511288C2F200010880626010BDA5
:1050100010B542F62844C4F2010441F288306060C1
:105020003220206040F27850C2F200000078C4E9DB
:10503000030060610220FCF70DFF9620FDF714FECF
:1050400043F20000C4F200004AF6AA2101601E20CB
:1050500020609620FDF708FEFCF70AFE002040F2D3
:1050600044022060C2F2000240F212511288C2F2E1
:1050700000010880626010BD10B5EFF3108072B6B9
:1050800042F62844C4F2010441F28830606043F2E1
:105090000000C4F200004AF6AA21016050202060FE
:1050A00040F27850C2F200000078C4E90300606169
:1050B0000320FCF7CFFE6420FDF7D6FD46202060DC
:1050C0006420FDF7D1FD282020606420FDF7CCFD91
:1050D000FCF7CEFD002040F244022060C2F2000244
:1050E00040F212511288C2F200010880626062B67A
:1050F00010BD000070B542F62844C4F2010441F22C
:1051000088306060EFF3108072B643F20005C4F29D
:1051100000054AF6AA263C202E60206040F2785016
:10512000C2F200000078C4E9030060610120FCF7CE
:1051300091FE4B20FDF798FD502020604B20FDF79D
:1051400093FD5A2020604B202E60FDF78DFDFCF76B
:105150008FFD002040F244022060C2F2000240F2C3
:1051600012511288C2F200010880626062B670BDFE
:1051700010B5EFF3108072B647F68040C0F600001D
:10518000007842F62844FF28C4F2010402D0FFF759
:105190002BFE2BE041F28830606040F27850C2F282
:1051A00000000078C4E9030060610320FCF752FEB0
:1051B00037202060C820FDF757FD0520FCF74AFE88
:1051C00028202060C820FDF74FFD0620FCF742FE96
:1051D00019202060C820FDF747FDFCF749FD40F28B
:1051E00012510020C2F200012060088040F2440009
:1051F000C2F200000088606062B610BD10B540F2D7
:10520000BC44C2F20004607A022809D0012803D10C
:10521000FCF7FCFF00206072BDE8104000F020BDEC
:1052200040F23850C2F20000808BFFF733FC0020C0
:10523000607210BDB0B54FF09040012100224FF4D4
:1052400080634FF48064FEF7A5F92825C4F60005B5
:105250004FF09040012100224FF400732C604FF476
:105260000074FEF797F94FF09040012100224FF4AF
:1052700080732C604FF48074FEF78CF92C6005F578
:1052800076742046022100220223FEF783F920468D
:10529000022100220123FEF77DF94FF09040022108
:1052A00000228023BDE8B040FEF774B970B5012A32
:1052B0002CDB531E032B02F0030C01D2002211E061
:1052C00022F0030E431C00228D5C9E188C1806F8F9
:1052D000015C65789D54A57804327570E478964534
:1052E000B470F1D1BCF1000F10D0535CBCF1010FD0
:1052F00083540BD0531C13F801E0BCF1020F00F8EB
:1053000003E008BF70BD0232515C815470BD0000E3
:1053100070B540F2C146C2F200063078302544F242
:105320000044C4F202050528C4F200040BD1402059
:10533000686004F57440012101F0E6FD286840F042
:10534000010028603078062818BF70BD4020E86250
:105350002046012101F0D8FDA86A40F00100A862B2
:1053600070BD0000B0B54425C4F20205286840F2C3
:105370000044C4F200042860204601F0EBFB47F231
:10538000010040F2E101A061C2F200010B200978A6
:1053900020624FF6FF70A162E0626069002140F078
:1053A0000100606140F67D00C2F20000017004F16E
:1053B00034006162A86040F2E050C2F20000E86090
:1053C00040F26000C2F2000000786860E06840F4DB
:1053D0000070E060206840F00100206040F68B1013
:1053E0002860B0BD40F22440C4F20000002181607A
:1053F000016070472DE9F04782B040F20009C2F227
:105400000009B9F8440040F2BC484CF6CD41C2F264
:105410000008414398F80420A0EB1154A6B25AB1F9
:1054200098F8271098F80B00002918BF00281BD106
:1054300000293ED14AE000BF98F81A10B8F846009B
:10544000002940F0EE803128C0F0EB8099F81C5024
:10545000FCF70EFC0A20FDF7F1FB002D00F0DA80CE
:1054600001F0A4FCD8E000BFB8F8460000214FF4DA
:10547000FA6200234FEA560A0096FFF7FDFBB8F8E0
:1054800030100546084600214FF4FA6200230096CA
:10549000FFF7F2FB0746504600F064FFA8B200F0A9
:1054A0005BFFB8B200F064FF98F80B0098F8271083
:1054B00061B158B999F81C50FCF7DAFB0A20FDF7E6
:1054C000BDFB3DB101F072FC06E000BF02B0BDE8DB
:1054D000F08700BF01F0C2FCB8F84600302140F26E
:1054E000FF7200230096FFF7C7FBB8F83010824622
:1054F0000846302140F2FF7200230096FFF7BCFB04
:1055000098F82E7099F8061005468F420BD9B9F815
:10551000440001F114024308012638460096FFF7C3
:10552000ABFB044686B21FFA8AF0B042A8B288BF2D
:10553000A246B04298F8160088BF25460028A9F870
:1055400046404DD0B8F94000B9F826106FF063021C
:1055500001FB020240F26801C2F200018B6BD1E94B
:105560000B708A6200FB02308B6C4E6B9842A8BFB6
:1055700018465B429842D8BF18460B6C8863D31A12
:1055800003FB060003FB06F407FB0200CB6CCC63B5
:105590000A649842A8BF18465A429042D8BF1046A3
:1055A000486401F08FFF44F20001C4F21C6101F075
:1055B00077FE01F06BFFB9F83410081AB9F83E1005
:1055C00002B28A42B8BF08461FFA8AF102B291427B
:1055D000A9B2A9F83400C8BF82469142C8BF0546A7
:1055E0004AEA050000040FD098F8270060B11FFABE
:1055F0008AF000F0B1FE002000F0B4FEA8B202B0C4
:10560000BDE8F04700F0B4BE42F63440C4F20100F9
:1056100084E000BF01F022FCB8F84600012188F8C0
:105620001A10302140F2FF7200230096FFF724FB8E
:1056300098F82E7099F8061005468F420BD9B9F8E4
:10564000440001F114024308012638460096FFF792
:1056500013FB044686B2A8B2B04298F8160088BF81
:1056600025460028A9F8464048D0B8F94000B9F8C6
:1056700026106FF0630201FB020240F26801C2F2E1
:1056800000018B6BD1E90B708A6200FB02308B6CDE
:105690004E6B9842A8BF18465B429842D8BF184646
:1056A0000B6C8863D31A03FB060003FB06F407FBAD
:1056B0000200CB6CCC630A649842A8BF18465A42D9
:1056C0009042D8BF1046486401F0FCFE44F200014D
:1056D000C4F21C6101F0E4FD01F0D8FEB9F8341009
:1056E000081AB9F83E1002B28A42B8BF0846A9B2F9
:1056F00002B2A9F834009142C8BF0546280442F618
:105700003440C4F2010009D098F8271031B1A9B291
:10571000C0E90011816002B0BDE8F0870021C0E956
:105720000011816088F81A1002B0BDE8F08700000F
:10573000B0B540F20001C2F2000140F2E5604A78E3
:10574000C2F20000427040F2BC42C2F20002947AFF
:10575000D57A927B8B78013AB2FA82F25209C274FE
:105760005A1E91F803C0B2FA82F252090275ACF1E6
:10577000010291F804E0013CB2FA82F2B4FA84F436
:10578000520964094275AEF1010244746C1EB2FA0A
:1057900082F2B4FA84F45209CB796409827547F62F
:1057A00000428474C0F600024FF48071C375BDE8F6
:1057B000B04000F001B800002DE9F04F03AF85B014
:1057C0008346C81701EB9070841020F00300073067
:1057D00020F007009246ADEB00088946C5464046DA
:1057E0002146FBF701FDB9F1040F44DB601E0328DD
:1057F00004F0030C04D20021BCF1000F27D13AE0E1
:1058000024F00300C0F1000E08F108090022002076
:1058100047F81C4C0BEB00045BF80010A3686568AC
:10582000E468043A08EB000648F8001009EB0001B0
:1058300049F80030964500F1100041F8045CF4602E
:10584000E8D157F81C4C5142BCF1000F13D05BF863
:105850002100BCF1010F48F821000CD0481C5BF876
:105860002020BCF1020F48F8202004D0881C5BF8EF
:10587000201048F8201047F8144CFDF717FD5FEA98
:105880008A5002D15046FDF749FC002047F8180C19
:1058900057F8180C57F8141C884217D257F8180CF0
:1058A00057F8181C0AEB800058F82110FDF70EFD80
:1058B0000320FDF723FC57F8180C013047F8180CAB
:1058C00057F8180C57F8141C8842E7D3A7F10C04BA
:1058D000A546BDE8F04FFDF717BC0000B0B5442564
:1058E000C4F20205286840F2004440F01000C4F2FF
:1058F00000042860204601F02DF96020A0610320FB
:10590000206240F2A640C2F2000000780121A062AD
:105910004C20E06240F67D00C2F200000170606938
:1059200040F00100606104F13400A86040F2E870CA
:10593000C2F20000E86040F2E000C2F2000000782D
:1059400017306860286840F002002860286840F03E
:1059500008002860286840F001002860E06840F4F2
:105960000070E060606C40F400406064206840F0CB
:1059700001002060B0BD000040F2E800C2F200006B
:1059800000781C21C4F202014860086840F0010060
:105990000860704770B582B040F2795CC2F2000CCA
:1059A0009CF80110012905D19CF81900002840F04D
:1059B000DD80BCE0881EC2B2012353FA80F0032AC6
:1059C00047F2467200F0030E0CF10203C0F600022B
:1059D00002D200201AE000BF20F00304002000BF24
:1059E00013F8045B043C80EA050013F8036C105CB8
:1059F00013F8025C80EA0600105C13F8016C80EA80
:105A00000500105C80EA0600105CE9D1BEF1000FD1
:105A100010D01C78BEF1010F80EA0400105C09D0A0
:105A20005C78BEF1020F80EA0400105C02D09B7823
:105A30005840105C9CF81920904240F0978018293B
:105A400075D19CF803009CF8042040F27C419CF83E
:105A5000053062F30A20C2F200019CF806608880DB
:105A6000D00863F34A10C880B0009CF8072040EAD1
:105A7000931062F38A2008819CF80800520860F3B2
:105A8000CA124A819CF8092000099CF80A3062F386
:105A90000A10888158009CF80B3040EAD21063F35A
:105AA0004A20C8819CF80C009A0860F38A120A8286
:105AB0009CF80D209CF80F60D2009CF8105042EA30
:105AC00050104882F0089CF8112065F34A10C882F3
:105AD00090009CF8122040EA951062F38A20088317
:105AE0009CF813009CF80E30520860F3CA1266F35B
:105AF0000A234A839CF814208B8200099CF81530F5
:105B000062F30A10888358009CF8163040EAD210DD
:105B100063F34A209CF81720C88398089CF8183033
:105B200062F38A100884D80040EA5210488440F298
:105B3000C740C2F20000017840F2BE40C2F200004D
:105B4000007840F27C44C2F2000404EB40008088FC
:105B5000B1B1A0F2D5310E291CD840F20C50C2F2DE
:105B600000004FF47A71018053E000BF40F27C40A6
:105B7000C2F2000001680131016002B070BD00BFD7
:105B8000AE2823D840F20C50C2F200000021018060
:105B90003FE000BF4FF4FA65AE2140F212720023DD
:105BA0000095FFF769F840F2BF41C2F200010978A1
:105BB00040F20C5204EB41018988C2F200021080CD
:105BC0000846AE2140F2127200231AE040F2FF753F
:105BD000AE2140F2127230230095FFF74DF840F2EB
:105BE000BF41C2F20001097840F20C5204EB4101BE
:105BF0008988C2F2000210800846AE2140F212727B
:105C000030230095FFF738F840F2EC41C2F2000172
:105C1000088040F2E34140F2085240F20250C2F2E2
:105C20000001C2F20002C2F2000013880978008865
:105C30000133002918BF0023002840F2C240C2F2FD
:105C400000004FF0010118BF0023017040F2125014
:105C5000C2F2000000211380018002B070BD00007C
:105C60002DE9F04182B040F2BC46C2F20006F07A63
:105C700050B196F8290040F20004C2F2000448B185
:105C8000B6F850001FE100BFB6F85000A6F8460075
:105C90008FE100BFF17CA37BB6F850004FF47A721D
:105CA000002902EB430115D0814255D2227FB77AF9
:105CB000BA423FD1357D4FF0000C0127002DA6F8E8
:105CC00046C0F77748D0C2F10102227786F81FC09C
:105CD00032E000BF81420DD34FF47A75A5EB430249
:105CE000824200F2A080A5EB4301814240F2DF80B6
:105CF000E5E000BF227FB37A9A4240F07F80B4F89B
:105D00005400E38E00259842B6F852304FF0000060
:105D100088BF0120C82B4FF0000338BF0123184271
:105D200058D196F82400002854D14FF47A70A6F880
:105D3000500063E0F27F7AB90022327540F2FF77BB
:105D40004FF4FA622F230097FEF796FF0146B6F84C
:105D50005000A37BA6F846104FF47A78A8EB4302D4
:105D6000824222D9B17A277FC1F10105BD420BD110
:105D7000357D4FF0000C0127A6F846C0F777A5B196
:105D8000217786F81FC001E0F17F71B900213175DC
:105D90002F27002140F2FF730097FEF76DFF0146A9
:105DA000B6F85000A37BA6F84610A8EB4301814249
:105DB00000F2858008EB43018142C0F08080F27FD1
:105DC0000021002AA6F8461079D0F177012131751B
:105DD00075E000BFC2F10100207740F23850C2F2F6
:105DE000000085610120E075FEF76EFFA17BB6F82B
:105DF00050004FF47A72B57602EB410140F2FF7722
:105E00004FF4FA622F230097FEF736FF0146B6F8EB
:105E10005000A37BA6F846104FF47A75A5EB430219
:105E200082427FF660AFB17A237FC1F101079F42C2
:105E30002CD1B4F85400E38E00279842B6F85230C3
:105E40004FF0000088BF0120C82B4FF0000338BF7F
:105E50000123184208D196F8240028B94FF47A702B
:105E6000A6F8500012E000BF40F23850C2F2000025
:105E700087610120E0752177FEF726FFA17BB6F848
:105E800050004FF47A72B776A2EB41022F2700211F
:105E900040F2FF730097FEF7EFFE0146B6F85000A0
:105EA000A37BA6F84610A5EB4301814207D805EB7A
:105EB0004301814222BF0021A6F84610B17696F830
:105EC0002910002975D0B0F5836F33D3217FB27AC2
:105ED000914228D1B4F85400E28E00259042B6F8E1
:105EE00052204FF0000088BF0120C82A4FF0000266
:105EF00038BF0122104207D196F8240020B90020B3
:105F0000A6F850000FE000BFC1F10100207740F279
:105F10003850C2F2000085610120E075FEF7D4FE22
:105F2000B6F85000B576217DC1EB4001A1F6010124
:105F3000A6F84610A0F1300189B2C9087C2932D8F0
:105F4000B17A227FC1F10103934226D1B4F8540003
:105F5000E28E00259042B6F852204FF0000088BF34
:105F60000120C82A4FF0000238BF0122104207D199
:105F700096F8240020B90020A6F850000DE000BFDC
:105F800040F23850C2F2000085610120E0752177AF
:105F9000FEF79AFEB6F85000B576217DC1EB4001C0
:105FA0003139A6F846102F2803D80020A6F846005D
:105FB000B076307810B102B0BDE8F08140F2000751
:105FC000C2F2000796F82200B97C88420CD93879D1
:105FD00050B1FBF74DFEFEF777FE0020A6F84E000D
:105FE000662086F822007BE0B07B38B1B6F8460028
:105FF0001D282FD80021A6F84E105DE0707D0028E6
:106000006AD0707850B3B6F84600D7E916532F21FE
:1060100040F2FF720095FEF72FFE48F20071C0F2C9
:1060200093313A7A91FBF0F05108B6F8462090FB94
:10603000F1F02E2A708711D840F268010020C2F2D8
:106040000001086040F23851C2F20001A6F84E008B
:10605000086045E01E281FD11E202DE040F2385078
:10606000C2F2000004684EF20005C4F2FF4520466B
:10607000294601F002F9002818BF2546284601F0FC
:1060800005FA0021A6F84E00C4F24021204601F096
:10609000E6F828BB302021E0797B01EB81018A0002
:1060A000824209D9A0251E212F230095FEF7E4FD89
:1060B0000146B6F846009EE7797B01EB8101890035
:1060C00081420DD840F2FF7540F2FF72A023009587
:1060D000FEF7D2FD02E000BFB6F84600A6F84E007B
:1060E00096F8240000287FF466AFB27BB6F84E0025
:1060F00002EB82012F2404EB0111814228D896F88B
:10610000270028B396F8230068B9FBF7B1FDF87DA6
:10611000002808BF00F03CF9012086F82300388FE2
:10612000B27BA6F84200B6F84E00FB8FB7F8445099
:106130008921002A40F2FF7208BF2F210095FEF747
:106140009BFDF17CA6F84400002904BF0020F077F5
:10615000B07BB6F84E1000EB800004EB00108842D4
:106160004DD9F07E052813D8DFE800F01404080CA0
:10617000100400BFFEF74CFF0AE000BFFEF714FF5B
:1061800006E000BFFEF7E6FD02E000BFFEF7B2FF4B
:106190000020F076B87800287ED096F823000028FA
:1061A00000F08C8097F82000798DC0EB001001EB97
:1061B0008000A0F13C010AB2B2F5B47FA8BFA0F5FF
:1061C000D27108B27722A6F86210F028C8BF6FF02B
:1061D000F0020A44EF23A6F864206FF0F00278285A
:1061E000C8BF02F17803B07B19440128A6F86610F5
:1061F00004BF012086F824000020A6F84400F07FA8
:1062000000287FF4D8AEB6F84E80B8F12F0F17D320
:1062100040F23850C2F20000717B8069142222FAE9
:1062200001F188420CD2B6F84400398F88423CBF55
:10623000A6F844100846B98F884288BFA6F84410D3
:10624000B6F84450B7F84600854284BFA6F844002B
:106250000546B07D30B1B7F934008542C4BF85B280
:10626000A6F8445040F23850C2F2000044680021C1
:10627000204600F0FBFF00287FF49DAEB8F1300F00
:10628000FFF499AE204601F001F92844A6F8440035
:1062900002B0BDE8F08100BF96F823100020A6F8F8
:1062A000440091BB0121F975317B40F23852C2F2B2
:1062B0000002906121B3FDF7CDF826E00120327B8A
:1062C000F87540F23850C2F200000021816186F872
:1062D00026108AB1B07B00287FF464AFB7F8440081
:1062E000B97A00EB41001338A6F86000FEF7A2FF70
:1062F0000120F07756E700BFFBF7BAFC52E700BF7A
:10630000F07F002808BFFBF7B3FCF17CF07F002989
:1063100018BF00283FF474AFB6F850104FF47A70ED
:10632000FDF7E8F800F57A7081B240F2CF72914241
:10633000A6F8440002D3FDF78DF860E7FEF77AFF78
:106340005DE7000040F20040C4F600000221012297
:106350001023FDF72BB9000042F63441C4F20101CD
:106360000860704742F63841C4F201010860704786
:1063700042F63C41C4F20101086070470B2828BF77
:106380000B2040F278514000C2F2000108707047C3
:10639000B0B540F2BC44C2F2000494F8230018B136
:1063A000BDE8B040FCF718BE40F20005C2F200059F
:1063B000297F95F8200001290CD10130C1B20729AD
:1063C00085F8200022BF012085F82000207700F00A
:1063D00001000CE00138010685F8200004D10620F8
:1063E000012185F820002177012121EA0000E876CB
:1063F000EFF3108072B6E07F18B995F82000FBF734
:1064000029FD62B6FBF7D8FC607BE17C084340F2D3
:106410003850C2F2000005D00169B1F5FA6F84BFAF
:106420000121E975002184F82D1084F82B1095F8CE
:106430002010B4F85E2000EB4100428442F210705C
:10644000A5F8540041F22400C4F2000041F2883162
:106450000160012084F82300BDE8B040FCF7BCBD1A
:10646000F0B587B00E20C0F218000121FCF7C0FA89
:106470001220C0F214000121FCF7BAFA4FF4A01068
:106480000121FCF7B5FA40F20010C0F2021040F210
:10649000004406904020C4F60004059005A920465B
:1064A000FDF73CF82046062100220027FDF792F870
:1064B0001C25C4F202052846FCF76EFD6E463046E8
:1064C000FCF71CFD40F2E800C2F20000007843F641
:1064D0000004ADF80A001020ADF8080040F26E503C
:1064E000C2F20000C4F201040190201D00904FF49C
:1064F0008070039028463146ADF81070FCF70EFD11
:1065000028684FF4E13140F002002860286800223A
:1065100040F0080028602046002300F01DFD2046C2
:10652000012100F081FD2046012100F069FD204697
:10653000012100F06FFD2046012100F0EFFC204614
:10654000012100F0F5FC0A2003210022FEF7C8FB20
:1065500007B0F0BD2DE9F04F81B040F2BC45C2F26A
:106560000005B5F84400E98FA5F85200481CE98EF3
:10657000E887481C298FE886481C698E2887481CB4
:1065800095F8271040F2000B0029C2F2000B688634
:106590004FD1687E00284CD195F82800002848D0BB
:1065A000B5F8460020B10020A5F8680041E000BF22
:1065B000B5F8680044F62162013081B29142A5F835
:1065C000680036D3B5F84C001F2827D3A87C0121DA
:1065D000012885F8271025D1B5F86A0040F28951C5
:1065E0004143BBF83220C90C69765143B0F5B97FFD
:1065F000ABF8221018D343F200080024C4F20008BC
:106600004AF6AA27FEF738FD6420FCF72DFBC8F8F0
:106610000070687E01348442F4D305E0002085F8E0
:106620002800C1E7FEF728FD95F82A0008B90020E8
:10663000E874E87B88B1B5F86C009BF80510013070
:1066400082B201EB8101B2EB810FA5F86C0004D995
:106650000120A8770020A5F86C00287895F8241070
:10666000084340F0E7819BF8170000284DD095F8CB
:106670002300002849D0FEF727FBFCF73FFF9BF8DB
:106680001B1089B188B195F826009BF81D200130B8
:10669000C3B2934285F826001AD895F82B00A0BB08
:1066A00095F82D001BE000BF40B195F82D0001309A
:1066B00095F82B2085F82D003ABB0FE095F82600C1
:1066C0009BF81D200130C3B2934285F826000DD9F6
:1066D000002095F82B2085F82D00B2B959B19BF810
:1066E0001E10C0B288420BD80FE000BF95F82B00F7
:1066F00058B995F82D009BF81F10C0B2884204D9F4
:10670000012085F82B0000F099FC288F1528C0F097
:10671000B580A97D95F8239000200029288718BF0F
:10672000B9F1000F49D0B5F94000BBF826106FF061
:10673000630201FB020240F26801C2F200018B6BAE
:10674000D1E90B408A6200FB02308B6C4F6B9842A0
:10675000A8BF18465B429842D8BF18460B6C8863A6
:10676000D31A03FB070003FB07F604FB0200CB6C04
:10677000CE630A649842A8BF18465A429042D8BFD6
:106780001046486400F09EFE44F20001C4F21C6111
:1067900000F086FD00F07AFEBBF83410081ABBF852
:1067A0003E1002B28A42B8BF0846BBF8421002B29D
:1067B0008A42C8BF0846ABF83400687B002818BF7F
:1067C000B9F1000F54D0BBF85400BBF82810421A9E
:1067D00040F26801C2F200010B6ED1E915700A6542
:1067E00000FB02300B6FCE6D9842A8BF18465B428B
:1067F0009842D8BF18468B6E0866D31A03FB060072
:1068000003FB06F407FB02004B6F4C668A66984256
:10681000A8BF18465A429042D8BF1046C86600F03A
:1068200051FE44F20001C4F21C6100F039FD40F257
:106830003858C2F20008D8F804100246084611463B
:1068400000F096FC0021C4F21631044600F000FD71
:1068500000281CBF0024C4F2163420460021C8F8CA
:106860000440002400F0F4FC002808BFC8F80440ED
:10687000687D002818BFB9F1000F15D19BF80F00F3
:10688000002800F09880688EA98E884208D9B5F853
:10689000420000219528698668D8022170E000BF77
:1068A000B5F8420000216BE040F23858C2F200080F
:1068B000D8F81C00698F40F26807C2F20007411A3D
:1068C0003A69D7E90130D8F800A000FB01203A6A04
:1068D000D8F818903960FE689042A8BF104652421E
:1068E0009042D8BF1046BA6938618A1A02FB060086
:1068F00002FB06F403FB01007A6A7C61B9619042F5
:10690000A8BF104651428842D8BF0846F86100F03F
:10691000D9FD44F20001C4F21C6100F0C1FC014643
:10692000504600F025FC4EF20001C4F2FF4104463F
:1069300000F08EFC00281CBF4EF20004C4F2FF449D
:10694000204600214FF0000A00F097FC002818BFF5
:106950000024B9F1630FC8F8004098BFC7F810A031
:106960009BF80F0000288ED125E000BF40F238517F
:10697000C2F200010969B1F5FA7F94BF28210A210A
:10698000B5F852208BF81510131A8B420ADD084413
:10699000BBF85410A5F852000020B1F5FA7F88BF6B
:1069A000012006E0821A8A42C4BF401AA5F85200AC
:1069B00000208BF8160095F827209AB195F823004F
:1069C00080B1B5F84E0030280CD3B5F85210BBF8A2
:1069D0004200BBF8442000FB01F3B3FBF2F20132AA
:1069E0001BE000BFE87F68B1B5F86010BBF842005B
:1069F000BBF844204143B1FBF2F1511A4A1CB5F8EF
:106A000052100AE0B5F85210BBF84200BBF844300F
:106A100000FB01F7B7FBF3F35A43A5F8421042F627
:106A20002C41C4F20101A5F86E20086090B2C1E9C2
:106A300002000861B5F856000130A5F8560001B013
:106A4000BDE8F08F062988BF7047DFE801F0050B2D
:106A5000151F29333D0000BF016A62F30001016286
:106A6000704700BF016A02F0010221F0040141EA0F
:106A700082010162704700BF016A02F0010221F049
:106A8000100141EA02110162704700BF016A02F081
:106A9000010221F0400141EA82110162704700BF0A
:106AA000016A02F0010221F4807141EA02210162CF
:106AB000704700BF016A02F0010221F4806141EADF
:106AC00082210162704700BF016A02F0010221F4D5
:106AD000805141EA0231016270470000062988BFF7
