:020000040800F2
:10100000600D0020D1100008751F0008311700087E
:1010100000000000000000000000000000000000D0
:10102000000000000000000000000000692000082F
:101030000000000000000000771F00086B2000087F
:10104000E3100008E3100008E3100008E3100008B4
:10105000E3100008E3100008E31000081D17000863
:10106000E3100008251600084D1600086D1600084C
:10107000A9140008D5210008E3100008E3100008B7
:10108000FD2100082522000800000000952100082D
:10109000A9210008D1210008E3100008E31000088E
:1010A000E3100008E3100008E310000841220008E4
:1010B000E310000800000000E31000080348854624
:1010C00000F0B4F900480047713A0008600D0020B4
:1010D0000448804704480047FEE7FEE7FEE7FEE7D6
:1010E000FEE7FEE791210008BD10000803460B4310
:1010F0009B0703D009E008C9121F08C0042AFAD2CE
:1011000003E00B780370401C491C521EF9D2704753
:10111000D2B201E00270401C491EFBD2704700228F
:10112000F6E710B513460A4604461946FFF7F0FFE6
:10113000204610BDF8B502464A40D40F42004B008D
:1011400052085B089A4202D20246084611464A00FB
:1011500023D0C30D4A00DDB2120EAD1A202D35DAB0
:1011600049020126490AF6058A19002C00D052428C
:1011700020214F1B1146B9402A411018C20D9A4236
:1011800021D0002C17D0012D08DCDA05801AD20FEF
:101190008019D207DBB200F00FF9F8BDDA05801A2A
:1011A000012340001B06C01880185A428018CA0F3D
:1011B0001043490007E04908C2071143DA05801AC5
:1011C00080194008801800F0EFF8F8BD6100012296
:1011D000511A001BF7E70122D2075140AAE701226A
:1011E000D2075040A6E770B502464A40D50F4000EE
:1011F0004A00ED0740085208002814D0002A12D0F7
:10120000C40DD30D41020120C0055202490A520A01
:10121000E41A091812187D34914201D3641C00E0CD
:101220004900002C01DA002070BD0023914201D357
:10123000891A0343400849000028F7D100290AD041
:10124000914202D10121C90705E0914201D2012159
:1012500001E00121C943E005C018401900F0A4F8DD
:1012600070BD0122D207002800DB101A002900DB24
:10127000511A814201D80120704700207047012295
:10128000D207002800DB101A002900DB511A814226
:1012900001D201207047002070470122D2070028A8
:1012A00000DB101A002900DB511A814201D3012012
:1012B0007047002070470122D207002800DB101A77
:1012C000002900DB511A814201D90120704700201A
:1012D0007047C217C10F504010B54018CA07962377
:1012E000002100F069F810BDC20F41004002012347
:1012F000400ADB05D207090EC0187F2901DA002059
:101300007047962903DC9623591AC84001E09639A4
:101310008840002AF4D04042704770B50446002946
:1013200003D000202022012310E0002801D000205B
:10133000C043C046C0460DE02546D5408D4205D38A
:101340000D469540641B1D46954040191546521E9A
:10135000002DF1DC214670BD70B5002504462E46F7
:10136000002911D0002C01DA01254442002901DABC
:10137000012649422046FFF7D0FFB54200D0404247
:10138000002D00D0494270BD002C02DA0121C907AE
:1013900002E0002C00DD03490846C046C046214655
:1013A00070BD0000FFFFFF7F002904DA401C4900E8
:1013B00001D140084000704770B40024050C05D1ED
:1013C0001024000402D1002921D01124050E01D1DE
:1013D00000020834050F01D10001241D850F01D141
:1013E0008000A41C002801DB4000641C002908D0F8
:1013F00020252E1B0D46F540A14000D00121294398
:10140000084301061B1B000ADB1D02D5002070BC2F
:101410007047DB05181880180029F8DA401C4900CD
:10142000F5D170BC4008400070470000064C012513
:10143000064E05E0E36807CC2B430C3C984710347C
:10144000B442F7D3FFF73EFEBC6C0008DC6C00082A
:1014500070B58C180578401C6B075B0F01D10378C1
:10146000401C2A1106D10278401C03E006780E7059
:10147000401C491C5B1EF9D12B0705D40023521ECA
:101480000DD40B70491CFAE70378401CCB1A921C50
:1014900003E01D780D70491C5B1C521EF9D5A1425A
:1014A000D8D3002070BD000080B5A0480168890233
:1014B00004D501214905016002F074F880BDC046E1
:1014C00005488188054A11800188054A11804088B5
:1014D000044908807047C046E4050020A0050020AC
:1014E000A40500208A050020F0B593B000270997D5
:1014F000089707970697012148020B460291444935
:101500004A6802434A604A6802400A920A985804AC
:101510000A6802430A60096801400A910326059699
:101520000A984020019004900920C40604AD20468A
:10153000294600F02FF9089705960820039004909B
:101540002046294600F026F932480168324A0A400E
:101550000260310302688A430260016820220A4364
:1015600002600168019CA1430160016880220A4376
:101570000260310202688A43029B1902511801601D
:10158000B10202688A4399021E4651180160234D38
:1015900028680399084328602868204328601804B5
:1015A000296801432960072080051D490A68824394
:1015B000D80510180860D8070F9012971197109748
:1015C0002C46283C0FA9204600F0B4F80E970D9643
:1015D0000C970B970A970AA9204600F0C5F804203B
:1015E000C04329461C390A6802400A60294614395A
:1015F0000A6806231343B3430B60243D2968014066
:101600002960286803998843286013B0F0BDC0465C
:101610001410024008000240EFBFFFFF28240140E1
:101620000827014010B5104C2068800703D42068BB
:10163000000707D410BD01206060FFF741FF20685C
:101640000007F7D50820606010BDC0460648016855
:10165000890602D40168090605D510214160C169D7
:1016600001229143C16170470000024070B52448D7
:101670000078002813D02148007800280FD00124DA
:10168000200320490A6802430A60002008642148B8
:101690000078002827D003F047FC022026E0012430
:1016A0001848011F0A6852040CD5174A1278002AFC
:1016B00008D0A203154B1D6802262E430825AE4311
:1016C0001E6002600A68920405D40968090401D505
:1016D0002103016070BD21030160016CA14301641D
:1016E00004F0F8FF04E003F025FF20460A490870E3
:1016F000E00307490A6802430A6070BD50050020F4
:1017000057050020040002405A0500202004004034
:1017100010040140100500203905002080B501208B
:10172000C0030249086003F073FB80BD140401404C
:10173000FEE700008268D20712D1C268094B13404D
:101740004A681A438B681343CA681A43C26003226B
:1017500092070369934309681943016100207047A8
:1017600001207047C73FFFFF70B58268D2070CD1D8
:10177000C268074B134074C909681A4322432A43BD
:1017800032430A43C260002070BD012070BDC046D4
:101790003CC2FEFFF0B584B00B68002B49D0002599
:1017A0000191009010E07F437F433B460F21594356
:1017B0008E435D433543009805510199039D6D1C8F
:1017C0000B681C46EC4035D00122AA401A40F6D0E6
:1017D0000395144654434B6826465E4303276743EC
:1017E0000568BD4335430560FE4302935D1E2346F5
:1017F000012D05D88D685D43876837402F4387608A
:101800000D695D43C76837402F43C760029D022DB5
:10181000039DD4D1170A05D024244D690659002F01
:10182000C1D104E020244D690659002FBBD15B4390
:10183000BCE700234A68521E012A05D8C9685943EB
:1018400042689A430A434260002004B0F0BD0000A1
:1018500080B57D21C900FFF760FD401E0349486047
:10186000002088600520086080BDC04610E000E0D0
:10187000B0B504463E4D28680C2101403D4808297A
:101880000FD12968C90300D43B48A96A0F220A4036
:10189000511CFFF742FD014628688002000F801CA2
:1018A0004843206029680906090F354A515CC84041
:1018B000606029684905490F304A515CC840A06002
:1018C000B0BDC04610B5002801D0002010BD284C86
:1018D000E16A0320084003281AD002281FD00128FB
:1018E00023D120680C210140224808293FD12168DA
:1018F000C90300D42048A16A0F220A40511CFFF7F7
:101900000CFD014620688002000F801C484310BD7A
:10191000201F00688007C1171648084010BD01202D
:10192000C103E0698003084010BD20680C2101401C
:10193000104808290FD12168C90300D40E48A16AB4
:101940000F220A40511CFFF7E8FC01462068800284
:10195000000F801C4843216822685205520F074B34
:101960009A5C0906090F064B595CC840D04010BD6F
:101970000410024000127A0000093D00A26A00082B
:10198000926A0008014908607047C046A80100201B
:10199000B0B51F22D30234C99C433F239B029D4311
:1019A0000B782B4323430F242403A2431A4303231E
:1019B0009B034C688D689C4314434988034A0A4042
:1019C00022432A4342640020B0BDC046FF1F0000EE
:1019D000B0B5056801229407A04205D0234B984278
:1019E00002D0234B984217D170239D434B682B4361
:1019F000204DA84214DD204CA04206DC1B4CA04226
:101A000016D0204CA04213D02EE01C4CA0420FD088
:101A10001B4CA0420CD027E02B46164DA842EADC16
:101A2000A04205D0124CA04202D0174CA0421BD1BC
:101A300003242402A343CC681C4304608B68C36264
:101A40000B8883629A4BC3180A24E341072B06D8FC
:101A500014469C40E1231C4201D0097C016341698A
:101A6000114341610020B0BD1C46E6E7002C014057
:101A700000040040FF2B0140FF43014000480140AB
:101A8000004401400040014000200040F0B584B017
:101A90000123FF2945DC01296CD0102967D1016A97
:101AA000102399430162016A3023994313695B084B
:101AB0005C010C4317685168090121437C4C0619ED
:101AC0000A24E64145688469072E1ED8039701273A
:101AD000B740E126374217D00326B602B543536913
:101AE00002939769D369BF002646744C3C402C434F
:101AF000DD0025433446C0239943029B5B08DB018C
:101B00000B43916889011943039F456073231B02AE
:101B10009C433B0223438361D268826301620023BA
:101B200025E001273D02A9425FD03D03A9421ED115
:101B3000016AA94301625E4945180A21CD41016A43
:101B40004368146801945468039414690294C66944
:101B5000072D00D98FE03C46AC40E1252C4200D156
:101B600089E0BC03A3439469A4011C4384E01846A4
:101B700004B0F0BD0127F943036A0B400362136907
:101B80000B40046A032102918C431C431668516880
:101B90002143474BC3180A24E34145688469072B56
:101BA0001BD803963E469E40E1231E4214D0029B62
:101BB0001B029D437B02566902969769D6699F4333
:101BC0002F4375003D430C239943029B5B08DB00C8
:101BD0000B43916889001943039E456073239C431E
:101BE00034438461D26842635CE0016AA9430162C4
:101BF0003149491C13691B020B4003210291090260
:101C0000056A8D431D431168039151680B022B43F4
:101C1000274941180A25E9414668C56907291DD8A1
:101C20008F40E1210F4219D0029C21038E4351695C
:101C300001919169D769009709011E4F0F40374301
:101C400000994E013E43A1028B431C49091D019C92
:101C5000A4020C401C4391688B022343466073210D
:101C60008D4303990D43C561D168C16303620023AD
:101C7000184604B0F0BD1C46446073231B029E430B
:101C8000019B1B023343C361D26802640322120327
:101C90009143084A1032029B1B0313400B430399E4
:101CA0000903194301620023184604B0F0BDC04681
:101CB00000D4FEBFF0DFFFFFFFFDFFFFFCF7FFFFDB
:101CC00070B584B0044600680125C00724D10E46D3
:101CD00020682449014070680843F1680143306975
:101CE0000843B169014321600320010362688A430C
:101CF000B168114361600002A168814370690843C3
:101D0000A060194884420AD01848844204D10020B7
:101D1000FFF7D8FD002808D1284604B070BD01A8FF
:101D2000FFF7A6FD03980028F6D031680029F3D00C
:101D30000122D203B36993420AD140004A08101825
:101D4000FFF7EBFA0A4901400007400F401804E092
:101D50004A081018FFF7E1FA80B2E0600025284633
:101D600004B070BDF369FFFF00440040003801403B
:101D7000F0FF0000064807490160074901600221A1
:101D800041607D2149018160044901607047C0467E
:101D900000300040CCCC000055550000AAAA00003D
:101DA000F0B59FB000251D951C951B951A951995AA
:101DB0000E950124E3020393694A5068184350606A
:101DC00019A90D740D8050681840119018463138CB
:101DD0001B901198634E3046FFF7FAFD3068802162
:101DE000049108433060B0685F490140B160B06958
:101DF000082101910843B06112951395149515952A
:101E00001695179518956020119011AF3046214610
:101E10003A46FFF73BFE0420C1430091B0690840F9
:101E2000B061B06903990843B06113951295102110
:101E300030463A46FFF72AFEB0694C490840B06187
:101E4000F06901990843F0611395129521020191FF
:101E500030463A46FFF71AFEF06900990840F061F3
:101E6000F06903990843F0611395129521033046F8
:101E70003A46FFF70BFEF0693C490840F061706894
:101E80007021884370600BA9CD8146200873B0682B
:101E9000049A9043B060109560030F900D950C95D7
:101EA0000B953046FFF774FD274660042C4B1968EC
:101EB000014319601968014005910598A004029436
:101EC000196801431960196801401E9102240A949F
:101ED000099508950795069405941E98244805AE23
:101EE0003146FFF757FC0A94099508950795069423
:101EF00005971F483146FFF74DFC0A940995089550
:101F000007950694049805900920C706384631467F
:101F1000FFF740FC0A9409950895079506940298E6
:101F20008002059038463146FFF734FC0A94099543
:101F30000895079506940298400205903846314668
:101F4000FFF728FC0A9409950895079506940198CF
:101F5000059038463146FFF71DFC1FB0F0BDC04666
:101F600014100240002C0140F8BFFFFFFFFBFFFFF1
:101F70000004004870477047F0B581B035480168EB
:101F80000126B14301602024334D285D297F0129BA
:101F90000AD1401C2855C1B2072903D32E552F481A
:101FA00006773046304009E0411E2955080603D126
:101FB000062129552948067730468843E876EFF30D
:101FC000108072B6254FF87F002802D1285D00F0FE
:101FD00041FA62B600F010FAF87C797B01432048A0
:101FE00007D040697D210901884202D9EE750020A1
:101FF00002E0E97D484248412B2100227A542D21FC
:102000007A545C21795A5622AB5A03265E437318E0
:102010009E08AE529A03520CEB7973439B09D21A75
:102020005226BA532A5D52000D4C12195185E361B4
:10203000002805D1206A0B49884207D901B0F0BDBC
:1020400000F0ECFF206A07498842F7D8401C206264
:1020500001B0F0BD0C200040C00000203005002081
:10206000AC0500200F27000070477047B0B5454908
:102070000A68012002430A600968434D2968014348
:1020800029602968890708D42968890705D429683F
:10209000890702D429688907F3D52B6880210B436F
:1020A000782293432B606B6B03436B636B6B9B07D3
:1020B00008D46B6B9B0705D46B6B9B0702D46B6BCF
:1020C0009B07F3D56B6B0B4393436B63696A0143C7
:1020D0006962696A890708D4696A890705D4696AE7
:1020E000890702D4696A8907F3D53D2109046A6822
:1020F0008A430521C90451186960E96A0F22914396
:10210000E96201062A680A432A6041062A680A42EF
:1021100008D12A680A4205D12A680A4202D12A68EF
:102120000A42F3D06968F0229143696007210902ED
:102130006A688A436A60696802220A4382436A6065
:1021400069680C20014008290BD069680140082902
:1021500007D069680140082903D06968014008294F
:10216000EED10A4C2046FFF773FB2046FFF70AFC2E
:10217000686B042188436863286B032188432863C4
:10218000B0BDC0460020024000100240006CDC02DE
:102190007047000080B50120C04302490860FFF786
:1021A000EBFE80BD102000400220C04307490A68B2
:1021B000920703D40A68D20704D1704708600A68FE
:1021C000D207FAD0401C08607047C046104001405A
:1021D000704700000220C04307490A68920703D4F1
:1021E0000A68D20704D1704708600A68D207FAD09B
:1021F000401C08607047C046102C01400220C043BC
:1022000007490A68920703D40A68D20704D17047C5
:1022100008600A68D207FAD0401C08607047C046C0
:102220001004004080B505480168C90704D00121A9
:10223000C943016003F0F2FF80BDC04610100040AA
:1022400080B508480168C9060AD5102141600648D2
:10225000016801229143016003F0DAF902F04EFEB9
:1022600080BDC0461C3801403000024081B00020D3
:1022700000902248026822490A405218183202602F
:102280000268002A08D50268002A05D50268002ADB
:1022900002D50268002AF3D401220092009B002B91
:1022A00017D0009B5B1E0093009B002B11D0009B5E
:1022B0005B1E0093009B002B0BD0009B5B1E0093CA
:1022C000009B002B05D0009B5B1E0093009B002B06
:1022D000E7D103680B4013430360014608390A68DD
:1022E000D20708D10A68D20705D10A68D20702D1FD
:1022F0000968C907F1D001B07047C0460824014001
:10230000E8FFFF7F70B53B4B1868042101430820AC
:102310008143196002249C6203210A050920C0063A
:102320000568954301221605AD1905609502856281
:102330001D681543A5431D609A628B0404689C4385
:102340009304E3180360530283628B0304689C4385
:102350009303E318036080238362090403688B43BB
:102360001104591801601102816270BD70B5E54910
:102370000A78E54C20680C239843002A03D00822F1
:102380001043206004E00422104320600220A06279
:10239000032213050920C00605689D4301235E053D
:1023A000AD1905600E7825689543002E03D00226EE
:1023B0003543256002E01D432560A362940405684F
:1023C000A543DC042C1904600C7895030168A9432B
:1023D000002C03D0DC032143016004E09C03214373
:1023E000016080218162110402688A4359045118F6
:1023F000016070BD00040048124A11781248042997
:1024000001D0012902D1612101601178052901D093
:10241000022902D1512101601178062901D0032936
:1024200001D1412101600120400508490A7808498D
:10243000002A03D000220A604860704700224A60E8
:1024400008607047E00000201C000140DB00002015
:102450000804014070B5401E052800D950E1C0466F
:102460007844007940008744020F3D6A88A6A54859
:102470000278A54908680C239843002A00D1A6E0F9
:10248000082210430860A7E09F4B1868042101430D
:1024900008208143196002249C6203210A05092057
:1024A000C0060568954301221605AD190560950221
:1024B00085621D681543A5431D609A618B040468FD
:1024C0009C439304E3180360530283628D4B1C7892
:1024D0008D030368AB43002C00D1A6E0D403234353
:1024E0000360ADE0884B1868042101430820814354
:1024F000196002249C6103210A050920C0060568B1
:10250000954301221605AD190560950285621D6887
:102510001543A5431D609A628B0404689C43930491
:10252000E318036053028362764B1C788D030368C3
:10253000AB43002C7FD0D4032343036080E0724B75
:1025400018680421014308208143196002249C611A
:1025500003210A050920C0060568954301221605D6
:10256000AD19056095028562664D2E781D688D4314
:10257000002E6CD025431D606CE0634B186804216D
:10258000014308208143196002249C6203210A054B
:102590000920C0060568954301221605AD1905609E
:1025A00095028562574D2E781D688D43002E60D0B0
:1025B00025431D6060E053480278534908680C23A6
:1025C0009843002A6FD008221043086070E004226C
:1025D0001043086002208862032213050920C00608
:1025E00004689C4301235D05641904600C681C4366
:1025F0000225AC430C608B61910404688C43990400
:102600006118016059028162910304688C43990347
:102610006118016080218162110402688A431904F3
:10262000511801601902816270BD94032343036055
:102630008023836204E09403234303608023836246
:10264000090403688B4351045918016070BD154398
:102650001D609A628B0404689C43D304E3180360F2
:102660008B0304689C439303E31803608023836215
:1026700010E015431D609A628B0404689C43D304E8
:10268000E31803608B0304689C439303E31803601F
:1026900080238361090403688B4311045918016086
:1026A0001102816270BD042210430860022088621A
:1026B000032213050920C00604689C4301235D051D
:1026C000641904600C681C430225AC430C608B62E7
:1026D000910404688C439904611801605902816275
:1026E000910304688C439903611801608021816122
:1026F000110402688A4319045118016019028162A9
:1027000070BDC046C200002000040048F0B58DB086
:10271000DF480168C56F6A1ADE4E728193B25A09AA
:102720003281DE4C2488A34200D80EE1DA4C2488A2
:10273000A34200D309E10A954368591A01250023F1
:102740000C939142294600D80C990991F161816856
:10275000C368591A9142294600D80C9908913162F0
:1027600001694369591A9142294600D80C99079189
:1027700071628169C369591A9142294600D80C993E
:102780000691B162016A436A591A9142294600D8FA
:102790000C990591F162816AC36A591A91422F46D8
:1027A00000D80C9F3763016B436B591A91422C463A
:1027B00000D80C9C7463816BC36B591A91422946F3
:1027C00000D80C990B91B163016C436C591A91427A
:1027D000294600D80C990391F163816CC36C591A96
:1027E0009142294600D80C9902913164016D436DE4
:1027F000591A9142294600D80C9901917164816D52
:10280000C36D591A9142294600D80C990491B164BC
:10281000016E436E591A9142294600D80C990091D5
:10282000F164816EC36E591A91422B4600D80C9BFD
:102830003365016F466F711A9142294600D80C9991
:10284000944E7165806F0A9E301A904200D80C9D9C
:10285000904885650998059A424003984240D00007
:10286000089A5740029A5740BA00171807984440F0
:102870000198444064000B98069A50400B900098D1
:10288000C0009A001018490046188548007885490C
:10289000097801430DD100F0D1FC002809D07D4911
:1028A0000879401C0871C0B2652802D301207C4918
:1028B0000870701939190B9B049A5340784A1278A2
:1028C000002A01D00F225040724D1943884239D15D
:1028D0001C353CCD6F48C66A6E48076B6D48416B2E
:1028E0006C48806B92025B02134322021A43EB0195
:1028F0001343B201674E1A437B0113430901194385
:10290000C000084334463C341ECC8D0005435100C2
:1029100029431943CB4A00201080B289521CB2814E
:10292000012C02D1604A0123137030290FDB727829
:10293000002A0CD05D4800220270C6480180B270A7
:102940000DB0F0BDE889401CE8810DB0F0BD4A1E15
:102950002E2A06D855480170BE4800220280C8B20F
:102960000EE0002902D05148007809E031780129B1
:1029700001D1002171704D490870B6490880B070CE
:102980000028E2D04A4909780029DED14549097872
:102990000029DAD0F178884202D00021B170F070BD
:1029A000052805D3B178491CB170C9B20629CCD32A
:1029B0000025B570411E142900D962E079440979D7
:1029C00049008F440A14181C205E242B32365E3BCB
:1029D00045505E5E5E5E5E570E003849012008700D
:1029E0004FE03448007834490870152049E03349F5
:1029F0000220087045E031490320087041E02F496A
:102A0000042008703DE02D490520087039E02A486F
:102A10000121017027480570072032E02648057023
:102A200024480121017008202BE088480570092006
:102A300027E08648012101700A2022E002F05EFCB6
:102A40001C480078401C1D4908701848007818E0A0
:102A50000121717107204002F08032780D20012A97
:102A60000FD171700DE0757107204002FF30F080CA
:102A70000E2006E00F4800780121081A0E49087060
:102A800014200A490D700E4908700DB0F0BDC04603
:102A90005C06002090040020240100202005002076
:102AA00050050020570500204E0500205C0700203F
:102AB000530500203A050020DC0000204B050020D3
:102AC000F4080020F0B581B0564E03CE081A564CDB
:102AD0000119574A083E91420BD8564D6978002992
:102AE00009D0E97800295FD1A97800292DD028895B
:102AF0002CE04E4E7FE05549097800290DD054490D
:102B00000A887D21CB00904216D94B4C24880901BC
:102B10000091511C5B1C224612E047490A884A4931
:102B200009887D231B012F3300932F2301F06CFFB5
:102B3000312807DA002005E0434909880093002383
:102B400001F062FF28613F4E55E02881491CA970C1
:102B5000394F398880B200F055FB332802DB002062
:102B600068701AE038880721414305CE101A4018D2
:102B7000C0083880A978083E33290ED3193881B2AD
:102B80002E4A8918CA0F8918490821222C4B9954BA
:102B90000121E970388002F06BF838882881E878E4
:102BA0000028D0D003CE081A29797D22D200FA322B
:102BB000904208D2491C2971234A138807265E4394
:102BC0003018C0081080C8B21E4E4C2813D31E48BF
:102BD000018819318AB2A2183332D30FD2185208A1
:102BE0002023174CE25400246C70018002F086FB15
:102BF0002C7102F019F80020308016480288F5493F
:102C000009698C1A144B1B689C4201DDD11806E03F
:102C1000541A9C4203DDD11A018001B0F0BD01803D
:102C200001B0F0BD5C060020DFFCFFFF7A0500204C
:102C30007605000014050020EE0000202AF9FFFFB1
:102C40005D07002084050020EC0000203B050020EB
:102C5000F00000207E050020B4010020F0B58FB008
:102C60000024059401260696B20301923C4841686F
:102C7000114341604168114008910899B10402680C
:102C80000A430260006808400890079402200390FD
:102C9000089840200090029003250495314802A92D
:102CA000FEF778FD304F386830490140396028031D
:102CB00039688143396038682021014339603868B8
:102CC00000998843386038688021014339602802C0
:102CD000396881433960A802396881433960FF202F
:102CE000000623490A688243F00710180860F006BE
:102CF000204908600E940D9404200C900B940A94C3
:102D000009941D4808901D4C08A92046FEF7D8FFDD
:102D1000B002A1688143A160A06808210143A160BD
:102D2000206830432060019910313868084010282D
:102D300005D120462430F8601148B86004E02046F0
:102D40002430B8600E48F8607868B34901404031DB
:102D5000796020681021014321600FB0F0BDC046AA
:102D6000141002400004004830000240EFBFFFFF93
:102D700018E400E000E100E0A0680600003801402F
:102D8000F5050020184900220A600A68824208D22C
:102D90000A68824205D20A68824202D20A688242E6
:102DA000F3D3704710B5104900220A604B229201FC
:102DB0004A600A46103A146801231C4314600A242E
:102DC00044430868A04208D20868A04205D20868B7
:102DD000A04202D20868A042F3D3302048601068B5
:102DE0001843106010BDC04624480140F0B5764B32
:102DF000C9337648438076490F6800252A4603E0A8
:102E000052182835782D77D071494E197168CF1B2B
:102E10001BD1B768791A21D1F168CF1B27D1376947
:102E2000791A2DD17169CF1B33D1B769791A39D18C
:102E3000F169CF1B3FD1376A791A45D1716ACF1B2F
:102E40004BD1B76A791ADCD050E09CB2A74201D2CC
:102E500047803B46D219B768791ADDD09CB2A142AF
:102E600001D241800B465218F168CF1BD7D09CB2DB
:102E7000A74201D247803B46D2193769791AD1D08F
:102E80009CB2A14201D241800B4652187169CF1BFE
:102E9000CBD09CB2A74201D247803B46D219B7693A
:102EA000791AC5D09CB2A14201D241800B4652187A
:102EB000F169CF1BBFD09CB2A74201D247803B46ED
:102EC000D219376A791AB9D09CB2A14201D2418095
:102ED0000B465218716ACF1BB3D09CB2A74201D2E5
:102EE00047803B46D219B76A791A8AD09CB2A14270
:102EF00086D241800B4683E75109364DA961364C95
:102F00002178012925D1991E89B202290AD80F21D9
:102F1000C9018A4206D20021A971304E31700E26B5
:102F20002D490EE0591F89B2032912D81921C90170
:102F30008A420ED2294901260E7027490E70A91D1A
:102F40000726274F3E7001260E702021017025496B
:102F50000E70254E317801290BD1C93B99B21A4A1E
:102F6000914230D21D492F220A7001213170022175
:102F700025E02778002F26D1002924D1991E89B277
:102F8000022909D80F21C9018A4205D20021A9715D
:102F9000124A11700E210DE0591F89B20329DCD8A5
:102FA0001921C9018A42D8D20C4901220A70227023
:102FB000AC1D07210A4A1170012121702021094A04
:102FC000012313700170F0BD574D00002001002057
:102FD0005C0600201405002059050020B0010020E7
:102FE00011050020580500205A050020074808490F
:102FF00081600849C1604168074A0A40D11C4160AC
:10300000016801220A4302607047C046080002407E
:1030100040240140E40500200000FFFF012040059E
:1030200058490A6802430A607047C046B0B582B08A
:103030004C480168012421430160016810220A43C1
:103040000260210202680A430260016804220A4306
:103050000260016840220A430260A10202680A433A
:103060000260210302680A43026064210162014692
:1030700020390A6822430A60E503416A2943416214
:103080000C380168214301603748016A214301621D
:10309000016821430160354801460C390A68224322
:1030A0000A608168214381600168214301600168F1
:1030B000A14301602E480168214301604169214319
:1030C0004161A007016821430160416921434161D9
:1030D0002848016821430160416921434161C16879
:1030E0002143C160FEF700FAFFF780FFFFF7BEF84B
:1030F000002001905048016821430160A148006808
:103100001D49FEF70AF90621414301910198002863
:1031100017D00198401E01900198002811D0019805
:10312000401E0190019800280BD00198401E01908C
:103130000198002805D00198401E019001980028B0
:10314000E7D1FF2000060D490A688243E007101806
:1031500008600B48802101600A480168294301602A
:1031600002B0B0BD202C0140000400400C20004003
:103170000048014000100040400D030004E400E05E
:1031800000E100E00004014070B5194B186804210B
:10319000014308208143196002249C6103210A0530
:1031A0000920C0060568954301221605AD19056082
:1031B000950285621D681543A5431D609A618B04C5
:1031C00004689C439304E3180360530283628B03F7
:1031D00004689C439303E31803608023836109041C
:1031E00003688B431104591801601102816270BD9C
:1031F000000400480248016801220A430260704747
:10320000142C0140401AC1174840401A7047000072
:1032100007480068C0000749401801218903814020
:10322000054A12680A400E30C240D0B27047C0460C
:10323000AC01002020FFF7FF1C000140024801689C
:10324000102008407047C0461004004810B582B0F6
:1032500047490B680120420713604B6853608B6835
:103260009360CB68D3600B6913614B6953618B69C1
:103270009361CB69D3610B6A13624B6A53628B6AA9
:103280009362CB6AD3620B6B13634B6B53638B6B91
:103290009363CB6BD3630B6C13644B6C53648B6C79
:1032A0009364CB6CD3640B6D13654B6D53658B6D61
:1032B0009365CB6DD3650B6E13664B6E53668B6E49
:1032C0009366CB6ED3660B6F13674B6F53678B6F31
:1032D0009367C96FD16727490B68274A13604B680A
:1032E00053608B689360CB68D3600B6913614B6943
:1032F00053618B699361CB69D3610B6A13624B6A2B
:1033000053628B6A9362CB6AD3620B6B13634B6B12
:1033100053638B6B9363C96BD16318490A6802438B
:103320000A60096801400191019815480168032469
:10333000A14301600168214301607D20C100114863
:103340000068FDF7EAFF401E010E00D0FEE78E493F
:103350000D4A50600D4803680B40A10759180160E1
:10336000002090600720106062B602B010BDC04619
:103370000010000880100008800000201810024093
:1033800000000140A801002010E000E020ED00E076
:10339000F0B593B0FEF76AFE774F78680126019684
:1033A00030437860786830400C900C983007B968EA
:1033B0000143B960B96801400C910C986F480168ED
:1033C0001022079211430160750438682843386061
:1033D000386828400C900C98B1040891386808436C
:1033E0003860386808400C900C980920C106039199
:1033F000F0038862386830433860386830400C9099
:103400000C98FF200B9000045D4A11688143B005C1
:1034100008181060B0025B49086010685A4B1840E9
:10342000B40700191060F00209900860FEF7B8FCBC
:10343000B8683043B860B86830400C900C981720DA
:1034400002900694A0625148E06200200A90119018
:1034500010900F900E9038680495284338603868B3
:103460002840129003260D96022005900C90129889
:103470000CAD039C20462946FEF78CF90A98109063
:103480000D9620200C9020462946FEF783F93C49F2
:1034900048680B9A904348600D467D2040010146E4
:1034A0006031384B1960019C2102BA680A43BA6046
:1034B000BA680A400C920C993549029A8A62C8622D
:1034C000A868314A1040A860E00418600A688020AB
:1034D00002430A60B968079D2943B960B968294069
:1034E0000C910C990B990902254B9A688A43B103F8
:1034F000511899601E462349049A0A6025492F22D3
:103500000A6032234B607968089B194379607968B7
:1035100019400C910C9920498A621C4ACA620A68B7
:1035200082430A60B86805990843B860B8680840E3
:103530000C900C983868184338603868184012901E
:1035400011940A9C10940F940E940D910C9512985E
:1035500012480CA9FEF71EF930680B49084006997D
:10356000401830600998074908600D4804603F2101
:10357000416013B0F0BDC04614100240002002406C
:1035800008E400E000E100E0FFFFFF00FFFF0000B3
:10359000002000402810004000480140000400487E
:1035A00028040040B0B5324C60697E2821D33149EF
:1035B0000A6831487C2A09D85022825AD2084A2AFD
:1035C00004D8226A92087D2A00D2B0BD56222B4B25
:1035D0009A5A520809689142F7D32521425C521C3D
:1035E0004254D0B2652804D301F03CFA0020206296
:1035F000B0BD224C607EE17E00290BD0002814D0A3
:103600000025FFF705FE0028DFD16D1C607E854296
:10361000F7D30AE0002808D00025FFF7F9FD0028BD
:10362000D3D06D1C607E8542F7D301F01BFAEFF317
:10363000108072B60F4A10685C23FE49C85283B2EC
:10364000156800209D42054601D91568ED1A1560E0
:1036500052228B5AA47DE3408B52094988615A1C3F
:103660000A6248600868012202430A6062B6B0BD7F
:10367000AC0500202400004030050020C0000020E0
:103680000C200040F0B585B001263402E74DE84932
:103690002846224601F008FC687804280BD8BFF3BE
:1036A0004F8FF148F1490160BFF34F8F00BF00BF5A
:1036B00000BF00BFFAE7687C401E41424141DD4A3D
:1036C0009172A87C401E41424141D172E87C0128A0
:1036D00000D196730496E87D212800D31020D64FA0
:1036E000F871287D401E41424141B970687D401EFD
:1036F00041424141F970A87D401E4142414139712A
:10370000287E01460839CD4ECE4B582929D8CE4EB9
:1037100018280AD32146F33100911821602233463C
:1037200001F072F946217852287E01460C390B29A6
:1037300008D800960C211822C44B01F065F94621E7
:103740007852287EBF4EFC210140082910D1BC4987
:10375000009107211022BE4B01F056F94621785204
:1037600008E03046F93044217852B748186008E044
:103770004620385AAF4A502178524821785280B2B8
:1037800030600394687E01463239C9B2642901D899
:103790003138F874E87E3872A87E282460431430EB
:1037A000B884287F401E414241411173687F401E0A
:1037B0004142414151730226304602F01BFC6878B9
:1037C00000282CD0A87F0B2800D9052002F012FC7D
:1037D0002320285CB8732220285C9E494018388634
:1037E0002020285C40009C494018B8852120285C96
:1037F000400092494018F885E87F401E414241410F
:103800008C4BD9732420285C02280BD0012810D1BE
:10381000049898742520285CFA3078860BE0BD8CDB
:10382000039CD6E09E742520285C64214143798462
:1038300001E0002098748348002102911974262128
:10384000695C491E4A424A41DA74295D4A1F142ABA
:1038500000D8797329216A5C531E092B00D8BA72EB
:103860002A22AB5C5C1EE4B2082C0CD8FB72092443
:10387000E4435C43243CE3B2C82B00D3C8233B732E
:1038800084691C4384612B23EB5C1C46463C462C1C
:1038900000D8BB712C23EC5C661E622E04D86548F0
:1038A000049E86756400FC842D242C5D661E092E02
:1038B00000D87C722E242C5D092C0AD8042C5D487B
:1038C0000ED8C0467C4424796400A74402999EA285
:1038D000A6005848029C845444546049049A0A70D3
:1038E0003521695C491E4A424A41C2543621695C0D
:1038F000012921D13721695C142251432F315623EC
:10390000C1523821695C51432F31582281520499A8
:1039100041703B21695C534A3C23EB5C3D242C5DA8
:10392000121D1AC23921695C64224A433A21695C3A
:10393000C8234B43BB65FA653F21695C14224A43A7
:1039400040217A524E23FC5A3E7BA419FC523E235E
:10395000EB5C8386FB7CD3187B879219FB8FD21894
:10396000FA87695C552901D1049901704121695C8C
:1039700081704221695CC1714321695C39704421C5
:10398000695C01724521695C5529039C01D1049948
:1039900001714621695CC170BD8CA9084A2901D812
:1039A00002983874397A2020FDF7B7FC06461121B9
:1039B0002846FDF7B2FC3146FDF7AFFC4C217852AA
:1039C00064212846FDF7A9FC3146FDF7A6FC4A21F3
:1039D00078522046F43000902C341948C21C7D20C7
:1039E000C3002846214601F00FF83887B878002830
:1039F00001D005B0F0BD00200E49C87205B0F0BD81
:103A00000C48049A4254154969E70A4804998154BC
:103A100066E705210748417162E70648049A425467
:103A20000E49029C0C700E4959E7C0465D07002004
:103A3000007C000830050020C0000020D6060000F1
:103A4000B50B00002C2C0140CF0700009E0F00009A
:103A50006D1700005E050000EE02000091040020DA
:103A600090040020300100200CED00E00400FA0575
:103A700000B595B0FFF7EAFBFFF78AFCFFF7D6FA2F
:103A8000FFF700FED74C207903225040E1780192E5
:103A9000514001430120089000020390002930D0DA
:103AA00003202071E070601DCFA10C22FDF71EFBEA
:103AB000D14841786170C179E175D0498A7A521E46
:103AC000534253416374CA7A521E53425341A37402
:103AD000897B491E4A424A41E2748178491E4A4222
:103AE0004A412275C178491E4A424A4162750079AD
:103AF000401E41424141A175C14A2046039901F04F
:103B000031FCBE48807B002802D0BB48818F4187B2
:103B10004620B94E1390355A44201090355250200B
:103B2000059035524E27F05B68437D2114910C01BE
:103B30002146FDF7F2FB0497F053B04FB87A401ED0
:103B4000411E88413077F08F68430E942146FDF77F
:103B5000E4FB317B4018F087B078002801D10020C9
:103B6000B873F87CA749002815D00846BE300499E0
:103B700070524020315A323131524220315A323162
:103B800031520020B8730121F972317430717080A4
:103B9000708F323070877879401F9B4C9B4D012885
:103BA0000AD8FFF75BF801F0A9F928200121395460
:103BB00001F0EAF82C600CE002F08AFA4A200021B9
:103BC00039522C6001F0B0F97878002801D001203A
:103BD000787538788E49002808D056203152002058
:103BE000B87300F03FFF00F0E5FF01E001F0CCF812
:103BF00088480168884A0A40026088494A6000682B
:103C00002746010F02D11921C94300E00021149C6D
:103C10002F227A4DA954000C8049886002F0CCF91B
:103C2000FEF7A8F8FF20069068300F90E00007909C
:103C30002C46764DA079002813D0607A022808D04F
:103C4000012803D1FEF762FD0020607201F020FE22
:103C500005E07248808C00F0F9FD002060720020C1
:103C6000A0712F606D4FF88DB98D0818398E4018EE
:103C7000798E4018B98E4018F98E4018001D400802
:103C80007862F07800280BD05620305A1399715A78
:103C900000914B086021C82200F0B6FE10997052C6
:103CA00054201290205A5E49884225460BD327247F
:103CB000295D002901D000F02BFD5A4988424F4D63
:103CC00001D300F04AFDE88F574988422C46574DF2
:103CD0003CD34020245E2046FDF7FBFA5449FDF713
:103CE00082FA0146F868FDF725FAF8605148007835
:103CF00003280BD0022819D00128404C24D12E20B3
:103D0000215C0F9899300843022119E068203B4C50
:103D1000205A49494143090C401A400840180009FB
:103D2000C1B23848D6300843012109E0A0B2C0B280
:103D300029214143C80A019A5102401811462F4CCB
:103D40003C4A11703D4908800020E0872078002817
:103D500000D13DE1786A03210D91FDF7FDFA01469E
:103D60007861207F00281ED0386A15281AD3B86AD7
:103D7000FFF748FA79690E9A914211D24A089042A7
:103D80000ED9232000212154708F40084222A052D6
:103D900039620120F0752A497961E07D401CE075A7
:103DA00000202077B96256201490325A20201190BA
:103DB000235C284608380168224D2940002B45D055
:103DC000472A43D30160194A10681E4908401E491A
:103DD000243901431160101F016840200843BF21AE
:103DE00040E0C0465D070020464C59434F4C4F52BF
:103DF0002048562000000000C000002030050020B0
:103E0000007C00082A030000AAAA0000003000403D
:103E10008813000000580140FF0F0000AC0500208F
:103E200011270000419C0000214E000010E400E03A
:103E30000000B44395040020AF4700009604002022
:103E400010270000FFFFFF0024000040D94A243A59
:103E500011430160D84A1068D84908401060101F0B
:103E6000006806998843111F0860A07F002817D0BA
:103E70006079002814D1F868FDF736FA034640202F
:103E8000225A6820215A2E20205C6E24F64D2C5B8D
:103E90000094F54C00F09EFC01F094FB0020A0770C
:103EA000607F401C6077C0B2652800D2CEE0FDF78D
:103EB00007FBEE4D286840000321FDF72EFA10990C
:103EC000715A401C80B2884200D30846B0866860B0
:103ED000E7490868E74A1040001D0860E64908887D
:103EE0004989091A7022A25A121A50205043FDF72C
:103EF00033FA1E302E2160547221605221200C9022
:103F0000265C7000DD4A115A0B915A21615A0A91C0
:103F100011526825605B072747437420205AD8490F
:103F20004843D849FDF7F9F9D749497C484364210A
:103F3000FDF7F3F9C019C00809906053701CC1B2B5
:103F400000273129394600D801460C982154CF4E1C
:103F5000B0690B99401A0A994018B0613221FDF7F7
:103F6000DCF94821605285B2C5486843CD218900FB
:103F7000FDF7D3F9010400D5384640216052356180
:103F8000A07C0028C04E5FD0099880B2718C81421D
:103F900058D9A08F401CA0872421615CBC4A5143A2
:103FA000079A891880B281424EDA4C200024AE492B
:103FB0000C52FEF7A7F900F055FD4A20AA490C5211
:103FC0002320A9490C542720A7490C54A64C3BE0B8
:103FD0001398205A434243413A6A07998A42089CFF
:103FE000214608D90023642A224609D9C8280AD2C2
:103FF00000290BD00CE019460023642A2246F5D88C
:104000001A46C828F4D31C46002901D1224003D007
:1040100022210022944B5A54934CA17B002904D0B6
:104020009F2802D8222100226254217E002900D13B
:1040300016E20F992931884200D38BE62220002115
:10404000215487E60020A0870020607725200027E4
:1040500027542423E05C002800D1B1E04C22A05A70
:10406000312800D222E12721615C002900D11DE125
:1040700088280D9200D96FE1607C00287B4D12D01A
:10408000844A106801218843106000F0EBFC284648
:10409000083800240460281F04602C60FEF766F9CD
:1040A00071484474704C6022A05A317F00290F9FE0
:1040B00000D1AAE2411E08B20028384600D40846C2
:1040C000A0526221625A521E13B2002B3B4600D40A
:1040D000134663526421615A4A1E11B200293946BF
:1040E00000D4114664221492A152129D715B00B259
:1040F0004000694A105E0918139AB05A174648439F
:104100000E99FDF729F9717A48430A242146FDF7F3
:1041100023F980B201F05CFF705B6221524A515E6C
:1041200049005D4A515E4118F05B3D4648430E9F91
:104130003946FDF711F9717A48432146FDF70CF92C
:1041400080B201F04BFF1298305A4749149A895EA9
:104150004900514A515E4118705B48433946FDF7AA
:10416000FBF8717A48432146FDF7F6F880B201F07A
:104170003BFF347A49482146FDF7CFF807464848C7
:104180002146FDF7CAF8034637480D99405A009773
:104190003021782200F038FC5224305380B2FEF7F0
:1041A000F1FD315B304C0F98F130FDF7B6F86E2120
:1041B0006052A2E22400004010E400E0FFFFFF0094
:1041C00023252948445D314F796A3648FDF7C4F804
:1041D0006043254C6E21605280B233494843C00C85
:1041E00076216052317C00290DD00499735A4C21FC
:1041F000725A4A21715A5024345B00941A4C00F0D0
:1042000003FC482170522E20205CB27990420BD9D9
:104210005021715A012300934B0811460A390A3282
:1042200000F0F2FB482170522C20205C00280AD0BC
:104230004C20205A119900910E9A2F322F210223DF
:1042400000F0E2FBF071386A632858D81498315AAC
:104250000F988D30814252D90C20024A64295CD3D8
:104260005CE0C04624000040300500203C2C0140AA
:1042700008240140E8FFFF7FB8F7FF1FF608002081
:10428000E40C0000FF0F0000C0000020AC0500207F
:104290007CFCFFFF0C200040BA0100202A03000034
:1042A000581B0000C0270900CDCC00000125657413
:1042B000207B002800D1D8E01398345AB07A40000F
:1042C00020181338EB49059A88521099715A80B218
:1042D00048432146FDF721F8201A401C6C24E5498B
:1042E000085300F0AFFDE348005BE24CE24A1146A0
:1042F00008390860111F08601060E577BEE0786932
:104300000C210091039AF4326421032300F07CFB1A
:104310001499715AD94A642900D202207076106823
:10432000D749884200D2E8E1605D012800D0E4E18D
:104330002220215C491C215400F094FB0121F175DD
:104340004C20205A30280C9100D39AE00020605570
:10435000CC481290149A97E0029301200C9060745C
:104360006023E05A317F00290B9300D168E1411EA0
:1043700008B200280F9800D40846E0526221625A21
:10438000521E13B2002B0F9B00D4134663526421BC
:10439000615A4A1E11B200290F9900D4114609979B
:1043A00064220A92A152129FF15B00B24000B64A09
:1043B000105E0918139EB548805B48430E9D294640
:1043C000FCF7CAFFF749497A48430A242146FCF71B
:1043D000C3FF80B201F0FCFDF248C05B6221F24AEB
:1043E000515E4900A84A515E4118EE48805B48433F
:1043F0002946FCF7B1FFEB49497A48432146FCF7CF
:10440000ABFF80B201F0EAFDE648C05BE6490A9ADC
:10441000895E4900ED4A515E4118E248805BE14EF9
:1044200048432946FCF798FF717A48432146DE4C01
:10443000FCF792FF80B201F0D7FD0D98205AC828F2
:1044400000D8ADE05220059931520B9F0998E053F6
:104450000846FEF797FCE05B002800D04DE1A8E09D
:10446000952800D9CDE06420CCE0D549084608382D
:104470000760081F07600F60FDF744FF6E2027529A
:104480003BE1149AB05A12900D9B0026C74F3E6232
:10449000C94D29685C200D9021521298434388B27F
:1044A0001C18A008BF4FB85212962E6080B2B97E79
:1044B000FCF733FFE108BC4C091A5222A152BB4A57
:1044C000D06188B2116A0A293E4612D22968BB49D6
:1044D0000862119D705D317F01290C9F16D1401C2F
:1044E0007055C1B2072902D377552777384638402F
:1044F00015E029688142EAD229688142E7D2296819
:104500008142E4D229688142F3D3E0E7411E71552C
:10451000080602D106217155277738468843F07680
:10452000EFF3108072B6E07F002802D1705DFDF7D6
:1045300091FF62B6FDF760FFE17C481E8141607B20
:104540000028089800D10846012805D197494969F3
:104550000E9A914200D9F7752B21129A62542D219F
:10456000625426216254914F396A491C39620D9A6E
:10457000A25A735D5B00DB195A85002808D0142904
:1045800000D2BAE01498305A9149884203D3B4E07B
:104590001F2900D2B1E01298F075FEF73FFDACE0A4
:1045A0005220305A0B9FFEF7EDFBE05B002800D055
:1045B000A3E023200C992154099F029827547C4A98
:1045C00014983252F17579498A624A617A480260D8
:1045D000E77714200862607B002802D04220315A1D
:1045E0002152307E317F0129119D51D1401C7055DF
:1045F000C1B2072902D30C98705520770C99084056
:1046000050E00A20B074FFF7A5FB431C18B200214C
:10461000B842084600DC1846A0526222A35A5B1C2E
:1046200025461CB2BC420C4600DC1C46AC5264223F
:10463000AA5A521C13B2BB422C4600DC51E551E58C
:10464000411C08B20F9DA842384600DC0846E052E3
:104650006221625A521C13B2AB423B4600DC134645
:1046600063526421615A4A1C11B2A942394600DCE6
:1046700094E694E6300500203C2C014024000040E4
:10468000C9AF000088130000BA010020C00000205C
:10469000411E7155080603D1062171550C982077EB
:1046A0000C988843F076EFF3108072B6E07F002814
:1046B00002D1705DFDF7CEFE62B6FDF79DFEE07C97
:1046C000411E8841617B0029089900D101460129DA
:1046D00006D1364840690E99884201D90C98F07588
:1046E0002B2027542D2027545C20205A715D49002F
:1046F0002E4A89184885FEF77DFD20780028F64F60
:10470000F44D01D1FFF796FA00F062FCFFF792FA40
:10471000FDF7F8FD0020244A1055282150544C2163
:1047200050524A215052264A114608390860111F3A
:104730000860106000F044FC012001022248FCF7F0
:10474000EEFCBFF34F8F1B481E490860BFF34F8F2D
:1047500000BF00BF00BF00BFFAE7FDF7D3FD002098
:104760002855282168544C2168524A216852144A1D
:10477000114608390860111F0860106000F020FC25
:10478000012001021048FCF7CAFCBFF34F8F094813
:104790000C490860BFF34F8F00BF00BF00BF00BFD0
:1047A000FAE7C046C000002030050020AC0500201C
:1047B000282300000400FA05240000400C200040DB
:1047C0003C2C01400CED00E05C060020BA0100200A
:1047D000D1070000F0B583B01E4615460346194CBC
:1047E000089802902072A6712271A1702370000AAD
:1047F0000190E071300A00906071120AE270080ABC
:104800006070114FFB5C4340D8B2385C4840C0B286
:10481000385C5040C0B2385C6840C0B2385C009927
:104820004840C0B2385C7040C0B2385C0199484022
:10483000C0B2385C02994840C0B2385C607203B0C4
:10484000F0BDC046EA050020BA6B0008F0B583B0A1
:10485000664EF588002D02D00020F08015E06449F6
:104860000978002900D16348C10B09D103229303C1
:10487000034001218C03A34200D090E0062200E017
:1048800007223261D040550205435C480078800021
:1048900001905B490C1840236360290A5948405C29
:1048A0000090820018469043A0602F09794069402B
:1048B0000F2602968E43290189194C4A51610099AD
:1048C000CA001A404240E260C803009002980740C4
:1048D0004C48C75DB9020098014302980540494819
:1048E000405D009045010D434648805D02902E4694
:1048F00006433E488661C80A1840504020618A0A33
:104900001A4042406261480A18405040A061B90014
:1049100019404140E161FA001A404A4022623F20BA
:10492000C0430240A9091940514061626A091A4016
:104930004A40A262290919405140E162009DAA0043
:104940001A404A402263E9001940514061637208ED
:104950001A404A40A263024071001E405640E6637E
:104960001940714021640022254D019EAA51029DEB
:10497000AA001A404A406264E90019405140A1640B
:104980002A011A404A40E2646901194051402165F8
:104990000140E807400E4840606503B0F0BD0723C2
:1049A0005B0303404C03A34201D1052269E70F23B7
:1049B0001B0303400C03A34201D1042261E71F2320
:1049C000DB020340CC02A34200D15AE73F2292020D
:1049D000024089028A4201D1022252E77F21490224
:1049E0000140054A89184A424A414AE7900400209A
:1049F00053050020FFFF000000FEFFFF110500200F
:104A000060080020AA6B0008F0B5059C88421EDDF6
:104A10000F461D46264682421EDD1346974210DC95
:104A2000B5421BD071194C10D9194A10974217D0B2
:104A30008242EFDA511C1A46234634468142E7DBB4
:104A400005E019463A4633462C468142E0DB824275
:104A500000DC23461846F0BD3046F0BD2846F0BDC8
:104A60002046F0BD0120400502490A6882430A60E1
:104A70004861704700040140F0B581B0BD4DBE48AB
:104A80006860EFF3108072B6BE480078E860286175
:104A900068617924B94EBA4F3760A41E14212046AC
:104AA000FCF73BFCC0B2FDF7D5FC60080A3028607B
:104AB0000A20FEF777F9022CEED8FDF723FC002040
:104AC0002860D1490880D1480088686062B601B08A
:104AD000F0BDC04600300040AAAA0000F0B581B089
:104AE0000320FDF7B7FC00263225009603E0761C74
:104AF000AD1CAE2D47D2A248A0490860C24800991B
:104B00000180284840198778FF2FF0D0C07800280E
:104B10002CD00A21B94A1160F72141437D20400180
:104B200009182148FCF7F9FB044620482146FCF708
:104B3000F4FBB2494860B34909784843B049FCF7EF
:104B4000ECFBAE49C86008614861F0B2FE21414308
:104B5000CE1917482146FCF7E0FB70436421FCF7AF
:104B6000DCFB80B2FEF71EF90026C1E70024A34853
:104B7000C46004614461F0B2FE214143C819FEF7EC
:104B800011F92646B4E7FDF7BDFB00209B4A1060F3
:104B90009E49098851609C49088079487749086096
:104BA00001B0F0BD5D07002080969800003E4900EE
:104BB000A0860100B0B5EFF3108072B68F4D90481B
:104BC000686090480078E860286168610120FDF71E
:104BD00041FC282028604B2084002046FEF7E2F8A4
:104BE0000220FDF737FC1E2028602046FEF7DAF889
:104BF0000320FDF72FFC192028602046FEF7D2F88D
:104C00000420FDF727FC142028602046FEF7CAF890
:104C1000FDF778FB002028607B4908807B480088EE
:104C2000686062B6B0BDC046B0B5744D7448686087
:104C30002820286073480078E860286168610220B5
:104C4000FDF708FC96242046FEF7ACF84B484C498B
:104C50000160502028602046FEF7A4F8FDF752FBC3
:104C60000020286068490880684800886860B0BDF6
:104C7000B0B5624D624868603220286061480078B3
:104C8000E860286168610220FDF7E4FB9624204675
:104C9000FEF788F839483A4901601E20286020460E
:104CA000FEF780F8FDF72EFB0020286056490880AB
:104CB000564800886860B0BDB0B5EFF3108072B69A
:104CC0004E4D4F4868602D482D49016050202860A6
:104CD0004C480078E860286168610320FDF7BAFB62
:104CE00064242046FEF75EF8462028602046FEF742
:104CF00059F8282028602046FEF754F8FDF702FBFB
:104D0000002028604049088040480088686062B6FA
:104D1000B0BDC046F0B581B0384D39486860EFF39A
:104D2000108072B6154E164F37603C20286035480B
:104D30000078E860286168610120FDF78BFB4B2457
:104D40002046FEF72FF8502028602046FEF72AF86C
:104D50005A20286037602046FEF724F8FDF7D2FA83
:104D6000002028602849088028480088686062B6CA
:104D700001B0F0BD282C0140CF07000000300040FA
:104D8000AAAA0000F4050020B0B5EFF3108072B6B7
:104D900019480078194DFF2802D0FFF79FFE25E043
:104DA0001748686017480078E86028616861032048
:104DB000FDF750FB37202860C8242046FDF7F2FF9E
:104DC0000520FDF747FB282028602046FDF7EAFF75
:104DD0000620FDF73FFB192028602046FDF7E2FF83
:104DE000FDF790FA084800210180296007480088F3
:104DF000686062B6B0BDC046807C0008282C0140C7
:104E0000CF070000F40500208405002006010020E3
:104E100010B50A4C607A022808D0012803D1FDF7AA
:104E200075FC0020607200F033FD10BD0448808CDA
:104E3000FFF70CFD0020607210BDC0463005002059
:104E4000AC050020B0B503210A050920C00603689F
:104E50009343012214051B190360930283628B04A0
:104E600004689C439304E3180360530283620B04B9
:104E700004689C431304E318036013028362094B24
:104E80001C68082525430424A5431D601C680225D1
:104E9000254395431D60890303688B43D10359184B
:104EA0000160B0BD00040048F0B5012A24DB0324F2
:104EB00013462340551E032D01D200240EE0A243C9
:104EC00000240D5D055505190E1977786F70B778B8
:104ED000AF70F678EE70241DA242F2D1002B0BD0F9
:104EE000625C0255012B07D0621C555C8554022B75
:104EF00002D0A21C515C8154F0BD000007484168FB
:104F0000074A0A404032426006490A684023134378
:104F10000B60016801220A430260704730000240C2
:104F20000000FFFF08380140B0B51B4801680222AD
:104F30001143016001689143016018480146083936
:104F4000174A0A600A2101601649097881601649EA
:104F5000C16002460C3A136801210B431360002222
:104F60004260124B124CDC60044614349C60114CBD
:104F700024785C60104C1C604B020446143C25688D
:104F80001D43256003680B4303600C4B1A702038E7
:104F900002680A430260B0BD1010024020040040C5
:104FA00001600000B0010020FFFF0000440002404B
:104FB0005C060020200100208B0900001005002065
:104FC00002480021416001607047C046240400404F
:104FD000F0B587B04625DF4B585BC3494143090D07
:104FE000401A069086B2DD4F3879002841D0272438
:104FF000395DF87A00290594049528D0002826D038
:10500000785B00963025B94A002729463B46FFF7D2
:10501000FBFC0446D148008E00962946B34A3B4625
:10502000CE4FFFF7F1FC85B2A4B2281940080699CB
:10503000081A80B200F0D2FF2046059C00F0C8FF9D
:105040002846049D00F0D0FFC24B395DF87A421E1D
:1050500090414A424A41024300D042E11C7FFDF7A1
:1050600051F90A20FDF78EFE002C16D001F0ECFB62
:1050700015E0785BB97E002900D0BCE0312800D271
:10508000B9E01C7FFDF73EF90A20FDF77BFE002CFE
:1050900000D1ABE001F0D8FBAAE001F015FC785B91
:1050A00000963024914A002521462B46FFF7ACFCA0
:1050B0000390388E009621468C4A02952B46FFF7C6
:1050C000A3FC04462E20385CA24A91798842069BB4
:1050D0000BD9049BD25A0123009353080A46143279
:1050E000FFF792FC9B4A034686B248201352A0B2B7
:1050F000B04219464FD9039CA0B2B04250D9974E46
:10510000B07D002851D00C4606934025705F632186
:10511000C943D28C4A431018754988620A6C831AB5
:105120000E6B4A6B8F6B5A43CA6308644643F3198C
:105130008E6CB34200DB33467642B34200DC33462A
:105140008B63D218CB6A58431018CA6C9042834EB6
:1051500000DB10465242904200DC10464864FCF7E7
:10516000B8F86449FCF73FF8FCF7BEF8794BD98EE4
:10517000091A0AB2585B824200DB0846D88602B29E
:10518000A1B29142014600DC2146069CA3B29342A3
:105190000CDC20460AE02146039CA0B2B042AED807
:1051A00023466E4EB07D0028ADD118468CB2621EEB
:1051B00021469141020400D0012101290ED1059917
:1051C000715C00290AD080B200F002FF002000F0DC
:1051D00005FF204600F008FF07B0F0BD46480299E1
:1051E000016041608160B17607B0F0BD01F06CFBF9
:1051F0000120B876785B009630213C4A0023059365
:10520000FFF702FC534A04462E20385C917988420D
:10521000069B0AD9525B0123009353080A461432B5
:10522000FFF7F2FB4B4A034686B248201352A0B266
:10523000B04200D82346B87D00283FD006934024D2
:10524000385F6321C943D28C4A43101828498862C9
:105250000A6C831A0E6B4A6B8F6B5A43CA630864DD
:105260004643F3198E6CB34200DB33467642B342B9
:1052700000DC33468B63D218CB6A58431018CA6CD3
:105280009042364F00DB10465242904200DC1046FE
:105290004864FCF71EF81749FBF7A5FFFCF724F854
:1052A0002C4BD98E091A0AB2185B824200DB0846E1
:1052B000D88601B2069B9AB28A4200DC18460104E5
:1052C0000D4909D02722BA5C002A05D080B20860B7
:1052D0004860886007B0F0BD059808604860886045
:1052E000B87607B0F0BDC046CDCC0000FF07000087
:1052F0003001002000401C46342C014010B51549F7
:105300004A7815484270CA79C275144A937A5B1E6E
:105310005C425C414474D37A5B1E5C425C418474A1
:10532000927B521E53425341C3748A78521E534299
:1053300053410375CA78521E53425341437509794C
:10534000491E4A424A41827501210902044A00F07D
:1053500009F810BDC00000205D07002030050020C6
:10536000007C0008F0B503AF8BB06E46F41D193415
:1053700015467161B061C80F0B1801221946F26021
:105380009143C91D072291436A46501A5910854618
:10539000F0613161FBF7C3FE7069022859DBB26925
:1053A0000320336919460140B160591E0329746016
:1053B000356001D2002121E0834373610023194647
:1053C000D25CB069C01844782402A218F569EA5288
:1053D0008278C4782402A218EC1862800279457998
:1053E0002D02AA18A2808279C07900028018E0807C
:1053F000B2690833091D70698842E1D1B368002B96
:105400007468356825D04900B069405CB2695218AB
:10541000527812021018F26971615052012B18D0A3
:105420007069801CB1690A5CB1690B185B781B025A
:105430009A18F3691A52B169B068022809D00A466D
:105440007069001D095C1218527812025118F26935
:1054500011523069A06035480168C90708D0016859
:10546000C90705D00168C90702D00168C907F3D18F
:105470004168090606D52E490A680346083B1A60AA
:1054800049681960A905F3681DD1426802210A43E1
:105490004260856042684023134343600268D2073C
:1054A00008D00268D20705D00268D20702D002688D
:1054B000D207F3D10268920601D520220260426829
:1054C0008A434260F3680021616007E041689943C4
:1054D00041606168891C61602168491C2160216804
:1054E000A26891421AD2416819434160216849007B
:1054F000F269515A626851530168C90708D00168BE
:10550000C90705D00168C90702D00168C907F3D1EE
:1055100001688906DAD520210160D7E74168802239
:105520000A434260FC1F053CA546F0BD0C2002402A
:1055300028010020B0B51C48016802221143016017
:1055400001689143016019480146083960220A60E8
:10555000032101601649097881603D21C16002463E
:105560000C3A136801210B431360124B124ADA60A4
:10557000024614329A60114A547817345C60104C19
:105580001C604B020446143C25681D4325600368DB
:105590000B430360CB03446A1C4344621170203800
:1055A00002680A430260B0BD1010024020040040AF
:1055B0001A05002044000240600800201005002069
:1055C0009B090000B0B50E48036808210B43042274
:1055D000934303600B4B5C680B4D25400B4C2478C8
:1055E0002C195C6084688025254385601C68012532
:1055F00025431D60036813438B430360B0BDC04661
:10560000003801401C0002400000FFFFB8010020EC
:10561000F0B581B08F484178012904D1407E00283F
:1056200000D0C1E0ADE08A1ED4B2651C03232A4637
:105630001A40032C02D2831C002412E09D43831CD9
:105640000024854E1F786740F45D5F786740F45D05
:105650009F786740F45DDF786740F45D1B1D2D1F68
:10566000F0D1002A0DD01E7866407B4DAC5D012A3A
:1056700007D05E786640AC5D022A02D09A7862401C
:10568000AC5C427E944200D08EE0182979D1C1787A
:1056900004796207520D521870498A80072212025B
:1056A0001346E03345796E011E40E4083419CC807E
:1056B000AC098579AD002C19C579EE07760D341942
:1056C0000C8114468034067AF70127406D087D1955
:1056D0004D811546F035477A014638012840360994
:1056E00080195E4EB081F8098E7A76003018CE7A35
:1056F000B7077F0D3818594FF881C032087B8701F2
:105700001740B608BE19554F3E8240094E7BF60041
:1057100030187882887BCE7B77077F0D38184F4F03
:10572000B882087C47011F40F308FB184B4FFB82EF
:1057300080094B7C9B0018188B7CDE07760D301897
:105740003883C87CC60126405B08F3187B830B7D39
:105750001C012C4000092018B883D8094B7D5B0040
:1057600018188B7D9C07640D2018F883C87D4409A8
:105770000D7EED002C197C84800110409A08801861
:105780003884374800784000344D281880883549DF
:105790000978354C00290DD0344941180F290DD214
:1057A00001208002183811E02C480168491C016072
:1057B00001B0F0BDAF2816D200201CE02146BE315A
:1057C0000091AE2100232246FFF71EF928490880E8
:1057D000284800784000281880882146BE31009172
:1057E000AE21002313E02146ED310091AE2130239C
:1057F0002246FFF709F91E4908801E48007840003C
:10580000281880882146ED310091AE2130232246B0
:10581000FFF7FAF818490880184801210170184963
:105820000020088017490A781749002A024606D046
:10583000164B1B88002B08D0088001B0F0BD0A88E9
:10584000521C124B1B88002BF6D11046088001B069
:10585000F0BDC046F5050020AA6A0008EC0400204F
:10586000320500203B050020120700002BFCFFFF43
:105870007E0500203305002060050020360500204D
:1058800084050020570500207A05002076050020B9
:10589000F0B587B0FA4EF07A002806D02924305DA2
:1058A000002807D04E20305A1DE14E20305A4621A4
:1058B00070529CE14E27F05B7D22D500F1498B7B35
:1058C000590006954919F57C002D059717D081429E
:1058D00045D2EC4A127FB57AAA4244D14627002528
:1058E0000395F5530127F777357D002D37D0039BBE
:1058F000F377BA1AE34B1A77069D059F37E0012527
:105900008142049403952CD2DE4B1B7FB47AA342D0
:105910006AD12420305C441EA0415024345BC82C42
:105920002F4600D307465624D64D2C5B2D8FAC4214
:1059300000D80746012F069D78D1D3480024046281
:105940000120D049C875C01A0877FFF78BF8B476E4
:10595000059FF05BCB49897B4900491969E0069DA9
:1059600012E0069D71E0F27F002A069D0CD1002214
:105970003275C64A00922F3A2F23FFF745F8462189
:105980007052F05BBF498B7B0127F94359434A1999
:1059900082422ED90494B47A012103910D1BB94996
:1059A000097F8D420DD14621002575520399F1776B
:1059B000317D00291BD0F577B2490C77049C069DF8
:1059C00004E0F17F0029049C069D12D1002131756D
:1059D0002F230093AD4BFFF717F84621705205981F
:1059E000305AA8498B7B04E0049C069D22E0049C6D
:1059F000069D5B00591900228142394606D31146A3
:105A0000EB1A834205D90F4306D068E0EB1A8342B4
:105A1000F9D817460F4362D146220021B152F27FD6
:105A2000002A5CD001223275F17758E0D000059F42
:105A3000F053049C954A00922F3A2F23FEF7E4FF7F
:105A400046217052F05B8F498B7B01210291CF433D
:105A5000394659434A1982422FD9B17A012301911B
:105A6000591A884C247FA14200D09CE12420305C4C
:105A7000411E88415021715AC829039900D301461B
:105A80005624804D2C5B2D8FAC4200D80146012955
:105A9000069D00D08AE17B4901980877CB757A484A
:105AA00000240462FEF7DEFFB476059BF05A7549C8
:105AB000897B4F437A191F467BE159004A1982427C
:105AC00000D287E100220292691A8142039900D82C
:105AD00085E1002903D1462100227252B276315D60
:105AE000002900D183E07D21CC0021462F3188425E
:105AF00036D9644D297FB27A91422AD12420305C74
:105B0000421E90415622AA5A2E8F01230027B242EC
:105B10001A4600D83A465026594DAE5BC82E00D3DF
:105B20003B461A400243012A564D0ED156480026E4
:105B300006620120E875401A2877FEF793FF504867
:105B4000867606464E20305A03E04E2100204C4E09
:105B50007052297D4200511A904A89184622B1524A
:105B60000146303989B2A1423BD2B17A0122531A9F
:105B7000444C257FAB422ED124203746305C431E57
:105B800098415623E35A268F0025B342134615D871
:105B90002B465026BE5BC82E14D213400343012B64
:105BA00015D121770120E075374800250562FEF701
:105BB00059FF3E46BD764E20385A0CE05026BE5B5B
:105BC000C82EEAD32A4613400343012BE9D04E21C5
:105BD00000203E467852217D4200511A313946223A
:105BE000B1522F2803D8462000213152B1763078A7
:105BF000002801D007B0F0BD2224305DE74DA97C1C
:105C000088420CD92879002809D0FCF77BFBFEF7E5
:105C100029FF662030554C20002131526CE0B07BCA
:105C2000002807D04624305B1D2825D84C210022AF
:105C3000725252E0707D00285AD07078002827D028
:105C40004624305BA96DEB6D00912F21D44AFEF7FD
:105C5000DBFE0146D348FBF77FFB297A4908FBF7B7
:105C60007BFB7087305B2E2812D84C2000213152EC
:105C7000CF480160B1673FE01E2820D11E202CE0F4
:105C800030050020C0000020AC050020FF07000008
:105C9000B46FC54D20462946FBF7F1FA002820468F
:105CA00000D12846FBF720FB4C257053BF49204606
:105CB000FBF7F3FA00281FD1302070531CE0697BFA
:105CC00014224A43824208D9A02100911E212F2389
:105CD000FEF79AFE4C217052305B6A7B14215143CF
:105CE000814209D8AE4A0092A023FEF78DFE01E062
:105CF0004620305A4C2170522424305D002800D0B8
:105D000078E74C25705BB17B50273A464A432F32E7
:105D100082422FD82720305C00282BD006952325DF
:105D2000705D00280ED1FCF7EDFAE349C87D00282C
:105D300002D100F069F9E04901207055488F4221F5
:105D40007052B17B4020DC4D2B5A0698305A4622C7
:105D5000AA5A0092002901D0892100E02F21904AFF
:105D6000FEF752FE44217052F07C0028069D01D1BE
:105D70000020F077705BB17B4F432F378742CE4FC7
:105D800000D8CBE0F07E052836D8C04678440079AC
:105D9000400087443305292C2F05C046FFF7FFFF3D
:105DA000FEF766FF28E0049C059F03E0059FF5537E
:105DB0002846049C2F2100910021794BFEF724FEF8
:105DC00046217052F05BBC498B7B59004A198242D4
:105DD00000D377E6691A8142039900D979E60299DE
:105DE000002900D177E67AE6FEF71EFF04E0FEF711
:105DF00043FE01E0FEF78EFF0020F076B878002821
:105E00001AD02320305C00283FD02020AA4F385CD5
:105E10003C214143788D40183C38664902B2FF234B
:105E200068339A4200DD40186022B05202B22F4619
:105E3000782A12DCEF2312E0442100207052232143
:105E4000715C002944D19D4908620120F875307BBE
:105E5000002838D0FDF798F93AE00B46EF331B18CD
:105E600064257353F02A01DC772100E077313D4649
:105E7000081862217052B07B01288F4F01D1012098
:105E8000305544200021315248E026200021315471
:105E90008A48016201278848C775307B00280FD0E7
:105EA000B07B0028B1D146208349085A897A49003D
:105EB000401813385E217052FEF7C4FFF777A4E74D
:105EC000FCF720FAA1E7F07F002801D1FCF71AFACD
:105ED000F07FF17C002922D0002820D006954E20AA
:105EE000315A7D25EC002046FDF78CF946213A46D3
:105EF0003746565A001970432901FBF72DFA5E21E7
:105F00003C46785280B2711E884202DAFEF79AFF50
:105F100001E0FDF739F92646674F069DF07F00281E
:105F200000D067E6735B2F2B11D3707B1421C14027
:105F30006248006A88420AD24420315A7A8F9142DC
:105F400001D232521146FA8F914200D93252482082
:105F5000385A4427F55B854201D9F0530546B07D98
:105F60000028069306D036205349085E854201DD9D
:105F700085B2F5535148046800212046FBF771F9BA
:105F8000002800D036E60698302800D232E62046B7
:105F9000FBF7AAF92818F05307B0F0BDC0000020A5
:105FA000FF0700000087930300E0FF440000404229
:105FB0003001002098FEFFFF0320000203490A6819
:105FC0008243012000021018086070470C0400484A
:105FD000014908607047C046342C014001490860FF
:105FE0007047C046382C0140014908607047C046E0
:105FF0003C2C01400B2800D30B20400001490870C5
:106000007047C046F4050020F0B581B02325294C27
:10601000605D002803D0FDF701F801B0F0BD202637
:10602000254FB85D397F01290AD1401CB855C1B24E
:10603000072902D30120B85520770121014009E04A
:10604000401EB855010603D10620B855012121771D
:1060500001218143F976EFF3108072B6E07F0028CA
:1060600002D1B85DFCF7F6F962B6FCF7C5F9E07C41
:10607000617B0143114805D04169114A914201D326
:106080000121F9752B21002262542D2162545621E1
:106090000C4A7A52B95D0C4A0C4B136001226255CE
:1060A0005C22A25A490008184285FCF7B7FF01B0EC
:1060B000F0BDC04630050020C0000020AC05002027
:1060C000D1070000102700002400004088130000C2
:1060D000F0B591B00120089082030292034600902F
:1060E0004448416811434160416811400A910A994E
:1060F000990402680A430260006808400A9000247C
:10610000099407940220039005900A98402504956D
:1061100003260696384804A9FBF73CFB374F38683E
:1061200037490140103139603003396881433960A3
:1061300038682021884338603868A8433860386858
:106140008021014339603002396881433960B002EF
:10615000396881433960FF2000062A490A68824372
:10616000B00710180860009DE806274908601094E1
:106170000F94082001900E900D940C940B94E12044
:1061800040020A90214E3446083C0AA92046FBF7FB
:1061900097FDA8023168814331600920C002311F98
:1061A0000A6882430A6030682A2188433060206888
:1061B000284320600299103138680840102804D123
:1061C0001348F8602036BE6003E01148B8602036FE
:1061D000FE6078680F4901400F4800780818786021
:1061E0003868039908433860386801990843386073
:1061F00011B0F0BD14100240000400481C00024021
:10620000EFBFFFFF18E400E000E100E008380140C4
:10621000EA0500200000FFFFB8010020F0B587B0BC
:106220004425F74F785B5026B853F88F401CF88709
:10623000F88E401CF886388F401C3887788E401CBA
:106240007886282006902724385D00284DD1787E56
:1062500000284AD10698385C002846D04620385A93
:10626000002803D06620002139523EE06620395ACA
:10627000491C395289B2E34A914236D34A21795AAC
:106280001F2922D302950396012004943855B87C27
:1062900001281FD16820385ADB494143C90C79765F
:1062A000DA4A538E4B4353844008B92814D3002450
:1062B000D84DD74EFEF700FD6420FCF773FD2E602D
:1062C000641C787E8442F5D306E0002139522820F0
:1062D00039540AE0FEF7F0FC2A20385C0028039EBF
:1062E000029D049C01D10020F874F87B00280ED098
:1062F0006A20395A491C3952EF4A527914235343C0
:1063000089B28B4203D2002139520120B877242070
:10631000385C3978014300D0C7E10494232005900C
:10632000E54AD07D00284DD00598385C002849D03A
:10633000FEF798FBFCF76CFFDF49C97E002912D0FD
:10634000002812D026203A5C521C3A54D0B2DA4AC5
:10635000527F904216D82B20385C0028D64A31D183
:106360002D20385C18E0002803D02D20385C401C1C
:1063700009E026203A5C521C3A54D0B2CE4A527FF1
:1063800090420ED900202D22B8542B22BA5C002A4C
:10639000C94A17D100290BD0917FC0B288420BD8CF
:1063A00010E02B20385C0028C34A0BD12D20385C2C
:1063B000D17FC0B2884205D92B200121395400F089
:1063C000C1FABD4A388F152800D2E5E003960020B7
:1063D000009038870598395CB87D002802950191B6
:1063E00042D0002940D04024385F6321C943D28C79
:1063F0004A431018B14988620A6C831A0D6B4A6BC4
:106400008E6B5A43CA6308644543AB198D6CAB422B
:1064100000DB2B466D42AB4200DC2B468B63D2186F
:10642000CB6A58431018CA6C904200DB10465242A7
:106430009042029D00DC10464864FAF74AFFA049EA
:10644000FAF7D1FEFAF750FF9B4BD98E091A0AB220
:10645000185B824200DB084602B2595B8A4200DCCC
:106460000146D9861A460199787B002845D0002933
:1064700043D05620105A118D401A904908658A6EF3
:10648000831A8C6DCA6D0D6E5A434A668866444302
:1064900063190C6FA34200DB23466442A34200DC75
:1064A00023460B66D2184B6D584310184A6F904222
:1064B00000DB10465242904200DC1046C866FAF7F4
:1064C00008FF7F49FAF78FFE01467E4C2068FAF7F5
:1064D00031FE06467C4D2946FAF7EDFE002800D134
:1064E00035462560002628463146FAF7E4FE0028A6
:1064F000029D714A019900D12660787D0028039E93
:106500004AD0002948D0788F6E49496A081A6B4CE6
:106510002060A169421AA368E1682569514361615D
:10652000A06143435A19236A9A4200DB1A465B4230
:106530009A4200DC1A4622618918626850430818A2
:10654000616A884200DB08464942884200DC08460E
:10655000E061FAF7BEFE5A49FAF745FE0146B86F08
:10656000FAF7E8FD0646594D2946FAF7A4FE002839
:1065700000D135462846009E3146FAF780FE0028B5
:1065800000D12E46BE674F48006A6328039E029DD5
:10659000494A01D800202061D07B0028049B4AD0C2
:1065A000B88E798E81420CD9002078864220385AE4
:1065B00095281AD802245475B95B0A1AA24208DC3D
:1065C00031E0002454754220385AB95B0A1AA242BD
:1065D00029DD0019B8535620374A105AB92149000D
:1065E0008231884209D8002124E0FF21F631354A62
:1065F00052698A4210D30A240FE001211AE0C046F2
:1066000030050020214E000089050000C000002058
:10661000AAAA000000300040069C27494C75B95BCF
:106620000A1AA242D5DC421A0021A24201DD001B57
:10663000B853214A9175FC5C002C11D00598385C48
:1066400000280DD04C20385A302809D3BE5B555B4A
:10665000304668434621515AFAF75FFE441C1AE05F
:10666000F87F00280ED05E20385A555B68434621DB
:10667000545A2146FAF751FE201A441C6C203C5211
:10668000BE5B0AE0BE5B555B304668434621515A0B
:10669000FAF743FE44436C203C5242203E520C48E1
:1066A0000560A1B28160C16001615420395A491C62
:1066B000395207B0F0BDC046C000002030010020B4
:1066C00000401C46AC0500200000164300E0FF44DB
:1066D0002C2C014070B54E4800784E4C2178002992
:1066E0000BD0002809D04D480078002810D0FEF7C4
:1066F0001BFC54480221017070BD474909780129EB
:106700000CD0002924D1FCF771FBFEF70DFC70BD05
:10671000FEF710FF4B480121017070BD00280CD01E
:106720003E480078002814D03D480088FEF78EF8D7
:10673000FBF7ECFFFEF7F8FB70BD3A4D2878012817
:106740000AD03948007801280ED0207800281DD0C2
:1067500070BDFEF7EFFE70BDFBF7D8FFFEF7E4FB60
:10676000314800780128F0D1FCF768FD002803D0FB
:106770002E480321017004E02C4802210170FCF72F
:10678000A1F9FEF7D1FB20780028E1D128490A8839
:10679000284C2878002816D06079072813D8062AB4
:1067A00011D3431C637124480568C06F401B6569A1
:1067B00040196061082B06D1C309C008C51AA5811C
:1067C000C0181A4B98801D4D2888002805D1637881
:1067D000002B02D1501C088070BD00260E80184985
:1067E0008842B5D36189FCF70DFD322801DC2078A1
:1067F000461C2670F0B2332807D3E078002804D175
:10680000FEF73AF90120000220802888608170BDDF
:1068100050050020570500205805002010050020D5
:10682000D0050020590500205A0500202001002035
:106830007A050020140500205C0600207605002063
:10684000DD0500003905002070B53D490A783B4C54
:1068500020680C239843002A03D0082210432060AC
:1068600004E00422104320600220A06203221305EA
:106870000920C00605689D4301235E05AD1905602A
:1068800025681D430226B5432560A361940405686D
:10689000A5439C042C1904605C0284620C78950367
:1068A0000168A943002C03D0DC032143016004E00C
:1068B0009C032143016080218162110402688A43A4
:1068C00059045118016070BD70B51C4B1868042143
:1068D000014308208143196002249C6103210A05B9
:1068E0000920C0060568954301221605AD1905600B
:1068F00095028562124D2E781D688D43002E02D0C0
:1069000025431D6002E015431D609A628B040468F4
:106910009C43D304E31803608B0304689C439303F4
:10692000E318036080238361090403688B43110427
:10693000591801601102816270BDC0460004004810
:10694000C2000020F0B583B0444D28685C21444F5C
:10695000029178525626434B995B03224A4380B2F8
:106960001418A0080096985300262E6080B2997ED5
:10697000FAF7D3FCE108091A5222B9523A4AD06117
:1069800088B2116A0A2913D229683849086020257B
:10699000344C605D217F012917D1401C6055C1B284
:1069A000072902D30120605538770121014016E004
:1069B00029688142E9D229688142E6D22968814268
:1069C000E3D229688142F3D3DFE7401E6055010618
:1069D00003D1062060550121397701218143E176F9
:1069E000EFF3108072B6F87F002802D1605DFBF7EC
:1069F00031FD62B6FBF700FDF87C797B01434A1E4E
:106A000008469041002906D017494969184A914221
:106A100001D30121E1752B217E542D217E542621A5
:106A200001967E54104E316A491C3162029ABA5A5C
:106A3000635D5B009B195A85002807D014290BD38E
:106A40000098205A0A49884202D305E01F2903D33F
:106A50000198E075FCF7E2FA03B0F0BD24000040B5
:106A600030050020C0000020AC0500202C20004094
:106A7000D107000002E008C8121F08C1002AFAD19D
:106A800070477047002001E001C1121F002AFBD1AE
:106A90007047000000000000000001020304060728
:106AA0000809000000000102030400D57FAAFE2BA4
:106AB000815429FC5683D702A87D52872DF8AC79E2
:106AC000D3067BAE04D18550FA2FA471DB0E5A8F0A
:106AD00025F08D58F22773A60CD9F623895C08DDC2
