:020000040800F2
:10100000900C0020E1100008711600085916000825
:1010100000000000000000000000000000000000D0
:101020000000000000000000000000006117000840
:10103000000000000000000073160008631700089D
:10104000F3100008F3100008F3100008F310000874
:10105000F3100008F3100008F3100008451600080C
:1010600000000000F31000086D150008811500084D
:1010700027140008F3100008F31000080000000017
:10108000691B0008F310000800000000191B00088D
:10109000311B00083D1B0008F3100008F310000886
:1010A000F3100008F3100008F3100008411C0008BA
:1010B000F310000800000000000000000000000025
:1010C000F310000800000000F310000803488546F4
:1010D00000F06CF900480047113D0008900C00201A
:1010E0000448804704480047FEE7FEE7FEE7FEE7C6
:1010F000FEE7FEE769170008CD10000803460B4322
:101100009B0703D009E008C9121F08C0042AFAD2BD
:1011100003E00B780370401C491C521EF9D2704743
:10112000D2B201E00270401C491EFBD2704700227F
:10113000F6E710B513460A4604461946FFF7F0FFD6
:10114000204610BDF8B502464A40D40F42004B007D
:1011500052085B089A4202D20246084611464A00EB
:1011600023D0C30D4A00DDB2120EAD1A202D35DAA0
:1011700049020126490AF6058A19002C00D052427C
:1011800020214F1B1146B9402A411018C20D9A4226
:1011900021D0002C17D0012D08DCDA05801AD20FDF
:1011A0008019D207DBB200F0C8F8F8BDDA05801A62
:1011B000012340001B06C01880185A428018CA0F2D
:1011C0001043490007E04908C2071143DA05801AB5
:1011D00080194008801800F0A8F8F8BD61000122CD
:1011E000511A001BF7E70122D2075140AAE701225A
:1011F000D2075040A6E770B502464A40D50F4000DE
:101200004A00ED0740085208002814D0002A12D0E6
:10121000C40DD30D41020120C0055202490A520AF1
:10122000E41A091812187D34914201D3641C00E0BD
:101230004900002C01DA002070BD0023914201D347
:10124000891A0343400849000028F7D100290AD031
:10125000914202D10121C90705E0914201D2012149
:1012600001E00121C943E005C018401900F05DF814
:1012700070BD0122D207002800DB101A002900DB14
:10128000511A814201D80120704700207047012285
:10129000D207002800DB101A002900DB511A814216
:1012A00001D201207047002070470122D207002898
:1012B00000DB101A002900DB511A814201D3012002
:1012C0007047002070470122D207002800DB101A67
:1012D000002900DB511A814201D90120704700200A
:1012E0007047C217C10F504010B54018CA07962367
:1012F000002100F022F810BDC20F4100400201237E
:10130000400ADB05D207090EC0187F2901DA002048
:101310007047962903DC9623591AC84001E0963994
:101320008840002AF4D040427047002904DA401C6B
:10133000490001D140084000704770B40024050CFA
:1013400005D11024000402D1002921D01124050E5A
:1013500001D100020834050F01D10001241D850FC1
:1013600001D18000A41C002801DB4000641C00297E
:1013700008D020252E1B0D46F540A14000D00121AC
:101380002943084301061B1B000ADB1D02D5002070
:1013900070BC7047DB05181880180029F8DA401C6B
:1013A0004900F5D170BC400840007047064C01254B
:1013B000064E05E0E36807CC2B430C3C98471034FD
:1013C000B442F7D3FFF786FE287700084877000875
:1013D00070B58C180578401C6B075B0F01D1037842
:1013E000401C2A1106D10278401C03E006780E70DA
:1013F000401C491C5B1EF9D12B0705D40023521E4B
:101400000DD40B70491CFAE70378401CCB1A921CD0
:1014100003E01D780D70491C5B1C521EF9D5A142DA
:10142000D8D3002070BD10B501204405204601F03E
:10143000C7FC38B1204601F085FC10BC01BC8646D3
:1014400002F000BA10BD000047488188044A1180AC
:101450000188044A11804088034908807047C046CB
:10146000D0040020D4040020BA040020F0B587B0D6
:101470003A4803F011FF3A48016848F200020A4373
:101480000260C16A40F200121143C1620920C00625
:101490000168C02739430160016843F200020A4332
:1014A0000260694640F200120A8300248C762D4EB9
:1014B00030463C3000902C48029040F2E830183022
:1014C00003900192059403250495204601F026FB24
:1014D000204601F005FB204601F0F2FA30460C38B8
:1014E000016840F200131943016030460838016872
:1014F00040F600029143016001246105F2690A434C
:10150000F261E10502680A430260706A2843706272
:10151000706A38437062706A44F20001014371627C
:10152000306828210143316030681843402101436D
:101530003160306840F600210143316000F0C0FBAB
:1015400040F2E83001F076F900F090FB00F0B0FBDB
:10155000204600F0BFFB07B0F0BDC0460906000002
:1015600004100240102401400C050020324801689C
:1015700010220A4302608169012291438161704710
:1015800010B52948007898B12648007880B12A48DB
:10159000016841F200020A430260016C0124A14388
:1015A00001642648007890B303F0CEFE022430E0B8
:1015B0000320042101F0F6FA58B11C48007840B12C
:1015C0001B48016802220A4302600320042101F043
:1015D000DFFA0320022101F0E5FA01280AD10324F1
:1015E0000121204601F0D4FA204601F061FA05F00D
:1015F0005BFD10E00320082101F0D4FA012810D18E
:101600000320012110BC04BC964601F0C1BA04F0CD
:101610008FF90B4804700748016848F200020A433A
:10162000026010BD87040020800400208A0400208E
:101630002004004010040140040002404004002047
:101640006904002080B548F2000001F07BFB80BCFB
:1016500001BC864603F0F4BCFEE780B5022140F6EB
:10166000A07001F095FD80BC01BC864601F0E2BD92
:1016700070477047F0B581B0344801680126B14326
:1016800001602024324D285D297F01290AD1401CA8
:101690002855C1B2072903D32E552E480677304668
:1016A000304009E0411E2955080603D1062129557D
:1016B0002848067730468843E876EFF3108072B604
:1016C000244FF87F10B9285D00F002FC62B600F0EC
:1016D0009BFBF87C797B01431F4807D0C06840F230
:1016E000D071884202D9EE75002002E0E97D4842BF
:1016F00048412B2100227A542D217A545C21795AB9
:101700005422AB5A03265E4373189E08AE529A03C6
:10171000520CEB7973439B09D21A5226BA532A5DB5
:1017200052000D4C12195184636128B9A0690B490C
:10173000884207D901B0F0BD01F06CFAA0690749F1
:101740008842F7D8401CA06101B0F0BD0C440140B4
:101750000000002060040020DC0400200F270000AF
:10176000704701F09DB80000F0B481B06748021FD7
:10177000136801210B43136013689B0708D4136897
:101780009B0705D413689B0702D413689B07F3D506
:10179000036880241C43046000240094009B7F2B7A
:1017A00017D8009B5B1C0093009B7F2B11D8009BDC
:1017B0005B1C0093009B7F2B0BD8009B5B1C009352
:1017C000009B7F2B05D8009B5B1C0093009B802B0C
:1017D000E7D3036890251D4305600094009B7F2B91
:1017E00017D8009B5B1C0093009B7F2B11D8009B9C
:1017F0005B1C0093009B7F2B0BD8009B5B1C009312
:10180000009B7F2B05D8009B5B1C0093009B802BCB
:10181000E7D30323DD4306682E40066015683C4E7F
:101820002E40166005683B4E2E40066005683A4E15
:101830002E400660856A0F26B5438562C56A40F270
:101840000316B543C5620D04C66AAE43C662CD0732
:10185000C66AAE43C662056B8D4305634460146877
:101860000C4314602D4C1568AD070CD41568AD07FA
:1018700009D41568AD0706D41568AD0703D4251F34
:10188000002C2C46EFD11468A40700D4FEE7244DA9
:101890002E68022426430527BE432E600568056096
:1018A000056805600568056005681E4E2E400660E7
:1018B00005681D4E2E4306600D0616682E43166001
:1018C0004D0616682E4208D116682E4205D11668BC
:1018D0002E4202D116682E42F3D002689A4302606B
:1018E0000268224302600268120708D402681207E5
:1018F00005D40268120702D402681207F3D5C8069D
:1019000041F2000101B0F0BC03F0D8B9041002406C
:10191000FFFFF2FE0C00FF08FFFFC277FC0400008F
:1019200000200240FFFFC2F700000408F0B58FB0AE
:101930007548FA3003F0B0FC744F384605F040FAB1
:1019400008AD284605F0A6FB00242C7370480A90C9
:10195000089409943846294605F078FA0CAE3046CA
:1019600005F025FA0E940D940C9438462146324623
:1019700005F086F8012103913846324605F080F8DB
:10198000022538462946324605F07AF8602202924E
:1019900038463E46214605F081F908273046214663
:1019A0003A4605F0A9F93046039E3146029A05F001
:1019B00075F9564831463A4605F09EF9534E304681
:1019C0002946029A05F06AF9304629463A4605F05A
:1019D00093F904AE304605F028F8B48106944D48DA
:1019E00005900494494F3846314605F00FF8202100
:1019F000384605F035FB80210291384605F030FB72
:101A0000384604F0FEFF404E304603F045FC701CA3
:101A100003F042FCD74E3046294622462B4601F0C1
:101A2000C1FC0327304621463A4601972B4601F078
:101A3000BFFD304629462246039E334601F0B2FCE4
:101A4000F04821463A46334601F0B2FD0920C60669
:101A5000304629462246029F3B4601F0A3FC304611
:101A60002146019A3B4601F0A3FDE64F3846294640
:101A70002A4601F0FFFB38462946039A01F0FAFB9B
:101A800030462946029A01F0F5FB304629462246A7
:101A900040F2004301F086FC38462146019F3A4659
:101AA00040F2004301F084FD30462946224640F2D0
:101AB000002301F077FCD34821463A4640F2002348
:101AC00001F076FD30462946224640F2001301F02F
:101AD00069FCCC4821463A4640F2001301F068FD0B
:101AE0003046294640F2004201F0C4FB3046294608
:101AF00040F2002201F0BEFB3046294640F20012BF
:101B000001F0B8FB0FB0F0BD11050000002C014042
:101B1000B80B00001E00002080B50448012105F02C
:101B2000A3FA80BC01BC864604F030BD0020004012
:101B30000148012105F087B900400140B0B5074CCC
:101B40002068074D28600748012105F08DFAFFF74E
:101B500091FD20682968401A2860B0BD24480140E2
:101B6000200800200044014070470000F0B585B017
:101B700040F20050123003F08FFB40F2005003F0AF
:101B80008BFBA04F002101910326102438463246DA
:101B90002346029401F00CFD0125384629462246D1
:101BA00001F068FB1D4F39463431304601F020F812
:101BB0001B49304601F014F81A481B490160FF2008
:101BC00000061A490A688243A807101808601848D6
:101BD00040F600010160174803F05EFB1648F8620A
:101BE0000A20B862384604F007FF03AD284604F027
:101BF00040FF019C049411480390384621462A4630
:101C000005F07CF9384605F015F902217D48224699
:101C1000029B01F0C7FB05B0F0BDC04600040040C8
:101C200088050020440002408A09000008E400E022
:101C300000E100E001070000FFFF00000A000100D2
:101C400080B50848016810220A430260064801680E
:101C500001229143016003F0D9FE80BC01BC86469D
:101C600003F062BB20380140300002402348016885
:101C700008220A4302600168090708D501680907BC
:101C800005D50168090702D501680907F3D4016881
:101C900004220A4302600168490708D50168490720
:101CA00005D50168490702D501684907F3D4704793
:101CB0001248016840F200120A4302607047C046B1
:101CC0000E480168C90703D1016801220A43026076
:101CD0007047C046C107094902D1800707D4704741
:101CE000012292050B6813430B608007F7D5012092
:101CF00040050A6802430A607047C0460824014054
:101D000070B5404B186804210143082081431960D5
:101D100002249C6203210A050920C0060568954338
:101D200001221605AD19056040F2004585621D6867
:101D30001543A5431D609A628B0404689C43930479
:101D4000E318036040F20023836203684CF200044E
:101D5000A34344F200041B19036080238362090437
:101D600003688B4311045918016040F2001181622D
:101D700070BDC0460004004870B521490A78214C66
:101D800020680C2398431AB108221043206004E015
:101D90000422104320600220A062032213050920C0
:101DA000C00605689D4301235E05AD1905600E78E8
:101DB000256895431EB102263543256002E01D4388
:101DC0002560A36294040568A543DC042C19046013
:101DD0000C7801684CF20005A94324B148F20004D4
:101DE0002143016005E044F20004214301608021A9
:101DF0008162110402688A4359045118016070BD60
:101E0000020000200004004810B5154A11782F4840
:101E1000042901D0012902D151210160117805293D
:101E200001D0022902D1612101601178062901D077
:101E3000032901D1412101600A48047801204105AC
:101E400009480368094A2CB11340036043680B43F7
:101E5000436010BD0B43036043681340436010BDF3
:101E6000200000201B00002008040140FFFFDFFFCE
:101E70001648016801220A4302607047B0B5134B4F
:101E80001C68064D25408007000F4907490E0818B9
:101E90009107890C401840191860B0BD83CFFFFF2F
:101EA000491E4A424A41D1024007400D08180749DD
:101EB0000A6840F600739A43801808607047C0466D
:101EC000024800684004C00F7047C0461C00014033
:101ED00070B5401E052800D973E1810001A2511898
:101EE0008F46C04600F00AB800F015B800F045B8BB
:101EF00000F075B800F092B800F0AFB8B1480278C1
:101F0000B14908680C239843002A00D1B1E00822A7
:101F100010430860B2E0AC4B18680421014308206C
:101F20008143196002249C6203210A050920C0062E
:101F30000568954301221605AD19056040F200457C
:101F400085621D681543A5431D609A618B04046872
:101F50009C439304E318036040F200238362994B8F
:101F60001C7803684CF20005AB43002C00D1B2E0B2
:101F700048F2000423430360BAE0934B186804213D
:101F8000014308208143196002249C6103210A0552
:101F90000920C0060568954301221605AD190560A4
:101FA00040F2004585621D681543A5431D609A6295
:101FB0008B0404689C439304E318036040F20023FD
:101FC0008362804B1C7803684CF20005AB43002C05
:101FD00000D187E048F200042343036088E07A4B95
:101FE00018680421014308208143196002249C6180
:101FF00003210A050920C00605689543012216053C
:10200000AD19056040F2004585626E4D2E781D6861
:102010008D43002E73D025431D6073E06A4B186812
:102020000421014308208143196002249C6203219A
:102030000A050920C0060568954301221605AD1959
:10204000056040F2004585625E4D2E781D688D4327
:10205000002E68D025431D6068E05A4802785A492E
:1020600008680C239843002A7AD00822104308609D
:102070007BE00422104308600220886203221305DB
:102080000920C00604689C4301235D0564190460AF
:102090000C681C430225AC430C608B6191040468FE
:1020A0008C4399046118016040F20021816201684B
:1020B0004CF20004A14344F200040919016080219C
:1020C0008162110402688A4319045118016040F2C8
:1020D0000011816270BD44F2000423430360802339
:1020E000836205E044F2000423430360802383629B
:1020F000090403688B4351045918016070BD1543EE
:102100001D609A628B0404689C43D304E318036047
:1021100003684CF20004A34344F200041B1903605B
:102120008023836212E015431D609A628B04046869
:102130009C43D304E318036003684CF20004A343F8
:1021400044F200041B1903608023836109040368BF
:102150008B4311045918016040F20011816270BD77
:10216000042210430860022088620322130509201C
:10217000C00604689C4301235D05641904600C6873
:102180001C430225AC430C608B62910404688C43B1
:1021900099046118016040F20021816201684CF2EB
:1021A0000004A14344F20004091901608021816107
:1021B000110402688A4319045118016040F20011A9
:1021C000816270BD0200002000040048F0B58DB0AF
:1021D000EC480168C56F6A1AEB4E728193B25A09D6
:1021E0003281EB4C2488A34200D80BE1E74C2488D1
:1021F000A34200D306E10A954368591A012500233A
:102200000C939142294600D80C990991F16181689B
:10221000C368591A9142294600D80C990891316235
:1022200001694369591A9142294600D80C990791CE
:1022300071628169C369591A9142294600D80C9983
:102240000691B162016A436A591A9142294600D83F
:102250000C990591F162816AC36A591A91422F461D
:1022600000D80C9F3763016B436B591A91422C467F
:1022700000D80C9C7463816BC36B591A9142294638
:1022800000D80C990B91B163016C436C591A9142BF
:10229000294600D80C990391F163816CC36C591ADB
:1022A0009142294600D80C9902913164016D436D29
:1022B000591A9142294600D80C9901917164816D97
:1022C000C36D591A9142294600D80C990491B16402
:1022D000016E436E591A9142294600D80C9900911B
:1022E000F164816EC36E591A91422B4600D80C9B43
:1022F0003365016F466F711A9142294600D80C99D7
:10230000A14E7165806F0A9E301A904200D80C9DD4
:102310009D4885650998059A424003984240D0003F
:10232000089A5740029A5740BA0017180798444035
:102330000198444064000B98069A50400B90009816
:10234000C0009A0010184900461892480078924937
:10235000097801430CD100F085FF48B18A4908791A
:10236000401C0871C0B2652802D301208949087059
:10237000701939190B9B049A5340864A12780AB196
:102380000F225040804D1943884238D11C353CCD36
:102390007D48C66A7C48076B7B48416B7A48806BF6
:1023A00092025B02134322021A43EB011343B20170
:1023B000754E1A437B01134309011943C0000843BA
:1023C00034463C341ECC8D0005435100294319434B
:1023D000D94A00201080B289521CB281012C02D14E
:1023E0006E4A0123137030290EDB727862B16C489B
:1023F00000220270D4480180B2700DB0F0BDE889AF
:10240000401CE8810DB0F0BD4A1E2E2A06D8644853
:102410000170CD4800220280C8B20DE011B16048C1
:10242000007809E03178012901D1002171705C49FF
:102430000870C5490880B0700028E3D05949097870
:102440000029DFD1544909780029DBD0F17888428E
:1024500002D00021B170F070052805D3B178491C75
:10246000B170C9B20629CDD30025B570411E14291B
:1024700000D981E08A0001A39A18974600F028B895
:1024800000F030B800F032B800F034B800F036B8E0
:1024900000F072B800F036B800F03BB800F040B879
:1024A00000F042B800F068B800F043B800F04BB854
:1024B00000F054B800F060B800F05EB800F05CB80E
:1024C00000F05AB800F058B800F04FB800F004B867
:1024D0003749012008704FE03348007833490870CD
:1024E000152049E032490220087045E030490320B8
:1024F000087041E02E49042008703DE02C49052079
:10250000087039E02948012101702748057007202B
:1025100032E02648057024480121017008202BE094
:1025200087480570092027E08548012101700A20AD
:1025300022E003F0F7F81C480078401C1C490870A2
:102540001748007818E040F60060F08001217171B2
:1025500032780D20012A0FD171700DE0757140F6AF
:102560000060FF30F0800E2006E00F480078012167
:10257000081A0E490870142009490D700D49087099
:102580000DB0F0BD88050020C003002064000020CD
:102590005004002080040020870400207E040020D6
:1025A00088060020830400206A0400201C0000200C
:1025B0007B0400202408002070B582B0574C03CC67
:1025C000081A40F22131411A574A083C914209D871
:1025D000564D697841B1E97800295FD1A97869B38E
:1025E00028892CE04E4C81E05549097871B1554954
:1025F0000A8840F2E833904217D94D490C8840F2DE
:10260000D0710091511C5B1C224612E048490A8897
:102610004A49098840F2D0732F3300932F2302F0E8
:10262000E9FA312807DA002005E0444909880093D7
:10263000002302F0DFFA28613F4C57E02881491C53
:10264000A9703B4E318880B200F002FE332802DBD5
:10265000002068701BE030880721414305CC101A28
:102660004018C0083080A978083C33290FD31938A6
:1026700081B240F2D662891ACA0F8918490821220C
:102680002C4B99540121E970308002F017FC3088FE
:102690002881E8780028CFD003CC081A297940F2A5
:1026A000E832FA32904208D2491C2971234A138831
:1026B00007245C432018C0081080C8B21E4C4C2868
:1026C00014D318481D490A88193293B2C018333000
:1026D000C30FC01840082023164EF05400266E7019
:1026E0000A8003F01FF82E7102F0C4FB0020208046
:1026F00015480288E84909698C1A144B1B689C42EA
:1027000001DDD11806E0541A9C4203DDD11A018084
:1027100002B070BD018002B070BDC04688050020C7
:10272000AA040020DFFCFFFF76050000440400201F
:102730002E00002089060020B40400202C00002078
:102740006B04002030000020AE040020E4000020D4
:10275000F0B589B040F20050123002F09DFD40F219
:10276000005002F099FD2C4802F096FD022420460C
:1027700000F0BEF9294E00274025304639462A464A
:1027800000F078FD304621463A462B4600F00AFE1E
:1027900001220192304639462B4600F009FF02AE75
:1027A000304600F02DFAB77640F2001030831C4816
:1027B0000490069505971B4D2846243002900797F4
:1027C00003972046314600F0A9F9204600F080F931
:1027D000FF20000614490A688243019BD80710189D
:1027E0000860D80611490860204600F069F92846BB
:1027F00004F0CBFD0E49284604F08CFD0421284648
:1028000004F0CCFD2868102101432960284604F01B
:10281000B7FD09B0F0BDC0460E0600000004004838
:102820001D0500200038014018E400E000E100E050
:10283000A0680600184900220A600A68824208D28D
:102840000A68824205D20A68824202D20A6882423B
:10285000F3D3704770B505460F4E00203060344604
:10286000243C0E490122204604F001FC6800316836
:10287000814208D23168814205D23168814202D258
:1028800031688142F3D3482171600122204670BC37
:1028900008BC9E4604F0EBBB2448014050C3000036
:1028A0000348016811B10168491E01607047C046C4
:1028B00084050020F0B5754BC933754843807549D0
:1028C0000F6800252A4603E052182835782D77D066
:1028D00070494E197168CF1B1BD1B768791A21D185
:1028E000F168CF1B27D13769791A2DD17169CF1BB8
:1028F00033D1B769791A39D1F169CF1B3FD1376A22
:10290000791A45D1716ACF1B4BD1B76A791ADCD0DD
:1029100050E09CB2A74201D247803B46D219B7682B
:10292000791ADDD09CB2A14201D241800B465218E7
:10293000F168CF1BD7D09CB2A74201D247803B465B
:10294000D2193769791AD1D09CB2A14201D2418003
:102950000B4652187169CF1BCBD09CB2A74201D253
:1029600047803B46D219B769791AC5D09CB2A142BB
:1029700001D241800B465218F169CF1BBFD09CB2E7
:10298000A74201D247803B46D219376A791AB9D09B
:102990009CB2A14201D241800B465218716ACF1BF2
:1029A000B3D09CB2A74201D247803B46D219B76A46
:1029B000791A8AD09CB2A14286D241800B4683E725
:1029C0005109354DA961354C2178012925D1991E30
:1029D00089B202290AD840F280718A4206D20021C7
:1029E000A9712F4E31700E262C490EE0591F89B265
:1029F000032912D840F680418A420ED22849012686
:102A00000E7026490E70A91D0726264F3E7001261E
:102A10000E702021017024490E70244E3178012956
:102A20000BD1C93B99B2194A91422ED21C49472277
:102A30000A7001213170022123E027782FBB21BBCE
:102A4000991E89B2022909D840F280718A4205D2C2
:102A50000021A971124A11700E210DE0591F89B28F
:102A60000329DED840F680418A42DAD20C4901229D
:102A70000A702270AC1D07210A4A117001212170D1
:102A80002021094A012313700170F0BD574D000049
:102A900060000020880500204404002089040020F4
:102AA000E000002041040020880400208A04002067
:102AB0001421414335480A5801239A430A5070476C
:102AC0001421414331480A58012313430B507047E6
:102AD000142141432D480A5820239A430A50704735
:102AE0001421414329480A58202313430B507047AF
:102AF00010B5142242432A49521853680124A343B3
:102B00005360002353609360D360136180000F22F1
:102B1000824008681043086010BDC046B0B514225A
:102B200042431A4813580124A343135013180C6846
:102B30009C608C68DC600C8A5C60135843F60074FF
:102B4000A3434C681C43CB6823434C691C4314507B
:102B50000B7E5B1E5C425C41A30114584025AC43D4
:102B6000E31813504B7E5B1E5C425C41E30114583A
:102B70008025AC43E3181350897E4B1E994109010F
:102B800013581024A34359181150B0BD0800024037
:102B900080008140024802680A4302607047C046D4
:102BA0000400024010B50022082915D801238B40EB
:102BB00040F2141423420FD082000C469440074A7E
:102BC000136823405C1EA34114244443A018826868
:102BD0000A40501E82411A40104610BD00000240BB
:102BE00014224243014811507047C046140002406D
:102BF00014224243014811507047C0461000024061
:102C0000002181760183016041608160C1600161C2
:102C1000416170470120400549490A6802430A6042
:102C20007047C046F0B581B03D4E002100910124AF
:102C30003046224604F08EF830462146224604F003
:102C400089F8022730463946224604F083F80425E5
:102C5000304600992A4603F0F1FE304621462A46C6
:102C600003F0ECFE304639462A4603F0E7FE3068B2
:102C7000204330603046214604F001FA294D28688F
:102C8000204328602846214604F0D9F8E868A0438C
:102C9000E860254801682143016024480168214318
:102CA0000160214604F0CBF8214D286820432860BC
:102CB0002846214604F0C3F8E8682043E860FEF7A0
:102CC000D5FBFFF7D5F840F2E830FFF7B3FD194D1B
:102CD00028460099224604F03DF8286820432860E1
:102CE00040F20050123002F0CDFA40F2005002F0F3
:102CF000C9FAFF20000610490A688243E00710184D
:102D000008600E48802101600D48016848F2000209
:102D10000A43026001B0F0BC01BC8646FEF726BF44
:102D2000002C0140004401400048014000100040D8
:102D3000002000400004004004E400E000E100E066
:102D400000040140214908607047C04670B5194B26
:102D50001C46083C2568854325601D1F2E68864358
:102D60002E601E6886431E605E6886435E60012991
:102D70000FD011B9216801432160022A0ED0C1434E
:102D8000012A0FD0A2B91A6802431A605A680A4091
:102D90000DE0296801432960022AF0D11968014336
:102DA000196002E01A680A401A605A6802435A60C1
:102DB00070BDC04608040140044908607047C04621
:102DC000024909680840411E8841704714040140C7
:102DD000CA4908607047C0460248016880220A4319
:102DE0000260704710200240B0B50146C34AC44B90
:102DF00005201C461568ED0747D01568ED0744D03F
:102E00001568ED0741D01568ED073ED01568ED0750
:102E10003BD01568ED0738D01568ED0735D015683B
:102E2000ED0732D01568ED072FD01568ED072CD0CF
:102E30001568ED0729D01568ED0726D01568ED0750
:102E400023D01568ED0720D01568ED071DD0156853
:102E5000ED071AD01568ED0717D01568ED0714D0E7
:102E60001568ED0711D01568ED070ED01568ED0750
:102E70000BD01568ED0708D01568ED0705D015686B
:102E8000ED0702D01834B5D168E01068C00658D4F8
:102E9000106840080224204060D1506820435060F0
:102EA0009160506840210143516005201168C907B5
:102EB00049D01168C90746D01168C90743D01168C5
:102EC000C90740D01168C9073DD01168C9073AD079
:102ED0001168C90737D01168C90734D01168C9070C
:102EE00031D01168C9072ED01168C9072BD01168DD
:102EF000C90728D01168C90725D01168C90722D091
:102F00001168C9071FD01168C9071CD01168C9070B
:102F100019D01168C90716D01168C90713D01168F4
:102F2000C90710D01168C9070DD01168C9070AD0A8
:102F30001168C90707D01168C90704D01833B5D183
:102F400009E00420B0BD1068C00603D41068400832
:102F5000204000E004205168A1435160B0BDC0464C
:102F60006C48016810220A43026070470448C16837
:102F7000090603D503490160034901607047C04653
:102F80000420024023016745AB89EFCD70B50246AE
:102F90005A4B5B4C052025461E68F60747D01E6835
:102FA000F60744D01E68F60741D01E68F6073ED0EB
:102FB0001E68F6073BD01E68F60738D01E68F60775
:102FC00035D01E68F60732D01E68F6072FD01E686F
:102FD000F6072CD01E68F60729D01E68F60726D003
:102FE0001E68F60723D01E68F60720D01E68F60775
:102FF0001DD01E68F6071AD01E68F60717D01E6887
:10300000F60714D01E68F60711D01E68F6070ED01A
:103010001E68F6070BD01E68F60708D01E68F60774
:1030200005D01E68F60702D01835B5D165E01868DE
:10303000C00655D418684008022630405DD1586853
:10304000012528435860116005201968C90749D037
:103050001968C90746D01968C90743D01968C90754
:1030600040D01968C9073DD01968C9073AD0196816
:10307000C90737D01968C90734D01968C90731D0D2
:103080001968C9072ED01968C9072BD01968C90754
:1030900028D01968C90725D01968C90722D019682E
:1030A000C9071FD01968C9071CD01968C90719D0EA
:1030B0001968C90716D01968C90713D01968C90754
:1030C00010D01968C9070DD01968C9070AD0196846
:1030D000C90707D01968C90704D01834B5D109E069
:1030E000042070BD1868C00603D41868400830403A
:1030F00000E004205968A943596070BD0C200240CB
:103100000000F1FF03490A6807239A4302430A605B
:103110007047C0460020024070B51C4B186804215F
:10312000014308208143196002249C6103210A05A0
:103130000920C0060568954301221605AD190560F2
:1031400040F2004585621D681543A5431D609A61E4
:103150008B0404689C439304E318036040F200234B
:10316000836203684CF20004A34344F200041B1979
:10317000036080238361090403688B431104591899
:10318000016040F20011816270BDC0460004004839
:10319000F0B581B00090204C23460C3B1F481860CE
:1031A0001F4D01202E462768FF0711D02768FF0713
:1031B0000ED0276807403EB137B127680740721C20
:1031C00002D0361D002FEED117B1002001B0F0BDA6
:1031D0002246083A116002212268920713D522681C
:1031E000920710D527680F407E0845B13FB1276888
:1031F0000F407E086A1C02D02D1D002FECD116B1A5
:10320000002001B0F0BD0749009A0A40211F0A6062
:103210000749196001B0F0BD0C3000405555000061
:103220000400F0FFFF0F00000448014901607047EF
:10323000AAAA00000148024901607047003000401E
:10324000CCCC00000148012103F0F9BD002C014065
:10325000401AC1174840401A704780B5FEF730FE4B
:10326000C0B280BD02480168102008407047C046C7
:1032700010040048F0B588B00F23DD43036AD4077B
:1032800001D02B400B430395F024E6430F01940734
:103290000297054601D533403B433C4F0802540793
:1032A000069001D53B400343394F080314070795A7
:1032B00001D53B4003430F04D4060196009702D585
:1032C000344C23403B43344E0F05940601D5334024
:1032D0003B43324D0E065406049601D52B40334332
:1032E00005972F4D0F07140601D52B40DB19079DBD
:1032F0006C6A2B62D30519D4069B244D91051CD40E
:10330000234E510520D4244B254D110522D4D10440
:1033100024D40598910428D40498204B51042AD42D
:1033200011042CD40798446208B0F0BD039B1C40E4
:103330000C43069B154D9105E2D501990C4002996D
:103340000C43134E5105DED52C401C43124B144D3B
:103350001105DCD534400443D104DAD50D480440CE
:103360000098044305989104D6D51C400443049862
:103370000A4B5104D4D51C4004431104D2D52C402F
:10338000E4190798446208B0F0BDC046FFF0FFFFA3
:10339000FF0FFFFFFFFFF0FFFFFF0FFFFFFFFFF03B
:1033A000FFFFFF0FF0B581B001261E400324E54367
:1033B0000468002E00D088E0C768002E00D08AE0A4
:1033C0000090980700D58CE025463E46580700D46B
:1033D00092E03020C04306401701374305400C01FE
:1033E0002C43180700D48CE0C020C043074096014E
:1033F0003E4304408D012543D80600D486E0604852
:1034000006401702374305400C022C43980600D4AF
:1034100081E05C48074096023E4304408D0225430C
:1034200058067CD5584806401703374305400C031F
:103430002C43180677D55548074096033E43044071
:103440008D032543D80572D55148064017043743EC
:1034500005400C042C4398056DD54E480740960452
:103460003E4304408D042543580568D54A4806402C
:103470001705374305400C052C43180563D547480D
:10348000074096053E4304408D052543D8045ED58C
:10349000434806401706374305400C062C43980462
:1034A00059D5404D2F40900638432C408E06264378
:1034B0005C0454D53C4D2840140704432E400D07AE
:1034C00035431804009B56D54EE02C400C43C7688A
:1034D000002E00D174E72F4017430090980700D4C6
:1034E00072E70C20C043074096003E4304408D0025
:1034F0002543580700D56CE72C463746180700D5FA
:1035000072E725463E46D80600D578E72C46374672
:10351000980600D57DE725463E46580682D42C46BF
:103520003746180687D425463E46D8058CD42C4607
:103530003746980591D425463E46580596D42C46E4
:10354000374618059BD425463E46D804A0D42C46C1
:1035500037469804A5D4264638465C04AAD4354696
:1035600004461804009B06D5104804409207A4188E
:10357000054088072D181D60DC6001B0F0BDC04615
:10358000FFFCFFFFFFF3FFFFFFCFFFFFFF3FFFFF4A
:10359000FFFFFCFFFFFFF3FFFFFFCFFFFFFF3FFF3A
:1035A000FFFFFFFCFFFFFFF3FFFFFFCFFFFFFF3F2A
:1035B000B0B5012902D14168194301E0416899433E
:1035C000416084680321DD0701D08C4314439D07CB
:1035D0002DD50C25AC43950025435C072AD42C46F9
:1035E0001D072DD42546DC0630D42C469D0634D448
:1035F00025465C0638D42C461D063CD42546DC0501
:1036000040D42C469D0543D425465C0546D42C4623
:103610001D0549D42546DC044CD42C469D044FD4CA
:1036200025465C0452D42C461B0459D554E025464B
:103630005C07D4D53024A54314012C431D07D1D5F4
:10364000C025AC4395012543DC06CED540F20034BD
:10365000A54314022C439D06CAD540F60045AC4351
:10366000950225435C06C6D543F20004A543140326
:103670002C431D06C2D54CF20005AC4395032543EF
:10368000DC05BED50C04A54314042C439D05BBD515
:103690008D04AC43950425435C05B8D50C05A543C2
:1036A00014052C431D05B5D58D05AC439505254363
:1036B000DC04B2D50C06A54314062C439D04AFD5FB
:1036C0008D06AC43950625435C04ACD50C07A54399
:1036D00014072C431B0403D589078C4391076418F6
:1036E0008460B0BD80B562B60220FFF70BFD80BCE0
:1036F00001BC8646FFF734BCF0B585B040F20057F8
:1037000040F2005001F0C8FDFF2003900004454B3B
:103710001968814303200490800508181860424905
:1037200040F200400860FEF701F9404801F0B4FDA6
:103730003F48404941600C4623260660029640F20D
:103740000060123001F0A8FD3B4DEC62AE622846ED
:1037500003F057F9284603F06DFB1137384601F0A6
:103760009BFD0920C506002702232846049C21460C
:103770003A46FFF717FE40F2006001F08DFD20236E
:10378000284621463A46FFF70DFE052138463A46BF
:10379000FEF774FB38463946FEF782FB01200190A4
:1037A0004505284639463A46FFF7D0FA2846FFF73E
:1037B00003FB0C20394601F055FA40F2006011304D
:1037C00001F06AFD1D4E1B48F0620298B06230465F
:1037D00003F017F9304603F02DFB124CE0684FF66A
:1037E0000071884344F200014018E0600E4E3560DD
:1037F0000E48001D01F050FD11483221C1624721E1
:10380000816203990906A2688A43049989075118BD
:10381000A1600199C904316005B0F0BC02BC8E46BC
:1038200003F008BB08E400E000E100E0040700004A
:1038300028100040FFFF0000004801400044014004
:1038400000200040B0B5314CE0687E2821D33049DB
:103850000A6830487C2A09D85022825AD2084A2A5B
:1038600004D8A26992087D2A00D2B0BD54222A4B06
:103870009A5A520809689142F7D32521425C521C9A
:103880004254D0B2652804D301F0E2F90020A061CF
:10389000B0BD214C607EE17E51B198B10025FFF7AB
:1038A000DCFC0028E1D16D1C607E8542F7D309E085
:1038B00040B10025FFF7D1FC0028D6D06D1C607EFA
:1038C0008542F7D301F0C4F9EFF3108072B6104AC5
:1038D00010685C230F49C85283B2156800209D42CE
:1038E000054601D91568ED1A156052228B5AA47D40
:1038F000E3408B52094988615A1C0A624860086893
:10390000012202430A6062B6B0BDC046DC0400205A
:103910002410004060040020000000200C440140FE
:10392000F0B583B0E94DEA49284640F2001201F0B3
:10393000D3FC687804280BD8BFF34F8FF248F349C3
:103940000160BFF34F8F00BF00BF00BF00BFFAE7A9
:10395000687C401E41424141DE4FB972A87C401E46
:1039600041424141F972E87C012801D10120B8733C
:10397000E87D212800D31020D74EF071287D401E0D
:1039800041424141B170687D401E41424141F17068
:10399000A87D401E414241413171287E01460839CF
:1039A000CF4CD04A582913D8182815D201460C39C3
:1039B0000B291FD9FC210140082928D1CB490091AE
:1039C00007211022CA4B01F015F94421705220E062
:1039D00042203452146023E0C04900911821602233
:1039E000234601F007F944217052287E01460C3924
:1039F0000B29DFD800940C211822BB4B01F0FAF8F8
:103A000044217052287EFC2101400829D6D0442050
:103A1000305AB44A4E2170524621705280B2106022
:103A2000687E01463239C9B2642901D83138F07450
:103A3000E87E3072A87E282460431430B084287F4A
:103A4000401E414241413973687F401E414241411D
:103A500079730227384602F0C7FC687870B3A87FF4
:103A60000B2800D9052002F0BFFC2320285CB0738E
:103A70002220285C9F49401830862023E85C4000C3
:103A800096494018B0852120285C40009A4A801849
:103A9000F085E87F401E424242418E48C273242096
:103AA000285C022801930ED0012814D101208949F5
:103AB00088742520285CFA3070860FE0B08C40F2C4
:103AC0000011844FD9E083498F742520285C64223B
:103AD0004243728402E000207E49887400200290F4
:103AE00008742620285C401E43424341CB74285D65
:103AF000431F142B00D8707329202B5C5C1E092CEB
:103B000000D8B3722A242B5D5F1EFFB2082F0AD89B
:103B1000F3720927FF435F434C3F3773FBB2714990
:103B20008F691F438F612B23EB5C1F46463F462F57
:103B300000D8B3712C23EF5C791E622904D80121CF
:103B4000644A91757900F1842D216F5C791E0929F1
:103B500000D877722E216F5C092F11D8042F5D4A8F
:103B600015D8B90001A251188F46C04600F008B818
:103B700000F096B800F099B800F09BB800F09DB83E
:103B8000544A0299115511545C48012101703520A5
:103B9000285C401E41424141D1543620285C012816
:103BA000174621D13720285C142148432F30562254
:103BB000B8523820285C48432F30582178520120D1
:103BC00078703B20285C4F493C22AA5C3D23EB5C8B
:103BD000091D0DC13920285C642141433A20285C2D
:103BE000C8224243B265F1654C20315A327B8918B4
:103BF00031523E20285CB8863F20285C1421414386
:103C0000F187F07C081830878818B18F4018B0878A
:103C10004020285C552840F2001101D10120387065
:103C20004120285CB8704220285CF8714320285C51
:103C300030704420285C38724520285C552801D11A
:103C4000012038714620285CF870B08C82084A2A1E
:103C500001D8029A32741122B0FBF2F3327A019C3D
:103C6000B4FBF2F2B3FBF2F44A23F4526423B0FB48
:103C7000F3F3B3FBF2F34822B35240F20012F432F2
:103C800000922C31154BFA33154A00F0B3FFF08641
:103C9000B07808B103B0F0BD0020F87203B0F0BDF9
:103CA0000121E64A1154154870E70120E34A1055F6
:103CB0006DE70520E14A507169E70121DF4A11549F
:103CC0000E48029C04700E4860E7C046890600203A
:103CD000007C00086004002000000020EE020000CC
:103CE000B80B00002C2C014070170000941100004C
:103CF000282300005E050000D6060000C103002056
:103D0000C0030020680000200CED00E00400FA056C
:103D100000B591B0FFF7E6FCFFF7EEFCFEF782FF7F
:103D2000FFF7FEFDBF4C207903225040E1780C9252
:103D30005140014331D003202071E070601DBAA1D1
:103D40000C22FDF7DBF9BC4841786170C179E1755F
:103D5000BA498A7A521E534253416374CA7A521E38
:103D600053425341A374897B491E4A424A41E2743B
:103D70008178491E4A424A412275C178491E4A4209
:103D80004A4162750079401E41424141A175AC4AE9
:103D9000204640F2001101F0F9FCA84FB87B10B1A9
:103DA000A548418F01874420A34D0B90285A4221FA
:103DB0000A9168524E21089168524C23E95A4143B6
:103DC00040F2D072B1FBF2F10F93E952B97A491E79
:103DD0004B1E99412977A98F4143B1FBF2F0297B12
:103DE0004018A887A87808B90020B873F87C9549CE
:103DF000A0B10846BE300F9968524020295A32318E
:103E000029520020B8730121F97229742871688041
:103E1000E88F3230E887288F323028877879401F42
:103E200001280BD8FEF794FC01F07EFA282001212E
:103E3000395401F0C1F8FFF7F7F90CE002F03EFB4E
:103E40004A2000213952FFF7EFF901F07DFA787826
:103E500008B10120787538787B4940B15420295247
:103E60000020B87300F0F4FE00F0C8FF01E001F09C
:103E7000A3F801200D9002F09FFAFDF7EEFB734EC0
:103E8000734CB87990B1787A022808D0012803D110
:103E9000FEF79CF90020787201F0F6FE04E0A08B9A
:103EA00000F0C6FD002078720020B871FFF7BCF961
:103EB000E08CA18C0818218D4018618D4018A18DCF
:103EC0004018E18D4018001D4008E061E87858B1C5
:103ED0005420285A0B99695A00914B086021C82236
:103EE00000F088FE0A9968525423F85A59498842CA
:103EF0000AD32724395D002901D000F004FD56497A
:103F0000884201D300F020FDF88F54498842504C7C
:103F100010933ED340203D5E2846FDF7E2F950491C
:103F2000FDF769F901466068FDF70CF960604D48DE
:103F3000007803280DD002281AD001283E4D109B8E
:103F400025D12E20395C40F26710993008430221B8
:103F500019E06820385A44494143090C401A400886
:103F600040180009C1B23748D6300843012108E0A3
:103F7000A8B2C0B229214143C80A40F200614018EA
:103F80000C992D4D109B374A11703849088000203C
:103F9000F8873878002800D11CE1E0690C9990FB83
:103FA000F1F1E160387F00B3A06915281CD3206AC5
:103FB000FFF74EF9E16840F2D072914211D24A08FF
:103FC00090420ED9232000213954288F40080A9AA4
:103FD000B852A1610120E8752549E160F87D401CD7
:103FE000F87500203877109B2162EB5A20200E9044
:103FF0003C5CFF2005061F490C390A68AA43ECB354
:10400000332B3BD30A601B4A10681B49084044F21B
:104010000001084310601046083800684021014341
:10402000BF2037E089060020536B79737461727387
:104030002034354100000000000000206004002012
:10404000007C00082A0300008813000024100040B0
:10405000DC04002011270000419C0000214E0000DC
:104060000000B443C5030020AF470000C603002092
:104070001027000014E400E0FF00FFFF01239B076E
:10408000D2180A60F34A1168F34B194011601146C7
:10409000083909688143104608380160B87FEF4D40
:1040A000A8B1787998B9EE484068FDF725F903463C
:1040B00040203A5A6820395A2E20385C6E243C5BE6
:1040C000009400F079FC01F07BFC0020B877787F49
:1040D000401C7877C0B2652800D2B9E0FDF7B4F98A
:1040E0007020385A48F20001E8314143080BDD499D
:1040F000081A2B2190FBF1F019307224385301205B
:10410000FDF7E8FD385D2E2178542121785C4400CC
:10411000D54D2A5B5A23FB5A2B53441CE5B2002091
:10412000312D054600D825467D54CD490969891AA7
:10413000C91832220991B1FBF2F34822BB5268241C
:104140003A5B072555437422BA5A3946C74F7A431A
:10415000C74EB2FBF6F2C14E767C56436422B6FBE4
:10416000F2F25219D2080A539BB25F4340F234353F
:10417000B7FBF5F448F200052C4200D0044640207D
:104180000C52B748099C04618360887C0028B34DB9
:104190000F46B84E5AD090B2698C814254D9B88F2C
:1041A000401CB8872421795CB34A514340F2E8327D
:1041B000891880B2814249DA00240F983C52FDF7F9
:1041C0009FFD00F045FD4A203C5223203C5427200F
:1041D0003C543BE04620385A43424341A26940F2F6
:1041E000E8318A420D9908D90023642A0D9A09D929
:1041F000C8280D9C0AD259B10CE019460023642A44
:104200000D9AF5D81A46C8280D9CF4D31C4609B956
:10421000224002D0222100227A54B97B109B21B186
:104220009F2802D8222100227A54397E00298C4C02
:1042300000D1FBE140F267112931884200D3ACE69E
:10424000222000213954A8E60020B8870020787782
:10425000252000233B542422B85C002800D1A8E08C
:104260000F98385A312800D216E12721795C0029AD
:1042700000D111E1882800D95EE1787C70B17F4AD5
:10428000106801218843106000F0E2FC00247C48A3
:10429000046044608460FDF76FFD7C746022B85A4E
:1042A000297F002900D182E2411E08B2002840F295
:1042B000671000D40846B85262217A5A521E13B2CF
:1042C000002B40F2671300D413467B526421795AC5
:1042D0004A1E11B2002940F2671100D4114664222F
:1042E0001092B95252265D4DA95B0E9600B2400065
:1042F000644A105E08180B9AA95A1446414340F2CA
:10430000D07091FBF0F0697A41430A20099091FB4B
:10431000F0F080B202F056F8A85B6221795E4900A5
:10432000584A515E4018295B2646414340F2D070FE
:1043300091FBF0F0697A4143099C91FBF4F080B263
:1043400002F046F80E98285A1099795E49004D4AB5
:10435000515E4018A95B414340F2D07091FBF0F0F0
:10436000697A414391FBF4F080B202F037F80F987C
:10437000385A297A444AB2FBF1F20092434AB2FB1E
:10438000F1F33021782200F035FC5024285380B21C
:10439000FEF750FA285B40F26711F131B1FBF0F003
:1043A0006E217852334E387800282D4C00D0F6E13B
:1043B00067E52324385D2A49C969354A92FBF1F142
:1043C00041436E20395288B232494843C00C7621AD
:1043D0007852297C79B10F996B5A4A216A5A48213F
:1043E000695A1E4D089EAD5B224E00951B4D00F094
:1043F00001FC462168522E20385CAA7990420BD9E4
:104400000899695A012300934B0811460A390A3268
:1044100000F0F0FB462168522C20385C58B10F9810
:10442000385A0E99009140F2D0722F322F21022378
:1044300000F0E0FBE8710A488069632810984ED8C4
:10444000295A40F267108D30814248D90C206429E6
:1044500054D354E014E400E0FF00FFFF000000200C
:10446000DC040020DC37000026080020E40C0000FB
:10447000FF0F0000241000407CFCFFFF0C440140B3
:10448000342C0140EA0000202A030000581B0000E1
:10449000C0270900CDCC000001267E74387B00289F
:1044A00000D1C8E00B98285AA97A4900411813395D
:1044B0005022B9520A9AAA5A89B25143B1FBF0F17B
:1044C000401A401C6C2578531C4600F0D5FD785BE3
:1044D000E74DE849086048608860FE77B2E0E6484A
:1044E000C0680C21009140F20012F43264210323D1
:1044F00000F080FB1099695A642900D20220687686
:104500003068DE49884200D243E1385D012800D09E
:104510003FE12220395C491C395400F099FB2B46BD
:104520000121E9750F98385A3028079100D392E09D
:1045300000203855D24890E001200690787460241D
:10454000385B297F002907930292099400D149E141
:10455000411E08B2002840F2671000D408463853C4
:1045600062217A5A521E13B2002B40F2671300D414
:1045700013467B526421795A4A1E11B2002940F237
:10458000671100D4114664220592B9525226A95BE4
:10459000049600B24000BB4A105E08180B9AA95A54
:1045A0001446414340F2D07091FBF0F0697A4143E8
:1045B0000A20039091FBF0F080B201F003FFA85BAA
:1045C0006221795E4900AF4A515E4018295B264658
:1045D000414340F2D07091FBF0F0697A4143039C73
:1045E00091FBF4F080B201F0F3FE0498285A05998B
:1045F000795E4900EE4A515E4018A95B414340F2A2
:10460000D07091FBF0F0697A414391FBF4F080B2F5
:1046100001F0E4FE0F98385AC82800D8AFE0079898
:10462000099C385350202852DB4EACE0952800D925
:10463000B9E06420B8E0D9480360436083601C4659
:10464000FDF75EFBD44E6E203C5238780028D64CE5
:1046500000D0A4E015E41098185A0024D24EB4619A
:10466000CD4D29685C220692B9520C9A504389B20A
:1046700040188108109A995209942C6089B29A7E48
:10468000B1FBF2F1C008401A5222B852716180B2F7
:10469000B1690A2914D22968C1490862BB4A0E9C33
:1046A000105D117F0129079D17D1401C1055C1B223
:1046B000072903D3B54805553D772846284016E01D
:1046C00029688142E8D229688142E5D2296881427D
:1046D000E2D229688142F3D3DEE7411E1155080674
:1046E00003D10621A94801553D7728468843A749AB
:1046F000C876EFF3108072B6F87F18B9A348005D52
:10470000FDF7E6FB62B6FDF77FFBF97C481E8141B1
:10471000787B00280D9800D10846012807D1A249CE
:10472000C96840F2D072914201D99849CD752B21C8
:10473000099A7A542D217A5426217A549A4EB169D5
:10474000491CB161069ABA5A904D2B5D5B009B19CA
:104750005A8440B11429904E10981AD3285A95497A
:10476000884203D315E01F298B4E12D30998E875B0
:10477000FEF750FA38788C4C88B9FFF782FB50204E
:10478000285A854E099CFEF755F8385B0028109989
:1047900045D038780028844C01D1FFF772FB00F037
:1047A00025FEFFF76EFB0A20A874FFF7F6FB431CFB
:1047B00018B2002140F26715A842084600DC1846EE
:1047C000B8526222BB5A5B1C1CB2AC420C4600DCE5
:1047D0001C46BC526422BA5A521C13B2AB4200DCD3
:1047E0007CE57CE5411C08B240F26714A042184603
:1047F0001E4600DC08460999785262217A5A521CFA
:1048000013B2A342334600DC13467B526421795A2B
:104810004A1C11B2A142314600DCB3E6B3E62320C4
:10482000069B3B54079A02983A5459486852EB75D4
:104830005D4C2062E0603060FA771420A061787BE4
:1048400018B14020285A0A997852287E297F0129D8
:104850001AD1401C0E996854C1B2072904D30E988E
:1048600006992954397708460699084018E0C04649
:1048700000000020342C0140DC040020C9AF0000FF
:1048800088130000EA000020411E0E9829540806F3
:1048900004D106210E982954069838770698884343
:1048A000E876EFF3108072B6F87F18B90E98285C9E
:1048B000FDF70EFB62B6FDF7A7FAF87C411E8841B2
:1048C000797B00290D9900D101460129079A06D16B
:1048D000E06840F2D071884201D90698E8752B2033
:1048E0003A542D203A545C20385A0E99695C49009C
:1048F00009194884FEF7A6FC387800282A4C00D015
:104900004DE7FFF7BEFAFDF7FBF9002038552821E7
:1049100078540F9978524A217852204908604860AB
:10492000886000F05BFD214840F20011FCF7FFFBBE
:10493000BFF34F8F17481B490860BFF34F8F00BF6D
:1049400000BF00BF00BFFAE7FDF7DAF900203855D5
:10495000282178540F9978524A2178520F490860DB
:104960004860886000F03AFD104840F20011FCF702
:10497000DEFBBFF34F8F07480A490860BFF34F8F34
:1049800000BF00BF00BF00BFFAE7C0460000002024
:10499000282300000400FA0524100040342C0140B4
:1049A0000C4401400CED00E0DC04002088050020F0
:1049B000EA000020D1070000F0B583B01E4615467E
:1049C0000346194C089802902072A6712271A170BA
:1049D0002370000A0190E071300A00906071120AA1
:1049E000E270080A6070114FFB5C4340D8B2385C3B
:1049F0004840C0B2385C5040C0B2385C6840C0B279
:104A0000385C00994840C0B2385C7040C0B2385C35
:104A100001994840C0B2385C02994840C0B2385C45
:104A2000607203B0F0BDC046120500202676000873
:104A3000F0B584B0694BDD8815B10020D88014E052
:104A40006749097801B96748C10B09D14CF20001E7
:104A5000014044F20002914200D091E0062100E0C2
:104A600007211961C8404D0205435F480078800066
:104A700002905E490C1880236360290A5C48405C00
:104A80000190C20018469043A0602F097940694008
:104A90000F2603968E4329018919504A51610199C5
:104AA0000A011A404240E260C803009003980740A0
:104AB0004F49C85D0F460190810200980143039859
:104AC0000540785D3D46039047010F43AE5D3D468E
:104AD000354342488561880A1840504020614A0A9F
:104AE0001A4042406261080A18405040A061019A91
:104AF000D10019404140E16112011A404A4022624E
:104B00007F20C043024079091940514061623A094F
:104B10001A404A40A262F90819405140E162039FDD
:104B2000FA001A404A40226339011940514061633A
:104B30002A461A404A40A263024069001940514087
:104B4000E163AA001A404A4022640021274D029FD7
:104B5000E951F10019405140616432011A404A4064
:104B6000A264710119405140E164B2011A404A4007
:104B700022650240F001C0B25040606504B0F0BD53
:104B80004EF20001014042F20002914201D10521A2
:104B900067E74FF20001014041F20002914201D16A
:104BA00004215EE74FF60001014040F60002914209
:104BB00001D1032155E74FF60041014040F2004288
:104BC000914201D102214CE74FF60061014040F2D1
:104BD00000228A1A5142514143E7C046C0030020D7
:104BE00083040020FFFF0000410400208C07002008
:104BF00016760008F0B5059C88421EDD0F461D465E
:104C0000264682421EDD1346974210DCB5421BD079
:104C100071194C10D9194A10974217D08242EFDA15
:104C2000511C1A46234634468142E7DB05E019460B
:104C30003A4633462C468142E0DB824200DC234682
:104C40001846F0BD3046F0BD2846F0BD2046F0BD08
:104C50000120400502490A6882430A6048617047A2
:104C600000040140B0B542B2002A05D40323144623
:104C70009C43104BE31803E00C2313400C4C1B190E
:104C80009407E40E8907090EA140FF25A5401C6882
:104C9000AC430C431C60002A09D41F2101400122AF
:104CA0008A40C00804494018032188430260B0BD0F
:104CB00014ED00E000E400E000E100E0034A0A40F7
:104CC000024303480260BFF34F8F704780FFFF1F0E
:104CD00008ED00E0F0B581B0D44DD5486860EFF341
:104CE000108072B6D3480078E86028616861792640
:104CF00014270A24B61EFEF797FAB6FBF7F0FDF765
:104D0000E7F870080A3028602046FDF7A3FD022E60
:104D1000F0D8FCF7F5FF00202860C7490880C74895
:104D20000088686062B601B0F0BDC046F0B581B0E1
:104D30000320FDF7CDF800253227BF4E009503E094
:104D40006D1CBF1CAE2F41D2FEF76EFA009830806A
:104D50002648C1198878FF28F2D0C97839B30A22C9
:104D6000B24C2260F7224A4340F6A0715118204A03
:104D7000B2FBF1F11F4AB2FBF1F26260AD4B1B785E
:104D80005343AB4AB3FBF2F2E26022616261EAB2E2
:104D9000FE2353431818184AB2FBF1F14143642033
:104DA000B1FBF0F080B2FDF755FD0025C9E73446B0
:104DB00000269E49CE600E614E61E9B2FE224A4352
:104DC0001018FDF747FD35462646BAE7FCF798FF71
:104DD000002096490860308098480088486001B0FB
:104DE000F0BC01BC8646FEF71FBAC046890600200B
:104DF0008096980000DD6D00A086010010B5EFF3ED
:104E0000108072B6894C8A4860608A480078E060F9
:104E1000206160610120FDF75BF82820206040F2EE
:104E20002C10FDF717FD0220FDF752F81E20206020
:104E300040F22C10FDF70EFD0320FDF749F8192074
:104E4000206040F22C10FDF705FD0420FDF740F82E
:104E50001420206040F22C10FDF7FCFCFCF750FF02
:104E6000002020607449088074480088606062B641
:104E700010BDC046B0B56D4D6D48686028202860F3
:104E80006C480078E860286168610220FDF720F82E
:104E900096242046FDF7DEFCFEF7C6F95020286078
:104EA0002046FDF7D7FCFCF72BFF00202860624965
:104EB0000880624800886860B0BDC046B0B55B4DF0
:104EC0005B486860322028605A480078E8602861B2
:104ED00068610220FCF7FCFF96242046FDF7BAFC2F
:104EE000FEF7A2F91E2028602046FDF7B3FCFCF770
:104EF00007FF0020286050490880504800886860FB
:104F0000B0BDC046B0B5EFF3108072B6474D48480B
:104F10006860FEF789F95020286046480078E8600C
:104F2000286168610320FCF7D3FF64242046FDF765
:104F300091FC462028602046FDF78CFC2820286044
:104F40002046FDF787FCFCF7DBFE002028603A498D
:104F500008803A480088686062B6B0BDB0B5334D8D
:104F600033486860EFF3108072B6FEF75DF93C20BD
:104F7000286030480078E860286168610120FCF70B
:104F8000A7FF4B242046FDF765FC502028602046F3
:104F9000FDF760FC5A202860FEF746F92046FDF731
:104FA00059FCFCF7ADFE0020286023490880234807
:104FB0000088686062B6B0BDB0B5EFF3108072B61D
:104FC00019480078194DFF2802D0FFF7AFFE25E001
:104FD0001748686017480078E86028616861032016
:104FE000FCF776FF37202860C8242046FDF732FC06
:104FF0000520FCF76DFF282028602046FDF72AFCDD
:105000000620FCF765FF192028602046FDF722FCEA
:10501000FCF776FE084800210180296007480088D7
:10502000686062B6B0BDC046807C0008282C014094
:10503000B80B00001C050020B40400204400002030
:1050400010B50B4C607A02280AD0012803D1FDF775
:10505000BDF80020607210BC01BC864600F014BE92
:105060000448808BFFF7E4FC0020607210BDC0464E
:1050700060040020DC04002010B503221105092083
:10508000C00603688B4301210C051B19036040F225
:1050900000438362930404689C438B04E318036019
:1050A00040F2002383621204036893430A049A18AF
:1050B000026040F2001282620A4A136808241C430C
:1050C00004239C431460136802241C438C43146023
:1050D00001684CF20002914348F200028918016015
:1050E00010BDC04600040048F0B581B001465B4ADF
:1050F00010680C2404405A4B082C1C461BD1106825
:105100008002000F0F2804D0841C15682D0104D4E0
:1051100005E0102415682D0101D5113004461068F2
:10512000C00301D44F4805E0906A0F250540681C74
:10513000B3FBF0F04443156813681068052920D8C4
:1051400000932D062D0F48A77F5D2546FD40800466
:10515000400F494F3B5C2846D8408B0001A6F3180E
:105160009F46C04600F00AB800F00EB800F00FB835
:1051700000F033B800F013B800F01AB8204601B0C0
:10518000F0BD002001B0F0BD284601B0F0BD009890
:105190004005400F385CC540284601B0F0BDD16ADB
:1051A000C9051CD4D06AC0032FD5354801B0F0BD65
:1051B000D16A890711D0D06A03210840012820460E
:1051C0000BD0D36A0B4048F20000022B05D0D06A06
:1051D00008400328224800D0002001B0F0BD136829
:1051E000D16A1A04920F930001A4E3189F46C046A7
:1051F00000F006B800F00CB800F00FB800F014B8DA
:10520000002916D4400801B0F0BD1C4801B0F0BD23
:10521000002913D4800801B0F0BD002913D4062161
:10522000B0FBF1F001B0F0BD002911D4C00801B00D
:10523000F0BD0320B5FBF0F001B0F0BD0520B5FBDB
:10524000F0F001B0F0BD0720B5FBF0F001B0F0BD0B
:105250000920B5FBF0F001B0F0BDC04604100240DB
:1052600000127A0000093D0000000000000000006C
:1052700001020304060708090E760008809FD50086
:10528000003FAB011F21014001228A4080091149E2
:1052900043589343435070471F21014001228A40E5
:1052A00080090C4943581343435070471F21014064
:1052B00001228A408009074943589343435070476D
:1052C0001F21014001228A408009024943581343AB
:1052D0004350704700100240F0B5012A23DB03243D
:1052E00013462340551E032D01D200240EE0A24395
:1052F00000240D5D055505190E1977786F70B77884
:10530000AF70F678EE70241DA242F2D15BB1625C00
:105310000255012B07D0621C555C8554022B02D02C
:10532000A21C515C8154F0BD054840214160054AF2
:1053300013680B431360016801220A43026070473F
:10534000300002400838014070B51A480168022256
:105350001143016001689143016017480146083913
:10536000164A0A600A2101601549097881601549C9
:10537000C16002460C3A136801210B4313600022FE
:105380004260114B114CDC60114C24785C60044687
:10539000143C256840F200262E43266004680C4326
:1053A0000460203804680C4304600A4802700A480C
:1053B000186070BD10100240200400400170000011
:1053C000E0000020FFFF00004400024088050020AC
:1053D00060000020400400208B09000002480021EA
:1053E000416001607047C04624040040F0B587B0BA
:1053F0004422E24B985AC6494143090D401A06908F
:1054000086B2E04F38790592E8B32724395DF87AFF
:10541000049439B330B34620385A00963025BD4A3B
:10542000002729463B46FFF7E5FB0446D548008E9A
:1054300000962946B74A3B46D24FFFF7DBFB85B2C1
:10544000A4B2281940080699081A80B200F0C0FFDB
:105450002046049C00F0B6FF284600F0BFFFC74B73
:10546000395DF87A421E90414A424A41024300D0D7
:105470004CE11C7FFCF744FC0A20FDF7DBF9C4B1CA
:1054800001F0C6FE17E039464627C85B897E002931
:1054900000D0BFE0312800D2BCE01C7FFCF730FC1C
:1054A0000A20FDF7C7F9002C00D1ADE001F0B0FEF5
:1054B000ACE001F0EFFE46200290385A009630240E
:1054C000944A002521462B46FFF794FB0390388E23
:1054D000009621468F4A01952B46FFF78BFB044629
:1054E0002E20385CA54A91798842069B0BD9059BF2
:1054F000D25A0123009353080A461432FFF77AFB6D
:105500009E4A034686B202981352A0B2B042194690
:105510004ED9039CA0B2B0424FD99A4FB87D002813
:1055200050D00C4606934020385E6321C943D28C8C
:105530004A431018784988620A6C831A0D6B4A6BCB
:105540008E6B5A43CA6308644543AB198D6CAB42FA
:1055500000DB2B466D42AB4200DC2B468B63D2183E
:10556000CB6A58431018CA6C904200DB1046524276
:10557000904200DC10464864FBF7B3FE6749FBF736
:105580003AFEFBF7B9FE7D4B998E091A0AB2D88F05
:10559000824200DB0846988602B2A1B291420146DF
:1055A00000DC2146069CA3B293420CDC20460AE0B4
:1055B0002146039CA0B2B042AFD82346714FB87DBC
:1055C0000028AED118468CB2621E214691410204D9
:1055D00000D0012101290FD10499795C61B180B219
:1055E00000F0F0FE002000F0F3FE204607B0F0BC13
:1055F00002BC8E4600F0F2BE49480199016041604C
:105600008160B97607B0F0BD01F044FE01205D492C
:105610008876C85B009630213E4A00252B46FFF76E
:10562000E9FA564A04462E205649085C9179884288
:10563000069B07D8D353A0B2B04213D9514FB87DBF
:10564000A0B952E0059BD25A0123009353080A46A1
:105650001432FFF7CFFA494A034686B2D353A0B2B9
:10566000B042EBD82346474FB87DF0B306934020B5
:10567000385E6321C943D28C4A4310182649886298
:105680000A6C831A0C6B4A6B8E6B5A43CA630864AC
:105690004443A3198C6CA34200DB23466442A3421B
:1056A00000DC23468B63D218CB6A58431018CA6CAF
:1056B000904200DB10465242904200DC10464864A3
:1056C000FBF70FFE1549FBF796FDFBF715FE2B4B7D
:1056D000998E091A0AB2D88F824200DB0846988652
:1056E00001B2069B9AB28A4200DC184601040C49BA
:1056F00008D02722BA5C2AB180B20860486088606E
:1057000007B0F0BD0D604D608D60BD7607B0F0BD97
:10571000CDCC0000FF0700006800002000401C46C0
:10572000342C014090B415494A7815484270CA7922
:10573000C275144A937A5B1E5C425C414474D37A0E
:105740005B1E5C425C418474927B521E5342534107
:10575000C3748A78521E534253410375CA78521E4D
:105760005342534143750979491E4A424A41827561
:10577000054A40F2001190BC00F008B8000000207B
:105780008906002060040020007C0008F0B503AF0B
:105790008BB06E46F51D1D3532620C46F061C817A0
:1057A000800F0B180320194670618143C91D072221
:1057B00091436A46501A99108546B0613161FBF7F2
:1057C000B6FC042C346A00DA81E03169084673695A
:1057D0001840F060481E0328B56001D2002138E06F
:1057E0009943716100231946F569E818C2781206D9
:1057F00084782404A218447824021219EC5C12194B
:10580000B569EA50C279120684792404A218447951
:105810002402121904791419EA185460C47A24066F
:10582000857A2D042C19457A2D026419057A64199C
:105830009460C47B2406857B2D042C19457B2D02A6
:105840006419007B2018D0601033091D70698842EC
:10585000CAD1F0680028B568346AF06937D0890089
:105860004018C278120683781B049A18F3694078AE
:10587000000210185A5C8018B2695050F068012874
:1058800025D0081D70601A18D3781B0673619378B1
:105890001B0470691B18527812029A18F369706819
:1058A0001B5CD218B3691A50F369F06802280ED055
:1058B00008315818C278120683781B049A18407869
:1058C00000021018F269525C8018B26950503069B9
:1058D0006860FDF74BFBA00502D12046FDF784FA76
:1058E00000202860286869688842B36918D234208B
:1058F000F0612868296889005958800000192C46F1
:105900001D46FDF743FBF069FDF762FA2B4625467D
:10591000346A2868401C2860286869688842E8D38F
:10592000FC1F053CA546F0BC01BC8646FDF754BAF9
:10593000B0B51C480168022211430160016891431F
:10594000016019480146083960220A60032101609C
:105950001649097881606421C16002460C3A1368D7
:1059600001210B431360124B124ADA60124A547839
:1059700017345C60114C1C600346143B1C6840F2F9
:10598000002525431D6003680B430360436A48F20A
:1059900000041C4344621170203802680A4302600C
:1059A000B0BDC04610100240200400404A04002050
:1059B000440002408C070020400400209B090000A6
:1059C000B0B50F4C0021204601F0E8FC082120462C
:1059D00001F0ECFC01252846FDF76AF8094800783B
:1059E000094908608021204601F0C2FC2846FDF7E5
:1059F00067F804212046B0BC04BC964601F0CEBC3A
:105A000000380140E800002020000240F0B583B0DB
:105A10008F484178012904D1407E002800D0C3E09E
:105A2000AFE08A1ED4B2651C03232A461A40032C19
:105A300002D2831C002412E09D43831C0024854E67
:105A40001F786740F45D5F786740F45D9F7867403A
:105A5000F45DDF786740F45D1B1D2D1FF0D16AB146
:105A60001E7866407B4DAC5D012A07D05E786640AB
:105A7000AC5D022A02D09A786240AC5C427E9442CD
:105A800000D091E018297CD1C17804796207520DC9
:105A9000521871498A800A4640F20073E033457912
:105AA0006E011E40E4083419CC80AC098579AD0044
:105AB0002C19C579EE07760D34190C8140F200746B
:105AC0008034067AF70127406D087D194D8140F238
:105AD0000075F035477A01463801284036098019AB
:105AE0009081F8098E7A76003018CE7AB7077F0D4C
:105AF0003818D08140F20072C0320292087B8701D0
:105B00001740B608BE19544A168240094E7BF6006B
:105B100030185082887BCE7B77077F0D38189082B3
:105B2000087C47011F40F308FB18D38280094B7C97
:105B30009B0018188B7CDE07760D30181083C87C0C
:105B4000C60126405B08F31853830B7D1C012C40D3
:105B5000000920189083D8094B7D5B0018188B7DB5
:105B60009C07640D2018D083C87D44090D7EED008C
:105B70002C19548417468001029908409A0880180D
:105B80003884364800784000334D281880883449DE
:105B90000978344C71B140F2D531411A0F290DD238
:105BA00040F20040183811E02B480168491C0160A0
:105BB00003B0F0BDAF2816D200201CE02146BE3154
:105BC0000091AE2100232246FFF714F826490880F1
:105BD000264800784000281880882146BE31009170
:105BE000AE21002313E02146ED310091AE21302398
:105BF0002246FEF7FFFF1C4908801C480078400041
:105C0000281880882146ED310091AE2130232246AC
:105C1000FEF7F0FF16490880164801210170164969
:105C20000020088015490A781549002A024605D047
:105C3000144B1B8843B1088003B0F0BD0A88521C86
:105C4000104B1B88002BF6D11046088003B0F0BD26
:105C50001D0500200E7500081C04002062040020B1
:105C60006B04002012070000AE0400206304002033
:105C70009004002066040020B40400208704002063
:105C8000AA040020A6040020F0B587B0E24EF07A06
:105C900028B12927F05D38B14E20305AEDE04E2072
:105CA000305A4621705270E14E25705BF6498B7B6D
:105CB000590040F2E8340919F27C0695C2B18142DC
:105CC0005CD2F14A127FB57AAA4243D105974627A2
:105CD00000252C46F5530127F777357D002D4AD056
:105CE000F477BA1AE84B1A77059F40F2E83433E0AC
:105CF00001228142049200D3A3E0E34A127FB37AE7
:105D00009A4200D092E02420305C431E98415023F8
:105D1000F35AC82B049B00D303465424DA4D2C5B62
:105D2000ED8EAC4200D80346012B069D79D1D748B1
:105D3000002484610120D449C875801A0877FEF7D1
:105D400087FFB476705BD049897B490040F2E83424
:105D500009196BE0F27F8AB900223275CC4A0092B1
:105D60002F3A2F23FEF746FF462170520698305AED
:105D7000C5498B7B02E0059F40F2E8340125E943E9
:105D800059430A19824230D90597B47A01273E1B3C
:105D9000BD49097F8E4211D1049446210024B94E99
:105DA00003947452F777317DE1B10399F177B649E5
:105DB000049B0B77059F40F2E83405E0B14EF17F7C
:105DC000059F40F2E83481B9002131752F230093FB
:105DD000AF4BFEF70FFF462170520698305AAA4982
:105DE0008B7B02E0059F40F2E8345B00191900222A
:105DF0008142294605D2E31A834206D90D4307D0D2
:105E000037E01146E31A8342F8D815460D4330D1E6
:105E100046220021B152F27F5AB301223275F17746
:105E200027E040F2E830705340F2E834984A00929C
:105E30002F3A2F23FEF7DEFE46217052705B924907
:105E40008B7B01210391CD43294659430A19824294
:105E500000D9E3E059000A19824200D3BDE1611A7A
:105E60008142049900D8BFE119B94621002272523B
:105E7000B276F15D002900D187E040F2E83340F2CC
:105E8000E8312F3188423CD97F4D297FB27A914247
:105E90002FD12420305C421E90415422AA5AEC8E0D
:105EA00001230027A2421A4614D95024345BC82C7F
:105EB00015D21A400243012A16D174480024846185
:105EC0000120E875401A2877FEF7C2FEB4764E200E
:105ED000305A0CE03A465024345BC82CE9D33B4698
:105EE0001A400243012AE8D04E210020705240F2AD
:105EF000E833297D4200511A40F60102891A4622F0
:105F0000B1520146303989B2994238D2B17A012270
:105F1000531A5D4C257FAB422BD12420305C431EAD
:105F200098415423E35AE78E0025BB42134613D908
:105F30005027F75BC82F14D213400343012B15D110
:105F400021770120E075514800258561FEF780FE2C
:105F5000B5764E20305A0CE02B465027F75BC82F01
:105F6000EAD32A4613400343012BE9D04E210020F7
:105F70007052217D4200511A31394622B1522F28E8
:105F800003D8462000213152B176307808B107B0ED
:105F9000F0BD2224305D3C4DA97C88420BD9287984
:105FA00048B1FBF7ADFEFEF753FE662030554C209E
:105FB00000213152A1E0B07B38B14624305B1D286E
:105FC00025D84C210022725288E0707D002800D133
:105FD0008FE0707800285DD04624305BA96DEB6DB2
:105FE00000912F21ED4AFEF705FEEE4991FBF0F0FE
:105FF000297A490890FBF1F07087305B2E2849D848
:106000004C2000213152EA480160B16775E01E283A
:1060100056D11E2062E0C04660040020B17A012300
:106020000291591ADC4C247FA14200D0BBE00597B5
:106030002420305C411E88415021715AC82904999E
:1060400000D301465424D44F3C5BFF8EBC4200D8A1
:1060500001460129059F00D0A9E0CF4902980877A1
:10606000CB75CF4800248461FEF7F2FDB476069B21
:10607000F05AC949897B4D4340F2E8342A191D463C
:106080009BE0C0466004002000000020DC040020EB
:10609000FF070000B46FC44D20462946FBF7F7F810
:1060A0000028204600D12846FBF726F94C257053DE
:1060B000BE492046FBF7F9F8F8B9302070531CE0D0
:1060C000697B14224A43824208D9A02100911E21F3
:1060D0002F23FEF78FFD4C217052305B6A7B142119
:1060E0005143814209D8AD4A0092A023FEF782FDB8
:1060F00001E04620305A4C2170522425705D002862
:1061000000D044E74C24305BB17B50273A464A43E9
:106110002F32824228D82720305C28B306942324CB
:10612000305D68B9FBF7ECFDDE49C87D10B900F0C1
:1061300065F9DC4901203055088F42217052B17B4E
:106140000698305A4424D74B1A5BDB8F009209B172
:10615000892100E02F21914AFEF74CFD3053F07C5D
:10616000069C08B90020F077305BB17B4F432F3796
:106170008742CC4F00D8D0E0F07E052841D881007E
:1061800001A251188F46C04600F03DB800F008B893
:1061900000F02FB800F030B800F031B800F000B8CF
:1061A000FEF78CFE2DE040F2E834069D05E040F25B
:1061B000E830069D705340F2E8342F210091002111
:1061C000764BFEF717FD46217052705BB5498B7B0D
:1061D00059000A19824200D241E600220392611A54
:1061E0008142049900D93FE60399002900D13CE699
:1061F0003FE6FEF73FFE04E0FEF76CFD01E0FEF730
:10620000ADFE0020F076B878E0B127462320305C60
:1062100000283FD02020A34A105C3C214143508DF0
:1062200040183C3801B240F26712914202DD40F260
:106230006811401A6021705202B25E49782A11DC5E
:10624000EF2311E04425002070532321715C0029C5
:1062500041D1954988610120F875307BB8B3FCF7CE
:106260005BFF38E00B46EF331B1864243353F02AEE
:1062700001DC772100E077313C460818622170523A
:10628000B07B0128874F01D10120705544200021A7
:10629000315242E02620002131548348816101249B
:1062A0008048C475307B78B1B07B0028B2D14420DF
:1062B0007C49085A897A4900401813385E21705287
:1062C000FEF7DAFEF477A5E7FBF71AFDA2E7F07F09
:1062D00008B9FBF715FDF07FF17CF9B1F0B1274665
:1062E0004E20315A40F2E83440F2E830FCF7B0FF7B
:1062F0006C49495B0019484340F2D07290FBF2F0C0
:106300005E22B05280B2491E884202DAFEF7B4FE25
:1063100001E0FCF701FF3C46624FF07F002800D00F
:1063200035E6335B2F2B11D3707B1421C1405E48BF
:10633000806988420AD24420315A3A8F914201D270
:1063400032521146BA8F914200D932524620385A01
:106350004427F55B854201D9F0530546B07D06938D
:1063600030B134204F49085E854201DD85B2F553D6
:106370004D48046800212046FAF77BFF002800D032
:1063800005E60698302800D201E62046FAF7B4FF69
:106390002818F05307B0F0BD00000020FF070000F0
:1063A000DC0400200087930300E0FF44000040422B
:1063B0006800002098FEFFFF704802210122102390
:1063C000FCF7F0BF014908607047C046342C01401B
:1063D000014908607047C046382C014001490860F7
:1063E0007047C0463C2C01400B2800D30B204000D6
:1063F000014908707047C0461C050020F0B581B007
:106400002325274C605D002844D12026254FB85D08
:10641000397F01290AD1401CB855C1B2072902D3DE
:106420000120B85520770121014009E0401EB855F0
:10643000010603D10620B8550121217701218143AE
:10644000F976EFF3108072B6E07F10B9B85DFBF714
:106450003FFD62B6FBF7D8FCE07C617B014312484C
:1064600005D0C168114A914201D30121F9752B2150
:10647000002262542D21625454210D4A7A52B95D92
:106480000C4A0D4B1360012262555C22A25A49004E
:106490000818428401B0F0BC01BC8646FCF7BABBC8
:1064A0006004002000000020DC040020D107000070
:1064B000102700002410004088130000F0B587B0BA
:1064C00040F200501230FEF7E7FE40F20050FEF7B7
:1064D000E3FE2948FEF7E0FE01242046FCF708FB16
:1064E000264F00264025384631462A46FCF7C2FE94
:1064F0000221384632462B46FCF754FF38463146D7
:1065000022462B46FDF754F86F463846FCF778FBD9
:10651000BC7640F200103883194802900396194D5A
:106520002846283000900596019617480078049078
:1065300020463946FCF7F2FA2046FCF7C9FA8021DA
:10654000284600F015FF2046FCF7BAFA284600F06E
:106550001CFFE1204102284600F0DCFE0421284611
:1065600000F01CFF0821284600F020FF284600F01C
:1065700007FF07B0F0BDC0460E060000000400484B
:106580001205002000380140E8000020F0B587B077
:106590004426E94FB85B50257853F88F401CF887A4
:1065A000F88E401CF886388F401C3887788E401C47
:1065B0007886282006902724385D002849D1787EE7
:1065C000002846D10698385C002842D04620385A28
:1065D00018B16620002139523BE06620395A491C27
:1065E000395289B2D54A914233D34A21795A1F2967
:1065F00021D30395012004943855B87C01281FD17C
:106600006820385AF4494143C90C7976F34A538ECD
:106610004B4353844008B92814D300256424FEF763
:1066200071FC2046FCF716F9FCF7FEFD6D1C787E28
:106630008542F4D306E0002139522820395408E07D
:10664000FEF760FC2A20385C039D049C08B90020FA
:10665000F874F87B70B16A20395A491C3952DF4A04
:1066600052791423534389B28B4203D20021395209
:106670000120B8772420385C3978014300D0A4E1A8
:10668000049423200590D54CE07DF0B30598385C48
:10669000D8B3FEF7DDFAFCF7E0FDE17E71B170B131
:1066A00026203A5C521C3A54D0B2627F904212D8F3
:1066B0002B20385C48BB2D20385C13E018B12D200E
:1066C000385C401C08E026203A5C521C3A54D0B298
:1066D000627F90420BD900202D22B8542B22BA5C45
:1066E0009AB949B1A17FC0B2884209D80DE02B20E8
:1066F000385C50B92D20385CE17FC0B2884204D9A3
:106700002B200121395400F059FE388F152800D272
:10671000E1E00020009038870598395CB87D0028BA
:106720000395019143D0002941D04020385E632178
:10673000C943AA4AD28C4A431018A94988620A6CF4
:10674000831A0C6B4A6B8D6B5A43CA6308644443CB
:1067500063198C6CA34200DB23466442A34200DC35
:1067600023468B63D218CB6A58431018CA6C9042E8
:10677000039D00DB104652429042984C00DC1046CC
:106780004864FAF7AEFD9749FAF735FDFAF7B4FD1C
:10679000A18E091A0AB2E08F824200DB084602B2DB
:1067A0004221615A8A4200DC0146A1860199029683
:1067B000787B002843D0002941D054208749085ACB
:1067C000098D401A864908658A6E831A8C6DCA6DD8
:1067D0000D6E5A434A668866444363190C6FA342A0
:1067E00000DB23466442A34200DC23460B66D2183A
:1067F0004B6D584310184A6F904200DB10465242CE
:10680000904200DC1046C866FAF76BFD7549FAF74E
:10681000F2FC0146744C2068FAF794FC0646734D6E
:106820002946FAF750FD00B935462560002628466E
:106830003146FAF748FD039D019900B92660787D3D
:106840000028029E47D0002945D0788F6649C96943
:10685000081A634C2060A169421AA368E16825699F
:1068600051436161A06143435A19236A9A4200DB94
:106870001A465B429A4200DC1A4622618918626815
:1068800050430818616A884200DB08464942884242
:1068900000DC0846E061FAF724FD5249FAF7ABFC48
:1068A0000146B86FFAF74EFC0646514D2946FAF7F5
:1068B0000AFD00B935462846009E3146FAF7E7FC46
:1068C00000B92E46BE67484880696328029E039D32
:1068D00001D800202061414CE07B0028049B3ED081
:1068E000B88E798E814208D9002078864220385AA5
:1068F000952817D82146022424E020460024447518
:106900004220385A795B0A1AA24220DD00197853D6
:106910005420324C205A40F272118231884209D8F8
:1069200000211BE03049C96840F2F512914207D3BB
:106930000A2406E0012111E060040020214E00003D
:10694000069C26494C75795B0A1AA242DEDC421A83
:106950000021A24201DD001B7853204CA175F85C98
:1069600080B10599795C69B14C21795A302909D3F4
:106970007A5B4220215A10464843A35BB0FBF3F0F8
:10698000401C18E0F97F69B15E20385A4221615AF3
:106990004843A25BB0FBF2F0101A401C6C22B852C4
:1069A0007A5B0AE07A5B4221615A13464B43A45B4F
:1069B000B3FBF4F358436C23F8524223FA520D4AC6
:1069C000116080B29060D06010615420395A491C27
:1069D000395207B0F0BDC046890500000000002014
:1069E0006800002000401C46DC0400200000164324
:1069F00000E0FF442C2C014001688022914301609B
:106A00007047016880220A43026070470A884B88F9
:106A100013438A881A43CB8813430A891A434B8944
:106A20001343898919434164704700218181418161
:106A30000181C1808180418001807047022907D097
:106A400001290CD0A1B9016A0423994301620BE02A
:106A5000016A40F2004399430162120204E0016AB4
:106A60004023994301621201203001681143016003
:106A700070470021C18081800122428001807047DF
:106A800010B5032900D902E18B0001A4E3189F4649
:106A900000F006B800F08AB800F044B800F0C7B8BB
:106AA000036A01218B43036283690324A343836147
:106AB0001388046A1C430462036A0224A34303622A
:106AC0009388046A1C430462734BC3180A24E3418D
:106AD000072B00D9DBE09940E123194200D1D6E031
