:020000040800F2
:10100000900C0020D1100008D126000861180008BB
:1010100000000000000000000000000000000000D0
:10102000000000000000000000000000C9270008C8
:101030000000000000000000D3260008CB270008B5
:10104000E3100008E3100008E3100008E3100008B4
:10105000E3100008E3100008E31000084D18000832
:10106000E31000082D170008DD170008B916000866
:10107000A9140008E3100008E3100008E3100008BA
:101080002129000849290008E3100008E528000884
:10109000E3100008F9280008E3100008E310000836
:1010A000E3100008E3100008E310000865290008B9
:1010B000E3100008E3100008E31000080348854629
:1010C00000F0B4F9004800479D410008900C002052
:1010D0000448804704480047FEE7FEE7FEE7FEE7D6
:1010E000FEE7FEE7D5280008BD10000803460B43C5
:1010F0009B0703D009E008C9121F08C0042AFAD2CE
:1011000003E00B780370401C491C521EF9D2704753
:10111000D2B201E00270401C491EFBD2704700228F
:10112000F6E710B513460A4604461946FFF7F0FFE6
:10113000204610BDF8B502464A40D40F42004B008D
:1011400052085B089A4202D20246084611464A00FB
:1011500023D0C30D4A00DDB2120EAD1A202D35DAB0
:1011600049020126490AF6058A19002C00D052428C
:1011700020214F1B1146B9402A411018C20D9A4236
:1011800021D0002C17D0012D08DCDA05801AD20FEF
:101190008019D207DBB200F00FF9F8BDDA05801A2A
:1011A000012340001B06C01880185A428018CA0F3D
:1011B0001043490007E04908C2071143DA05801AC5
:1011C00080194008801800F0EFF8F8BD6100012296
:1011D000511A001BF7E70122D2075140AAE701226A
:1011E000D2075040A6E770B502464A40D50F4000EE
:1011F0004A00ED0740085208002814D0002A12D0F7
:10120000C40DD30D41020120C0055202490A520A01
:10121000E41A091812187D34914201D3641C00E0CD
:101220004900002C01DA002070BD0023914201D357
:10123000891A0343400849000028F7D100290AD041
:10124000914202D10121C90705E0914201D2012159
:1012500001E00121C943E005C018401900F0A4F8DD
:1012600070BD0122D207002800DB101A002900DB24
:10127000511A814201D80120704700207047012295
:10128000D207002800DB101A002900DB511A814226
:1012900001D201207047002070470122D2070028A8
:1012A00000DB101A002900DB511A814201D3012012
:1012B0007047002070470122D207002800DB101A77
:1012C000002900DB511A814201D90120704700201A
:1012D0007047C217C10F504010B54018CA07962377
:1012E000002100F069F810BDC20F41004002012347
:1012F000400ADB05D207090EC0187F2901DA002059
:101300007047962903DC9623591AC84001E09639A4
:101310008840002AF4D04042704770B50446002946
:1013200003D000202022012310E0002801D000205B
:10133000C043C046C0460DE02546D5408D4205D38A
:101340000D469540641B1D46954040191546521E9A
:10135000002DF1DC214670BD70B5002504462E46F7
:10136000002911D0002C01DA01254442002901DABC
:10137000012649422046FFF7D0FFB54200D0404247
:10138000002D00D0494270BD002C02DA0121C907AE
:1013900002E0002C00DD03490846C046C046214655
:1013A00070BD0000FFFFFF7F002904DA401C4900E8
:1013B00001D140084000704770B40024050C05D1ED
:1013C0001024000402D1002921D01124050E01D1DE
:1013D00000020834050F01D10001241D850F01D141
:1013E0008000A41C002801DB4000641C002908D0F8
:1013F00020252E1B0D46F540A14000D00121294398
:10140000084301061B1B000ADB1D02D5002070BC2F
:101410007047DB05181880180029F8DA401C4900CD
:10142000F5D170BC4008400070470000064C012513
:10143000064E05E0E36807CC2B430C3C984710347C
:10144000B442F7D3FFF73EFE7475000894750008A8
:1014500070B58C180578401C6B075B0F01D10378C1
:10146000401C2A1106D10278401C03E006780E7059
:10147000401C491C5B1EF9D12B0705D40023521ECA
:101480000DD40B70491CFAE70378401CCB1A921C50
:1014900003E01D780D70491C5B1C521EF9D5A1425A
:1014A000D8D3002070BD000080B501229104EB4824
:1014B00043685B030BD403680B4206D151044268B6
:1014C000920304D402680A4204D0016000E0416043
:1014D00002F0FEFB80BDC04605488188054A1180A8
:1014E0004188054A11800088044908807047C04639
:1014F00018050020DE040020E2040020C8040020BB
:10150000F0B597B0002004900D900C900B900A90CD
:10151000099001273A0503925E48C1681143C160F2
:10152000C168114011911199016839430160006847
:101530003840119003260896059611984020019096
:10154000079005200690040707AD2046294600F0C5
:10155000E9F904980B90089620260796204629461C
:1015600000F0E0F94C480168069A1143FA229143D1
:1015700001604A4801684A4A11400160059B19030D
:1015800002688A437903029151180160016831436E
:1015900001600168019A91430160016880220A4359
:1015A0000260190202688A437902511801609A02A6
:1015B000019201689143BA028918016039480168B3
:1015C000394A0A40394951180160049E1696159708
:1015D000149613960F200090000312901196344C2D
:1015E0002546143D11A9284600F056F9201F016830
:1015F000B94301601121490602688A4379065118EE
:10160000016079052246083A13680B4313600168AC
:10161000284A0A40F904511801602068042108434F
:10162000059AD24302402260206870220243226061
:101630002046103802688A430260016808229143FC
:10164000016010960F960E960DA9284600F00AF933
:101650006069069908430A218843606120680299FD
:10166000884320606069602101439020814361616B
:101670000B49103120680840206000980002616921
:10168000814301980818606120680399084320602D
:1016900017B0F0BD34100240040802401C000240A4
:1016A000EFBFFFFF08270140FFEF3F4E001000B0E3
:1016B00014240140FFFFF73FB0B5194801466C39CB
:1016C0000A680A68920216D40968090212D5012133
:1016D000CA43036813400360CB03124C656C9D43FF
:1016E00065642368134023600F4A00231370683831
:1016F00009050160B0BD01466839012213050B6080
:10170000D14303680B400360D003064A536C834304
:101710005364106808401060034800210170B0BD98
:101720006C000240004401409006002010B524489F
:101730000078002812D02148007800280ED02148D7
:1017400001680124214301600021416021480078A3
:10175000002827D003F0BCFF022026E01948011F13
:101760000A6852070CD5184A1278002A08D0174A7E
:10177000136802241C4308239C4314600422026063
:101780000A68920705D40968090701D5012101609B
:1017900010BD01680124214301600021416005F072
:1017A000CFFB04E004F0DEFA20460B490870E003AA
:1017B00007490A6802430A6010BDC0468C04002035
:1017C00093040020040002409604002020040040FE
:1017D00008180240290800207504002010B5184C94
:1017E000206880060FD42068000613D42068800586
:1017F00015D42068000505D5012001026160216B28
:101800008143216310BD10206060FFF765FE2068F2
:101810000006EBD58020606020688005E9D50120B6
:1018200001026160216B814321630648007805282D
:1018300002D103F037FF10BD03480021017010BD35
:1018400000000240710400208A04002080B50120BD
:10185000C0030249086003F0AFFE80BD0C180240CF
:10186000FEE700008268D20712D1C268094B13401C
:101870004A681A438B681343CA681A43C26003223A
:101880009207036993430968194301610020704777
:1018900001207047C73FFFFF10B58268D20713D100
:1018A000C2689202134A11D54B68F02B0ED1C3685F
:1018B00013400A681A43CB680C69496913432343F0
:1018C0000B43C360F0210FE0012010BDC36813403B
:1018D0000A681A438B681343CA681A430B69134397
:1018E0004A691A43C2604968826A0A4382620020D8
:1018F00010BDC0463CC2FEFFF0B50268002A0DD400
:101900000268074B1340F4C909681A4322432A436B
:1019100032433A430A4302600020F0BD0120F0BD8B
:101920000F7C00FEF0B584B00B68002B49D0002579
:101930000191009010E07F437F433B460F215943C4
:101940008E435D433543009805510199039D6D1CFD
:101950000B681C46EC4035D00122AA401A40F6D054
:101960000395144654434B6826465E43032767435A
:101970000568BD4335430560FE4302935D1E234663
:10198000012D05D88D685D43876837402F438760F8
:101990000D695D43C76837402F43C760029D022D24
:1019A000039DD4D1170A05D024244D690659002F70
:1019B000C1D104E020244D690659002FBBD15B43FF
:1019C000BCE700234A68521E012A05D8C96859435A
:1019D00042689A430A434260002004B0F0BD000010
:1019E00080B57D21C900FFF798FC401E034948607F
:1019F000002088600520086080BDC04610E000E03F
:101A000070B50446904E351F286838210140904833
:101A1000082921D0102919D1316803220A408B49A5
:101A2000032A00D00846022A00D00146306840044C
:101A3000400E484331684906490F491CFFF76DFCC9
:101A40003168490F491CFFF768FC05E00C3E30681F
:101A50008004410F7D48C8402060296889093C22E4
:101A60000A407D4989581F221140C840606029689A
:101A7000890A1C230B407749C9581140C840A0600F
:101A800070BDC046B0B50C2825D0032851D16E4C8E
:101A9000A06C032108400A048018704A904251D07B
:101AA0006F4A904247D06F4A904251D1201F006840
:101AB000382202406648082A00D1C4E0102A00D02B
:101AC0008BE022680A406149032A00D00846022AB6
:101AD0001FD001461DE05C4CA06C0007800F03285E
:101AE00030D0022827D0012854D1201F0068382187
:101AF00001405748082900D1A5E010296DD121687F
:101B000003220A405149032A00D00846022A00D085
:101B1000014620684004400E484321684906490FA9
:101B2000491CFFF7FAFB2168490F491CFFF7F5FB39
:101B3000B0BD0020B0BD0C3C20684005C117434833
:101B40000840B0BD0120C103206D80030840B0BD36
:101B5000251F2868382202403D48082A4AD0102A0A
:101B600042D122680A403949032A00D00846022A95
:101B700000D0014620684004400E484321684906D1
:101B8000490F491CFFF7C9FB2168490F491CFFF7A2
:101B9000C4FB2FE0251F2868382101402C48082964
:101BA00040D0102938D1216803220A402749032A4E
:101BB00000D00846022A00D0014620684004400EAA
:101BC000484321684906490F491CFFF7A6FB2168D5
:101BD000490F491CFFF7A1FB24E00C3C206880045E
:101BE000410F1A48C840B0BD0C3C20688004410F2A
:101BF0001648C84029682A68920A1C231340154ACF
:101C0000D2581F231A4089093C240C401249095913
:101C10001940C840D040B0BD0C3C20688004410F42
:101C20000A48C84029682A68920A1C231340094AB6
:101C3000D2581F231A4089093C240C4006490959EF
:101C40001940C840D040B0BD0C1002400024F40040
:101C500000127A00447300080473000803000300B4
:101C60000200030001000300014908607047C046FC
:101C7000F0000020B0B51F22D30234C99C433F239B
:101C80009B029D430B782B4323430F242403A24341
:101C90001A4303239B034C689C4314434A88154B07
:101CA000134023430A6A1A433D4B0C39984202D031
:101CB00042640020B0BD104B1A404B690F4C1C40D1
:101CC00014438A690E4B13402343232212064C6AA5
:101CD00094431C4311225206CB69934323430122B0
:101CE00052070C6A94431C438A6A224342640020D0
:101CF000B0BDC046FF1F0000FFFF00CCFFFF0FCCB0
:101D0000FFFF0FDCB0B5056801229407A04205D0A3
:101D1000234B984202D0234B984217D170239D4306
:101D20004B682B43204DA84214DD204CA04206DC1A
:101D30001B4CA04216D0204CA04213D02EE01C4CCD
:101D4000A0420FD01B4CA0420CD027E02B46164DD2
:101D5000A842EADCA04205D0124CA04202D0174CA7
:101D6000A0421BD103242402A343CC681C4304607B
:101D70008B68C3620B888362CE4BC3180A24E3418D
:101D8000072B06D814469C40E1231C4201D0097C55
:101D900001634169114341610020B0BD1C46E6E783
:101DA000002C014000040040FF2B0140FF43014094
:101DB0000048014000440140004001400020004034
:101DC000F0B584B00123BA4CA1424EDC012900D108
:101DD0008BE0102900D1C3E001273C02A14200D0D2
:101DE00080E0016AA1430162B749491C13691B02E3
:101DF0000B40032102910902046A8C431C431168C1
:101E0000039151680B022343AA4941180A24E14176
:101E10004568C46907291DD88F40E1210F4219D0B8
:101E2000029F39038D43516901919169D6690096EA
:101E30000901A44E0E402E4300994D013543B902CD
:101E40008B43A249091D019EB6020E401E439168B4
:101E50008B023343456099490C4003990C43C4619C
:101E6000D168C163036200233CE001242503A94239
:101E700000D1B4E02504A94200D1E2E02505A94241
:101E800030D1016AA94301628A4943180A21CB4132
:101E9000016A1568039555681669476D072B11D8B7
:101EA000029131462E4625469D40E1231D4235468E
:101EB0000E46029906D0A30444689C4393699B0292
:101EC000234343607C4B1F40039B1B023B43436502
:101ED000D268C265032212059143720852050A4373
:101EE0002905DBE0184604B0F0BD0127F943036A79
:101EF0000B40036213690B40046A032102918C4377
:101F00001C431668516821436A4BC3180A24E341F5
:101F100045688469072B1BD803963E469E40E12303
:101F20001E4214D0029B1B029D437B0256690296FF
:101F30009769D6699F432F4375003D430C2399430E
:101F4000029B5B08DB000B43916889001943039EE9
:101F500045605A4B1C4034438461D26842639EE022
:101F6000016A102399430162016A3023994313697E
:101F70005B085C010C4317685168090121434D4C13
:101F800006190A24E64145688469072E1ED803977E
:101F90000127B740E126374217D00326B602B543E2
:101FA000536902939769D369BF002646474C3C406A
:101FB0002C43DD0025433446C0239943029B5B0834
:101FC000DB010B43916889011943039F45603C4B3A
:101FD0001C403B0223438361D26882635FE0016A55
:101FE000A9430162334945180A21CD41016A43687A
:101FF00016680296566817690397C769072D55D862
:1020000001962646AE40E1252E424DD0A403A343BF
:102010009469A4011C43019E4460294B1F40029B0C
:102020001B023B43C361D268026403221203914343
:10203000244A1032039B1B0313400B433103194303
:102040002DE01E4F7337016A394001621949461865
:102050000A21CE41016A15685368039313690293FC
:10206000436D072E09D8B440E126344205D04468B8
:102070003C409669360226434660104CE41C2340DF
:102080002B434365836DD26882650322120491431A
:10209000029A520852040A43039909041143016247
:1020A0000023184604B0F0BD1C46B4E71C46B3E755
:1020B000FF0F000000D4FEBFFF8FFFFE8CFFFEFF6E
:1020C000FF8CFFFEF0DFFFFFFFFDFFFFFCF7FFFFD0
:1020D000F0B583B004460068C00724D10D462068DF
:1020E00033490140A86808432969014368690843E6
:1020F000E969014321600320010362688A43E968BA
:10210000114361600002A1688143A8690843A0608F
:102110000126284884420ADC2948844216D02948EE
:1021200084420CD03BE00126304603B0F0BD22488B
:10213000844204D02148844231D1032007E068461C
:10214000FFF75EFC0298002805D128E00C20FFF77D
:1021500099FC002823D06F68002F20D02968002622
:102160000B291CD8890018A25158FFF7D6F8012175
:10217000C903EA698A420BD1790840004018394600
:10218000FFF7CBF81C4901400007400F401805E05D
:10219000790840183946FFF7C0F880B2E060E06A7D
:1021A0000F21884329880143E162304603B0F0BD26
:1021B000F369FFEFFF4B0040004C00400038014046
:1021C0000044004000480040010000000200000000
:1021D0000400000006000000080000000A000000E3
:1021E0000C00000010000000200000004000000073
:1021F0008000000000010000F0FF0000F0B58FB08B
:10220000002708970797069705970497E04A1068F4
:102210000121019108431060106808400E900E984B
:102220001068022108431060106808400E900326D1
:102230000396042002900E9805200007009002AC3F
:102240002146FFF76FFB0697039608250295009835
:102250002146FFF767FB069703960295D048214673
:10226000FFF760FB0697039680250295CC48214630
:10227000FFF758FBC64AD06801990843D060D06880
:1022800008400E9048050D900C970B970A950D4647
:10229000480209900E98274C08A92046FFF72CFB0E
:1022A000B0042168814321602068234908402060F0
:1022B000201F02680A4002602168204A1140216004
:1022C0000168114001600E971D4800681D49FFF725
:1022D00024F8C82141430E910E98002817D00E987B
:1022E000401E0E900E98002811D00E98401E0E90A1
:1022F0000E9800280BD00E98401E0E900E980028C5
:1023000005D00E98401E0E900E980028E7D10E487A
:1023100041680E4A114041600168114001600C485B
:102320000168FF22914301602803E74908600FB06C
:10233000F0BDC04604020140FFF7FFFFFFBFFFFFF3
:10234000F000002080841E0080180240FFFFFBFF89
:102350000CE400E00E4908460C380E4A02600E4AB2
:1023600002600A46083A002313600B1F0B4A1A60EA
:102370000B685B0708D00B685B0705D00B685B0731
:1023800002D00B685B07F3D14A60054901607047D2
:102390000C300040CCCC000055550000FF0F000071
:1023A000AAAA0000F0B5A7B000252595249523958D
:1023B0002295219510950C950124E3020693BB4AC2
:1023C000D0681843D06021A90D740D80D0681840E2
:1023D00019907048239019986F4E3046FFF792FC81
:1023E00030688021019108433060B069082105916F
:1023F0000843B0611A951B951C951D951E951F9558
:1024000020956020199019AF304621463A46FFF7D3
:10241000D7FC0420C1430491B0690840B061B069A1
:1024200006990843B0611B951A95102130463A462B
:10243000FFF7C6FCB06959490840B061F0690599D9
:102440000843F0611B951A952102029130463A46E5
:10245000FFF7B6FCF06904990840F061F06906994D
:102460000843F0611B951A95210330463A46FFF761
:10247000A7FCF06949490840F061706D059908436F
:1024800070651B951A95210430463A46FFF798FC73
:10249000706D0499084070657068702188437060A1
:1024A0000F2000057168814371600DA9CD813C202A
:1024B0000873B068019FB843B060189517951695DA
:1024C00060061590149513951295600311900F9561
:1024D0000E950D953046FFF7CDFB744908682646EA
:1024E00020430860086820400394269026980868D6
:1024F0000224204308600868204026900C940B9525
:102500000A950995089407972698052000070690D4
:1025100007AF3946FFF706FA0C940B950A95099513
:1025200008940796624E30463946FFF7FBF90C9443
:102530000B950A9509950894079430463946FFF79C
:10254000F1F90C940B950A95099508940298079057
:10255000069E30463946FFF7E5F90C940B950A952F
:102560000995089403984002079030463946FFF7D2
:10257000D9F90C940B950A95099508940398800253
:10258000079030463946FFF7CDF927B0F0BDC04679
:1025900034100240B80B0000002C0140FFFBFFFF8D
:1025A00000040050F0B58DB000240B940A940994F7
:1025B00008940794022502953C488168294381606C
:1025C000816829400C910C990168294301600068D9
:1025D00028400C90059404940394102001900C98CA
:1025E000012006900746324801A9FFF79BF93148C0
:1025F000016820221143DF23994301602E480168BE
:102600002E4B0B40036003210B0306689E430660BC
:10261000036893430360026840239A4302600268A0
:102620008026324302600A020368934300973A020D
:102630009A180260890202688A43F90251180160FF
:102640001F480168FF22914301601E480990401C09
:102650001D49086007A90C800A9408941B4F3C464A
:10266000183C2046FFF74EFBF043216801402160F3
:10267000394614390A6870239A430A60394610397A
:102680000A6802400A60386800990843A843386025
:1026900038680C21884338603868F02188433860F6
:1026A000B8680A210143B9600DB0F0BD3410024092
:1026B000000400500008024008000240EFBFFFFF86
:1026C00010E400E0FFFF000000E100E0180400401B
:1026D00070477047F0B581B0364801680126B143B4
:1026E00001602024344D285D297F01290AD1401C36
:1026F0002855C1B2072903D32E55304806773046F6
:10270000304009E0411E2955080603D1062129550C
:102710002A48067730468843E876EFF3108072B691
:10272000264FF87F002802D1285D00F093FA62B6A8
:1027300000F03AFAF87C797B0143214807D0006920
:102740007D210901884202D9EE75002002E0E97D71
:10275000484248412B2100227A542D217A545E218F
:10276000795A5622AB5A03265E4373189E08AE521E
:102770001A0AEE7956434A22BE529A03520C921B11
:102780005423FA522A5D52000D4BD218518400286E
:1027900005D198690B49884208D901B0F0BD01F014
:1027A0006DF8074B986907498842F6D8401C986134
:1027B00001B0F0BD0C200040100000206C0400208F
:1027C000E80400200F2700007047704770B53C4AAE
:1027D00013680220034305218B431360126801260E
:1027E0003202384D2B6813432B60B2022B68134220
:1027F00008D12B68134205D12B68134202D12B68F4
:102800001342F3D02A6E32432A662A6E920708D406
:102810002A6E920705D42A6E920702D42A6E920776
:10282000F3D5EA68284B1340284A9A18EA60320622
:102830002B6813432B603207EB681343EB6072067F
:102840002B68134208D12B68134205D12B68134221
:1028500002D12B681342F3D00F221202AB689343CC
:10286000AB60AA6802438A43AA60A9683820014085
:1028700010290BD0A9680140102907D0A968014090
:10288000102903D0A96801401029EED107200003C8
:10289000A9688143A9600E4C2046FFF7A1F82046A5
:1028A000FFF7E2F92046FFF7DFF9B005696D8143D4
:1028B000696503208007696D8143696570BDC04605
:1028C00000200240001002408C80FF1F0208002000
:1028D0000090D0030120C006014908607047C0463F
:1028E00008ED00E080B5FFF7F5FE0120C043014987
:1028F000086080BD102000400220C04307490A68DC
:10290000920703D40A68D20704D1704708600A68A6
:10291000D207FAD0401C08607047C04610440140FE
:102920000220C04307490A68920703D40A68D20705
:1029300004D1704708600A68D207FAD0401C0860CA
:102940007047C0461004004080B505480168C907BB
:1029500004D00121C943016004F096F880BDC0464F
:102960001010004080B508480168C9060AD510213A
:1029700041600648016801229143016003F064FA56
:1029800002F090FE80BDC0461C380140300002407D
:10299000B0B582B0002001900090404C2068C00784
:1029A0007AD120683E490140012528070818206097
:1029B0003C4800683C49FEF7B0FC4000019001989B
:1029C000002817D00198401E01900198002811D0CE
:1029D0000198401E0190019800280BD00198401EDC
:1029E00001900198002805D00198401E019001989F
:1029F0000028E7D1606803210840009060688843A0
:102A00006060226829480240121818322260226849
:102A1000002A08D52268002A05D52268002A02D596
:102A20002268002AF3D4009A63688B4313436360DF
:102A3000402101910199002917D00199491E019166
:102A40000199002911D00199491E0191019900298C
:102A50000BD00199491E01910199002905D00199D6
:102A6000491E019101990029E7D1216801402943BC
:102A70002160204608380168C90708D10168C907E4
:102A800005D10168C90702D10068C007F1D0E80587
:102A900007490A6802430A6002B0B0BD0824014039
:102AA000E8FFFF6FF0000020400D0300E8FFFF7F0C
:102AB0000827014070B53B4B1868042101430820EA
:102AC0008143196002249C6203210A050520000746
:102AD0000568954301221605AD19056095028562CA
:102AE0001D681543A5431D609A628B0404689C43CE
:102AF0009304E3180360530283628B0304689C43CE
:102B00009303E318036080238362090403688B4303
:102B10001104591801601102816270BD70B5F94944
:102B20000A78F94C20680C239843002A03D0082225
:102B30001043206004E00422104320600220A062C1
:102B4000032213050520000705689D4301235E0548
:102B5000AD1905600E7825689543002E03D0022636
:102B60003543256002E01D432560A3629404056897
:102B7000A543DC042C1904600C7895030168A94373
:102B8000002C03D0DC032143016004E09C032143BB
:102B9000016080218162110402688A43590451183E
:102BA000016070BD00040050B0B5234A13781320B3
:102BB00040012249042B01D0012B08D1204B1B6876
:102BC0001C680C400546203525431D601378052BF5
:102BD00001D0022B06D11A4B1B681C680C40044321
:102BE0001C601378062B01D0032B06D1144A1268FF
:102BF00013680B40103018431060124803781248D5
:102C00001249134A002B0BD003680B400360016884
:102C1000114001600A49496842680A434260B0BDF8
:102C2000074B5B6804681C430460436813404360BF
:102C300042680A404260B0BD300000200FFCFFFF38
:102C4000000000202B00002000180240FFFFFBFFC7
:102C5000FFFFFDFF70B5401E052800D950E1C046BA
:102C60007844007940008744020F3D6A88A6A54851
:102C70000278A54908680C239843002A00D1A6E0F1
:102C8000082210430860A7E09F4B18680421014305
:102C900008208143196002249C6203210A05052053
:102CA00000070568954301221605AD1905609502D8
:102CB00085621D681543A5431D609A618B040468F5
:102CC0009C439304E3180360530283628D4B1C788A
:102CD0008D030368AB43002C00D1A6E0D40323434B
:102CE0000360ADE0884B186804210143082081434C
:102CF000196002249C6103210A050520000705686C
:102D0000954301221605AD190560950285621D687F
:102D10001543A5431D609A628B0404689C43930489
:102D2000E318036053028362764B1C788D030368BB
:102D3000AB43002C7FD0D4032343036080E0724B6D
:102D400018680421014308208143196002249C6112
:102D500003210A0505200007056895430122160591
:102D6000AD19056095028562664D2E781D688D430C
:102D7000002E6CD025431D606CE0634B1868042165
:102D8000014308208143196002249C6203210A0543
:102D9000052000070568954301221605AD19056059
:102DA00095028562574D2E781D688D43002E60D0A8
:102DB00025431D6060E053480278534908680C239E
:102DC0009843002A6FD008221043086070E0042264
:102DD00010430860022088620322130505200007C3
:102DE00004689C4301235D05641904600C681C435E
:102DF0000225AC430C608B61910404688C439904F8
:102E00006118016059028162910304688C4399033F
:102E10006118016080218162110402688A431904EB
:102E2000511801601902816270BD9403234303604D
:102E30008023836204E0940323430360802383623E
:102E4000090403688B4351045918016070BD154390
:102E50001D609A628B0404689C43D304E3180360EA
:102E60008B0304689C439303E3180360802383620D
:102E700010E015431D609A628B0404689C43D304E0
:102E8000E31803608B0304689C439303E318036017
:102E900080238361090403688B431104591801607E
:102EA0001102816270BD0422104308600220886212
:102EB000032213050520000704689C4301235D05D8
:102EC000641904600C681C430225AC430C608B62DF
:102ED000910404688C43990461180160590281626D
:102EE000910304688C43990361180160802181611A
:102EF000110402688A4319045118016019028162A1
:102F000070BDC0461200002000040050F0B58DB026
:102F1000DF480168C56F6A1ADE4E728193B25A09A2
:102F20003281DE4C2488A34200D80EE1DA4C24889A
:102F3000A34200D309E10A954368591A01250023E9
:102F40000C939142294600D80C990991F16181684E
:102F5000C368591A9142294600D80C9908913162E8
:102F600001694369591A9142294600D80C99079181
:102F700071628169C369591A9142294600D80C9936
:102F80000691B162016A436A591A9142294600D8F2
:102F90000C990591F162816AC36A591A91422F46D0
:102FA00000D80C9F3763016B436B591A91422C4632
:102FB00000D80C9C7463816BC36B591A91422946EB
:102FC00000D80C990B91B163016C436C591A914272
:102FD000294600D80C990391F163816CC36C591A8E
:102FE0009142294600D80C9902913164016D436DDC
:102FF000591A9142294600D80C9901917164816D4A
:10300000C36D591A9142294600D80C990491B164B4
:10301000016E436E591A9142294600D80C990091CD
:10302000F164816EC36E591A91422B4600D80C9BF5
:103030003365016F466F711A9142294600D80C9989
:10304000944E7165806F0A9E301A904200D80C9D94
:10305000904885650998059A424003984240D000FF
:10306000089A5740029A5740BA00171807984440E8
:103070000198444064000B98069A50400B900098C9
:10308000C0009A0010184900461885480078854904
:10309000097801430DD100F0F7FC002809D07D49E3
:1030A0000879401C0871C0B2652802D301207C4910
:1030B0000870701939190B9B049A5340784A12789A
:1030C000002A01D00F225040724D1943884239D155
:1030D0001C353CCD6F48C66A6E48076B6D48416B26
:1030E0006C48806B92025B02134322021A43EB018D
:1030F0001343B201674E1A437B011343090119437D
:10310000C000084334463C341ECC8D0005435100BA
:1031100029431943CB4A00201080B289521CB28146
:10312000012C02D1604A0123137030290FDB727821
:10313000002A0CD05D4800220270C6480180B2709F
:103140000DB0F0BDE889401CE8810DB0F0BD4A1E0D
:103150002E2A06D855480170BE4800220280C8B207
:103160000EE0002902D05148007809E031780129A9
:1031700001D1002171704D490870B6490880B070C6
:103180000028E2D04A4909780029DED1454909786A
:103190000029DAD0F178884202D00021B170F070B5
:1031A000052805D3B178491CB170C9B20629CCD322
:1031B0000025B570411E142900D962E079440979CF
:1031C00049008F440A14181C205E242B32365E3BC3
:1031D00045505E5E5E5E5E570E0038490120087005
:1031E0004FE03448007834490870152049E03349ED
:1031F0000220087045E031490320087041E02F4962
:10320000042008703DE02D490520087039E02A4867
:103210000121017027480570072032E0264805701B
:1032200024480121017008202BE0884805700920FE
:1032300027E08648012101700A2022E002F030FCDC
:103240001C480078401C1D4908701848007818E098
:103250000121717107204002F08032780D20012A8F
:103260000FD171700DE0757107204002FF30F080C2
:103270000E2006E00F4800780121081A0E49087058
:1032800014200A490D700E4908700DB0F0BDC046FB
:1032900090050020D0030020740000205C04002072
:1032A0008C040020930400208A0400209106002052
:1032B0008F040020760400202C00002087040020CA
:1032C00028080020F0B581B0564E03CE081A564C9F
:1032D0000119574A083E91420BD8564D697800298A
:1032E00009D0E97800295FD1A97800292DD0288953
:1032F0002CE04E4E7FE05549097800290DD0544905
:103300000A887D21CB00904216D94B4C24880901B4
:103310000091511C5B1C224612E047490A884A4929
:1033200009887D231B012F3300932F2301F04AFFCF
:10333000312807DA002005E043490988009300237B
:1033400001F040FF28613F4E55E02881491CA970DB
:10335000394F398880B200F089FB332802DB002026
:1033600068701AE038880721414305CE101A4018CA
:10337000C0083880A978083E33290ED3193881B2A5
:103380002E4A8918CA0F8918490821222C4B9954B2
:103390000121E970388002F03FF838882881E87808
:1033A0000028D0D003CE081A29797D22D200FA3223
:1033B000904208D2491C2971234A138807265E438C
:1033C0003018C0081080C8B21E4E4C2813D31E48B7
:1033D000018819318AB2A2183332D30FD218520899
:1033E0002023174CE25400246C70018002F058FB3B
:1033F0002C7101F0EDFF00203080164802880D4945
:1034000009698C1A144B1B689C4201DDD11806E037
:10341000541A9C4203DDD11A018001B0F0BD018035
:1034200001B0F0BD90050020DFFCFFFFB8040020D4
:1034300076050000500400203E0000202AF9FFFF1E
:1034400092060020C20400203C00002077040020E7
:1034500040000020BC040020F8000020F0B591B02E
:1034600000250895059501200690820301920646E5
:103470004748C1681143C160C1681140109110995B
:103480000168022211430160006810401090079506
:10349000049203921098402402943E4802A9FEF739
:1034A00041FA3D48016832220A43CD218A43026035
:1034B0003A4F38683A4901403960032001033A68BD
:1034C0008A433A60396820220A433A603968A14346
:1034D0003960396880220A433A6001023A688A43B7
:1034E0003A608002396881433960FF2000062D4927
:1034F0000A688243F00710180860F0060096DA495F
:10350000086007204107284C22688A432260400651
:1035100021688143216070072646083E3168814357
:1035200031600F950E9504200D900C950B950A9522
:103530001E48099008A93046FEF7CAFD009B980274
:103540002168814321600920C002211F0A6882434B
:103550000A602068222188432060206808210143F6
:103560002160306818433060019910313868084094
:103570001C34102803D1FC600D48B86002E0BC6028
:103580000B48F860306810210143316011B0F0BD84
:10359000341002400004005008080240300002408D
:1035A000EFBFFFFF18E400E008380140A068060004
:1035B00029050020184900220A600A68824208D2C0
:1035C0000A68824205D20A68824202D20A688242AE
:1035D000F3D3704710B5104900220A601922120275
:1035E0004A600A46103A146801231C4314600A24F6
:1035F00044430868A04208D20868A04205D208687F
:10360000A04202D20868A042F3D34020486010686C
:103610001843106010BDC04624480140F0B5764BF9
:10362000C9337648438076490F6800252A4603E06F
:1036300052182835782D77D071494E197168CF1BF3
:103640001BD1B768791A21D1F168CF1B27D137690F
:10365000791A2DD17169CF1B33D1B769791A39D154
:10366000F169CF1B3FD1376A791A45D1716ACF1BF7
:103670004BD1B76A791ADCD050E09CB2A74201D294
:1036800047803B46D219B768791ADDD09CB2A14277
:1036900001D241800B465218F168CF1BD7D09CB2A3
:1036A000A74201D247803B46D2193769791AD1D057
:1036B0009CB2A14201D241800B4652187169CF1BC6
:1036C000CBD09CB2A74201D247803B46D219B76902
:1036D000791AC5D09CB2A14201D241800B46521842
:1036E000F169CF1BBFD09CB2A74201D247803B46B5
:1036F000D219376A791AB9D09CB2A14201D241805D
:103700000B465218716ACF1BB3D09CB2A74201D2AC
:1037100047803B46D219B76A791A8AD09CB2A14237
:1037200086D241800B4683E75109364DA961364C5C
:103730002178012925D1991E89B202290AD80F21A1
:10374000C9018A4206D20021A971304E31700E267D
:103750002D490EE0591F89B2032912D81921C90138
:103760008A420ED2294901260E7027490E70A91DE2
:103770000726274F3E7001260E7020210170254933
:103780000E70254E317801290BD1C93B99B21A4AE6
:10379000914230D21D493F220A700121317002212D
:1037A00025E02778002F26D1002924D1991E89B23F
:1037B000022909D80F21C9018A4205D20021A97125
:1037C000124A11700E210DE0591F89B20329DCD86D
:1037D0001921C9018A42D8D20C4901220A702270EB
:1037E000AC1D07210A4A1170012121702021094ACC
:1037F000012313700170F0BD574D000070000020D0
:10380000900500205004002095040020F5000020C1
:10381000F40000209404002096040020FF200004FF
:1038200010490A68824303208005101808600120AF
:1038300081026D4A11600D490D4A8A600D4ACA60C5
:103840004A680D4B1340DA1C4A600A68022313438E
:103850000B600A68082313430B600A6802430A607E
:103860007047C04608E400E000E100E01C000240B0
:1038700040240140180500200000FFFF81484068F7
:103880005A490A6802430A607047C046B0B582B020
:103890004E480168012421430160016810220A4357
:1038A0000260210202680A430260016804220A439E
:1038B0000260016840220A430260A10202680A43D2
:1038C0000260210402680A430260210302680A437D
:1038D000026064210162014620390A6822430A60BD
:1038E000E503416A294341620C38016821430160C4
:1038F0003748016A2143016201682143016035486C
:1039000001460C390A6822430A60816821438160BC
:103910000168214301600168A1430160EA48016830
:1039200021430160416921434161A00701682143AE
:103930000160416921434161E4480168214301601C
:10394000416921434161C1682143C160FDF7D8FD50
:10395000FFF764FFFFF71CF8002001901E48016884
:10396000214301601D4800681D49FDF7D6FCC000D9
:1039700001900198002817D00198401E01900198ED
:10398000002811D00198401E0190019800280BD00A
:103990000198401E01900198002805D00198401E12
:1039A000019001980028E7D1FF2000060D490A6820
:1039B0008243E00710180860BE48802101600B4870
:1039C00001682943016002B0B0BDC046202C01400F
:1039D000000400400C20004004020140F0000020E0
:1039E000400D030004E400E000E100E08018024024
:1039F00070B5194B186804210143082081431960F0
:103A000002249C6103210A050520000705689543EF
:103A100001221605AD190560950285621D681543E2
:103A2000A5431D609A618B0404689C439304E318CA
:103A30000360530283628B0304689C439303E3187F
:103A4000036080238361090403688B4311045918C0
:103A500001601102816270BD0004005002480168DB
:103A600001220A4302607047142C0140401AC1171A
:103A70004840401A70470000024800680068400053
:103A8000C00F704700000020024801681020084065
:103A90007047C0461004005002480349016062B6F6
:103AA0007047C04608ED00E000100008F0B58DB08A
:103AB0007B4A506801252843506050682840079091
:103AC00007982807116801431160116814460140E6
:103AD000079107987348016808220A430260016849
:103AE000102205921143016028026F490A680243BF
:103AF0000A60FEF76BFE2046083801682943016022
:103B00000168294007910799016802221143016069
:103B10000068104007900798201F01682943016042
:103B20000068284007900798604A1068604908407C
:103B3000A9034018106068025E4908600B46FF2028
:103B40000290000411688143A80508181060A802BB
:103B50001860FEF753FBFEF725FC00270B970A972A
:103B600009970897079720682843206007A91F2016
:103B700000900880206828400C904F4809900C98CD
:103B80004E4E3446083C2046FEF7BCF88020039099
:103B9000C143206808400A460691206030684849C1
:103BA000014031607020C3430493301F0168194005
:103BB0000160306810403060FEF7F4FC0B970A9704
:103BC000099708970797EA03019235494868104317
:103BD000486048680E4610400C900C980298000609
:103BE000324A916881439160E8043249086007A92C
:103BF000009808800A97304809900897314C204671
:103C0000FEF780F820680699084020600B970A9715
:103C1000099708970797A8043246716801437160B5
:103C200007A90F743F260E80526802400C9222486A
:103C300009900C98244C2046FEF764F820680399FC
:103C4000084320600B970A97099708970797144A2B
:103C50001068059908431060106808400C900C9893
:103C6000124A90681249084001994018906068040F
:103C70001049086007A90E80322009900897134C5C
:103C80002046FEF73FF820680699084020606068EB
:103C9000049A10406060A0680840A0600DB0F0BDBC
:103CA0003C100240000001400020024008E400E017
:103CB000FF00FFFF00E100E0FFFF00000800004000
:103CC000F8BFFEFF00200040004801400010004007
:103CD000F0B581B0344D286934497E2824D30B4691
:103CE000096833487C290AD85221415AC9084A290F
:103CF00005D8A96989087D2901D201B0F0BD5621F6
:103D00002C4A515A49081A688A42F6D32521425C46
:103D1000521C4254D0B26528194605D301F076FAF8
:103D20000020A86101B0F0BD08685E27204CE05378
:103D3000204E707EF17E00290BD0002814D0002583
:103D4000FFF79AFE0028D8D16D1C707E8542F7D30C
:103D50000AE0002808D00025FFF78EFE0028CCD00E
:103D60006D1C707E8542F7D301F050FAEFF310809E
:103D700072B6E15B0D4B1A6800208A42024601D9F7
:103D80001A68521A1A605421625AB37DDA4062529C
:103D9000094988610A6248600868012202430A6092
:103DA00062B601B0F0BDC046E80400202400004027
:103DB0006C040020100000200C200040F0B585B0FD
:103DC00001263402E24DE3492846224601F040FC38
:103DD000687804280BD8BFF34F8FEE48EE49016096
:103DE000BFF34F8F00BF00BF00BF00BFFAE7687C82
:103DF000401E41424141D84A9172A87C401E414236
:103E00004141D172E87C012800D196730496E87D87
:103E10001F2800D31020D14FF871287D401E414249
:103E20004141B970687D401E41424141F970A87D11
:103E3000401E414241413971287E01460839C84B34
:103E4000582928D8C74E182809D3C74900911821E6
:103E50006022334601F0B6F946217852287E0146A9
:103E60000C390B2908D800960C211822BF4B01F001
:103E7000A9F946217852287EB94EFC210140082933
:103E80000ED1BB49009107211022BA4B01F09AF9DB
:103E90004621785206E04420B2493952196008E0C0
:103EA0004620385AAC4A502178524821785280B284
:103EB00030600394687E01463239C9B2642901D862
:103EC0003138F874E87E3872A87E282460431430B4
:103ED000B884287F401E414241411173687F401ED3
:103EE0004142414151730226304602F08DFC687810
:103EF00000282CD0A87F0B2800D9052002F084FCD4
:103F00002320285CB8732220285C9B4940183886FF
:103F10002020285C400099494018B8852120285C61
:103F2000400097494018F885E87F401E41424141D2
:103F3000894BD9732420285C02280BD0012810D18A
:103F4000049898742520285CFA3078860BE0BD8CA4
:103F5000039CD2E09E742520285C6421414379842F
:103F600001E0002098747E480021029119742621F6
:103F7000695C491E4A424A41DA74295D4A1F142A83
:103F800000D8797329216A5C531E092B00D8BA72B4
:103F90002A23EA5C541EE4B2082C09D8FA720924D8
:103FA000E44354432E3C3C73E2B28469144384617D
:103FB0002B22AA5C1446463C462C00D8BA712C220F
:103FC000AC5C661E622E04D86348049E867564004D
:103FD000FC842D242C5D661E092E00D87C722E24B4
:103FE0002C5D092C09D8042C5B480DD87C4424791D
:103FF0006400A74402989DA1A5005748029CC454A0
:1040000044546049049B0B703521695C491E4B4246
:104010004B4183543621695C012921D13721695CE8
:10402000142251432F315823C1523821695C514326
:104030002F315A228152049941703B21695C534AC5
:104040003C23EB5C3D242C5D121D1AC23921695CB6
:1040500064224A433A21695CC8234B43BB65FA6535
:104060003F21695C14224A4340217A524E23FC5A74
:104070003E7BA419FC523E23EB5C8386FB7CD31869
:104080007B879219FB8FD218FA87695C552901D179
:10409000049901704121695C81704221695CC171A0
:1040A0004321695C39704421695C01724521695C76
:1040B0005529039C01D1049901714621695CC170A5
:1040C000BD8CA9084A2901D802983874397A202071
:1040D000FDF723F9064611212846FDF71EF9314662
:1040E000FDF71BF94C21785264212846FDF715F99C
:1040F0003146FDF712F94A2178522046F4300090FB
:104100002C347D20C300224A2846214601F05AF86B
:104110003887B878002801D005B0F0BD00200E49DE
:10412000C87205B0F0BD0C48049B435415496AE7BA
:1041300009480499C15467E705210748417163E7BD
:104140000548049B43540F49029C0C700E495AE7E2
:104150009206002000F800086C04002010000020E7
:104160002C2C01406B0A00009A020000D6140000BB
:104170009F0F0000411F00005E050000EE020000DE
:10418000D6060000D1030020D003002078000020D4
:10419000B80B00000CED00E00400FA0500B595B086
:1041A000FFF77AFCFFF782FCFFF770FBFFF706FED4
:1041B000D54C207901235840E178032203925140E5
:1041C0000143119318020490002931D0012020717D
:1041D0000320E070601DCDA10C22FCF787FFCF48C3
:1041E00041786170C179E175CD498A7A521E534296
:1041F00053416374CA7A521E53425341A374897B5C
:10420000491E4A424A41E2748178491E4A424A4163
:104210002275C178491E4A424A4162750079401EA2
:1042200041424141A175BF4A2046049901F06CFC0E
:10423000BB4FB87B002802D0B848818F4187462009
:10424000B64910900D5A44200D900D525020029006
:104250000D524E26885B68437D2114910C01214646
:10426000FDF75BF81396AD4988530E46B87A401EA9
:10427000411E88413077F08F68430C942146FDF74A
:104280004CF8317B4018F087B078002801D100202D
:10429000B8731498C100F87C00280E9113D01398BD
:1042A00031524020315A323131524220315A32316A
:1042B00031520020B8730121F9723174307170806D
:1042C000708F323070877879401F974C974D012856
:1042D0000AD8FFF7C3F801F0E5F928200121395485
:1042E00001F026F92C600CE002F0FCFA4C200021D1
:1042F00039522C6001F0ECF97878002801D00120C7
:10430000787538788A49002808D056203152002024
:10431000B87300F07BFF01F021F801E001F008F92B
:1043200002F054FAFEF716F8FF200F9068300B9059
:10433000804DB87900287D4915D0787A022809D0B7
:10434000012803D1FEF7E2FD0020787201F0B0FEF3
:10435000764906E07848808B00F054FE73490020CF
:1043600078720020B8710C60734AD08C918C081858
:10437000118D4018518D4018918D4018D18D4018E5
:10438000001D4008D061F07800280BD05620305A2C
:104390001099715A00914B086021C82200F012FF59
:1043A0000D99705256201490385A644988420AD3A5
:1043B0002724395D002901D000F084FD604988423E
:1043C00001D300F0A2FD2E46F88F5E4988423AD311
:1043D00040203C5E2046FCF77CFF5B49FCF703FF76
:1043E0000146554DA868FCF7A5FEA860574800781F
:1043F00003280AD0022817D0012822D12E20395CA8
:104400000B9899300843022117E06A20385A504926
:104410004143090C401A400840180009C1B20E98E7
:1044200018300843012108E0A0B2C0B2292141435D
:10443000C80A039A510240181146444A117045496E
:1044400008800020F8873C4DAC693878002800D1FE
:104450004CE1E86903210A91FCF77EFF01462861DF
:10446000387F002835462D4E2FD00B2C2DD3324CC3
:10447000206AFFF7FBFA21690C9A914222D24A087E
:1044800090421FD90020A061FA7D521CFA75149A3F
:10449000B25A0E9B9A4200D90120139ABA5A2F2A77
:1044A000119A00D874E3FB7A002B00D075E3012A3F
:1044B00002D1232000223A54708F40084222B85281
:1044C0000120F0752162002038771498325A20209C
:1044D00012903B5C0F9804021F4808380168A14302
:1044E000002B3FD03D2A3DD301601B4A10681B4979
:1044F00008401B49243901431160101F0168402006
:104500000843BF213AE0C04692060020426C69741D
:104510007A203535204730200000000010000020B0
:104520006C04002000F80008AAAA00000030004037
:10453000881300003C2C0140E804002011270000F3
:10454000419C0000214E00000000B443D503002030
:10455000AF470000D603002010E400E0FFFFFF009B
:10456000240000400122920311430160DA4A1068DE
:10457000DA4908401060101F00680F998843D84C32
:10458000111F0860B87F002817D07879002814D14F
:10459000D4488068FCF7A8FE034640203A5A6A20B7
:1045A000395A2E20385C70243C5B0094CC4C00F0CF
:1045B000EDFC01F023FC0020B877787F401C787771
:1045C000C0B2652800D2CFE0FCF786FF2868400023
:1045D0000321FCF7A2FE0D99715A401C80B288425B
:1045E00000D30846B0866860BF490868BF4A1040DB
:1045F000001D08607220385A6043BD49FCF78DFEEB
:10460000BC490A88498C891A801A64220692504350
:10461000FCF7A2FE1E302E217854742178522120FE
:104620000990385C05904000B34A115A08915C210A
:10463000795A079111526A25785B2146344607263C
:1046400046437620385A4843AC49FCF766FE617C05
:1046500048430699FCF761FE8019C008069078531C
:104660000598401CC1B200263129314600D80146C8
:10467000099839549B4C60690899401A0799401869
:1046800060613221FCF749FE4821785285B2944896
:1046900068439B49FCF741FE010400D530464021A8
:1046A0007852E560B87C0028964E974D5AD006980F
:1046B00080B2718C814253D9B88F401CB8872421B5
:1046C000795C924A51430E9A891880B2814249DA44
:1046D000002413983C52FEF7EDF900F097FD4C20B2
:1046E0003C5223203C5427203C543BE01098385A3D
:1046F000424242410E998C42119909D90023642CFF
:10470000119A0AD9C828119D0BD200290CD00DE0AE
:1047100011460023642C119AF4D81A46C828119D1A
:10472000F3D31D46002901D12A4002D022210022C4
:104730007A54B97B002904D09F2802D82221002274
:104740007A54397E0029704E00D11CE20B99293130
:104750008842644D00D37CE622200021395478E65B
:104760000020B88700207877252000223A5424239F
:10477000F85C002800D1D3E01398385A312800D2D1
:104780001FE12721795C002900D11AE1882800D98E
:1047900077E1787C002810D05D4A106801218843B9
:1047A000106000F033FD2846083800240460281FFC
:1047B00004602C60FEF7B2F97C746222B85A317F33
:1047C000002900D107E3411E08B200280B9C2046B7
:1047D00000D40846B85264217A5A521E13B2002BF4
:1047E000234600D413467B526621795A4A1E11B2E1
:1047F0000029214600D4114666221492B95254254C
:10480000715B00B24000434A105E0918109E3D489B
:10481000805B48430C9C2146FCF79EFD3949497A50
:1048200048430A273946FCF797FD80B201F0DAFFCA
:104830003448405B6421384A515E4900354A515E34
:1048400041183048805B48432146FCF785FD2D49DF
:10485000497A48433946FCF77FFD80B201F0C8FF32
:104860002848405B2C49149A895E4900294A515EC8
:1048700041182448805B234E48432146FCF76CFDD9
:10488000717A48433946FCF767FD80B201F0B6FF04
:104890000E98BE3880B2347A2146FCF73EFD0746BA
:1048A0001E482146FCF739FD03461B481399405A20
:1048B0000097194F3021782200F084FC52243053A5
:1048C00080B2FEF777FE315B0B98F130FCF725FDE7
:1048D00070217852EBE2C04610E400E0FFFFFF00D9
:1048E000E40C0000E804002008240140E8FFFF7FFA
:1048F000B80B0000A875FF1F2A080020FF0F00005A
:1049000067020000100000203C2C01407CFCFFFFEF
:104910000C200040FE0000206C040020581B00000A
:1049200023243D5DF848C169F848FCF715FD68434C
:104930007021785280B2F6494843C00C78217852F1
:10494000317C00290CD01399735A4C21725A4A2198
:10495000715A5025755B009500F034FC4821705267
:104960002E20385CB27990420BD95021715A012324
:1049700000934B0811460A390A3200F023FC482103
:1049800070522C20385C00280B9D0AD01398385A9E
:10499000129900910C9A2F322F21022300F012FC61
:1049A000F0718D35D8488069632833D81498315A0E
:1049B000A9422FD9C820D74AD061082064293AD308
:1049C0003AE001217974387B002800D1EAE01098A0
:1049D0002E46D14D2C5AA87A400020181338149135
:1049E000522178520D99695A80B2484321461546A2
:1049F000FCF793FC201A401C6E24385300F0F6FD9F
:104A0000385B314608390860311F086030601498FF
:104A1000F877D0E03220BF49C861BB4800690C215B
:104A20000091049AF4326421032300F0CBFB149923
:104A3000715A642900D202207076B18CA94201D249
:104A400040007076B04800690E9988420CD9F07D1C
:104A5000002800D1E7E02F2000213954AF49086831
:104A6000AF4A10400860EBE02F20395C002900D1EC
:104A7000E6E0AA4A1168AA4B194011600021395496
:104A8000DEE0069301200A9078746223F85A317FA1
:104A900000290792099300D1B7E1411E08B200280E
:104AA0000B9D284600D40846F85264217A5A521EBB
:104AB00013B2002B2B4600D413467B526621795A41
:104AC0004A1E11B2002900D4154666220892BD5232
:104AD0005427F15B00B24000924A105E0918109E04
:104AE0008D48805B48430C9C2146FCF735FC8A4985
:104AF000497A48430A252946FCF72EFC80B201F08A
:104B000071FE8548C05B6421874A515E4900854A31
:104B1000515E41188048805B48432146FCF71CFCED
:104B20007D49497A48432946FCF716FC80B201F0DA
:104B30005FFE7948C05B7C49089A895E4900794AE2
:104B4000515E41187448805B734E48432146FCF720
:104B500003FC717A48432946734FFCF7FDFB80B292
:104B600001F04CFE1398385AC82828D952200299CF
:104B700031520798099D78530846FEF71BFD785B74
:104B8000002825D093E1952800D91EE164201DE17D
:104B90000246FB7A002B00D189E40246012A00D1AB
:104BA00087E489E4284608380260281F02602A60EA
:104BB0001546FDF77FFFE64E70203D5277E152200B
:104BC000305A099DFEF7F6FC785B002800D06EE1B4
:104BD00023200A9B3B54079A06983A54DF481499BD
:104BE0007052F375E54C20622061DE490860FA7767
:104BF0001420A061787B002802D04220315A39521B
:104C0000307E317F012900D019E1401C1299705487
:104C1000C1B2072904D312980A993154397708464A
:104C20000A99084017E12F20395C002908D1CF4D9F
:104C30002968D14A1140012213040B432B603A54D6
:104C4000C8480068CF49884200D230E1385D012869
:104C500000D02CE12220395C491C395400F0D6FAEE
:104C600032460121F1751398385A3028099106D23D
:104C700000203855B848BB4BC049149C03E0149C35
:104C8000105BB84BBD4900258D6119685E260896FA
:104C9000B9530A9E464388B23018800810531D60ED
:104CA00084B2917E2046FCF738FB4A217852610895
:104CB000AC4A081A5421785280B2B04989690A294D
:104CC00015D21168A8490862A14A129BD05C117FD5
:104CD0000129099E2AD1401CD054C1B2072904D30E
:104CE0009B48C6549B4806773046304029E01168FF
:104CF0008142E7D211688142E4D211688142E1D257
:104D000011688142F3D3DDE7E8040020C0270900E1
:104D1000CDCC00003C2C01401000002004020140DA
:104D2000FFFFFCFFFE0000206C040020411ED15458
:104D3000080604D106218648C154864806773046C5
:104D400088438349C876EFF3108072B6814CE07FC8
:104D5000002803D17E48C05CFDF77CFF62B6FDF7FA
:104D600023FFE17C481E8141607B0028119800D11F
:104D700008460128814C05D121690C9A914201D93C
:104D80007349CE752B21734F7D542D217D542621DF
:104D90007D54A169491CA161089ABA5A6C4E129BB4
:104DA000F35C5B001B195A84002808D0142900D238
:104DB0007DE01498305A7449884202D377E01F2965
:104DC00075D3F575FEF75AFD71E00A2060498874C5
:104DD0006A4DFFF73EFB431C18B200210B9DA84211
:104DE000084600DC1846B8526422BB5A5B1C1CB251
:104DF000AC420C4600DC1C46BC526622BA5A521C1D
:104E000013B2AB4200DCF6E4F6E4411C08B20B9CA2
:104E1000A0421046154600DC0846F85264217A5A32
:104E2000521C13B2A3422B4600DC13467B52662170
:104E3000795A4A1C11B2A14200DC45E645E6411E02
:104E400012983154080604D10621129831540A9858
:104E500038770A9888431546F076EFF3108072B6DB
:104E6000F87F002803D11298305CFDF7F3FE62B69C
:104E7000FDF79AFEF87C411E8841797B0029119943
:104E800000D10146012905D120690C99884201D938
:104E90000A98F0752B203D542D203D545E20385A41
:104EA0001299715C490009194884FEF7D7FD3878DA
:104EB0000028F34C2E4D01D1FFF73BFA00F05CFCCB
:104EC000FFF737FAFDF7F6FD002038552821785412
:104ED000139978524C217852294608390860291FC5
:104EE0000860286000F040FC012001022448FCF723
:104EF00016F9BFF34F8F1A481E490860BFF34F8F52
:104F000000BF00BF00BF00BFFAE7FDF7D3FD0020E0
:104F1000385528217854139978524C2178522946D3
:104F200008390860291F0860286000F01DFC012076
:104F300001021348FCF7F3F8BFF34F8F08480D49FF
:104F40000860BFF34F8F00BF00BF00BF00BFFAE78C
:104F5000100000206C0400208813000028230000AB
:104F60000400FA05240000400C2000400402014027
:104F70003C2C01400CED00E0FFFFFCFFE8040020AA
:104F800090050020C9AF0000D1070000F0B583B044
:104F90001E4615460346194C089802902072A671C9
:104FA0002271A1702370000A0190E071300A009014
:104FB0006071120AE270080A6070114FFB5C434096
:104FC000D8B2385C4840C0B2385C5040C0B2385C9F
:104FD0006840C0B2385C00994840C0B2385C70404C
:104FE000C0B2385C01994840C0B2385C0299484070
:104FF000C0B2385C607203B0F0BDC0461E05002030
:1050000074740008F0B584B0674EF588002D02D0A6
:105010000020F08015E065490978002900D1644836
:10502000C10B09D103229303034001218C03A34246
:1050300000D091E0062200E007223261D040550204
:1050400005435D480078800002905C490C1880237D
:105050006360290A5A48405C0190C2001846904398
:10506000A0602F09794069400F2603968E432901DD
:1050700089194D4A516101990A011A404240E26082
:10508000C8030090039807404D49C85D0F46019042
:1050900081020098014303980540785D3D460390E6
:1050A00047010F43AE5D3D4635433F488561880A61
:1050B0001840504020614A0A1A4042406261080A82
:1050C00018405040A061019AD10019404140E1616F
:1050D00012011A404A4022627F20C04302407909EF
:1050E0001940514061623A091A404A40A262F908E7
:1050F00019405140E162039FFA001A404A4022637E
:1051000039011940514061632A461A404A40A2635E
:105110000240690019405140E163AA001A404A4028
:1051200022640021254D029FE951F10019405140B0
:10513000616432011A404A40A26471011940514031
:10514000E164B2011A404A4022650240F001C0B257
:105150005040606504B0F0BD07235B0303404C037F
:10516000A34201D1052268E70F231B0303400C0370
:10517000A34201D1042260E71F23DB020340CC02DB
:10518000A34200D159E73F229202024089028A429B
:1051900001D1022251E77F2149020140054A8918C5
:1051A0004A424A4149E7C046D00300208F0400200C
:1051B000FFFF000000FEFFFFF40000209407002026
:1051C00064740008F0B5059E1D460B4634468242C5
:1051D00017DD174693420EDCA54211D061194E101F
:1051E000F9184A1093420ED08242EFDA511C3A4627
:1051F00033462646E8E739461A4623462E46E3E775
:105200002C462046F0BD3046F0BD00000120800451
:1052100004490A6882430A600A46743A1060703989
:105220000860704780180240F0B581B0BB4DBC48A3
:105230006860EFF3108072B6BC480078E8602861BF
:1052400068617924B74EB84F3760A41E14212046F8
:10525000FCF763F8FDF7FEFC60080A3028600A20BE
:10526000FEF7B8F9022CEFD8FDF724FC00202860E7
:10527000CF490880CF480088686062B601B0F0BDB1
:10528000AAAA0000F0B581B00320FDF7E3FC0026D8
:105290003225009603E0761CAD1CAE2D47D2A24805
:1052A000A0490860C24800990180284840198778C1
:1052B000FF2FF0D0C07800282CD00A21B94A116005
:1052C000F72141437D20400109182148FCF725F8CA
:1052D000044620482146FCF720F8B2494860B3490B
:1052E00009784843B049FCF718F8AE49C86008612E
:1052F0004861F0B2FE214143CE1917482146FCF720
:105300000CF870436421FCF708F880B2FEF762F9EC
:105310000026C1E70024A348C46004614461F0B2E0
:10532000FE214143C819FEF755F92646B4E7FDF7BB
:10533000C1FB00209B4A10609E49098851609C492E
:10534000088079487749086001B0F0BD92060020D6
:105350008096980000A86100A0860100B0B5EFF328
:10536000108072B68F4D9048686090480078E86071
:10537000286168610120FDF76DFC282028604B2022
:1053800084002046FEF726F90220FDF763FC1E206C
:1053900028602046FEF71EF90320FDF75BFC19206C
:1053A00028602046FEF716F90420FDF753FC142070
:1053B00028602046FEF70EF9FDF77CFB00202860F0
:1053C0007B4908807B480088686062B6B0BDC046F3
:1053D000B0B5744D74486860282028607348007820
:1053E000E860286168610220FDF734FC96242046BD
:1053F000FEF7F0F84B484C490160502028602046E9
:10540000FEF7E8F8FDF756FB0020286068490880A1
:10541000684800886860B0BDB0B5624D6248686099
:105420003220286061480078E860286168610220C5
:10543000FDF710FC96242046FEF7CCF839483A498F
:1054400001601E2028602046FEF7C4F8FDF732FBFD
:105450000020286056490880564800886860B0BD22
:10546000B0B5EFF3108072B64E4D4F4868602D48CE
:105470002D490160502028604C480078E860286180
:1054800068610320FDF7E6FB64242046FEF7A2F8DE
:10549000462028602046FEF79DF8282028602046F8
:1054A000FEF798F8FDF706FB0020286040490880C9
:1054B00040480088686062B6B0BDC046F0B581B0B3
:1054C000384D39486860EFF3108072B6154E164FAC
:1054D00037603C20286035480078E86028616861C2
:1054E0000120FDF7B7FB4B242046FEF773F8502050
:1054F00028602046FEF76EF85A2028603760204664
:10550000FEF768F8FDF7D6FA0020286028490880E1
:1055100028480088686062B601B0F0BD282C0140C0
:105520006B0A000000300040AAAA000028050020F5
:10553000B0B5EFF3108072B619480078194DFF2806
:1055400002D0FFF79FFE25E01748686017480078F3
:10555000E860286168610320FDF77CFB3720286044
:10556000C8242046FEF736F80520FDF773FB2820F7
:1055700028602046FEF72EF80620FDF76BFB192069
:1055800028602046FEF726F8FDF794FA0848002127
:105590000180296007480088686062B6B0BDC046D7
:1055A00080F80008282C01406B0A00002805002024
:1055B000C20400205600002010B50A4C607A022870
:1055C00008D0012803D1FDF7A1FC0020607200F093
:1055D0006FFD10BD0448808BFFF714FD0020607242
:1055E00010BDC0466C040020E8040020B0B50321C3
:1055F0000A050520000703689343012214051B19BF
:105600000360930283628B0404689C439304E31851
:105610000360530283620B0404689C431304E31881
:10562000036013028362094B1C6808252543042488
:10563000A5431D601C680225254395431D60890311
:1056400003688B43D10359180160B0BD00040050BA
:10565000F0B5012A24DB032413462340551E032DF5
:1056600001D200240EE0A24300240D5D055505196A
:105670000E1977786F70B778AF70F678EE70241DDA
:10568000A242F2D1002B0BD0625C0255012B07D055
:10569000621C555C8554022B02D0A21C515C8154C3
:1056A000F0BD000007484168074A0A4040324260A6
:1056B00006490A68402313430B60016801220A432C
:1056C00002607047300002400000FFFF08380140D0
:1056D000B0B51B4801680222114301600168914383
:1056E0000160184801460839174A0A600A2101601A
:1056F0001649097881601649C16002460C3A136860
:1057000001210B43136000224260124B124CDC60FB
:10571000044614349C60114C24785C60104C1C606E
:105720004B020446143C25681D43256003680B4367
:1057300003600C4B1A70203802680A430260B0BD47
:105740002C1002402004004001600000F500002001
:10575000FFFF0000080002409005002070000020BC
:105760008B090000290800200248002141600160E7
:105770007047C04624040040F0B587B04626DE4B93
:10578000985BC2494143090D401A069085B2DC4F2F
:10579000387900283FD02724395DF87A002905940C
:1057A000049626D0002824D068080390B85B0095A2
:1057B000B74E2F3E0027394632463B46FFF702FDE3
:1057C0000446CF48008E0095394632463B46CC4FC2
:1057D000FFF7F8FC0646039801F00AF8A0B2059C12
:1057E00001F000F8B0B2049E01F008F8C24B395D38
:1057F000F87A421E90414A424A41024300D043E1B6
:105800001C7FFDF757F90A20FDF7D4FE002C16D0B7
:1058100001F050FC15E0B85BB97E002900D0BCE077
:10582000312800D2B9E01C7FFDF744F90A20FDF7CA
:10583000C1FE002C00D1ABE001F03CFCAAE001F07D
:1058400079FCB85B00953024914A00262146334606
:10585000FFF7B8FC0390388E009521468C4A0296DB
:105860003346FFF7AFFC04462E20385CA24A9179FC
:105870008842069B0BD9049BD25A012300935308FC
:105880000A461432FFF79EFC9B4A034685B2482025
:105890001352A0B2A84219464FD9039CA0B2A84205
:1058A00050D9974EB07D002851D00C460693402524
:1058B000705F6321C943D28C4A43101875498862CE
:1058C0000A6C831A0E6B4A6B8F6B5A43CA63086467
:1058D0004643F3198E6CB34200DB33467642B34243
:1058E00000DC33468B63D218CB6A58431018CA6C5D
:1058F0009042834E00DB10465242904200DC10463C
:105900004864FBF7E6FC6449FBF76DFCFBF7ECFC35
:10591000794BD98E091A0AB2585B824200DB0846DD
:10592000D88602B2A1B29142014600DC2146069C13
:10593000A3B293420CDC20460AE02146039CA0B2AD
:10594000A842AED823466E4EB07D0028ADD1184691
:105950008CB2621E21469141020400D0012101292E
:105960000ED10599715C00290AD080B200F03AFF8F
:10597000002000F03DFF204600F040FF07B0F0BDE2
:1059800046480299016041608160B17607B0F0BD80
:1059900001F0D0FB0120B876B85B34460095302189
:1059A0003B4A00230593FFF70DFC534A06462E2081
:1059B000385C91798842069B0AD9125B01230093D7
:1059C00053080A461432FFF7FDFB4B4A034685B2E3
:1059D00048201352B0B2A84200D83346B87D002800
:1059E0003FD006934025785F6321C943D28C4A4358
:1059F0001018284988620A6C831A0E6B4A6B8F6BE9
:105A00005A43CA6308644643F3198E6CB34200DB01
:105A100033467642B34200DC33468B63D218CB6AFE
:105A200058431018CA6C9042354F00DB1046524262
:105A3000904200DC10464864FBF74BFC1649FBF72C
:105A4000D2FBFBF751FC2C4BD98E091A0AB2585BDA
:105A5000824200DB0846D88601B2069B9AB28A428F
:105A600000DC184601040D4909D02722BA5C002A3F
:105A700005D080B208604860886007B0F0BD059826
:105A8000086048608860B87607B0F0BDCDCC0000F3
:105A9000FF0700007800002000401C46342C014025
:105AA00010B515494A7815484270CA79C275144A2A
:105AB000937A5B1E5C425C414474D37A5B1E5C4209
:105AC0005C418474927B521E53425341C3748A7862
:105AD000521E534253410375CA78521E53425341DA
:105AE00043750979491E4A424A41827501210902DA
:105AF000044A00F009F810BD1000002092060020B2
:105B00006C04002000F80008F0B503AF8BB06E46BF
:105B1000F41D1934B26171610546C817800F0B1866
:105B200003201946F0608143C91D072291436A464C
:105B3000501A99108546F061B160FBF7F0FA706970
:105B4000042874617CDBB1680A46F3681A40481E79
:105B50000328726001D200213AE09943F1600023EA
:105B600019463561E818C278120685782D04AA18FE
:105B700045782D0252193469E55C5219F469E250F6
:105B8000C279120685792D04AA1845792D02521979
:105B900005795519E2185560C57A2D06847A2404D2
:105BA0006419457A2D026419057A64199460C47BDE
:105BB0002406857B2D042C19457B2D02641935693B
:105BC000007B2018D0601033091DF0688842C9D1CD
:105BD0007268002A746933D089006818C278120686
:105BE00083781B049A184078000210186A5C8018A9
:105BF000F26950507268012A22D0081D30602A18BC
:105C0000D3781B06F36093781B04F0681B18527856
:105C100012029A1830682B5CD218F3691A50706817
:105C200002280DD008316818C278120683781B0448
:105C30009A184078000210186A5C8018F269505077
:105C4000B068A06001203061020444480368134238
:105C500008D00368134205D00368134202D00368DA
:105C60001342F3D14368002B03D4B3695B052DD1F4
:105C70000AE03B4B1C680546083D2C6074695B6874
:105C80002B60B3695B0521D1446802231C43446047
:105C9000B469E40AE4004568254345604468144358
:105CA00044600468144208D00468144205D00468B3
:105CB000144202D004681442F3D10468E40701D00E
:105CC0003169016044689C434460746900236360E7
:105CD000236025682346A468A542316935D2B4699A
:105CE000241DF4600DE044688C43446073695C6873
:105CF00008345C601C68A41C1C601C689D68AC4275
:105D000023D244680C4344601C68A400F1690C5918
:105D10005D68B1696C501C68A400F169641864681E
:105D20005D68F1684C510468144208D0046814425C
:105D300005D00468144202D004681442F3D1046808
:105D4000E4073169CFD00160CDE7C90742680A4353
:105D50004260FC1F053CA546F0BDC0461020024035
:105D60000800002010B51D4801680222114301609F
:105D70000168914301601A480146083960220A60AF
:105D8000032101601749097881605C21C1600246E6
:105D90000C3A136801210B431360134A134BD36071
:105DA000034614339360124B1B7817335360114B27
:105DB00013604A020346143B1C6814431C600268CB
:105DC0000A430260CA03436A134343620A4A1170DA
:105DD000203802680A43026010BDC0462C10024001
:105DE00020040040560400200800024094070020D0
:105DF000F40000209B09000029080020B0B50E48DF
:105E0000036808210B430422934303600B4B5C6837
:105E10000B4D25400B4C24782C195C608468802540
:105E2000254385601C68012525431D6003681343D5
:105E30008B430360B0BDC0460038014030000240D3
:105E40000000FFFFFC000020F0B581B089484178D8
:105E5000012904D1407E002800D0C1E0ADE08A1EB7
:105E6000D4B2651C03232A461A40032C02D2831C99
:105E7000002412E09D43831C00247F4E1F7867405E
:105E8000F45D5F786740F45D9F786740F45DDF788C
:105E90006740F45D1B1D2D1FF0D1002A0DD01E7828
:105EA0006640754DAC5D012A07D05E786640AC5DFA
:105EB000022A02D09A786240AC5C427E944200D0C2
:105EC0008EE0182979D1C17804796207520D5218F1
:105ED0006A498A80072212021346E03345796E012F
:105EE0001E40E4083419CC80AC098579AD002C192A
:105EF000C579EE07760D34190C8114468034067A84
:105F0000F70127406D087D194D811546F035477A18
:105F100001463801284036098019584EB081F809E9
:105F20008E7A76003018CE7AB7077F0D3818534F27
:105F3000F881C032087B87011740B608BE194F4F61
:105F40003E8240094E7BF60030187882887BCE7BFB
:105F500077077F0D3818494FB882087C47011F40EA
:105F6000F308FB18454FFB8280094B7C9B001818F7
:105F70008B7CDE07760D30183883C87CC60126403E
:105F80005B08F3187B830B7D1C012C400009201853
:105F9000B883D8094B7D5B0018188B7D9C07640D76
:105FA0002018F883C87D44090D7EED002C197C84EF
:105FB000800110409A0880183884314800784000E9
:105FC0002E4F381880882F49097800290ED02E4985
:105FD00041180E2910D80120800218382C492AE0D7
:105FE00026480168491C016001B0F0BDAE280AD8FE
:105FF0002748002101801FE0244A1446BE34009443
:10600000AE26002505E0214A1446ED340094AE2664
:10601000302531462B46FFF7D5F81D4908801D482D
:10602000007840003818808800943146174A2B4683
:10603000FFF7C8F81849088018480121017018496D
:106040000020088017490A781749002A024606D01E
:10605000164B1B88002B08D0088001B0F0BD0A88C1
:10606000521C124B1B88002BF6D11046088001B041
:10607000F0BDC04629050020647300082C040020F0
:106080006E040020770400202BFCFFFF12070000A5
:10609000BC0400206F0400209C0400207204002037
:1060A000C204002093040020B8040020B2040020A1
:1060B000F0B587B0FA4EF07A002806D02924305D7A
:1060C000002807D05020305A1DE15020305A462178
:1060D00070529CE15027F05B7D22D500F1498B7B0B
:1060E000590006954919F57C002D059717D0814276
:1060F00045D2EC4A127FB57AAA4244D14627002500
:106100000395F5530127F777357D002D37D0039B95
:10611000F377BA1AE34B1A77069D059F37E00125FE
:106120008142049403952CD2DE4B1B7FB47AA342A8
:106130006AD12420305C441EA0415224345BC82C18
:106140002F4600D307465624D64D2C5B2D8FAC42EC
:1061500000D80746012F069D78D1D34800248461DA
:106160000120D049C875C01A0877FFF74FF8B476F8
:10617000059FF05BCB49897B4900491969E0069D81
:1061800012E0069D71E0F27F002A069D0CD10022EC
:106190003275C64A00922F3A2F23FFF713F8462193
:1061A0007052F05BBF498B7B0127F94359434A1971
:1061B00082422ED90494B47A012103910D1BB9496E
:1061C000097F8D420DD14621002575520399F17743
:1061D000317D00291BD0F577B2490C77049C069DD0
:1061E00004E0F17F0029049C069D12D10021317545
:1061F0002F230093AD4BFEF7E5FF46217052059823
:10620000305AA8498B7B04E0049C069D22E0049C44
:10621000069D5B00591900228142394606D311467A
:10622000EB1A834205D90F4306D068E0EB1A83428C
:10623000F9D817460F4362D146220021B152F27FAE
:10624000002A5CD001223275F17758E0D000059F1A
:10625000F053049C954A00922F3A2F23FEF7B2FF89
:1062600046217052F05B8F498B7B01210291CF4315
:10627000394659434A1982422FD9B17A01230191F3
:10628000591A884C247FA14200D09CE12420305C24
:10629000411E88415221715AC829039900D30146F1
:1062A0005624804D2C5B2D8FAC4200D8014601292D
:1062B000069D00D08AE17B4901980877CB757A4822
:1062C00000248461FEF7A2FFB476059BF05A75495D
:1062D000897B4F437A191F467BE159004A19824254
:1062E00000D287E100220292691A8142039900D804
:1062F00085E1002903D1462100227252B276315D38
:10630000002900D183E07D21CC0021462F31884235
:1063100036D9644D297FB27A91422AD12420305C4B
:10632000421E90415622AA5A2E8F01230027B242C4
:106330001A4600D83A465226594DAE5BC82E00D3B5
:106340003B461A400243012A564D0ED156480026BC
:1063500086610120E875401A2877FEF757FF5048FC
:10636000867606465020305A03E0502100204C4EDD
:106370007052297D4200511A904A89184622B15222
:106380000146303989B2A1423BD2B17A0122531A77
:10639000444C257FAB422ED124203746305C431E2F
:1063A00098415623E35A268F0025B342134615D849
:1063B0002B465226BE5BC82E14D213400343012B3A
:1063C00015D121770120E075F94800258561FEF798
:1063D0001DFF3E46BD765020385A0CE05226BE5B6B
:1063E000C82EEAD32A4613400343012BE9D050219B
:1063F00000203E467852217D4200511A3139462212
:10640000B1522F2803D8462000213152B17630787E
:10641000002800D04EE12224305DE34DA97C884263
:106420000CD92879002809D0FCF744FBFEF7EEFED2
:10643000662030554E20002131526EE0B07B00289E
:1064400007D04624305B1D2826D84E2100227252E8
:1064500054E0707D00285CD07078002828D0462455
:10646000305BA96DEB6D00912F21D04AFEF7AAFE9B
:106470000146D048FAF770FF297A4908FAF76CFF0D
:106480007087305B2E2813D84E2000213152CC4823
:106490000160C748016040E01E2821D11E202DE088
:1064A0006C04002010000020E8040020FF0700001A
:1064B000BF480468C04D20462946FAF7E0FE002890
:1064C000204600D12846FAF70FFF4E257053BB49EE
:1064D0002046FAF7E2FE00281FD1302070531CE05E
:1064E000697B14224A43824208D9A02100911E21CF
:1064F0002F23FEF767FE4E217052305B6A7B14211A
:106500005143814209D8A94A0092A023FEF75AFEBE
:1065100001E04620305A4E2170522424305D00287C
:1065200000D0C7E04E25705BB17B50273A464A4306
:106530002F32824230D82720305C00282CD006979A
:106540002F462325705D00280ED1FCF7B3FADF49F2
:10655000C87D002802D100F061F9DC4901207055A6
:10656000488F42217052B17B4020D84D2B5AF05BAE
:106570004622AA5A0092002901D0892100E02F2149
:106580008A4AFEF71FFE44217052F07C00283D46E7
:10659000069F01D10020F077705BB17B79432F31EA
:1065A000814200D882E0F07E052835D87844007911
:1065B000400087443305292C2F05C046FFF7FFFF15
:1065C000FEF72AFF28E0049C059F03E0059FF55392
:1065D0002846049C2F2100910021744BFEF7F2FD08
:1065E00046217052F05BB9498B7B59004A198242AF
:1065F00000D377E6691A8142039900D979E60299B6
:10660000002900D177E67AE6FEF7E2FE04E0FEF725
:106610000BFE01E0FEF752FF0020F076AB488078D9
:1066200000281AD02320305C00287FD02020A74AE1
:10663000105C3C214143508D40183C38614902B206
:10664000FF2368339A4200DD40186222B05202B242
:106650002F46782A14DCEF2314E044240020305322
:106660002321715C002900D084E0994988610120D0
:106670009649C875307B002877D0FDF7B9F979E0E5
:106680000B46EF331B1866257353F02A01DC772184
:1066900000E077313D46081864217052B07B012834
:1066A00001D101203055442000213152F07F0028D3
:1066B000864B01D007B0F0BD745B2F2C11D3707BDB
:1066C0001421C1408248806988420AD24420315A4C
:1066D0005A8F914201D232521146DA8F914200D93B
:1066E00032524820185A4427F55B854201D9F053AD
:1066F0000546B07D0028069406D036207349085E12
:10670000854201DD85B2F553714844680021204679
:10671000FAF7A7FD0028CDD106983028CAD3204625
:10672000FAF7E2FD2818F05307B0F0BD262000214B
:1067300031546748816101276448C775307B002860
:1067400010D0B07B002800D070E746205F49085A7F
:10675000897A49004018133860217052FEF746FFCD
:10676000F77763E7FCF7A6F960E7F07F002801D12F
:10677000FCF7A0F9F07FF17C002998D0002896D092
:10678000F15B7D202746C4002046FDF76FF9001914
:10679000F05380B20C49884202D3FDF729F985E70E
:1067A000FEF724FF82E7C04610000020FF0700002C
:1067B000E80400200087930300E0FF44000040420B
:1067C0007800002098FEFFFFCF07000003200002A2
:1067D00003490A68824301200002101808607047CC
:1067E0000C040050014908607047C046342C014039
:1067F000014908607047C046382C014001490860D3
:106800007047C0463C2C01400B2800D30B204000B1
:10681000014908707047C04628050020F0B581B0D6
:106820002325294C605D002803D0FDF727F801B02F
:10683000F0BD2026254FB85D397F01290AD1401CC3
:10684000B855C1B2072902D30120B85520770121DC
:10685000014009E0401EB855010603D10620B85595
:106860000121217701218143F976EFF3108072B67F
:10687000E07F002802D1B85DFCF7ECF962B6FCF7C6
:1068800093F9E07C617B0143114805D00169114A0D
:10689000914201D30121F9752B21002262542D214F
:1068A000625456210C4A7A52B95D0C4A0C4B136063
:1068B000012262555E22A25A490008184284FCF760
:1068C000DDFF01B0F0BDC0466C04002010000020C8
:1068D000E8040020D1070000102700002400004039
:1068E00088130000F0B591B000240E940125AA038E
:1068F0005A48C1681143C160C168009211400291B9
:10690000029902220392016811430160006801921A
:106910001040109007940695059504941098402611
:1069200002964F4802A9FAF7FDFFFF2000064D49E5
:106930000A68824303208307D2180A60E9064A4A9C
:1069400011604A490A6833231343CC2293430B60F6
:10695000474F3968474A0A4010323A6001033A68A3
:106960008A433A6039682022914339603968B143DB
:106970003960396880220A433A6001023A688A43E2
:106980003A6080023968814339600F940C200D9081
:106990000C940B940A94E120400209900894364C20
:1069A0002646083E08A93046FBF792FB0720410720
:1069B00022688A432260400621688143216068077B
:1069C0003168814331600920C002211F0A68824377
:1069D0000A60206822218843206021680820014342
:1069E00021603168294331606905AA0563690B425A
:1069F00002D06369134211D163690B4202D063690B
:106A000013420BD163690B4202D06369134205D173
:106A100063690B42EAD063691342E7D0009A1032EF
:106A200039681140102904D11449F9602034BC6040
:106A300003E01249B9602034FC607968104A0A40CA
:106A400010490978511879603968019A1143396001
:106A500039680143396011B0F0BDC04634100240BE
:106A60000004005018E400E000E100E008080240E3
:106A700030000240EFBFFFFF083801401E05002034
:106A80000000FFFFFC000020F0B587B04425F74F61
:106A9000785B5226B853F88F401CF887F88E401C5C
:106AA000F886388F401C3887788E401C78862820DE
:106AB00006902724385D00284DD1787E00284AD1E1
:106AC0000698385C002846D04620385A002803D063
:106AD0006820002139523EE06820395A491C395259
