:020000040800F2
:10100000600D0020D1100008751F0008311700087E
:1010100000000000000000000000000000000000D0
:101020000000000000000000000000004520000853
:101030000000000000000000771F000847200008A3
:10104000E3100008E3100008E3100008E3100008B4
:10105000E3100008E3100008E31000081D17000863
:10106000E3100008251600084D1600086D1600084C
:10107000A9140008B1210008E3100008E3100008DB
:10108000D921000801220008000000007121000899
:1010900085210008AD210008E3100008E3100008D6
:1010A000E3100008E3100008E31000081D22000808
:1010B000E310000800000000E31000080348854624
:1010C00000F0B4F900480047053B0008600D00201F
:1010D0000448804704480047FEE7FEE7FEE7FEE7D6
:1010E000FEE7FEE76D210008BD10000803460B4334
:1010F0009B0703D009E008C9121F08C0042AFAD2CE
:1011000003E00B780370401C491C521EF9D2704753
:10111000D2B201E00270401C491EFBD2704700228F
:10112000F6E710B513460A4604461946FFF7F0FFE6
:10113000204610BDF8B502464A40D40F42004B008D
:1011400052085B089A4202D20246084611464A00FB
:1011500023D0C30D4A00DDB2120EAD1A202D35DAB0
:1011600049020126490AF6058A19002C00D052428C
:1011700020214F1B1146B9402A411018C20D9A4236
:1011800021D0002C17D0012D08DCDA05801AD20FEF
:101190008019D207DBB200F00FF9F8BDDA05801A2A
:1011A000012340001B06C01880185A428018CA0F3D
:1011B0001043490007E04908C2071143DA05801AC5
:1011C00080194008801800F0EFF8F8BD6100012296
:1011D000511A001BF7E70122D2075140AAE701226A
:1011E000D2075040A6E770B502464A40D50F4000EE
:1011F0004A00ED0740085208002814D0002A12D0F7
:10120000C40DD30D41020120C0055202490A520A01
:10121000E41A091812187D34914201D3641C00E0CD
:101220004900002C01DA002070BD0023914201D357
:10123000891A0343400849000028F7D100290AD041
:10124000914202D10121C90705E0914201D2012159
:1012500001E00121C943E005C018401900F0A4F8DD
:1012600070BD0122D207002800DB101A002900DB24
:10127000511A814201D80120704700207047012295
:10128000D207002800DB101A002900DB511A814226
:1012900001D201207047002070470122D2070028A8
:1012A00000DB101A002900DB511A814201D3012012
:1012B0007047002070470122D207002800DB101A77
:1012C000002900DB511A814201D90120704700201A
:1012D0007047C217C10F504010B54018CA07962377
:1012E000002100F069F810BDC20F41004002012347
:1012F000400ADB05D207090EC0187F2901DA002059
:101300007047962903DC9623591AC84001E09639A4
:101310008840002AF4D04042704770B50446002946
:1013200003D000202022012310E0002801D000205B
:10133000C043C046C0460DE02546D5408D4205D38A
:101340000D469540641B1D46954040191546521E9A
:10135000002DF1DC214670BD70B5002504462E46F7
:10136000002911D0002C01DA01254442002901DABC
:10137000012649422046FFF7D0FFB54200D0404247
:10138000002D00D0494270BD002C02DA0121C907AE
:1013900002E0002C00DD03490846C046C046214655
:1013A00070BD0000FFFFFF7F002904DA401C4900E8
:1013B00001D140084000704770B40024050C05D1ED
:1013C0001024000402D1002921D01124050E01D1DE
:1013D00000020834050F01D10001241D850F01D141
:1013E0008000A41C002801DB4000641C002908D0F8
:1013F00020252E1B0D46F540A14000D00121294398
:10140000084301061B1B000ADB1D02D5002070BC2F
:101410007047DB05181880180029F8DA401C4900CD
:10142000F5D170BC4008400070470000064C012513
:10143000064E05E0E36807CC2B430C3C984710347C
:10144000B442F7D3FFF73EFED86D0008F86D0008F0
:1014500070B58C180578401C6B075B0F01D10378C1
:10146000401C2A1106D10278401C03E006780E7059
:10147000401C491C5B1EF9D12B0705D40023521ECA
:101480000DD40B70491CFAE70378401CCB1A921C50
:1014900003E01D780D70491C5B1C521EF9D5A1425A
:1014A000D8D3002070BD000080B5A0480168890233
:1014B00004D501214905016002F0ACF880BDC046A9
:1014C00005488188054A11800188054A11804088B5
:1014D000044908807047C046E8050020A4050020A4
:1014E000A80500208C050020F0B593B000270997CF
:1014F000089707970697012148020B460291444935
:101500004A6802434A604A6802400A920A985804AC
:101510000A6802430A60096801400A910326059699
:101520000A984020019004900920C40604AD20468A
:10153000294600F02FF9089705960820039004909B
:101540002046294600F026F932480168324A0A400E
:101550000260310302688A430260016820220A4364
:1015600002600168019CA1430160016880220A4376
:101570000260310202688A43029B1902511801601D
:10158000B10202688A4399021E4651180160234D38
:1015900028680399084328602868204328601804B5
:1015A000296801432960072080051D490A68824394
:1015B000D80510180860D8070F9012971197109748
:1015C0002C46283C0FA9204600F0B4F80E970D9643
:1015D0000C970B970A970AA9204600F0C5F804203B
:1015E000C04329461C390A6802400A60294614395A
:1015F0000A6806231343B3430B60243D2968014066
:101600002960286803998843286013B0F0BDC0465C
:101610001410024008000240EFBFFFFF28240140E1
:101620000827014010B5104C2068800703D42068BB
:10163000000707D410BD01206060FFF741FF20685C
:101640000007F7D50820606010BDC0460648016855
:10165000890602D40168090605D510214160C169D7
:1016600001229143C16170470000024070B52448D7
:101670000078002813D02148007800280FD00124DA
:10168000200320490A6802430A60002008642148B8
:101690000078002827D003F087FC022026E00124F0
:1016A0001848011F0A6852040CD5174A1278002AFC
:1016B00008D0A203154B1D6802262E430825AE4311
:1016C0001E6002600A68920405D40968090401D505
:1016D0002103016070BD21030160016CA14301641D
:1016E00005F08AF804E003F065FF20460A49087017
:1016F000E00307490A6802430A6070BD50050020F4
:1017000057050020040002405A0500202004004034
:1017100010040140100500203905002080B501208B
:10172000C0030249086003F0B3FB80BD140401400C
:10173000FEE700008268D20712D1C268094B13404D
:101740004A681A438B681343CA681A43C26003226B
:1017500092070369934309681943016100207047A8
:1017600001207047C73FFFFF70B58268D2070CD1D8
:10177000C268074B134074C909681A4322432A43BD
:1017800032430A43C260002070BD012070BDC046D4
:101790003CC2FEFFF0B584B00B68002B49D0002599
:1017A0000191009010E07F437F433B460F21594356
:1017B0008E435D433543009805510199039D6D1C8F
:1017C0000B681C46EC4035D00122AA401A40F6D0E6
:1017D0000395144654434B6826465E4303276743EC
:1017E0000568BD4335430560FE4302935D1E2346F5
:1017F000012D05D88D685D43876837402F4387608A
:101800000D695D43C76837402F43C760029D022DB5
:10181000039DD4D1170A05D024244D690659002F01
:10182000C1D104E020244D690659002FBBD15B4390
:10183000BCE700234A68521E012A05D8C9685943EB
:1018400042689A430A434260002004B0F0BD0000A1
:1018500080B57D21C900FFF760FD401E0349486047
:10186000002088600520086080BDC04610E000E0D0
:10187000B0B504463E4D28680C2101403D4808297A
:101880000FD12968C90300D43B48A96A0F220A4036
:10189000511CFFF742FD014628688002000F801CA2
:1018A0004843206029680906090F354A515CC84041
:1018B000606029684905490F304A515CC840A06002
:1018C000B0BDC04610B5002801D0002010BD284C86
:1018D000E16A0320084003281AD002281FD00128FB
:1018E00023D120680C210140224808293FD12168DA
:1018F000C90300D42048A16A0F220A40511CFFF7F7
:101900000CFD014620688002000F801C484310BD7A
:10191000201F00688007C1171648084010BD01202D
:10192000C103E0698003084010BD20680C2101401C
:10193000104808290FD12168C90300D40E48A16AB4
:101940000F220A40511CFFF7E8FC01462068800284
:10195000000F801C4843216822685205520F074B34
:101960009A5C0906090F064B595CC840D04010BD6F
:101970000410024000127A0000093D00BE6B00080E
:10198000AE6B0008014908607047C046AC010020FA
:10199000B0B51F22D30234C99C433F239B029D4311
:1019A0000B782B4323430F242403A2431A4303231E
:1019B0009B034C688D689C4314434988034A0A4042
:1019C00022432A4342640020B0BDC046FF1F0000EE
:1019D000B0B5056801229407A04205D0234B984278
:1019E00002D0234B984217D170239D434B682B4361
:1019F000204DA84214DD204CA04206DC1B4CA04226
:101A000016D0204CA04213D02EE01C4CA0420FD088
:101A10001B4CA0420CD027E02B46164DA842EADC16
:101A2000A04205D0124CA04202D0174CA0421BD1BC
:101A300003242402A343CC681C4304608B68C36264
:101A40000B8883629A4BC3180A24E341072B06D8FC
:101A500014469C40E1231C4201D0097C016341698A
:101A6000114341610020B0BD1C46E6E7002C014057
:101A700000040040FF2B0140FF43014000480140AB
:101A8000004401400040014000200040F0B584B017
:101A90000123FF2945DC01296CD0102967D1016A97
:101AA000102399430162016A3023994313695B084B
:101AB0005C010C4317685168090121437C4C0619ED
:101AC0000A24E64145688469072E1ED8039701273A
:101AD000B740E126374217D00326B602B543536913
:101AE00002939769D369BF002646744C3C402C434F
:101AF000DD0025433446C0239943029B5B08DB018C
:101B00000B43916889011943039F456073231B02AE
:101B10009C433B0223438361D268826301620023BA
:101B200025E001273D02A9425FD03D03A9421ED115
:101B3000016AA94301625E4945180A21CD41016A43
:101B40004368146801945468039414690294C66944
:101B5000072D00D98FE03C46AC40E1252C4200D156
:101B600089E0BC03A3439469A4011C4384E01846A4
:101B700004B0F0BD0127F943036A0B400362136907
:101B80000B40046A032102918C431C431668516880
:101B90002143474BC3180A24E34145688469072B56
:101BA0001BD803963E469E40E1231E4214D0029B62
:101BB0001B029D437B02566902969769D6699F4333
:101BC0002F4375003D430C239943029B5B08DB00C8
:101BD0000B43916889001943039E456073239C431E
:101BE00034438461D26842635CE0016AA9430162C4
:101BF0003149491C13691B020B4003210291090260
:101C0000056A8D431D431168039151680B022B43F4
:101C1000274941180A25E9414668C56907291DD8A1
:101C20008F40E1210F4219D0029C21038E4351695C
:101C300001919169D769009709011E4F0F40374301
:101C400000994E013E43A1028B431C49091D019C92
:101C5000A4020C401C4391688B022343466073210D
:101C60008D4303990D43C561D168C16303620023AD
:101C7000184604B0F0BD1C46446073231B029E430B
:101C8000019B1B023343C361D26802640322120327
:101C90009143084A1032029B1B0313400B430399E4
:101CA0000903194301620023184604B0F0BDC04681
:101CB00000D4FEBFF0DFFFFFFFFDFFFFFCF7FFFFDB
:101CC00070B584B0044600680125C00724D10E46D3
:101CD00020682449014070680843F1680143306975
:101CE0000843B169014321600320010362688A430C
:101CF000B168114361600002A168814370690843C3
:101D0000A060194884420AD01848844204D10020B7
:101D1000FFF7D8FD002808D1284604B070BD01A8FF
:101D2000FFF7A6FD03980028F6D031680029F3D00C
:101D30000122D203B36993420AD140004A08101825
:101D4000FFF7EBFA0A4901400007400F401804E092
:101D50004A081018FFF7E1FA80B2E0600025284633
:101D600004B070BDF369FFFF00440040003801403B
:101D7000F0FF0000064807490160074901600221A1
:101D800041607D2149018160044901607047C0467E
:101D900000300040CCCC000055550000AAAA00003D
:101DA000F0B59FB000251D951C951B951A951995AA
:101DB0000E950124E3020393694A5068184350606A
:101DC00019A90D740D8050681840119018463138CB
:101DD0001B901198634E3046FFF7FAFD3068802162
:101DE000049108433060B0685F490140B160B06958
:101DF000082101910843B06112951395149515952A
:101E00001695179518956020119011AF3046214610
:101E10003A46FFF73BFE0420C1430091B0690840F9
:101E2000B061B06903990843B06113951295102110
:101E300030463A46FFF72AFEB0694C490840B06187
:101E4000F06901990843F0611395129521020191FF
:101E500030463A46FFF71AFEF06900990840F061F3
:101E6000F06903990843F0611395129521033046F8
:101E70003A46FFF70BFEF0693C490840F061706894
:101E80007021884370600BA9CD812D200873B06844
:101E9000049A9043B060109560030F900D950C95D7
:101EA0000B953046FFF774FD274660042C4B1968EC
:101EB000014319601968014005910598A004029436
:101EC000196801431960196801401E9102240A949F
:101ED000099508950795069405941E98244805AE23
:101EE0003146FFF757FC0A94099508950795069423
:101EF00005971F483146FFF74DFC0A940995089550
:101F000007950694049805900920C706384631467F
:101F1000FFF740FC0A9409950895079506940298E6
:101F20008002059038463146FFF734FC0A94099543
:101F30000895079506940298400205903846314668
:101F4000FFF728FC0A9409950895079506940198CF
:101F5000059038463146FFF71DFC1FB0F0BDC04666
:101F600014100240002C0140F8BFFFFFFFFBFFFFF1
:101F7000000400487047704770B52D490A68012079
:101F800082430A6022252B4C615DA27F012A0AD17F
:101F9000491C6155CAB2072A03D360552649087700
:101FA0000146014009E0491E61550A0603D1062198
:101FB0006155214A1077884301466177EFF310801D
:101FC00072B61D4EF07F002802D1605D00F030FA3D
:101FD00062B600F0FFF92B20002131542E2031543D
:101FE0005E20315A5822A05A0323434359188B08C4
:101FF000A3528903490C627A5A439209891A5423DD
:10200000F152615D49000D4D4919C8852A62607E13
:10201000002804D0686A0A49884206D970BD00F0D9
:10202000EBFF686A06498842F8D8401C686270BDB8
:102030000C200040C000002030050020AC0500202E
:102040000F27000070477047B0B545490A68012066
:1020500002430A600968434D2968014329602968E1
:10206000890708D42968890705D42968890702D413
:1020700029688907F3D52B6880210B437822934385
:102080002B606B6B03436B636B6B9B0708D46B6BB1
:102090009B0705D46B6B9B0702D46B6B9B07F3D537
:1020A0006B6B0B4393436B63696A01436962696AB3
:1020B000890708D4696A890705D4696A890702D43F
:1020C000696A8907F3D53D2109046A688A430521B5
:1020D000C90451186960E96A0F229143E962010657
:1020E0002A680A432A6041062A680A4208D12A68F7
:1020F0000A4205D12A680A4202D12A680A42F3D06C
:102100006968F02291436960072109026A688A437D
:102110006A60696802220A4382436A6069680C2027
:10212000014008290BD069680140082907D0696877
:102130000140082903D0696801400829EED10A4C02
:102140002046FFF785FB2046FFF71CFC686B042147
:1021500088436863286B032188432863B0BDC04669
:102160000020024000100240006CDC0270470000BA
:1021700080B50120C04302490860FFF7FDFE80BD25
:10218000102000400220C04307490A68920703D488
:102190000A68D20704D1704708600A68D207FAD0EB
:1021A000401C08607047C046104001407047000066
:1021B0000220C04307490A68920703D40A68D2077D
:1021C00004D1704708600A68D207FAD0401C086042
:1021D0007047C046102C01400220C04307490A68DE
:1021E000920703D40A68D20704D1704708600A68CE
:1021F000D207FAD0401C08607047C0461004004067
:1022000080B505480168C90704D00121C9430160B0
:1022100004F064F880BDC0461010004080B5084846
:102220000168C9060AD510214160064801680122EB
:102230009143016003F02CFA02F0A0FE80BDC0467D
:102240001C3801403000024081B00020009022483C
:10225000026822490A405218183202600268002AB5
:1022600008D50268002A05D50268002A02D502684E
:10227000002AF3D401220092009B002B17D0009B70
:102280005B1E0093009B002B11D0009B5B1E0093F4
:10229000009B002B0BD0009B5B1E0093009B002B30
:1022A00005D0009B5B1E0093009B002BE7D10368C9
:1022B0000B4013430360014608390A68D20708D16E
:1022C0000A68D20705D10A68D20702D10968C9078E
:1022D000F1D001B07047C04608240140E8FFFF7FFD
:1022E00070B53B4B186804210143082081431960F5
:1022F00002249C6203210A050920C0060568954353
:1023000001221605AD190560950285621D68154309
:10231000A5431D609A628B0404689C439304E318F0
:102320000360530283628B0304689C439303E318A6
:10233000036080238362090403688B4311045918E6
:1023400001601102816270BD70B5E5490A78E54C03
:1023500020680C239843002A03D0082210432060F1
:1023600004E00422104320600220A062032213052F
:102370000920C00605689D4301235E05AD1905606F
:102380000E7825689543002E03D00226354325603C
:1023900002E01D432560A36294040568A543DC04A4
:1023A0002C1904600C7895030168A943002C03D014
:1023B000DC032143016004E09C0321430160802190
:1023C0008162110402688A4359045118016070BD8A
:1023D00000040048124A11781248042901D001294A
:1023E00002D1552101601178052901D0022902D1BD
:1023F000652101601178062901D0032901D1452109
:1024000001600120400508490A780849002A03D0E4
:1024100000220A604860704700224A6008607047E6
:10242000E20000201C000140DD0000200804014003
:1024300070B5401E052800D950E1C04678440079A7
:1024400040008744020F3D6A88A6A5480278A54946
:1024500008680C239843002A00D1A6E00822104304
:102460000860A7E09F4B18680421014308208143BE
:10247000196002249C6203210A050920C006056830
:10248000954301221605AD190560950285621D6808
:102490001543A5431D609A618B0404689C43930413
:1024A000E3180360530283628D4B1C788D0303682D
:1024B000AB43002C00D1A6E0D40323430360ADE07E
:1024C000884B1868042101430820814319600224C5
:1024D0009C6103210A050920C00605689543012275
:1024E0001605AD190560950285621D681543A54363
:1024F0001D609A628B0404689C439304E318036094
:1025000053028362764B1C788D030368AB43002C27
:102510007FD0D4032343036080E0724B186804210A
:10252000014308208143196002249C6103210A05AC
:102530000920C0060568954301221605AD190560FE
:1025400095028562664D2E781D688D43002E6CD0F5
:1025500025431D606CE0634B18680421014308208B
:102560008143196002249C6203210A050920C006E8
:102570000568954301221605AD190560950285622F
:10258000574D2E781D688D43002E60D025431D6069
:1025900060E053480278534908680C239843002AA6
:1025A0006FD008221043086070E0042210430860D6
:1025B00002208862032213050920C00604689C4398
:1025C00001235D05641904600C681C430225AC43BB
:1025D0000C608B61910404688C439904611801605C
:1025E00059028162910304688C4399036118016068
:1025F00080218162110402688A4319045118016024
:102600001902816270BD94032343036080238362B7
:1026100004E0940323430360802383620904036876
:102620008B4351045918016070BD15431D609A62B7
:102630008B0404689C43D304E31803608B03046891
:102640009C439303E31803608023836210E01543E7
:102650001D609A628B0404689C43D304E3180360F2
:102660008B0304689C439303E31803608023836116
:10267000090403688B431104591801601102816237
:1026800070BD0422104308600220886203221305F3
:102690000920C00604689C4301235D056419046099
:1026A0000C681C430225AC430C608B6291040468E7
:1026B0008C43990461180160590281629103046896
:1026C0008C439903611801608021816111040268C3
:1026D0008A431904511801601902816270BDC04615
:1026E000C400002000040048F0B58DB0DF48016848
:1026F000C56F6A1ADE4E728193B25A093281DE4C7E
:102700002488A34200D80EE1DA4C2488A34200D3E7
:1027100009E10A954368591A012500230C93914257
:10272000294600D80C990991F1618168C368591A4A
:102730009142294600D80C99089131620169436998
:10274000591A9142294600D80C9907917162816902
:10275000C369591A9142294600D80C990691B16271
:10276000016A436A591A9142294600D80C99059189
:10277000F162816AC36A591A91422F4600D80C9FB0
:102780003763016B436B591A91422C4600D80C9C5D
:102790007463816BC36B591A9142294600D80C9916
:1027A0000B91B163016C436C591A9142294600D8D0
:1027B0000C990391F163816CC36C591A91422946BB
:1027C00000D80C9902913164016D436D591A914200
:1027D000294600D80C9901917164816DC36D591A15
:1027E0009142294600D80C990491B164016E436E60
:1027F000591A9142294600D80C990091F164816ED2
:10280000C36E591A91422B4600D80C9B3365016F59
:10281000466F711A9142294600D80C99944E716501
:10282000806F0A9E301A904200D80C9D90488565B2
:102830000998059A424003984240D000089A5740B0
:10284000029A5740BA00171807984440019844402C
:1028500064000B98069A50400B900098C0009A00B4
:1028600010184900461885480078854909780143C1
:102870000DD100F01BFD002809D07D490879401CCE
:102880000871C0B2652802D301207C490870701914
:1028900039190B9B049A5340784A1278002A01D0C8
:1028A0000F225040724D1943884239D11C353CCD1E
:1028B0006F48C66A6E48076B6D48416B6C48806B09
:1028C00092025B02134322021A43EB011343B2014B
:1028D000674E1A437B01134309011943C0000843A3
:1028E00034463C341ECC8D00054351002943194326
:1028F000CB4A00201080B289521CB281012C02D137
:10290000604A0123137030290FDB7278002A0CD043
:102910005D4800220270C6480180B2700DB0F0BD63
:10292000E889401CE8810DB0F0BD4A1E2E2A06D869
:1029300055480170BE4800220280C8B20EE000294E
:1029400002D05148007809E03178012901D10021F5
:1029500071704D490870B6490880B0700028E2D007
:102960004A4909780029DED1454909780029DAD099
:10297000F178884202D00021B170F070052805D3AB
:10298000B178491CB170C9B20629CCD30025B57005
:10299000411E142900D962E07944097949008F4425
:1029A0000A14181C205E242B32365E3B45505E5EB6
:1029B0005E5E5E570E003849012008704FE03448D3
:1029C000007834490870152049E033490220087026
:1029D00045E031490320087041E02F490420087088
:1029E0003DE02D490520087039E02A480121017099
:1029F00027480570072032E0264805702448012149
:102A0000017008202BE088480570092027E08648DF
:102A1000012101700A2022E002F0B0FC1C4800787D
:102A2000401C1D4908701848007818E00121717198
:102A300007204002F08032780D20012A0FD17170FA
:102A40000DE0757107204002FF30F0800E2006E097
:102A50000F4800780121081A0E49087014200A490D
:102A60000D700E4908700DB0F0BDC0466006002024
:102A7000900400202801002020050020500500209F
:102A8000570500204E050020600700205305002058
:102A90003A050020DE0000204B050020F808002049
:102AA000F0B581B0564E03CE081A564C0119574A5C
:102AB000083E91420BD8564D6978002909D0E97833
:102AC00000295FD1A97800292DD028892CE04E4E0D
:102AD0007FE05549097800290DD054490A887D21A5
:102AE000CB00904216D94B4C248809010091511C0F
:102AF0005B1C224612E047490A884A4909887D231F
:102B00001B012F3300932F2301F0BEFF312807DA7A
:102B1000002005E0434909880093002301F0B4FF39
:102B200028613F4E55E02881491CA970394F3988EA
:102B300080B200F09FFB332802DB002068701AE0AF
:102B400038880721414305CE101A4018C008388044
:102B5000A978083E33290ED3193881B22E4A891834
:102B6000CA0F8918490821222C4B99540121E97078
:102B7000388002F0BDF838882881E8780028D0D065
:102B800003CE081A29797D22D200FA32904208D267
:102B9000491C2971234A138807265E433018C00850
:102BA0001080C8B21E4E4C2813D31E48018819311C
:102BB0008AB2A2183332D30FD21852082023174CEE
:102BC000E25400246C70018002F0D8FB2C7102F0FA
:102BD0006BF80020308016480288F54909698C1A84
:102BE000144B1B689C4201DDD11806E0541A9C422C
:102BF00003DDD11A018001B0F0BD018001B0F0BD4C
:102C000060060020DFFCFFFF7C0500207605000049
:102C100014050020F00000202AF9FFFF61070020C2
:102C200086050020EE0000203B050020F200002079
:102C300080050020B8010020F0B58FB00024059475
:102C400001260696B20301923C4841681143416057
:102C50004168114008910899B10402680A43026072
:102C600000680840089007940220039008984020CC
:102C70000090029003250495314802A9FEF78AFDD1
:102C8000304F386830490140396028033968814342
:102C900039603868202101433960386800998843D9
:102CA00038603868802101433960280239688143DF
:102CB0003960A802396881433960FF200006234942
:102CC0000A688243F00710180860F006204908607F
:102CD0000E940D9404200C900B940A9409941D48B2
:102CE00008901D4C08A92046FEF7EAFFB002A16833
:102CF0008143A160A06808210143A160206830439E
:102D000020600199103138680840102805D120460C
:102D10002430F8601148B86004E020462430B860E0
:102D20000E48F8607868B349014040317960206806
:102D30001021014321600FB0F0BDC04614100240C5
:102D40000004004830000240EFBFFFFF18E400E03D
:102D500000E100E0A068060000380140F90500200D
:102D6000184900220A600A68824208D20A68824230
:102D700005D20A68824202D20A688242F3D37047BF
:102D800010B5104900220A604B2292014A600A469F
:102D9000103A146801231C4314600A244443086851
:102DA000A04208D20868A04205D20868A04202D218
:102DB0000868A042F3D330204860106818431060C0
:102DC00010BDC04624480140F0B5764BC933764863
:102DD000438076490F6800252A4603E052182835BB
:102DE000782D77D071494E197168CF1B1BD1B76808
:102DF000791A21D1F168CF1B27D13769791A2DD1E2
:102E00007169CF1B33D1B769791A39D1F169CF1BF9
:102E10003FD1376A791A45D1716ACF1B4BD1B76A56
:102E2000791ADCD050E09CB2A74201D247803B46E1
:102E3000D219B768791ADDD09CB2A14201D2418083
:102E40000B465218F168CF1BD7D09CB2A74201D2D3
:102E500047803B46D2193769791AD1D09CB2A1423A
:102E600001D241800B4652187169CF1BCBD09CB266
:102E7000A74201D247803B46D219B769791AC5D01B
:102E80009CB2A14201D241800B465218F169CF1B7E
:102E9000BFD09CB2A74201D247803B46D219376AC5
:102EA000791AB9D09CB2A14201D241800B46521886
:102EB000716ACF1BB3D09CB2A74201D247803B4678
:102EC000D219B76A791A8AD09CB2A14286D24180BF
:102ED0000B4683E75109364DA961364C217801290B
:102EE00025D1991E89B202290AD80F21C9018A4227
:102EF00006D20021A971304E31700E262D490EE008
:102F0000591F89B2032912D81921C9018A420ED248
:102F1000294901260E7027490E70A91D0726274F43
:102F20003E7001260E702021017025490E70254E3D
:102F3000317801290BD1C93B99B21A4A914230D25A
:102F40001D492F220A7001213170022125E02778C6
:102F5000002F26D1002924D1991E89B2022909D82F
:102F60000F21C9018A4205D20021A971124A1170AC
:102F70000E210DE0591F89B20329DCD81921C9019E
:102F80008A42D8D20C4901220A702270AC1D072156
:102F90000A4A1170012121702021094A012313706E
:102FA0000170F0BD574D0000240100206006002094
:102FB0001405002059050020B4010020110500204F
:102FC000580500205A050020074808498160084933
:102FD000C1604168074A0A40D11C41600168012272
:102FE0000A4302607047C046080002404024014086
:102FF000E80500200000FFFF012040057D490A6828
:1030000002430A607047C046F0B58DB06F48016852
:10301000012631430160016810220A430260330235
:10302000016819430160016804220A4302600168D3
:1030300040220A430260B10202680A43026031037F
:1030400002680A43026064210162014620390A686D
:1030500032430A60F203416A0392114341620C3821
:103060000168314301605A48016A314301620168D5
:103070003143016000250B95B00456490A680243AC
:103080000A600A6802400C920C9870040A680243B5
:103090000A60096801400C910C984F4C0193236021
:1030A0000820059020602020009020600A95099556
:1030B0000895079606932746283F06A904913846A7
:1030C000FEF768FB0A9509950895079605980690FE
:1030D00038460499FEF75EFB02950A950995089516
:1030E0000796009D069538460499FEF753FB019814
:1030F0002060103C256005982060384801460C3956
:103100000A6832430A608168314381600168314353
:1031100001600168B14301603148016831430160D9
:10312000416931434161B007016831430160416940
:10313000314341612B4801683143016041693143AA
:103140004161C1683143C160FEF7CEF9FFF73CFF32
:10315000FFF77AF8029806905348016831430160FE
:10316000A44800682049FEF7D8F80621414306919B
:103170000698002817D00698401E0690069800284A
:1031800011D00698401E0690069800280BD006988D
:10319000401E06900698002805D00698401E06900E
:1031A00006980028E7D1FF20000610490A688243EC
:1031B000F007101808600E48802101600D48016872
:1031C000039A114301600DB0F0BDC046202C0140B0
:1031D0000004004014100240280400480C20004065
:1031E0000048014000100040400D030004E400E0EE
:1031F00000E100E00004014070B5194B186804219B
:10320000014308208143196002249C6103210A05BF
:103210000920C0060568954301221605AD19056011
:10322000950285621D681543A5431D609A618B0454
:1032300004689C439304E3180360530283628B0386
:1032400004689C439303E3180360802383610904AB
:1032500003688B431104591801601102816270BD2B
:10326000000400480248016801220A4302607047D6
:10327000142C0140401AC1174840401A7047000002
:1032800007480068C00007494018012189038140B0
:10329000054A12680A400E30C240D0B27047C0469C
:1032A000B001002020FFF7FF1C0001400248016828
:1032B000102008407047C0461004004810B582B086
:1032C00047490B680120420713604B6853608B68C5
:1032D0009360CB68D3600B6913614B6953618B6951
:1032E0009361CB69D3610B6A13624B6A53628B6A39
:1032F0009362CB6AD3620B6B13634B6B53638B6B21
:103300009363CB6BD3630B6C13644B6C53648B6C08
:103310009364CB6CD3640B6D13654B6D53658B6DF0
:103320009365CB6DD3650B6E13664B6E53668B6ED8
:103330009366CB6ED3660B6F13674B6F53678B6FC0
:103340009367C96FD16727490B68274A13604B6899
:1033500053608B689360CB68D3600B6913614B69D2
:1033600053618B699361CB69D3610B6A13624B6ABA
:1033700053628B6A9362CB6AD3620B6B13634B6BA2
:1033800053638B6B9363C96BD16318490A6802431B
:103390000A600968014001910198154801680324F9
:1033A000A14301600168214301607D20C1001148F3
:1033B0000068FDF7B2FF401E010E00D0FEE78E4907
:1033C0000D4A50600D4803680B40A1075918016071
:1033D000002090600720106062B602B010BDC046A9
:1033E0000010000880100008800000201810024023
:1033F00000000140AC01002010E000E020ED00E002
:10340000F0B593B0FEF720FE774F7868012601965D
:1034100030437860786830400C900C983007B96879
:103420000143B960B96801400C910C986F4801687C
:1034300010220792114301607504386828433860F0
:10344000386828400C900C98B104089138680843FB
:103450003860386808400C900C980920C106039128
:10346000F0038862386830433860386830400C9028
:103470000C98FF200B9000045D4A11688143B00551
:1034800008181060B0025B49086010685A4B184079
:10349000B40700191060F00209900860FEF780FC84
:1034A000B8683043B860B86830400C900C9817206A
:1034B00002900694A0625148E06200200A901190A8
:1034C00010900F900E903868049528433860386843
:1034D0002840129003260D96022005900C90129819
:1034E0000CAD039C20462946FEF754F90A9810902B
:1034F0000D9620200C9020462946FEF74BF93C49BA
:1035000048680B9A904348600D467D204001014673
:103510006031384B1960019C2102BA680A43BA60D5
:10352000BA680A400C920C993549029A8A62C862BC
:10353000A868314A1040A860E00418600A6880203A
:1035400002430A60B968079D2943B960B9682940F8
:103550000C910C990B990902254B9A688A43B10387
:10356000511899601E462349049A0A6025492F2262
:103570000A6032234B607968089B19437960796847
:1035800019400C910C9920498A621C4ACA620A6847
:1035900082430A60B86805990843B860B868084073
:1035A0000C900C98386818433860386818401290AE
:1035B00011940A9C10940F940E940D910C951298EE
:1035C00012480CA9FEF7E6F830680B490840069946
:1035D000401830600998074908600D4804603F2191
:1035E000416013B0F0BDC0461410024000200240FC
:1035F00008E400E000E100E0FFFFFF00FFFF000043
:10360000002000402810004000480140000400480D
:1036100028040040B0B5324CA0697E2821D331493E
:103620000A6831487C2A09D85222825AD2084A2A8A
:1036300004D8626A92087D2A00D2B0BD58222B4B72
:103640009A5A520809689142F7D32521425C521CCC
:103650004254D0B2652804D301F044FA00206062DD
:10366000B0BD224CE07E617F00290BD0002814D031
:103670000025FFF705FE0028DFD16D1CE07E8542A6
:10368000F7D30AE0002808D00025FFF7F9FD00284D
:10369000D3D06D1CE07E8542F7D301F023FAEFF31F
:1036A000108072B60F4A10685E230F49C85283B269
:1036B000156800209D42054601D91568ED1A156070
:1036C00054228B5A247EE3408B52094988615A1C4C
:1036D0000A6248600868012202430A6062B6B0BD0F
:1036E000AC0500202400004030050020C000002070
:1036F0000C200040F0B585B001263402F04DF149B0
:103700002846224601F010FC687804280BD8BFF345
:103710004F8FFA48FA490160BFF34F8F00BF00BFD7
:1037200000BF00BFFAE7687C401E41424141E64AC3
:103730009172A87C401E41424141D172E87C01282F
:1037400000D196730496E87D212800D31020DF4F26
:103750007872287D401E414241413971687D401E8A
:10376000414241417971A87D401E41424141B971B8
:10377000287E01460839D64B582914D8D64E182829
:1037800017D201460C390B2922D9FC210140082906
:103790002BD1D049009107211022D14B01F074F9AF
:1037A0004821785223E01846F93046217852CA4819
:1037B0001FE02146F331009118216022334601F0C9
:1037C00063F948217852287E01460C390B29DCD850
:1037D00000960C211822C14B01F056F9482178526D
:1037E000287EFC2101400829D3D04820385A80B2D5
:1037F000B54A0394BB4918390860687E01463239DE
:10380000C9B2642901D831387875E87EB872A87ECB
:10381000282460431430F884287F401E41424141EF
:103820001173687F401E4142414151730226304668
:1038300002F04EFC687800282CD0A87F0B2800D915
:10384000052002F045FC2320285C38742220285CE7
:10385000A549401878862020285C4000A3494018DC
:10386000F8852120285C4000994940183886E87F77
:10387000401E41424141944BD9732420285C0228C8
:103880000BD0012810D1049898742520285CFA30B8
:10389000B8860BE0FD8C039CEBE09E742520285C31
:1038A00064214143B98401E0002098740020029013
:1038B00018742621695C491E4A424A41DA74295D1E
:1038C0004A1F142A00D8F9732922A95C4B1E092B20
:1038D00000D839732A24295D4B1EDBB2082B0AD885
:1038E00079730923DB434B433D3BBB73D9B27D481E
:1038F00003680B4303602B21695C0B46463B462B58
:1039000000D839722C23E95C4E1E622E04D8049E26
:103910006D488675490039852D2001902E5C711EF9
:10392000092900D8FE722E216E5C092E09D8042EBA
:1039300065480DD87E4436797600B74402A9AFB306
:10394000B70061480299015581546949049A0A7087
:103950003521695C491E4A424A41C2543621695C9C
:10396000012925D13721695C142251432F31582375
:103970005548C1523821695C51432F315A2252486F
:1039800081520499504841703B21695C5A4A3C235A
:10399000EB5C3D242C5D101D1AC03921695C64224A
:1039A0004A433A21695CC8234B43FB6546483A6663
:1039B0003E21695CC1863F216B5C652B07D21422D6
:1039C0005A4342217A52797D5118B98701E0422148
:1039D0007A5A50217B5ABC7B1B197B5240217B5A5F
:1039E0001219D2187A52695C5529374A01D10499C3
:1039F00011704121695C91704221695CD171432150
:103A0000695CB9704421695C11724521695C552972
:103A1000039C01D1049911714621695CD170472141
:103A2000695C39704821695C79704921695C0129B8
:103A300002D1049901981154FD8CA9084A2901D892
:103A40000298B874B97A2020FDF767FC0646112168
:103A50002846FDF762FC3146FDF75FFC4E217852A7
:103A600064212846FDF759FC3146FDF756FC4C21F0
:103A700078522046F43000902C341648C21C7D2029
:103A8000C3002846214600F0FFFF788705B0F0BD4F
:103A9000049CFA48845416490C7059E70499F74875
:103AA000015555E70521F548417151E7049CF3485C
:103AB00084540F49029A0A700E490C7048E7C046B8
:103AC00061070020007C000830050020C0000020B5
:103AD000D6060000B50B0000CF0700009E0F0000C7
:103AE0006D170000442C01405E050000EE0200004E
:103AF0009104002090040020340100200CED00E02F
:103B00000400FA0500B597B0FFF7D8FBFFF778FC83
:103B1000FFF77AFAFFF7EEFDD34C207904210B91E1
:103B20004840E178032202925140014301200F9066
:103B300000020490002931D0042020710320E0709D
:103B4000601DCAA10C22FDF7D1FACB48C178617083
:103B5000417AE175C9498A7A521E534253416374CE
:103B6000CA7A521E53425341A374897B491E4A426A
:103B70004A41E2740179491E4A424A41227541791B
:103B8000491E4A424A4162758079401E4142414184
:103B9000A175BB4A2046049901F024FCB74FB87BBD
:103BA000002802D0B448C18F81874820B24E1490BB
:103BB000305A462110917052B87A401E411E8841F9
:103BC000B0773079002801D10020B873F87CAD4976
:103BD000002815D00846BE30502170524220315A7C
:103BE000323131524420315A323131520020B873CF
:103BF0000121F972B174B071B080B08F3230B087EA
:103C00007879401FA04CA14D01280AD8FFF714F87D
:103C100001F0B4F928200121395401F0F5F82C60A5
:103C20000CE002F0B5FA4C20002139522C6001F072
:103C3000BBF97878002801D001207875387894494C
:103C4000002808D0582031520020B87300F04AFFF5
:103C500000F0F0FF01E001F0D7F88E4801688E4ACD
:103C60000A4002608D498A600068010F02D1192163
:103C7000C94300E000213122B954000C8749C860D3
:103C800002F008FAFEF776F8FF200A9068301190EB
:103C90007D2001010D910890C0000C9000F076FD90
:103CA000B879002815D0787A022809D0012803D1E4
:103CB000FEF71AFD0020787201F02AFE734906E033
:103CC0007648008D00F002FE7049002078720020D6
:103CD000B8717248406A052801D30B9800E00820AB
:103CE00021221292B054202570550C606B4A508EE0
:103CF000118E0818918E4018D18E4018118F4018DF
:103D0000518F4018001D40089062707900280BD038
:103D10005820305A1499715A00914B086021C822DA
:103D200000F0B2FE109970525622B85A5C4988428F
:103D30000AD32724395D002901D000F02AFD594912
:103D4000884201D300F049FD169513924026B85BD6
:103D5000554988423BD342203C5E2046FDF7B9FAE4
:103D60005249FDF740FA01464C4D2869FDF7E2F94A
:103D700028614F48007803280BD0022818D001286A
:103D8000119A22D13020395C104699300843022123
:103D900017E06A20385A47494143090C401A400845
:103DA00040180009C1B23748D6300843012108E065
:103DB000A0B2C0B229214143C80A029A5102401858
:103DC00011463B4A11703C4908800020B8533878AE
:103DD0000028324C394D00D136E1A06A03210E9102
:103DE000FDF7BAFA0146A061387F00281FD0606A4B
:103DF00015281BD3E06AFFF73DFAA1690D9A91429D
:103E000012D24A0890420FD92320002139541A4B6C
:103E1000988F40084422B8526162012058762849A0
:103E2000A161F87D401CF87500203877E1625821C7
:103E300011481591425A16983B5C2846083801688B
:103E4000204C2140002B41D0472A3FD301602868F5
:103E50001C4908401C49243901432960281F006877
:103E60003043BF213DE0C046610700204558554121
:103E70005620463000000000C00000203005002021
:103E8000007C00082A030000AAAA000000300040BD
:103E90008813000000580140FF0F0000AC0500200F
:103EA00011270000419C0000214E00000000B44397
:103EB00095040020AF4700009604002010E400E0C5
:103EC00010270000FFFFFF0024000040DC4A243AD6
:103ED000114301602868DB4908402860281F0068FA
:103EE0000A998843291F0860B87F0028D64E16D04B
:103EF0007879002813D1D5480069FDF7F5F9034614
:103F000042203A5A6A20395A3020385C70243C5B8F
:103F1000009400F09FFC01F095FB0020B877787FBB
:103F2000401C7877C0B2652800D2CBE0FDF7C8FA14
:103F30007420385A72217A5A072462431018C5082F
:103F40007D52C34E306840000321FDF7E6F9BE4ABA
:103F50001099515A401C80B2884200D30846D0863E
:103F60007060BC4908681646BB4A1040001D0860D6
:103F7000BA4B19886A1A502050435A89511AFDF7D2
:103F8000EBF91E3030217854762178526A25785B1F
:103F900044437820385AB2494843B249FDF7BDF945
:103FA000F17C48436421FDF7B8F90019C008169068
:103FB0007853129BF85C411CCAB20025312A2A466C
:103FC00000D80A46FA544000A74B195A5C22BA5A44
:103FD0001A529E48C069401A861832213046FDF7B1
:103FE0009CF94A21785284B29D4860439F49FDF76D
:103FF00094F9010400D52846422178529348C661BD
:104000004461B87C0028904E5AD0169880B2B18C8A
:10401000814253D9F88F401CF8872421795C944A57
:1040200051430C9A891880B2814249DA4E2000240B
:104030003C52FEF755F900F055FD4C203C52232030
:104040003C5427203C543BE01498385A43424341A7
:10405000626A0C998A420F9909D90023642A0F9A3F
:104060000AD9C8280F9C0BD200290CD00DE01946A4
:104070000023642A0F9AF4D81A46C8280F9CF3D359
:104080001C46002901D1224002D0222100227A546C
:10409000B97B002904D09F2802D8222100227A541B
:1040A000397E0029694C00D1BDE11199293188423E
:1040B00000D392E62220002139548EE60020F887B2
:1040C00000207877252000233B542424385D0028E5
:1040D00000D1DBE04E22B85A312800D226E1272158
:1040E000795C002900D121E18828129200D974E17D
:1040F000787C0028564D10D05E4A10680121884314
:10410000106000F0EFFC2846083800240460281FE7
:1041100004602C60FEF718F97C746222B85AB17FF3
:10412000002900D12FE2411E08B20028119C204630
:1041300000D40846B85264217A5A521E13B2002B9A
:10414000234600D413467B526621795A4A1E11B287
:104150000029214600D4114666221692B952139ABC
:10416000B15A144600B24000434A105E0918149D2B
:10417000705B4843089909011591FDF7EDF8F17A54
:1041800048430A263146FDF7E7F880B201F08EFF7A
:104190002D48005B6421795E4900374A515E411821
:1041A0002948405B4843159C2146FDF7D5F8264930
:1041B000C97A48433146FDF7CFF880B201F07CFF61
:1041C00021481399405A1699795E49002A4A515E4E
:1041D00041181D48405B48432146FDF7BDF81A4988
:1041E000C97A48433146FDF7B7F880B201F06AFF5B
:1041F0001548847A21482146FDF78FF80646204865
:104200002146FDF78AF803461298385A00960E4E5A
:104210003021782200F038FC5424305380B2FEF76D
:104220009FFD315B1198F130FDF777F870217852DE
:10423000144938780028144C00D0A5E230E5C04677
:1042400024000040FFFFFF00C0000020AC0500205C
:104250003C2C014008240140E8FFFF7FB8F7FF1F16
:10426000E40C0000FF0F0000FA080020E20200004A
:104270007CFCFFFF0C200040BE0100202A03000050
:10428000581B000000300040AAAA000023243D5D16
:10429000CA48816ACA48FDF75FF8684370217852BE
:1042A00080B2C8494843C00C7A217852B17C0029B9
:1042B0000D990BD05021735A4E21725A4C21715ACC
:1042C0005225755B009500F0DFFB01464A257153CE
:1042D0003020385C327A90420AD95221715A012337
:1042E00000934B0811460A390A3200F0CDFB705397
:1042F0002C20385C00280AD04E20385A1621009114
:104300000D9A2F322F210A2300F0BEFB7072E44871
:10431000406A6328159D30D8715B11988D308142B9
:104320002BD90C20DF4A642935D335E001257D7473
:10433000387B00287CD01498DB4E345A307B400008
:1043400020181338522178521099715A80B248437C
:1043500021461693FCF7E1FF201A401C6E243853C7
:1043600000F0B0FD169B385BD04A11460839086052
:10437000111F08601060FD7766E0C94880690C2154
:104380000091049AF4326421032300F07DFB715BF9
:10439000C44A642900D20220C549F0761068C54A93
:1043A000904200D294E1385D012800D090E12225AE
:1043B000785D401C785500F095FB334601217176FD
:1043C0004E20385A30281395129146D20020385585
:1043D000B948B349B34A159E43E0039401200590C0
:1043E00078746225785BB17F00291693099500D116
:1043F000EAE0411E08B20028119800D4084678531C
:1044000064217A5A521E13B2002B119B00D413461A
:104410007B526621795A4A1E11B20029119D00D59E
:10442000EDE01546EBE0952800D9A8E06420A7E070
:104430009E4D284608380360281F03602B601C46E9
:10444000FDF74EFF2346F74EF84970203B5238786F
:104450000028F54C00D097E122E4159E985BF449C2
:10446000F64A00254D6211685E22B9520E9A424307
:1044700088B23C461718B8089853F04916950D6055
:1044800080B2197FFCF749FFF9082746E84C091A62
:104490005422B952E94A206288B2616A052914D2CD
:1044A0001168E7490862DF4A139D505D917F012939
:1044B00018D1401C5055C1B20729129903D3D948CD
:1044C000415539770846084017E011688142E8D223
:1044D00011688142E5D211688142E2D211688142BD
:1044E000F3D3DEE7401E50550106129A03D1062091
:1044F000CC4948553A7782431046CA4E7077EFF35D
:10450000108072B6F87F002802D1705DFDF790FF31
:1045100062B6FDF75FFF2B20169939542E203954CF
:1045200026203954606A411C61621598305A725DC8
:1045300052001219D085FA7C531E9A417B7B002BC6
:104540000F9B00D11346012B09D11429B74900D282
:10455000BEE00D99491C8842B44904D3B8E029292A
:10456000B24900D2B4E016987076FEF745FDAF4927
:1045700038780028AC4C00D006E1FFF791FB0A2008
:10458000A849087529E4431C18B20021119DA842CE
:10459000084600DC1846B8526422BB5A5B1C1CB2A9
:1045A000AC420C4600DC1C46BC526622BA5A521C75
:1045B00013B2AB4200DCCEE5CEE5C046AC05002030
:1045C000C0270900CDCC0000411C08B2119EB042AA
:1045D00018461D4600DC08460999785264217A5A2B
:1045E000521C13B2B3422B4600DC13467B526621A9
:1045F000795A4A1C11B2B14200DC1546894E662236
:104600000792BD521399715A00B24000904D285E36
:104610000918149C305B4843089909010691FCF77E
:104620009BFEF17A48430A210E91FCF795FE80B279
:1046300001F03CFD139D705B6421795E4900844A62
:10464000515E4118305B4843069C2146FCF784FECE
:10465000F17A48430E99FCF77FFE80B201F02CFD01
:10466000705B0799795E4900794A515E4118149848
:10467000305A48432146FCF76FFEF17A48430E99C1
:10468000FCF76AFE80B201F01DFD1298385AC82866
:1046900014D95421502070521699099D795310E075
:1046A000AC05002024000040C00000203C2C01404C
:1046B00000300040C9AF0000881300005420305A79
:1046C000099DFEF74DFB785B002858495B4A05D0F1
:1046D00038780028544C57D1FFF7E2FA2320059987
:1046E0003954169B03983B545248159D705371766C
:1046F0004F4CE062A0611060FB7714206062787B11
:10470000002802D04420315A3952B07EB17F0129AD
:104710000BD1401C22217054C2B2072A02D3059843
:1047200070543877059908400BE0401E22217054E0
:10473000020603D106207054059939770599814303
:1047400008461C467077EFF3108072B6F87F002899
:1047500003D12220305CFDF76BFE62B6FDF73AFE16
:104760002B203C542E203C54705B2221715C49006C
:104770002F4A8918C885FEF775FDF6493878002854
:10478000F54C01D1FFF78CFA00F062FCF149FFF71C
:1047900087FAFDF7A5FD00203855282178544E21D1
:1047A00078524C217852274A114608390860111F67
:1047B0000860106000F044FC012001022348FCF76F
:1047C000AEFCBFF34F8F1C481F490860BFF34F8FEB
:1047D00000BF00BF00BF00BFFAE7FDF781FD00206A
:1047E0003855282178544E2178524C217852154A58
:1047F000114608390860111F0860106000F020FCA5
:10480000012001021148FCF78AFCBFF34F8F0A48D0
:104810000D490860BFF34F8F00BF00BF00BF00BF4E
:10482000FAE7C046C0000020AAAA000000300040FD
:10483000AC050020282300000400FA0524000040F5
:104840000C2000403C2C01400CED00E060060020F4
:10485000BE010020F0B583B01E4615460346194C34
:10486000089802902072A6712271A1702370000A2C
:104870000190E071300A00906071120AE270080A3B
:104880006070114FFB5C4340D8B2385C4840C0B206
:10489000385C5040C0B2385C6840C0B2385C0099A7
:1048A0004840C0B2385C7040C0B2385C01994840A2
:1048B000C0B2385C02994840C0B2385C607203B044
:1048C000F0BDC046EE050020D66C0008F0B583B000
:1048D000664EF588002D02D00020F08015E0644976
:1048E0000978002900D16348C10B09D10322930341
:1048F000034001218C03A34200D090E0062200E097
:1049000007223261D040550205435C4800788000A0
:1049100001905B490C1840236360290A5948405CA8
:104920000090820018469043A0602F0979406940AA
:104930000F2602968E43290189194C4A516100992C
:10494000CA001A404240E260C80300900298074043
:104950004C48C75DB9020098014302980540494898
:10496000405D009045010D434648805D02902E4613
:1049700006433E488661C80A1840504020618A0AB2
:104980001A4042406261480A18405040A061B90094
:1049900019404140E161FA001A404A4022623F203A
:1049A000C0430240A9091940514061626A091A4096
:1049B0004A40A262290919405140E162009DAA00C3
:1049C0001A404A402263E90019405140616372086D
:1049D0001A404A40A263024071001E405640E663FE
:1049E0001940714021640022254D019EAA51029D6B
:1049F000AA001A404A406264E90019405140A1648B
:104A00002A011A404A40E264690119405140216577
:104A10000140E807400E4840606503B0F0BD072341
:104A20005B0303404C03A34201D1052269E70F2336
:104A30001B0303400C03A34201D1042261E71F239F
:104A4000DB020340CC02A34200D15AE73F2292028C
:104A5000024089028A4201D1022252E77F214902A3
:104A60000140054A89184A424A414AE79004002019
:104A700053050020FFFF000000FEFFFF110500208E
:104A800064080020C66C0008F0B5059C88421EDD55
:104A90000F461D46264682421EDD1346974210DC15
:104AA000B5421BD071194C10D9194A10974217D032
:104AB0008242EFDA511C1A46234634468142E7DB34
:104AC00005E019463A4633462C468142E0DB8242F5
:104AD00000DC23461846F0BD3046F0BD2846F0BD48
:104AE0002046F0BD0120400502490A6882430A6061
:104AF0004861704700040140F0B581B0BD4DBE482B
:104B00006860EFF3108072B6BE480078E8602861F4
:104B100068617924B94EBA4F3760A41E142120462B
:104B2000FCF7FBFBC0B2FDF783FC60080A3028608D
:104B30000A20FEF725F9022CEED8FDF7D1FB002064
:104B40002860D1490880D1480088686062B601B009
:104B5000F0BDC04600300040AAAA0000F0B581B008
:104B60000320FDF765FC00263225009603E0761C45
:104B7000AD1CAE2D47D2A248A0490860C24800999A
:104B80000180284840198778FF2FF0D0C07800288E
:104B90002CD00A21B94A1160F72141437D20400100
:104BA00009182148FCF7B9FB044620482146FCF7C8
:104BB000B4FBB2494860B34909784843B049FCF7AF
:104BC000ACFBAE49C86008614861F0B2FE214143C8
:104BD000CE1917482146FCF7A0FB70436421FCF76F
:104BE0009CFB80B2FEF7CCF80026C1E70024A34866
:104BF000C46004614461F0B2FE214143C819FEF76C
:104C0000BFF82646B4E7FDF76BFB00209B4A106017
:104C10009E49098851609C49088079487749086015
:104C200001B0F0BD6107002080969800003E490069
:104C3000A0860100B0B5EFF3108072B68F4D90489A
:104C4000686090480078E860286168610120FDF79D
:104C5000EFFB282028604B2084002046FEF790F8C8
:104C60000220FDF7E5FB1E2028602046FEF788F8AD
:104C70000320FDF7DDFB192028602046FEF780F8B1
:104C80000420FDF7D5FB142028602046FEF778F8B5
:104C9000FDF726FB002028607B4908807B480088C0
:104CA000686062B6B0BDC046B0B5744D7448686007
:104CB0002820286073480078E86028616861022035
:104CC000FDF7B6FB96242046FEF75AF84B484C49B0
:104CD0000160502028602046FEF752F8FDF700FBE7
:104CE0000020286068490880684800886860B0BD76
:104CF000B0B5624D62486860322028606148007833
:104D0000E860286168610220FDF792FB9624204646
:104D1000FEF736F839483A4901601E2028602046DF
:104D2000FEF72EF8FDF7DCFA0020286056490880CF
:104D3000564800886860B0BDB0B5EFF3108072B619
:104D40004E4D4F4868602D482D4901605020286025
:104D50004C480078E860286168610320FDF768FB33
:104D600064242046FEF70CF8462028602046FEF713
:104D700007F8282028602046FEF702F8FDF7B0FA71
:104D8000002028604049088040480088686062B67A
:104D9000B0BDC046F0B581B0384D39486860EFF31A
:104DA000108072B6154E164F37603C20286035488B
:104DB0000078E860286168610120FDF739FB4B2429
:104DC0002046FDF7DDFF502028602046FDF7D8FF84
:104DD0005A20286037602046FDF7D2FFFDF780FAA1
:104DE000002028602849088028480088686062B64A
:104DF00001B0F0BD282C0140CF070000003000407A
:104E0000AAAA0000F8050020B0B5EFF3108072B632
:104E100019480078194DFF2802D0FFF79FFE25E0C2
:104E20001748686017480078E860286168610320C7
:104E3000FDF7FEFA37202860C8242046FDF7A0FFC2
:104E40000520FDF7F5FA282028602046FDF798FF99
:104E50000620FDF7EDFA192028602046FDF790FFA7
:104E6000FDF73EFA084800210180296007480088C4
:104E7000686062B6B0BDC046807C0008282C014046
:104E8000CF070000F805002086050020080100205B
:104E900010B50A4C607A022808D0012803D1FDF72A
:104EA00023FC0020607200F033FD10BD0448008D2B
:104EB000FFF70CFD0020607210BDC04630050020D9
:104EC000AC050020B0B503210A050920C00603681F
:104ED0009343012214051B190360930283628B0420
:104EE00004689C439304E3180360530283620B0439
:104EF00004689C431304E318036013028362094BA4
:104F00001C68082525430424A5431D601C68022550
:104F1000254395431D60890303688B43D1035918CA
:104F20000160B0BD00040048F0B5012A24DB032471
:104F300013462340551E032D01D200240EE0A24348
:104F400000240D5D055505190E1977786F70B77837
:104F5000AF70F678EE70241DA242F2D1002B0BD078
:104F6000625C0255012B07D0621C555C8554022BF4
:104F700002D0A21C515C8154F0BD0000074841687A
:104F8000074A0A404032426006490A6840231343F8
:104F90000B60016801220A43026070473000024042
:104FA0000000FFFF08380140B0B51B48016802222D
:104FB00011430160016891430160184801460839B6
:104FC000174A0A600A21016016490978816016496A
:104FD000C16002460C3A136801210B4313600022A2
:104FE0004260124B124CDC60044614349C60114C3D
:104FF00024785C60104C1C604B020446143C25680D
:105000001D43256003680B4303600C4B1A70203866
:1050100002680A430260B0BD101002402004004044
:1050200001600000B4010020FFFF000044000240C6
:1050300060060020240100208B09000010050020DC
:1050400002480021416001607047C04624040040CE
:10505000F0B585B04826DF4B985BC3494143090D45
:10506000401A049085B2DD4F3879002842D02724B9
:10507000395DF87A002903942AD0002828D0B85B3B
:10508000009502953025B94A002729463B46FFF78F
:10509000FBFC0446D148408E029900912946B34A50
:1050A0003B46CE4FFFF7F0FC85B2A4B2281940086A
:1050B0000499081A80B200F0FFFF2046039C00F01C
:1050C000F5FF2846029D00F0FDFFC24B395DF87ADE
:1050D000421E90414A424A41024300D041E19C7F36
:1050E000FDF7FEF80A20FDF73BFE002C16D001F07C
:1050F00049FC15E0B85BB97E002900D0B9E0312841
:1051000000D2B6E09C7FFDF7EBF80A20FDF728FE01
:10511000002C00D1A8E001F035FCA7E001F072FC02
:10512000B85B00952E463025904A00242946234638
:10513000FFF7AAFC0290788E009629468B4A0194CC
:105140002346FFF7A1FC39460746485DA14A117A7C
:10515000884209D97308012200920A461432FFF7E7
:1051600093FC9C4A86B200E00498029B4A2150526C
:10517000B9B2B14204464DD999B2B1424ED9974E17
:10518000B17D00294FD004904225705F6321C9434F
:10519000128D4A431018764988620A6C831A0E6B86
:1051A0004A6B8F6B5A43CA6308644643F3198E6C8B
:1051B000B34200DB33467642B34200DC33468B63B6
:1051C000D218CB6A58431018CA6C9042834E00DB49
:1051D00010465242904200DC10464864FCF779F8D1
:1051E0006449FCF700F8FCF77FF87A4B198F091A2D
:1051F0000AB2585B824200DB0846188702B2A1B2AD
:105200009142014600DC2146049CA3B293420BDC90
:10521000204609E03C4699B2B142B0D818466F4EDC
:10522000B17D0029AFD121468CB2621E2146914149
:10523000020400D0012101290ED10399715C0029DB
:105240000AD080B200F032FF002000F035FF204687
:1052500000F038FF05B0F0BD47480199016041609A
:105260008160B17605B0F0BD01F0CCFB0120B876CD
:10527000B85B009530243D4A002321460393FFF795
:1052800003FC544A39460746085D117A8842049B5C
:105290000AD9925B0123009353080A461432FFF7A0
:1052A000F3FB4C4A034685B24A201352B8B2A842D7
:1052B00000D83B46494EB07D00283FD0049342249D
:1052C000305F6321C943128D4A4310182849886210
:1052D0000A6C831A0E6B4A6B8F6B5A43CA6308645D
:1052E0004643F3198E6CB34200DB33467642B34239
:1052F00000DC33468B63D218CB6A58431018CA6C53
:105300009042364E00DB10465242904200DC10467E
:105310004864FBF7DEFF1749FBF765FFFBF7E4FF87
:105320002C4B198F091A0AB2185B824200DB08461F
:10533000188701B2049B9AB28A4200DC1846010425
:105340000D4909D02722B25C002A05D080B208603E
:105350004860886005B0F0BD0398086048608860C8
:10536000B07605B0F0BDC046CDCC0000FF07000010
:105370003401002000401C46342C014010B5154972
:10538000CA78154842704A7AC275144A937A5B1EED
:105390005C425C414474D37A5B1E5C425C41847421
:1053A000927B521E53425341C3740A79521E534298
:1053B000534103754A79521E5342534143758979CB
:1053C000491E4A424A41827501210902044A00F0FD
:1053D00009F810BDC0000020610700203005002042
:1053E000007C0008F0B503AF8BB06E46F41D193495
:1053F00015467161B061C80F0B1801221946F260A1
:105400009143C91D072291436A46501A5910854697
:10541000F0613161FBF783FE7069022859DBB269E4
:105420000320336919460140B160591E0329746095
:10543000356001D2002121E08343736100231946C6
:10544000D25CB069C01844782402A218F569EA5207
:105450008278C4782402A218EC1862800279457917
:105460002D02AA18A2808279C07900028018E080FB
:10547000B2690833091D70698842E1D1B368002B15
:105480007468356825D04900B069405CB26952182B
:10549000527812021018F26971615052012B18D023
:1054A0007069801CB1690A5CB1690B185B781B02DA
:1054B0009A18F3691A52B169B068022809D00A46ED
:1054C0007069001D095C1218527812025118F269B5
:1054D00011523069A06035480168C90708D00168D9
:1054E000C90705D00168C90702D00168C907F3D10F
:1054F0004168090606D52E490A680346083B1A602A
:1055000049681960A905F3681DD1426802210A4360
:105510004260856042684023134343600268D207BB
:1055200008D00268D20705D00268D20702D002680C
:10553000D207F3D10268920601D5202202604268A8
:105540008A434260F3680021616007E04168994343
:1055500041606168891C61602168491C2160216883
:10556000A26891421AD241681943416021684900FA
:10557000F269515A626851530168C90708D001683D
:10558000C90705D00168C90702D00168C907F3D16E
:1055900001688906DAD520210160D7E741688022B9
:1055A0000A434260FC1F053CA546F0BD0C200240AA
:1055B0002C010020B0B51C48016802221143016093
:1055C00001689143016019480146083960220A6068
:1055D000032101601649097881603D21C1600246BE
:1055E0000C3A136801210B431360124B124ADA6024
:1055F000024614329A60114A547817345C60104C99
:105600001C604B020446143C25681D43256003685A
:105610000B430360CB03446A1C434462117020387F
:1056200002680A430260B0BD10100240200400402E
:105630001A050020440002406408002010050020E4
:105640009B090000B0B50E48036808210B430422F3
:10565000934303600B4B5C680B4D25400B4C247847
:105660002C195C6084688025254385601C680125B1
:1056700025431D60036813438B430360B0BDC046E0
:10568000003801401C0002400000FFFFBC01002068
:10569000F0B581B08F484178012904D1407E0028BF
:1056A00000D0C1E0ADE08A1ED4B2651C03232A46B7
:1056B0001A40032C02D2831C002412E09D43831C59
:1056C0000024854E1F786740F45D5F786740F45D85
:1056D0009F786740F45DDF786740F45D1B1D2D1FE8
:1056E000F0D1002A0DD01E7866407B4DAC5D012ABA
:1056F00007D05E786640AC5D022A02D09A7862409C
:10570000AC5C427E944200D08EE0182979D1C178F9
:1057100004796207520D521870498A8007221202DA
:105720001346E03345796E011E40E4083419CC80FD
:10573000AC098579AD002C19C579EE07760D3419C1
:105740000C8114468034067AF70127406D087D19D4
:105750004D811546F035477A014638012840360913
:1057600080195E4EB081F8098E7A76003018CE7AB4
:10577000B7077F0D3818594FF881C032087B870171
:105780001740B608BE19554F3E8240094E7BF600C1
:1057900030187882887BCE7B77077F0D38184F4F83
:1057A000B882087C47011F40F308FB184B4FFB826F
:1057B00080094B7C9B0018188B7CDE07760D301817
:1057C0003883C87CC60126405B08F3187B830B7DB9
:1057D0001C012C4000092018B883D8094B7D5B00C0
:1057E00018188B7D9C07640D2018F883C87D440928
:1057F0000D7EED002C197C84800110409A088018E1
:105800003884374800784000344D2818808835495E
:105810000978354C00290DD0344941180F290DD293
:1058200001208002183811E02C480168491C0160F1
:1058300001B0F0BDAF2816D200201CE02146BE31D9
:105840000091AE2100232246FFF71EF92849088067
:10585000284800784000281880882146BE310091F1
:10586000AE21002313E02146ED310091AE2130231B
:105870002246FFF709F91E4908801E4800784000BB
:10588000281880882146ED310091AE213023224630
:10589000FFF7FAF8184908801848012101701849E3
:1058A0000020088017490A781749002A024606D0C6
:1058B000164B1B88002B08D0088001B0F0BD0A8869
:1058C000521C124B1B88002BF6D11046088001B0E9
:1058D000F0BDC046F9050020C66B0008EC040020AE
:1058E000320500203B050020120700002BFCFFFFC3
:1058F00080050020330500206205002036050020C9
:1059000086050020570500207C0500207805002032
:10591000F0B587B0FB4EF07A002806D02924305D20
:10592000002807D05020305A46E15020305A4821F4
:105930007052C6E150200490305A7D22D500F249C1
:105940000B7C59000695491901250595ED43F77C17
:10595000002F19D0814248D2EB4A927FB77ABA42DF
:105960004BD10395482700250295F5530125F5777E
:10597000377D002F00D189E0029BF377AA1AE24B12
:105980009A77069F039D3CE0814234D2DE4B9F7F95
:10599000B37A9F4278D1029703942420305C431E4F
:1059A00098415223F35AC82B059B00D30346582431
:1059B000D54F3C5B7F8FBC4200D80346012B069F2E
:1059C00000D082E0D148002444620120CE4A5076C3
:1059D0000299401A9077FFF785F8B4760498305A08
:1059E000C949097C4900C91972E0069F5D43EA195B
:1059F000824218D850E0069F77E0F27F002A069F87
:105A00000DD100223275C24A00922F3A2F23FFF7A0
:105A10003BF8482170520498305ABB490B7C5D43D7
:105A2000EA19824238D90394B17A01256F1AB64C2B
:105A3000A47FA7420CD1482400273753F577347D43
:105A4000002C049C3ED0F777AF4B9977059D04E07E
:105A5000F17F0029059D049C0BD1002131752F2376
:105A60000093AB4BFFF710F848217052305BA6490A
:105A70000B7C039C069F5900CA19824211D2012255
:105A8000791A814211D911E0069F22E0069F039DF9
:105A90005D43EA198242C6D8059D5900CA1982425F
:105AA000EDD30022791A814200D81546002D7FD10E
:105AB00048220021B152F27F002A79D001223275AA
:105AC000F17775E0039C059DD4E7D000049AB052AD
:105AD000039C8F4A00922F3A2F23FEF7D5FF4821CF
:105AE00070520498305A88490B7C29465943CA1988
:105AF00082422FD90394B37A0127F91A824CA47FEA
:105B0000A14231D1019702932420305C411E88418B
:105B10005221715AC829059900D3014658247A4F59
:105B20003C5B7F8FBC42019B00D801460129069F48
:105B300002991DD1744881774376744800244462E9
:105B4000FEF7D0FFB4760498305A6F49097C4D4374
:105B5000EA1910E0059D5900CA1982421DD201229E
:105B6000791A81421DD91DE0039C059D069F04E022
:105B7000049837523846039C059D2F21009100213F
:105B8000634BFEF781FF482170520498305A5E49FA
:105B90000B7C5900CA198242E1D30022791A814252
:105BA00000D81546002D03D1482100227252B2764A
:105BB000315D002900D184E07D21CC0021462F31C8
:105BC000884237D9504DA97FB27A91422BD12420F7
:105BD000305C421E90415822AA5A6E8F0123002742
:105BE000B2421A4600D83A465226464DAE5BC82EFF
:105BF00000D33B461A400243012A0FD143480026F6
:105C000046620120404D6876401AA877FEF76AFF89
:105C10003C48867606465020305A04E05021002049
:105C2000384E7052384DA97D4200511A984A891851
:105C30004822B1520146303989B2A1423BD2B17AF1
:105C40000122531A304CA57FAB422ED12420305C68
:105C5000431E98415823E35A3746668F0025B342C6
:105C6000134614D95226BE5BC82E15D213400343E7
:105C7000012B16D1A17701206076244800254562CA
:105C8000FEF730FFF84EB5765020305A0DE02B4627
:105C90005226BE5BC82EE9D32A4613400343012B8C
:105CA000E8D050210020F04E7052A17D4200511AE0
:105CB00031394822B1522F2803D8482000213152CF
:105CC000B1763078002801D007B0F0BD2227F05D12
:105CD000E64D297D88421DD9A87900281AD0FCF705
:105CE000FFFAFEF7FFFE6620F0554E2000213152EC
:105CF00001200002E44908612020086008200860B3
:105D00006FE0C04630050020C0000020AC05002038
:105D1000FF070000B07B002807D04824305B1D2817
:105D200026D84E21002272524CE0707D002854D0BB
:105D30007078002820D04824305BE96D2B6E0091EC
:105D40002F21CB4AFEF7A0FE0146CB48FBF704FB10
:105D5000A97A4908FBF700FBB087305B2E280BD8E7
:105D60004E2000213152C7480160C248016038E02E
:105D70001E2819D11E2025E0BE480468BF4D2046CC
:105D80002946FBF77CFA0028204600D12846FBF77D
:105D9000ABFA4E257053BA492046FBF77EFA00282D
:105DA0001FD1302070531CE0E97B14224A43824209
:105DB00008D9A02100911E212F23FEF765FE4E2158
:105DC0007052305BEA7B14215143814209D8A84AC2
:105DD0000092A023FEF758FE01E04820305A4E21E1
:105DE00070522421705C002800D06DE72720305CC1
:105DF000002800D168E7059106974E25705BB17BBE
:105E000050273A464A432F32824230D82C46232527
:105E1000705D002810D1FCF763FAD84A507E002844
:105E200002D100F05FF9D54A2F200121315471557C
:105E3000908F44217052B17B4220D04A135A25469C
:105E4000305B8B4A002905D011462F390091283349
:105E5000892103E011462F3900912F21FEF714FE0E
:105E600046217052F07C002801D10020F077705B51
:105E7000B17B79432F31814264D9F07E052814D853
:105E800078440079400087441205080B0E05C0468F
:105E9000FFF7FFFFFEF72CFF07E0FEF705FF04E02A
:105EA000FEF72AFE01E0FEF775FF0020F076B3480A
:105EB000007900281BD02320305C002800D183E02B
:105EC000AE4A0698105C3C214143908D40183C3806
:105ED0006F4902B2FF2368339A4200DD4018622204
:105EE000B05202B22C46782A15DCEF2315E0462189
:105EF000002070522321715C002900D08EE0A3495C
:105F0000486201209D494876307B002800D180E01E
:105F1000FDF772F982E00B46EF331B1866257353C9
:105F2000F02A01DC772100E077312546081864214A
:105F30007052B07B012802D101200599705446208F
:105F400000213152F07F00288C4B00D0BCE6745BFE
:105F50002F2C12D3707B1421C1408C48406A884298
:105F60000BD24620315A9A8F914201D232521146B9
:105F700040229A5A914200D932524A20185A462752
:105F8000F55B854201D9F0530546B07D00280694A3
:105F900006D038207949085E854201DD85B2F55387
:105FA0007A48446800212046FBF75BF9002800D0BE
:105FB0008AE60698302800D286E62046FBF794F958
:105FC0002818F05307B0F0BD2620002131546F4847
:105FD0004162012769484776307B002816D0B07BA4
:105FE000002800D06CE765480078002830D03020C9
:105FF000305C4A282CD82F20305C002828D05F48FD
:1060000040782C4908604860886059E7FCF768F9D7
:1060100056E7F07F002801D1FCF762F9F07FF17CB0
:10602000002990D000288ED0F15B7D20C40020464E
:10603000FDF720F900196021705280B21349123126
:10604000884202D9FDF7D8F87CE7FEF73BFF79E7F5
:106050004A48007B40000D49401860217052FEF70D
:1060600031FFF7772CE7C04630050020C000002044
:10607000FF070000AC0500200087930300E0FF4409
:10608000000040423401002018040048BC07000012
:1060900098FEFFFF0320000203490A6882430120A3
:1060A00000021018086070470C040048014908609D
:1060B0007047C046342C0140014908607047C04613
:1060C000382C0140014908607047C0463C2C014013
:1060D0000B2800D30B204000014908707047C046D0
:1060E000F8050020F0B581B02324234D285D002859
:1060F00003D0FCF781FF01B0F0BD22261F4FB85D31
:10610000B97F01290AD1401CB855C1B2072902D371
:106110000120B85528770121014009E0401EB855FB
:10612000010603D10620B8550121297701218143B9
:106130007977EFF3108072B6E87F002802D1B85D5E
:10614000FCF776F962B6FCF745F92B2000212954BB
:106150002E2029545820395A094A3A52B85D094A22
:10616000094B136001222A554000084A8018C18556
:10617000FCF742FF01B0F0BD30050020C000002058
:10618000102700002400004088130000AC05002008
:10619000F0B591B00120089082030292034600906E
:1061A0004448416811434160416811400A910A998D
:1061B000990402680A430260006808400A900024BB
:1061C000099407940220039005900A9840250495AD
:1061D00003260696384804A9FBF7DCFA374F3868DF
:1061E00037490140103139603003396881433960E3
:1061F00038682021884338603868A8433860386898
:106200008021014339603002396881433960B0022E
:10621000396881433960FF2000062A490A688243B1
:10622000B00710180860009DE80627490860109420
:106230000F94082001900E900D940C940B94E12083
:1062400040020A90214E3446083C0AA92046FBF73A
:1062500037FDA8023168814331600920C002311F37
:106260000A6882430A6030682A21884330602068C7
:10627000284320600299103138680840102804D162
:106280001348F8602036BE6003E01148B86020363D
:10629000FE6078680F4901400F4800780818786060
:1062A00038680399084338603868019908433860B2
:1062B00011B0F0BD14100240000400481C00024060
:1062C000EFBFFFFF18E400E000E100E00838014004
:1062D000EE0500200000FFFFBC010020F0B587B0F4
:1062E0004620F94F0590385A522438534020395AE5
:1062F000491C3952388F401C3887788F401C78876A
:10630000B88E401CB88628232726B85D002863D1A4
:10631000787E002860D1F85C00285DD04820385A8B
:10632000002803D068200021395255E06820395AEE
:10633000491C395289B2E54A91424DD34C21795AD0
:106340001F2939D302930120B855FB79E04A114641
:106350001031012B0B4600D813460494000218603C
:10636000DC488378012B0B4600D8134620241C60A0
:106370003B7A012B00D81146039608220A60B97CAB
:1063800001291ED16A21795AD34A4A43D20C7A761E
:10639000838E534383844808B92814D30024CF4DF7
:1063A000CF4EFEF7C9FC6420FCF7EAFC2E60641CAB
:1063B000787E8442F5D306E00021395228203954F2
:1063C0000AE0FEF7B9FC2A20385C0028049C039EF2
:1063D000029B01D10020F874F87B002810D06C20BB
:1063E000395A491C3952FD4AD2791D461423534368
:1063F00089B28B422B4603D2002139520120B87753
:106400002420385C3978014300D0E1E10494232052
:106410000690F24D687E00284DD00698385C002822
:1064200049D01C46FEF75EFBFCF72AFF697F002976
:1064300011D0002811D026203A5C521C3A54D0B218
:10644000EA7F9042234616D82B20385C002832D1B0
:106450002E20385C18E0002804D02E20385C401C28
:10646000234609E026203A5C521C3A54D0B2EA7F17
:10647000904223460ED900202E22B8542B22BA5C1B
:10648000002A18D100290BD02021695CC0B28842B3
:106490000BD810E02B20385C00280CD12E20385C63
:1064A0002121695CC0B2884205D92B2001213954D1
:1064B00000F0E6FA2346788F152800D2E5E003962F
:1064C0000020009078870698395CB87D00280293F8
:1064D000019142D0002940D04224385F6321C94352
:1064E0002A8D4A431018BE4988620A6C831A0D6BC4
:1064F0004A6B8E6B5A43CA6308644543AB198D6C73
:10650000AB4200DB2B466D42AB4200DC2B468B637B
:10651000D218CB6A58431018CA6C904200DB104660
:1065200052429042059EAD4D00DC10464864FAF799
:10653000D0FEAC49FAF757FEFAF7D6FE298F091AB2
:106540000AB2285B824200DB084602B2A95B8A429B
:10655000029B00DC014629870199787B002845D001
:10656000002943D05820285A698D401A9C49086553
:106570008A6E831A8C6DCA6D0D6E5A434A668866A0
:10658000444363190C6FA34200DB23466442A342D9
:1065900000DC23460B66D2184B6D584310184A6F27
:1065A000904200DB10465242904200DC1046C86622
:1065B000FAF78FFE8B49FAF716FE01468A4C60689F
:1065C000FAF7B8FD0646894D2946FAF774FE002809
:1065D00000D135466560002628463146FAF76BFE45
:1065E0000028029B7D4D019900D16660787D0028CE
:1065F000039E4AD0002948D0B88F7B4EB16A081A52
:10660000774C2060A169421AA368E168256951436B
:106610006161A06143435A19236A9A4200DB1A461A
:106620005B429A4200DC1A46226189186268504334
:106630000818616A884200DB08464942884200DC4B
:106640000846E061FAF745FE6649FAF7CCFD0146D7
:106650003068FAF76FFD0646654D2946FAF72BFEBE
:10666000002800D135462846009E3146FAF707FE3D
:10667000002800D12E465C480660406A6328039ECD
:10668000029B564D01D800202061687C0028049CA4
:1066900042D0F88EB98E814207D90020B8864420B6
:1066A000385A95281ED8022324E00023EB75442095
:1066B000385A395B0A1A9A4221DC421A00219A425E
:1066C00029DDC01A385326E030050020214E000095
:1066D00018040048C0000020890500000030004078
:1066E000AAAA00004049896901221202F4329142AB
:1066F00000D90A23EB75395B0A1A9A42DDDDC0180E
:1067000038535820285AB92149008231884201D88B
:10671000002100E0012129760698395CBE5D002E3B
:10672000069110D000290ED04E20385A30280AD3B6
:106730003C5B05982D5A204668437D210901FAF7F4
:10674000ECFD461C1EE0F87F002811D06020385A6E
:106750002E4605996D5A68437D210901FAF7DDFD42
:106760004821715A081A461C6E203E523C5B0BE0D1
:106770003C5B05982D5A204668437D210901FAF7B4
:10678000CCFD46436E203E5244203C5219480560E1
:1067900030217A5CB1B24B2A05D30A46F84B069CED
:1067A000002C05D105E0F64B5A78069C002C00D051
:1067B0000A461B78002B04D10A463B7B002B03D0F2
:1067C00003E03B7B002B00D10A468260C26002617D
:1067D0005620395A491C395207B0F0BDC00000207C
:1067E0003401002000401C46AC0500200000164388
:1067F00000E0FF442C2C014070B553480078534C06
:10680000217800290BD0002809D0524800780028B0
:1068100010D0FEF7C9FB5A480221017070BD4C49E7
:10682000097801290CD0002924D1FCF7CDFAFEF714
:10683000BBFB70BDFEF7BEFE51480121017070BD6B
:1068400000280CD043480078002814D04248008823
:10685000FEF73CF8FBF748FFFEF7A6FB70BD3F4D87
:10686000287801280AD03E48007801280ED02078E8
:1068700000281DD070BDFEF79DFE70BDFBF734FFF4
:10688000FEF792FB364800780128F0D1FCF70EFDA8
:10689000002803D033480321017004E0314802216D
:1068A0000170FCF7FDF8FEF77FFB20780028E1D1AE
:1068B0002D490A882D4C2878002816D060790728A1
:1068C00013D8062A11D3431C637129480568C06F89
:1068D000401B656940196061082B06D1C309C008D7
:1068E000C51AA581C0181F4B9880224D2888224BBD
:1068F0001B78002B07D000280AD16378002B07D122
:10690000501C088070BD0028B4D1501C088070BD98
:1069100000260E8019498842ACD36189FCF7AAFC95
:10692000322801DC2078461C2670F0B2332807D3C9
:10693000E078002804D1FEF7DFF801200002208073
:106940002888608170BDC046500500205705002092
:106950005805002010050020D4050020590500200E
:106960005A050020240100207C0500201405002089
:1069700060060020780500205D050020DD05000090
:106980003905002070B53D490A783B4C20680C233E
:106990009843002A03D008221043206004E0042218
:1069A000104320600220A062032213050920C006C4
:1069B00005689D4301235E05AD19056025681D43EB
:1069C0000226B5432560A36194040568A5439C0491
:1069D0002C1904605C0284620C7895030168A94359
:1069E000002C03D0DC032143016004E09C0321431D
:1069F000016080218162110402688A4359045118A0
:106A0000016070BD70B51C4B18680421014308205B
:106A10008143196002249C6103210A050920C006F4
:106A20000568954301221605AD190560950285623A
:106A3000124D2E781D688D43002E02D025431D6017
:106A400002E015431D609A628B0404689C43D304E2
:106A5000E31803608B0304689C439303E31803600B
:106A600080238361090403688B4311045918016072
:106A70001102816270BDC04600040048C4000020BD
:106A8000F0B581B03C4F38685E213C4C60525825CF
:106A90003B4B595B03224A4380B21618B00800955D
:106AA000585300253D6080B2197FFAF736FCF10893
:106AB0002646091A5422A152324A106288B2516AFB
:106AC000052913D239683049086022272C4CE05D33
:106AD000A17F012917D1401CE055C1B2072902D37B
