:020000040800F2
:10100000E80E0020A91100088915000859150008EC
:101010008515000815140008651800080000000078
:101020000000000000000000000000008916000819
:1010300039150008000000008D1500088D16000805
:10104000C3110008C3110008C3110008C311000830
:10105000C3110008C3110008C31100083D150008A2
:10106000000000001914000845140008811400084D
:10107000B1120008C3110008C311000800000000ED
:10108000E9170008C311000800000000AD170008B0
:10109000C1170008D9170008C3110008C3110008C0
:1010A000C3110008C3110008C31100080D1800087F
:1010B00039180008000000000000000000000000D7
:1010C000C311000800000000C311000800F002F87E
:1010D00000F05AF80AA090E8000C82448344AAF178
:1010E0000107DA4501D100F04FF8AFF2090EBAE876
:1010F0000F0013F0010F18BFFB1A43F0010318474C
:10110000505D0000705D00000A444FF0000C10F8C4
:10111000013B13F0070408BF10F8014B1D1108BF75
:1011200010F8015B641E05D010F8016B641E01F815
:10113000016BF9D113F0080F1EBF10F8014BAD1C65
:101140000C1B09D16D1E58BF01F801CBFAD505E083
:1011500014F8016B01F8016B6D1EF9D59142D6D3DD
:10116000704700000023002400250026103A28BF05
:1011700078C1FBD8520728BF30C148BF0B60704709
:101180001FB51FBD10B510BD00F058F81146FFF790
:10119000F7FF02F04DFB00F076F803B4FFF7F2FF23
:1011A00003BC00F07DF8000009488047094800476B
:1011B000FEE7FEE7FEE7FEE7FEE7FEE7FEE7FEE707
:1011C000FEE7FEE704480549054A064B7047000064
:1011D00091160008CD100008E8080020E80E002055
:1011E000E80A0020E80A00204FF0000200B513468C
:1011F00094469646203922BFA0E80C50A0E80C5037
:10120000B1F12001BFF4F7AF090728BFA0E80C50E7
:1012100048BF0CC05DF804EB890028BF40F8042BE0
:1012200008BF704748BF20F8022B11F0804F18BF4D
:1012300000F8012B7047704770477047754600F003
:101240002BF8AE4605006946534620F00700854658
:1012500018B020B5FFF7B6FFBDE820404FF00006FC
:101260004FF000074FF000084FF0000BAC46ACE821
:10127000C009ACE8C009ACE8C009ACE8C00921F07D
:1012800007018D46704710B50446AFF30080204635
:10129000BDE81040FFF781BF00487047C003002041
:1012A00001491820ABBEFEE726000200704700008F
:1012B00040F21440C4F201000168890258BF70472F
:1012C0004FF40011016002F021B8000040F26850B4
:1012D000C2F20000818840F22C52C2F2000211805A
:1012E000018840F23052C2F200021180408840F280
:1012F0001651C2F20001088070470000F0B587B0B7
:1013000042F200444FF09040032100224023C4F2F7
:101310000104002701F02CFF4FF090400321002230
:10132000082301F025FF4FF4A010012101F088FAF5
:101330000825C4F20205284601F058FC02AE3046EA
:1013400001F006FC0320C0F20010CDF8120040F2BC
:101350006850C2F20000039004F14C00029040F289
:101360000110C0F20120CDF8160028463146ADF834
:10137000107001F0FDFB2846012101F0E3FB09207C
:10138000C0F21800012101F05BFA072001F04AFACF
:1013900001AD284600F0A0FA40F20110C0F2003082
:1013A00001902046294600F075FA204603210122CB
:1013B000032300F0B9FA204606210222032300F09D
:1013C000B3FA204610210322032300F0ADFA0120D6
:1013D00000F0F8FB20460721012200F0D3FB204655
:1013E000012100F091FA2046012100F097FA2046F1
:1013F00000F076FA204600F079FA0028FAD120466B
:1014000000F078FA204600F07BFA0028FAD107B005
:10141000F0BD0000FEE70000B0B5022001F0A0FB27
:10142000012818BFB0BD0424C4F2020401252560C0
:10143000FFF74CFF082001F093FB012808BF25604F
:10144000B0BD000010B51C242020C4F2020401F03D
:1014500087FB012806D1102044F8180C206820F0E2
:1014600001002060802001F07BFB012818BF10BD27
:10147000102044F8180C206820F00100206010BDF6
:1014800010B540F2E06040F2E542C2F20000C2F264
:10149000000201681278013101609AB10420C4F29F
:1014A00002004FF480510160016C21F001010164E0
:1014B00004F02CFF40F21040C4F201004FF4004150
:1014C000016010BD04244FF48040C4F2020401F016
:1014D00047FB012810D140F2E640C2F2000000783C
:1014E00050B140F22040C4F20000016841F0020116
:1014F00001604FF4804020604FF4005001F030FB59
:1015000001280FD14FF480502060206C20F00100A2
:10151000206404F0FBFE40F21040C4F201004FF4DE
:10152000004101604FF4004001F01AFB012804BFA4
:101530004FF48050206010BD7047000040F214400E
:10154000C4F201000168090458BF70474FF400411C
:10155000016003F0AFBA0000FEE7000043F20000B4
:10156000C4F2000045F2555101604CF6CC410160D7
:10157000032141604FF47A6181604AF6AA2101603B
:1015800070470000FEE70000704700007047000051
:1015900070B544F20C40C4F20100016840F200054D
:1015A00021F001010160C2F20005297F95F82000B9
:1015B00040F2BC440129C2F200040DD10130C1B295
:1015C000072985F8200022BF012085F82000207718
:1015D00000F001000DE000BF0138010685F8200091
:1015E00004D10620012185F820002177012121EA7C
:1015F0000000E876EFF3108072B6E07F18B995F836
:10160000200000F0DFFB62B600F08EFB607BE17C27
:1016100040F238560843C2F2000607D0F068B0F531
:10162000FA6F03D90120E875002003E0E87DB0FAE5
:1016300080F04009002184F82D1084F82B1095F8D3
:101640002010B4F85C2006EB41014A84B5F8541030
:10165000EB7901EB410111448A08A5F854205A4363
:10166000C1F3CE019309A1EB921100287361A4F894
:10167000521018BF01F0DAFAB06942F20F718842D5
:101680009CBF0130B06170BD704700007047000022
:101690007047000010B50B20C0F21800012101F0C6
:1016A000CFF842F60044C4F2010440F6B830E062DC
:1016B0000020A06246F66800A0616820E061204634
:1016C0000021012204F088FD20460221012204F0BD
:1016D00083FD20460421012204F07EFD20460121E5
:1016E00004F0ACFD606C642161F3070060641124B8
:1016F000C0F214042046012101F0A2F8601C01216F
:1017000001F09EF840F20044C4F600042046022195
:101710000022022301F02CFD204602210022012399
:1017200001F026FD4FF0904002210022802301F0BD
:101730001FFD20460121022201F03AFD2046002132
:10174000022201F035FD4FF090400721022201F006
:101750002FFD4FF09040022100224FF4806301F0F2
:1017600007FD4FF09040022100224FF4007301F07A
:10177000FFFC4FF09040022100224FF4807301F0F3
:10178000F7FC4FF090400A21022201F011FD4FF0CA
:1017900090400921022201F00BFD4FF090400821FA
:1017A0000222BDE8104001F003BD000042F210002B
:1017B000C4F200004FF6FE71016004F03DBA000073
:1017C00044F21000C4F201004FF6FE7101604FF6C2
:1017D000FD7101607047000044F21040C4F2010046
:1017E00000210160FFF7D4BE40F21040C4F20000B7
:1017F0000168890744BF4FF6FD7101600168C907A0
:101800001CBF4FF6FE7101607047000080B543F6C3
:101810000000C4F20100102104F0FEFE3020C4F2EA
:101820000200016821F00101016003F015FDBDE82F
:10183000804003F0C9B9000080B544F20040C4F212
:101840000000102104F0E8FE5820C4F202000168F4
:1018500021F00101016003F0FFFCBDE8804003F0CE
:10186000B3B90000FEE700004EF60C50BFF34F8FF7
:10187000CEF200000168042201F4E061C0F2FA52E5
:1018800011430160BFF34F8F00BF00BF00BF00BF17
:10189000FAE700000A78436802F0010223F480733B
:1018A00043EA022242604A78836862F3410383601C
:1018B0008A78836802F0010223F4006343EAC222BB
:1018C0008260C978C26A013901F00F0122F4700206
:1018D00042EA0151C16270474FF080710160704768
:1018E000816841F008018160704700008068C0F3A2
:1018F000C0007047816841F00401816070470000BA
:101900008068C0F380007047826801F0010122F412
:10191000807242EA0121816070470000826861F3B1
:10192000000282607047000080B5112900F2BB8080
:10193000DFE801F00A121C26303A444E58626C74FB
:101940007E88929CA6B000BFD0F810C063F3020C52
:10195000C0F810C0A7E000BFD0F810C003F0070E19
:101960002CF0380343EACE0303619CE0D0F810C0AA
:1019700003F0070E2CF4E07343EA8E13036192E048
:10198000D0F810C003F0070E2CF4606343EA4E2336
:10199000036188E0D0F810C003F0070E2CF4E04398
:1019A00043EA0E3303617EE0D0F810C003F0070E67
:1019B0002CF4603343EACE33036174E0D0F810C0F6
:1019C00003F0070E2CF4E01343EA8E4303616AE050
:1019D000D0F810C003F0070E2CF4600343EA4E5316
:1019E000036160E0D0F810C003F0070E2CF0E06354
:1019F00043EA0E63036156E0D0F810C003F0070E0F
:101A00002CF0605343EACE6303614CE0D0F80CC085
:101A100063F3020CC0F80CC045E000BFD0F80CC066
:101A200003F0070E2CF0380343EACE033AE000BF80
:101A3000D0F80CC003F0070E2CF4E07343EA8E13C9
:101A400030E000BFD0F80CC003F0070E2CF4606348
:101A500043EA4E2326E000BFD0F80CC003F0070E87
:101A60002CF4E04343EA0E331CE000BFD0F80CC076
:101A700003F0070E2CF4603343EACE3312E000BFCC
:101A8000D0F80CC003F0070E2CF4E01343EA8E43A9
:101A900008E000BFD0F80CC003F0070E2CF4600380
:101AA00043EA4E53C360013A0F2A88BF80BDDFE886
:101AB00002F0090F151B21272D33393F454B515794
:101AC0005D6300BF426B61F30402426380BD00BFEF
:101AD000426B61F34912426380BD00BF426B61F308
:101AE0008E22426380BD00BF426B61F3D3324263FA
:101AF00080BD00BF426B61F31852426380BD00BFDE
:101B0000426B61F35D62426380BD00BF026B61F3B3
:101B10000402026380BD00BF026B61F349120263DD
:101B200080BD00BF026B61F38E22026380BD00BFE7
:101B3000026B61F3D332026380BD00BF026B61F3BD
:101B40001852026380BD00BF026B61F35D620263E5
:101B500080BD00BFC26A61F30402C26280BD00BFE3
:101B6000C26A61F34912C26280BD00BFC26A61F3FA
:101B70008E22C26280BD00BFC26A61F3D332C262EC
:101B800080BD00008368072923F0007388BF03F13C
:101B900000738360836802F0010261F35343836042
:101BA000816821F4801141EA025181607047000090
:101BB000826801F0010122F4800242EA81518160D1
:101BC0007047000042F20841C4F201010A6800F0C7
:101BD000010022F4000242EAC05008607047000091
:101BE000F0B581B02825C4F6000505F576742046C9
:101BF0000121002202230126022701F0B9FA4FF049
:101C00009040012100224FF48063C5F800744FF426
:101C1000806701F0ADFA20460121002201232F60E8
:101C200001F0A6FA4FF09040012100224FF400731A
:101C3000C5F800644FF4007401F09AFA4FF0904038
:101C40000121002280232C60802401F091FA4FF0C2
:101C50009040012100224FF480732C604FF4807477
:101C600001F086FA2C6001B0F0BD000070B540F2C2
:101C70000205C2F20005287840F20044C4F60004D0
:101C80000028204606D002210022022301F070FA2B
:101C900007E000BF012100220223022601F068FABA
:101CA000A6624FF09040022100224FF4806301F0C1
:101CB0005FFA287830B1204602210022012301F08A
:101CC00057FA07E02046012100220123012601F0F6
:101CD0004FFAA6624FF09040022100224FF40073A9
:101CE00001F046FA287838B14FF0904002210022E6
:101CF000802301F03DFA0CE04FF0904001210022DA
:101D00008023802501F034FA4FF62840CFF6FF708B
:101D100025504FF09040022100224FF48073BDE81F
:101D2000704001F025BA000040F22003C2F2000327
:101D30001A781C20C121C4F20100042AC4F2000157
:101D400001D0012A03D101F1100202601A78052A9C
:101D500001D0022A03D101F1200202601A78062A7A
:101D600004D0032A08BF016001E000BF016040F217
:101D70001B01C2F200010A78D0F8EC1352B121F431
:101D80000011C0F8EC13D0F8F01341F40011C0F8C2
:101D9000F013704741F40011C0F8EC13D0F8F013C1
:101DA00021F40011C0F8F01370470000002818BF9C
:101DB00070471C20C4F20100026861F30002026057
:101DC00070470000F0B581B00138052800F2D481D9
:101DD000DFE800F004185694BEE800BF40F20200AD
:101DE000C2F2000000782824C4F60004002804F59C
:101DF000767000F0EB8002210022022301F0B8F996
:101E0000ECE000BF2825C4F6000505F576742046F1
:101E10000121002202230126022701F0A9F94FF037
:101E20009040012100224FF48063C5F800744FF404
:101E3000806701F09DF920460121002201232F60D7
:101E400001F096F94FF09040012100224FF4007309
:101E5000C5F8F0634FF4007401F08AF940F2020013
:101E60002C60C2F200000078002800F0EB804FF0F8
:101E7000904002210022802301F07AF9F5E000BFB2
:101E80002825C4F6000505F57674204601210022B8
:101E900002230126022701F06BF94FF09040012147
:101EA00000224FF48063C5F8F0734FF4806701F0AF
:101EB0005FF920460121002201232F6001F058F92B
:101EC0004FF09040012100224FF40073C5F80064E8
:101ED0004FF4007401F04CF940F202002C60C2F2A1
:101EE00000000078002800F0B7804FF090400221F9
:101EF0000022802301F03CF9B7E000BF2825C4F69A
:101F0000000505F5767420460121002202230126F2
:101F1000022701F02DF94FF09040012100224FF4EB
:101F20008063C5F8F0734FF4806701F021F940F247
:101F300002002F60C2F200000078002800F0A080AC
:101F4000204602210022012301F012F9A0E000BF87
:101F50002825C4F6000505F57674204601210022E7
:101F600002230126022701F003F94FF090400121DE
:101F700000224FF48063C5F800744FF4806701F0CD
:101F8000F7F840F202002F60C2F20000007800284B
:101F900000F09080204602210022012301F0E8F8A1
:101FA00090E000BF40F20200C2F200000078282456
:101FB000C4F60004002804F5767000F0A380022126
:101FC0000022022301F0D4F8A4E000BF0121002286
:101FD0000223022501F0CCF8C4F800544FF09040E1
:101FE000022100224FF4806301F0C2F804F57670FC
:101FF000012100220123012501F0BAF84FF09040A1
:10200000012100224FF40073C4F8F0534FF400751F
:1020100001F0AEF84FF090400121002280232560AE
:10202000802501F0A5F84FF09040012100224FF4E7
:10203000807325604FF4807501F09AF8256001B037
:10204000F0BD00BF4FF0904001210022802380248A
:1020500001F08EF82C6008E04FF090400121002242
:102060008023802401F084F82C604FF090400221FE
:1020700000224FF4807301B0BDE8F04001F078B861
:10208000204601210022012301F072F8C5F8006406
:102090004FF09040022100224FF4007301F068F8E5
:1020A0004FF09040012100228023802401F060F84D
:1020B0002C6019E0204601210022012301F058F88C
:1020C000C5F800644FF09040022100224FF40073E5
:1020D00001F04EF84FF0904001210022802380242F
:1020E00001F046F845F8104C4FF0904001210022D5
:1020F0004FF480734FF4807401F03AF82C6001B013
:10210000F0BD00BF012100220223022501F030F8BA
:10211000C4F800544FF09040022100224FF4806335
:1021200001F026F804F57670012100220123012533
:1021300001F01EF84FF09040012100224FF400738F
:10214000C4F800544FF4007501F012F84FF09040BD
:102150000121002280232560802501F009F84FF03D
:102160009040012100224FF4807344F8105C4FF43A
:10217000807500F0FDFF256001B0F0BD2DE9F04F46
:1021800087B040F2E057C2F200073A68D7F87CB057
:1021900040F22049ABEB0200C2F20009A9F80A00A4
:1021A00081B240F2AC40C2F2000003884809994273
:1021B000A9F8080040F2478140F26403C2F200032C
:1021C0001B88994280F03F81D7E90136D7E9035156
:1021D0009A1A82424FF00002D7E9054ED7E907ACC0
:1021E00088BF01220692AA1B82424FF00002A4EB94
:1021F000010188BF012281424FF00001059288BF92
:1022000001210491AAEB0E0181424FF0000188BF29
:10221000012107F1240603914ECED7E90D5EA1EB13
:102220000C0181424FF00001FC6BD7F840C088BF21
:1022300001210291991A81424FF0000188BF0121CA
:102240000191A91B81424FF0000188BF012100913B
:10225000796CA4EB0E0686424FF0000AA1EB0C014C
:1022600088BF4FF0010A8142D7E912414FF00003C5
:1022700088BF0123091BD7E9144C0025814288BF80
:102280000125ACEB040CD7E9164E8445AEEB040CEB
:102290004FF0000E88BF4FF0010ED7E91884844537
:1022A0004FF0000CA4EB080488BF4FF0010CD7F8E6
:1022B00068804E46D7F86C908442A9EB0808D7E9AD
:1022C0001C94BF6FA4EB09094FF00004ABEB0707A8
:1022D00088BF012480454FF0000B88BF4FF0010BF1
:1022E00081454FF0000188BF012187424FF0000770
:1022F00088BF012780454FEAC40888BF08F1040859
:10230000814540F2E340C2F2000090F8009040F2B4
:10231000DC40C2F20000007888BF08F1020850EAF1
:102320000900716506980299F06180EA0100F16286
:10233000F36380EA03000599019B316281EA03019E
:1023400081EA05014FEA810141EAC0000499009A3F
:10235000716281EA020181EA0E01C6E9134B40EA8B
:1023600041040398B765B06280EA0A00474440F22E
:10237000DC48356480EA0C05C2F2000833637263FE
:10238000C6F844E0C6F838A0C6F848C00BD100F043
:10239000E7FE40B130790130C1B26529307124BF08
:1023A000012088F8000098F80000002844EA0500A1
:1023B00018BF87F00F07874242D106F11C0C9CE83A
:1023C0008F10490241EA802040EA022040EAC3100F
:1023D000D6E90D5440EA871040EA4C1006F13C075C
:1023E00040EA05108ECF40EAC40040EA810040EA8E
:1023F000420040EA030140F21050B389C2F20000EB
:1024000000220280581C012FB08105D140F2DA4031
:10241000C2F2000001220270302917DB7078A8B1E7
:1024200040F20A50C2F20000018040F2E460C2F2C1
:10243000000000210170B17007B0BDE8F08F00BF4F
:10244000F0890130F08107B0BDE8F08F481E2E28DA
:102450000CD840F20A50C2F200000022028040F282
:10246000E462C2F20002C8B2117018E031B140F269
:10247000E460C2F20000007811E000BF307840F262
:102480000A51012804BF00207070C2F20001002030
:10249000088040F2E461C2F200010870B0700028C8
:1024A000D1D040F2DF41C2F2000109780029CAD13F
:1024B00040F2E341C2F2000109780029C3D0F1786B
:1024C00088421EBFF0700021B170052805D3B17895
:1024D0000131CAB2062AB170B5D3411E00251429B4
:1024E000B57000F2A280DFE801F00B131B232BA0D4
:1024F00033414F57A05F737FA0A0A0A0A087950095
:1025000040F2D741C2F20001012008708DE000BF07
:1025100040F2D741C2F200010220087085E000BFFE
:1025200040F2D741C2F20001032008707DE000BFF5
:1025300040F2D741C2F200010420087075E000BFEC
:1025400040F2D741C2F20001052008706DE000BFE3
:1025500040F2C640C2F200000021017040F21C00AF
:10256000C2F200000121017007205EE040F2C64087
:10257000C2F200000121017040F21C00C2F2000012
:1025800000210170082050E040F2C740C2F2000074
:1025900000210170092048E040F2C740C2F200006B
:1025A000012101700A2040E002F024FD40F2C64003
:1025B000C2F20000007840F2D742411C40F2E460D1
:1025C000C2F20000C2F20002007811702DE000BFDC
:1025D000317801204FF4606270710129F28008BFE8
:1025E00070700D2021E000BF0020707140F6FF6088
:1025F000F0800E2019E000BF40F2C640C2F2000099
:10260000007840F21C01C0F10100C2F20001087024
:1026100014200AE040F2C640C2F20000007840F206
:102620001C01C2F200010870152040F67C01C2F2C4
:102630000001087040F2E460C2F20000057007B0CB
:10264000BDE8F08F70B582B040F2E055C2F20005EF
:10265000D5E9000140F27652081AA0F2213140F289
:10266000A0449142C2F2000436D86178D1B3E17837
:10267000002951D0217940F2E14290420BD840F23A
:102680002C02C2F2000213880131C3EBC3031844C9
:10269000C00821711080C8B24C2871D340F22C00C0
:1026A000C2F2000001880025193101804FF6125056
:1026B000CFF6FF7010FA81F000EBD07040F2E561C8
:1026C0004008C2F2000181F82000657002F092FC1F
:1026D000257102F00BF953E040F20650C2F20000FF
:1026E00052E000BF40F2C741C2F20001097839B39D
:1026F00040F23001C2F200010A88904234D940F21F
:102700002E01C2F200010B88511C4FF4FA661A46E2
:1027100040F2E93330E000BFA17840F22E060029F4
:102720000CBF208120890131C2F20006A1703188DE
:1027300080B200F009FD332844DB0020607062E0C5
:1027400040F22C0140F22E02C2F20001C2F200025D
:102750000988128840F2FF762F23009602F03AF89B
:102760003128B8BF00200AE040F22C01C2F200017B
:1027700009884FF47A760023009602F02BF8206146
:1027800040F21050C2F2000040F20A51C2F20001C1
:1027900040F2E40622690B88C2F200063668D51AB8
:1027A000B5424FF00005058004DD9A190A8002B099
:1027B00070BD00BF981AB042C8BF9A1B0A8002B011
:1027C00070BD00BF3088D5E90012C0EBC000511ABF
:1027D0000844A178C0083329308014D34FF62A1159
:1027E0001938CFF6FF71308011FA80F000EBD0700D
:1027F00040F2E5614008C2F2000181F821000120A9
:10280000E07002F0A7F8E078318800282181B7D085
:10281000D5E90001081A217940F2E14290427FF6A1
:102820002EAF38E741F20401C4F202010A6860F3F6
:102830008F320A600A68800860F31C720A60704771
:1028400041F2000200F01F034FF0010CC4F202023B
:1028500001290CFA03F14FEA1040835814BF23EA10
:10286000010119438150704741F2000200F01F033B
:102870004FF0010CC4F2020201290CFA03F14FEAF5
:102880001040835814BF23EA010119438150704757
:1028900044F62401C4F2010100220A6007E000BFEF
:1028A0000A68824228BF70470A68824205D20A68D5
:1028B000824202D20A688242F2D3704744F624016F
:1028C000C4F2010100220A6042F6E0624A6051F857
:1028D000102C00EB800042F00102400041F8102C67
:1028E0000A68824208D20A68824205D20A68824295
:1028F00002D20A688242F3D37820486051F8100C63
:1029000040F0010041F8100C70470000B0B540F2F3
:10291000E05CC2F2000C40F2600EDCF80040C2F253
:10292000000E44F6206200230021AEF8022002E0EF
:102930002833782B7AD00CEB030045682C1B1BD175
:102940008468651B21D1C5682C1B27D10469651BD0
:102950002DD145692C1B33D18469651B39D1C569DB
:102960002C1B3FD1046A651B45D1456A2C1B4BD1FA
:10297000846A601BDCD051E0214494423CBFA2B287
:10298000AEF802408468651BDDD0294495423CBF07
:10299000AAB2AEF80250C5682C1BD7D0214494428D
:1029A0003CBFA2B2AEF802400469651BD1D02944F5
:1029B00095423CBFAAB2AEF8025045692C1BCBD061
:1029C000214494423CBFA2B2AEF802408469651B28
:1029D000C5D0294495423CBFAAB2AEF80250C569A1
:1029E0002C1BBFD0214494423CBFA2B2AEF802409F
:1029F000046A651BB9D0294495423CBFAAB2AEF81F
:102A00000250456A2C1BB3D0214494423CBFA2B271
:102A1000AEF80240846A601B3FF48AAF01449042E2
:102A20003CBF82B2AEF8020082E700BF40F2E5434D
:102A3000C2F20003187840F2A04C4C09C2F2000C1C
:102A40000128CCF8184030D1941E022C0ED8CC09A5
:102A50000E2C0BD840F2E104C2F2000400252570D0
:102A600001248CF806401C700E2410E0541F032C27
:102A70001BD8CC09182C18D840F2E1050124C2F269
:102A800000051C702C7003248CF80640072440F2CB
:102A9000E005C2F200052C7020248EF8004040F2C0
:102AA000E444C2F200040125257040F2E644C2F27B
:102AB00000042578012D11D1A2F1C90044F6565128
:102AC000884288BFB0BD0120207040F2E100C2F210
:102AD00000007721017002202BE000BF284330D195
:102AE000901E02280ED8C8090E280BD840F2E1002B
:102AF000C2F200000021017001208CF8060018705D
:102B00000E2010E0501F0328D6D8C8091828D3D8A3
:102B100040F2E1010120C2F20001187008700320A8
:102B20008CF80600072040F2E001C2F200010870B4
:102B300020208EF8000040F2E440C2F200000121A3
:102B40000170B0BD026861F30002026070470000CE
:102B500000210182C0E90011C0E9021170470000A4
:102B60000021C4F202010968084018BF0120704723
:102B700002684BF6EF731A4002600A8903681A4331
:102B800002604A7C036802F0030223F4405343EAE4
:102B900002320260CA7B036802F0030223F440633E
:102BA00043EA822202608A7B036802F0030223F474
:102BB000407343EA022202604A7B036802F001028A
:102BC00023F0800343EAC21202600A7B036862F3C7
:102BD000861303600A7C036862F3451303604A8925
:102BE00042600A6882604968C1607047016800F00D
:102BF000FC024CF6CD43083ACCF6CC43A2FB0323AF
:102C000021F0010101600021042201604160816026
:102C1000C1606FF00300C4F2020200EA93000F21CA
:102C2000136801FA00F018431060704740F200404A
:102C3000C4F20100016841F4001101607047000016
:102C400010B542F60044C4F20104204600210122DE
:102C500003F076FA20460221012203F071FA2046A1
:102C60000421012203F06CFA20460121012203F025
:102C700067FA20460321012203F062FA204605216B
:102C8000012203F05DFA206840F001002060606CD2
:102C900040F400406064606940F00100606144F20B
:102CA0000040C4F20100016840F2004441F001011B
:102CB00001604169C4F2000441F001014161C16851
:102CC00021F00101C160D0F8001441F00101C0F809
:102CD0000014D4F8000C40F00100C4F8000C41F2DC
:102CE0001400C4F20000016841F00101016042F2E9
:102CF0000000C4F20000016841F001010160416977
:102D000041F001014161C16841F00101C160FEF77C
:102D1000F5FA20460021012203F012FA2068202152
:102D200040F0010020604EF20740CEF2000001703A
:102D30004EF20010CEF200008021016040F200400F
:102D4000C4F20100016841F40041016010BD0000BF
:102D500042F20C01C4F202010860704742F2100016
:102D6000C4F20200016841F0800101607047000078
:102D700042F20C01C4F202014A6842F002024A60C7
:102D80008860486840F0400048600868C0070DD17E
:102D90000868400746D40868C0064FF0020058BFD4
:102DA00003204A6822F002024A6070474FF08042D6
:102DB0000868C00700F08B800868C00738D0086832
:102DC000C0073BD00868C0073ED00868C00741D0A4
:102DD0000868C00744D00868C00747D00868C00723
:102DE0004AD00868C0074DD00868C00750D00868AE
:102DF000C00753D00868C00756D00868C00759D02C
:102E00000868C0075CD00868C0075FD00868C007C2
:102E100068D0103ACCD104204A6822F002024A60FD
:102E2000704700BF01204A6822F002024A607047E2
:102E3000013A086840074DD558E000BF023A0868DB
:102E4000400747D552E000BF033A0868400741D524
:102E50004CE000BF043A086840073BD546E000BF9D
:102E6000053A0868400735D540E000BF063A0868D3
:102E700040072FD53AE000BF073A0868400729D538
:102E800034E000BF083A0868400723D52EE000BFB1
:102E9000093A086840071DD528E000BF0A3A0868CB
:102EA000400717D522E000BF0B3A0868400711D54C
:102EB0001CE000BF0C3A086840070BD516E000BFC5
:102EC0000D3A0868400705D510E000BF0E3A0868C3
:102ED00040070BD40868C0064FF0020058BF03201B
:102EE00005E000BF0F3A08684007F3D50120012A2A
:102EF00008BF04204A6822F002024A6070470000BE
:102F000042F2040040F22311C4F20200C4F26751FD
:102F1000016048F6AB11CCF6EF510160704700003C
:102F200042F20C02C4F20202536843F00103536000
:102F300001601068C0070DD11068400746D41068C2
:102F4000C0064FF0020058BF0320516821F0010174
:102F5000516070474FF480111068C00700F08B80FB
:102F60001068C00738D01068C0073BD01068C00791
:102F70003ED01068C00741D01068C00744D0106828
:102F8000C00747D01068C0074AD01068C0074DD0AE
:102F90001068C00750D01068C00753D01068C00731
:102FA00056D01068C00759D01068C0075CD01068B0
:102FB000C0075FD01068C00768D01039CCD104209A
:102FC000516821F001015160704700BF0120516834
:102FD00021F00101516070470139106840074DD55B
:102FE00058E000BF02391068400747D552E000BFE3
:102FF00003391068400741D54CE000BF0439106820
:1030000040073BD546E000BF05391068400735D57D
:1030100040E000BF0639106840072FD53AE000BFF6
:1030200007391068400729D534E000BF0839106817
:10303000400723D52EE000BF0939106840071DD591
:1030400028E000BF0A391068400717D522E000BF0A
:103050000B391068400711D51CE000BF0C3910680F
:1030600040070BD516E000BF0D391068400705D5A5
:1030700010E000BF0E39106840070BD41068C0067E
:103080004FF0020058BF032005E000BF0F39106861
:103090004007F3D50120012908BF0420516821F021
:1030A0000101516070470000F0B581B02825C4F6D9
:1030B000000505F576742046012100220223012631
:1030C000022700F055F84FF09040012100224FF404
:1030D0008063C5F8F0734FF4806700F049F820462C
:1030E0000121002201232F6000F042F84FF09040B0
:1030F000012100224FF40073C5F8F0634FF400740F
:1031000000F036F84FF090400121002280232C601F
:10311000802400F02DF84FF09040012100224FF460
:10312000807345F8104C4FF4807400F021F82C6047
:1031300001B0F0BD42F61440C4F20100016841F054
:103140000101016070470000401A48BF40427047CB
:103150001C20C4F201000068C0F3807070470000BA
:1031600040F21040C4F60000006800F01000704704
:10317000D0F800C05B4303EB43022CEA0202594340
:10318000114301607047000080B5D0F800C05B4378
:1031900003EB430E2CEA0E0C594341EA0C0101608B
:1031A000C1685A4321EA0E011143C16080BD00008D
:1031B00010B51C2303EA810E24234FF00F0C0829BD
:1031C00038BF2023C4580CFA0EF124EA0101C15083
:1031D000C15802FA0EF21143C15010BD62B67047D9
:1031E0002DE9F0474EF6085041F20001CEF2000002
:1031F000C0F6000101604FF4A0100121FFF720FB91
:103200004EF20B4ACEF2000A10204EF200168AF857
:103210000000CEF200064FF400603060FEF73AFA8C
:103220000424C0F21C0420460121FFF709FB41F2EF
:103230002800C4F200004FF6FF784FF03B09C0F8B9
:103240000480C0F80090201D0121FFF7F9FA42F236
:103250002800C4F200003221416077210160302053
:103260008AF808004FF4002011243060C0F21404E2
:1032700020460121FFF7E4FA4FF4C0100121FFF7C7
:10328000DFFA4FF090400321002202230027FFF7CE
:103290006FFF4FF09040032100222023FFF768FFCB
:1032A0008AF801704FF48050306000200121FEF751
:1032B0007DFD1220C0F218000121FFF7C1FA44F68B
:1032C0002C0044F20045C4F20100C4F20105C0F82C
:1032D0000080C5F82894D5F80004012140F0800052
:1032E000C5F8000404F58020FFF7AAFA4FF4FA703D
:1032F000E862C5F82890286840F0800028608AF8C5
:103300000A704FF400103060BDE8F087B0B540F2AD
:103310003854C2F20004E0687E282DD341F2240123
:10332000C4F2000108687C2840F2BC40C2F20000F0
:103330000AD8B0F85020D2084A2A05D8A269B2F5B6
:10334000FA7F01D2B0BD00BF40F20002C2F200021B
:103350000968B2F85420B1EB520FF3D390F825105E
:103360000131CAB2652A80F8251005D301F068FA48
:103370000020A061B0BD00BF40F20004C2F2000412
:10338000E17E607E61B1B0B1002500BFFFF7E0FED5
:103390000028D7D1607E01358542F7D30BE000BF0E
:1033A00048B10025FFF7D4FE002808BFB0BD607EFD
:1033B00001358542F6D341F22405C4F2000501F03F
:1033C0003FFAEFF3108072B6286840F2BC41C2F2B7
:1033D0000001A1F85C002B6882B293424FF0000319
:1033E00084BF2B689B1A2B60B1F85220A37D00206C
:1033F000DA40A1F8522044F20C41C4F2010101323A
:1034000088610A624860086840F00100086062B69E
:10341000B0BD00002DE9F04182B040F2E564C2F297
:10342000000447F60041C0F6000120464FF48072C8
:1034300001F098FB6078042840F2F881607CA17C60
:103440000138B0FA80F040F2BC454009C2F20005F4
:10345000A872481EE27CB0FA80F04009012AE872A6
:1034600004BF0120A873207D617D0138B0FA80F08F
:1034700040F200064009C2F20006B070481EA27D6C
:10348000B0FA80F04009F070501EB0FA80F04009A8
:10349000E37D3071207E42F62C48212BA0F10801FB
:1034A000C4F2010828BF10235829F37116D8182830
:1034B0001CD2A0F10C010B2929D900F0FC0108292C
:1034C00036D141F64C570721102243F69823009736
:1034D00001F080F9A6F844002CE000BF41F28830EA
:1034E000A6F84200C8F800002BE000BF40F2E24717
:1034F0001821602241F28833009701F06BF90146F0
:10350000207EA6F84410A0F10C010B29D5D841F279
:1035100088370C21182242F21073009701F05AF9F3
:103520000146207EA6F8441000F0FC010829C8D00E
:10353000B6F8440081B2C8F80010A6F84E00A6F80C
:103540004600607E1427A0F13201C9B264299CBFF5
:103550003138F074A07E227F00EB800007EBC000C2
:10356000B084501E637FB0FA80F040092873581E63
:10357000B0FA80F0E17E400968730220317202F0F7
:10358000E9FA607880B3A07F0B2888BF052002F09D
:10359000E1FAE07F94F820100138B0FA80F0400999
:1035A000E87340F2EE2094F8212000EB410094F8FB
:1035B0002230B08540F2D66000EB4200F08503F285
:1035C0005E50308694F8240094F823100228B173DA
:1035D0000CD0012812D194F825100120A87401F113
:1035E000FA0070860CE000BFB08CE8E00220A874FE
:1035F00094F8250064214843708401E00020A874F9
:1036000094F8261094F828000139B1FA81F149099B
:10361000E974411F14294FF00001297498BF707399
:1036200094F82900411E092998BFB07294F82A0025
:10363000411EC9B2082910D8F07200EB80006FF06B
:103640000501A1EB4000C0B2C82828BFC8203073D4
:10365000D8F818100843C8F8180094F82B00A0F107
:103660004601462998BFB07194F82C00411E62298A
:1036700003D84000F0840120A87594F82D00411E65
:10368000092998BF707294F82E00092806D80428DA
:103690000DD8DFE800F003A9B3B7BB000020A5F800
:1036A000290040F22140C2F200000121017094F88B
:1036B000350094F836100138B0FA80F0400901293D
:1036C00085F82C0028D10120687094F8370094F810
:1036D000381000EB80002F2707EB8000A5F856007C
:1036E00001EB810094F8392094F83A3007EB800020
:1036F000A5F858006420C82150435943C6E9161064
:1037000040F2680194F83B00C2F20001043194F8E1
:103710003C2094F83D300DC194F83E0094F83F10E1
:10372000A88601EB81008100F187F17C327B01EBFF
:1037300080013187B6F84C1094F840301144A6F857
:103740004C10B18F02EB80000844552BB08704BFAA
:103750000120287094F8410094F8421094F8432016
:1037600094F84430A87094F84500E97132705528F7
:103770002B7204BF01202871B08C94F84610820887
:103780004A2AE9709CBF0021317448F21F51C5F2EA
:10379000EB11A0FB01124FF2F101CFF2F001A0FBFF
:1037A0000113317A2027B7FBF1F152091B09B2FB53
:1037B000F1F2B3FBF1F1A6F84820A6F84A104FF455
:1037C000FA774FF4967140F6B8324FF47A73009757
:1037D00001F000F8B178F086002904BF0020E872FB
:1037E00002B0BDE8F08100BF40F221410120C2F2E9
:1037F000000185F82900087059E700BF012085F80D
:103800002A0054E70520687151E700BF40F22040CC
:10381000C2F200000121017040F22140C2F200001A
:103820000022027085F8291041E700BFFEF71CF85E
:1038300082B0FFF7D3FCFFF7D3FCFFF701FAFFF7E5
:10384000E9FD40F2E560C2F20000C17840F20009F3
:1038500040F2BC4B0329C2F20009C2F2000B02D1B4
:10386000017903294BD040F20331A0F8031045F24F
:103870004141C3F23321C0F8051045F25F31C2F275
:103880004301C0F809104FF02031C0F80D1099F82D
:1038900001109BF80B6041709BF80A109BF80E50CA
:1038A0000139B1FA81F149094174711EB1FA81F10E
:1038B00049098174691E99F80220B1FA81F1490918
:1038C000C174511E99F80330B1FA81F149090175AB
:1038D000591E99F80470B1FA81F149094175791EB0
:1038E00099F80720B1FA81F14909C27547F60042FB
:1038F0008175C0F600024FF4807101F0BFFB9BF8A8
:103900000E0044F6D35700281CBFB9F83A00A9F8B6
:103910003800B9F84400B9F83C10C1F262074143DD
:10392000A1FB0712B9F84C109BF80A304143A1FBE8
:103930000717591E18BF012189F81C1099F80C109F
:10394000A9F8420001EBD21199F80220A9F83C1025
:10395000F909A9F84C10002AA9F84E0004BF00206C
:103960008BF80E009BF8130000B34FF47A70A9F89F
:103970004C0001208BF80B00002189F81000B9F8E9
:103980003E008BF80E10A9F8021089F80410B9F85F
:1039900040103230A9F83E0001F13200B9F8381079
:1039A000A9F8400001F13200A9F8380043F2000004
:1039B000C4F200004AF6AA21016040F20110ABF8FF
:1039C00027003020ABF84600ABF84E0002F0A6F816
:1039D000FDF7C4FD40F2385AC2F2000A4FF0000869
:1039E000012400BF01F096FD9BF80600A0B19BF8F2
:1039F0000900022808D0012803D1FEF7BFFB8BF88D
:103A0000098001F087FD05E0BAF81C0000F0F0FD28
:103A10008BF809808BF8068043F20000C4F20000A6
:103A20004AF6AA210160BAF82400BAF82610BAF8BA
:103A30002820BAF82A300844BAF82C701044BAF892
:103A40002E6018443844304499F80310043040087C
:103A5000CAF81C0059B1B9F84470B9F854007B0891
:103A60006021C822009700F0B5FEA9F84200BBF81B
:103A7000540042F21171884209D39BF827100029A3
:103A800040F0148549F64141884280F00F85BBF82B
:103A90003E0044F62161884248D3BBF94050284695
:103AA00003F00CF80021C4F2B43102F0F5FEDAF8AC
:103AB000041002460846114602F056FE40F2254127
:103AC000C2F200010978CAF8040003290AD00229C9
:103AD00018D0012928D19BF82E00022100F5007092
:103AE00018E000BFBBF8680044F2AF714143A0EB9F
:103AF0001140400800EB11400009042161F31F2030
:103B0000012107E0A8B2C0B229214843C00A00F54C
:103B1000C060032140F22642C2F20002108040F24F
:103B20002540C2F200000170ABF83E809BF8000017
:103B300070BBBBF84600DAF81830C8284FF0000117
:103B400038BF0121642B4FF0000288BF0122B3F57A
:103B50007A7F00F2B182002800F0AE82114018BFD7
:103B60008BF822809BF80E1019B19F2898BF8BF814
:103B700022809BF8181029B10009182898BF8BF8EB
:103B8000228005E095288CBF0A20642089F8120065
:103B9000DAF81C0045F25651C5F255519BF81C202D
:103BA00050FB01F000EBD071CAF80C103AB3DAF810
:103BB0001800152821D3DAF82000FFF7C5FADAF843
:103BC0000C100A097C2A16D84A08904213D99BF88F
:103BD000170042F2107101308BF81700B9F8380065
:103BE000CAF8188040088BF8238089F81740CAF873
:103BF0000C10ABF842008BF81C80CAF820109BF820
:103C00002000B9F85410002818BF012032294FF0C5
:103C1000000188BF01214EF20B4208404FF0100115
:103C2000CEF200021CBF0021102011709072507063
:103C30009BF81E00D0B19BF80500B8B9DAF8040073
:103C40009BF82E50BBF86860BBF8407002F01AFF7A
:103C5000BBF86E400346284631463A46009401249C
:103C600000F03EFC01F0EAFA8BF81E809BF81D0084
:103C70000130C1B265298BF81D00C0F0A280FDF7AC
:103C800025FB43F20000C4F2000000F5744001215E
:103C9000FDF78EFFBBF8740040F6E44440F20111DA
:103CA0006043C0F21001A0FB0112801A02EB500029
:103CB00099F81110C00A48F21F564843C5F2EB1696
:103CC000A0FB061C9BF8211040F67E0EC2F2000EEF
:103CD000DAF810203EF81130BBF85A70D21A3A4484
:103CE000A2FB0636C6F30F1540F2FF406C43C4F644
:103CF000EC70BBF87030A4FB004048F2E80463436A
:103D000043F23814A4EB13334FF2CF34CCF63C74A7
:103D100053FB04F3DC1004EBD3732EF81170013164
:103D20000F33CAF81020CAB2ABF87230BBF8684043
:103D30008BF82E30312A88BF00218BF821103109F1
:103D4000ABF84810010A09044FF00001C4EBC403AA
:103D5000CAF8085058BF010A9BF8120003EB5C1325
:103D600000284FEAD300ABF84010ABF8680025D02C
:103D7000B9F8221080B281421ED9BBF83C009BF8F2
:103D800024104FF67C4701304FF47A73CFF6FF775B
:103D900082B211FB07319142ABF83C000EDAABF86E
:103DA0004C80FDF71DFF00F04BFD8BF82380ABF836
:103DB0004A808BF8278001E0ABF83C8001248BF827
:103DC0001D809BF824008BF82580002848D0BBF884
:103DD0004C003128C0F094809BF82710002900F097
:103DE0008F80882800F232819BF81100A8B144F23C
:103DF0000C41C4F20101086820F00100086000F0E5
:103E00001FFD42F63440C4F20100C0E90088C0F84A
:103E10000880FDF72BFF8BF8118099F81C10BBF878
:103E20006000002900F0A681013801B2002948BFD6
:103E300040F26710BBF86210ABF8600001390AB2BB
:103E4000002A48BF40F26711BBF86420ABF862104B
:103E5000511E0AB2002A48BF40F26711A4E100BF18
:103E6000DAF81C0042F2C072C0F209029BF823107B
:103E700092FBF0F04843ABF86E0080B24CF6CD41B7
:103E8000484399F81010C00CABF8760061B1B9F84E
:103E90004810B9F84A20B9F84C30B9F84E7000977C
:103EA00000F098FCA9F846009BF82E0099F806202F
:103EB00090420AD9B9F84E30A2F10A010A325B08E1
:103EC000009400F087FCA9F846009BF82C0058B13C
:103ED000BBF84C002F2140F2FF72022320270097ED
:103EE00000F078FC89F80700DAF8180063282FD86A
:103EF000B9F85410B1F5FA7F2AD90C2034E000BF8C
:103F00009BF80C008BF81140002800F0C380B9F832
:103F1000440099F80A10B9F8422000EB4101133926
:103F20008BB25A43B2FBF0F2ABF85010801A01305A
:103F3000ABF86C0000F0DAFDBBF86C0042F63441DF
:103F4000C4F20101C1E9000088608BF81F40ABE0BA
:103F5000DAF80C0064214FF4FA7203230C2700975F
:103F600000F038FCB9F8541041F22402C4F2000207
:103F7000642938BF022089F8190010684AF6C9710F
:103F80008842C0F01B829BF82300012840F0168273
:103F90009BF8220001308BF8220000F051FCBBF8A6
:103FA0004C0089F8174041F2240330283ABF8BF8BF
:103FB000238041F28830B9F85400C4F20003CAF8F3
:103FC0001880196800EB4000ABF85C10C3F8008063
:103FD00010FA81F099F81A10C0F38F02B2FBF1F1D8
:103FE0008208CAF81410C1EBD000DAF81810ABF848
:103FF00052000A2980B2A9F8542019D2196844F253
:104000000C41C4F20101086299F81C1099F82000D3
:10401000012959D10130C1B2072989F8200022BFF6
:10402000012089F820008BF81C0000F0010057E007
:1040300019688142E3D219688142E0D2196881424D
:10404000DDD219688142F3D3D9E700BF99F81C107B
:10405000BBF8600000298BF8114000F0278101387F
:1040600001B2002948BF40F26710BBF86210ABF8FC
:10407000600001390AB2002A48BF40F26711BBF85C
:104080006420ABF86210511E0AB2002A48BF40F209
:10409000671125E142F63440C4F20100C0E900880E
:1040A000C0F80880FDF79CFDABF86E809BF800001F
:1040B000002840F0888195E48BF822809BF80E1050
:1040C00000297FF452AD54E50138010689F820003B
:1040D00004D1062089F820008BF81C4024EA000057
:1040E00089F81B00EFF3108072B69BF81F0018B917
:1040F00099F82000FDF766FE62B6FDF715FE9BF805
:104100000D009BF81310084318BF012006D0DAF801
:104110000C10B1F5FA6F88BF89F8174099F8201094
:10412000BBF85C200AEB41014A84DAF8181001F16F
:1041300001018BF82B808BF82D808BF82680CAF834
:10414000181048B11429C0F03981B9F85400B0F5FD
:10415000FA6F04D932E100BF1F29C0F02F8189F81E
:104160001780FEF763FD9BF80000002840F02B81CC
:10417000FFF738BC013001B2B1F5B47FA8BF002011
:10418000BBF86210ABF8600001310AB2B2F5B47F3F
:10419000A8BF0021BBF86420ABF86210511C0AB222
:1041A000B2F5B47FA8BF002140F2EA0500B2C2F226
:1041B0000005ABF8641035F91000B9F85210B9F8E1
:1041C0004420084444F6D3545043C1F2620450FBE7
:1041D00004F0C11199F8092001EBD07046F267662E
:1041E0005043C6F2666650FB06F0810801EBD070C2
:1041F00080B201F09DFCBBF96200B9F8521035F9AC
:104200001000B9F844200844504350FB04F0C11199
:1042100099F8092001EBD070504350FB06F081085B
:1042200001EBD07080B201F089FCBBF96400B9F8F1
:10423000521035F91000B9F844200844504350FB9F
:1042400004F0C11199F8092001EBD070504350FBE4
:1042500006F0810801EBD07080B201F075FC99F88E
:10426000081041F65832B2FBF1F340F22A32BBF8A3
:104270004C00B2FBF1F730217822009700F0AAFA47
:10428000A9F8500080B2FEF703FBB9F850004FF4D4
:104290001671B1FBF0F00124ABF86E009BF8000042
:1042A000002840F09080FFF79DBB00BF013001B2B5
:1042B000B1F5B47FA8BF0020BBF86210ABF8600076
:1042C00001310AB2B2F5B47FA8BF0021BBF8642067
:1042D000ABF86210511C0AB2B2F5B47FA8BF00213E
:1042E00040F2EA0500B2C2F20005ABF8641035F9FD
:1042F0001000B9F85210B9F84420084444F6D354D9
:104300005043C1F2620450FB04F0C11199F8092036
:1043100001EBD07046F267665043C6F2666650FB0A
:1043200006F0810801EBD07080B201F001FCBBF90E
:104330006200B9F8521035F91000B9F84420084469
:10434000504350FB04F0C11199F8092001EBD070E3
:10435000504350FB06F0810801EBD07080B201F0B1
:10436000EDFBBBF96400B9F8521035F91000B9F84B
:1043700044200844504350FB04F0C11199F809202F
:1043800001EBD070504350FB06F0810801EBD07078
:1043900080B201F0D9FBBBF84C00C82806D95020E8
:1043A000ABF86080A9F8500002E000BFB9F85000F7
:1043B0000124FEF76DFABBF8600048B19BF80000DD
:1043C00000283FF40FAB00F071FCFFF70BBB00BF00
:1043D00041F2240042F22831C4F20000ABF823403D
:1043E00089F81740A9F85410CAF80C10CAF8201020
:1043F00001609BF80D001421CAF818108BF81F807B
:1044000000281CBFB9F84000ABF8420099F81C1016
:1044100099F8180001290DD10130C1B2072989F896
:10442000200022BF012089F820008BF81C0000F03A
:1044300001000BE00138010689F8200004D10620B4
:1044400089F820008BF81C4024EA000089F81B0042
:10445000EFF3108072B69BF81F0018B999F820008E
:10446000FDF7B0FC62B6FDF75FFC9BF80D009BF812
:104470001310084306D0DAF80C00B0F5FA6F88BFC5
:1044800089F8174099F82000BBF85C100AEB40004F
:104490008BF82D808BF82B804184FEF74BFE9BF828
:1044A000000000288FD1FFF79DBA00BFFDF798FBF1
:1044B00042F634410020C4F20101ABF82700CBF8EA
:1044C0004A0008604860886000F0E8FB40F2E05075
:1044D000C2F200004FF48071FCF786FEFDF7C4F9CC
:1044E00080B540F26E5CC2F2000C8CF80000080A45
:1044F000DDF808E08CF80100100A8CF80300180AB7
:104500008CF802108CF804208CF805004FEA1E206D
:104510008CF808E04FF0000E072100228CF80630DE
:104520008CF807001CF80E305A4053B2D2B250003B
:10453000002B48BF81EA420081EA4002030658BFCF
:10454000420081EA4200130658BF500081EA40024F
:10455000030658BF420081EA4200130658BF5000CC
:1045600081EA4002030658BF420081EA4200130676
:1045700058BF500081EA4002030658BF4200BEF116
:10458000080F31D00CEB0E0040780EF1020E5040B7
:1045900042B2C0B24300002A48BF81EA400381EA28
:1045A00043001A0658BF580081EA4002030658BF6C
:1045B000420081EA4200130658BF500081EA4002DF
:1045C000030658BF420081EA4200130658BF50005C
:1045D00081EA4003020658BF430081EA43021806FD
:1045E00058BF5A009EE700BF8CF8092080BD00002C
:1045F0002DE9F04F40F2204CC2F2000CBCF806103E
:1046000021B10020ACF806001CE000BF40F2DF4101
:10461000C2F20001097800294FF0000108BF4FF6EF
:10462000FF70B1EBD03F07D100F44041B1F5804FAE
:1046300040F0A880062100E00721C840CCF8101007
:1046400040EA4121080980EA112048400F248443B0
:1046500044EA011046F63E62CCF81400C0F60002AF
:10466000C1F303100B0A155CD65CA80240EAC637FA
:1046700001F00F0012F80080135D40F2E002C2F278
:10468000000292F800E040F2E870C2F2000000EB95
:104690008E02802020EAC60A06F008068AEA061B77
:1046A00000EA972147EA481481EA0B0100EA5726FD
:1046B00044EA03094E4000EA1727CCF818907740E7
:1046C00005F0100C87EACC0C05F008058CEA0515FE
:1046D000C2F808A002F1100A8AE8C21000EA5411D8
:1046E00025F07F0787EA010C00EA141750608CEA76
:1046F000070A00EAD40080EA0A0008F010061562F2
:1047000080EAC60608F0080586EA051509F0800467
:104710006C4009F0400824F07F0181EA480109F06B
:10472000200781EA8707C2E90B0603F01000C2E9FF
:104730000F1787EAC00003F0080180EA011103F0B7
:10474000040781EA471703F00206C2E909CA87EAAB
:104750008616DB0102F1440CC2E90D54DBB226F0EF
:104760007F058CE8830040F2E8716B400020C2F2C4
:104770000001C2F80CB0C2E9146341F82E00BDE894
:10478000F08F00BF00F46041B1F5005F02D1052158
:1047900053E700BF00F47041B1F5805F02D10421FE
:1047A0004BE700BF00F47841B1F5006F02D103215F
:1047B00043E700BF00F47C41B1F5806F02D10221D4
:1047C0003BE700BF00F47E41A1F50071B1FA81F131
:1047D000490932E710B5844602988C4526DD144617
:1047E000864600BF64457046D8BF10BD2246A14230
:1047F00012DC834220D05418641000EB030EA14257
:104800004FEA6E0E1AD06445ECDA01346445734603
:104810002146E4DB0BE000BF14460A4686461846F4
:10482000644573462146DADB01E000BF9E466245DF
:10483000C8BF704610BD00BF184610BD704610BD01
:1048400040F20040C4F20100016821F4001101604F
:104850004FF40011416170472DE9F04381B042F6F9
:104860002848C4F2010841F28830C8F80400EFF388
:10487000108072B640F27850C2F20000007843F225
:1048800000094CF6CD447925C4F200094AF6AA275E
:10489000CCF6CC440A26C8E90300C8F8140000BFCF
:1048A000023DA5FB04010809C9F80070FDF78AFA6A
:1048B00006EB5500C8F800000A20FDF7FFFF022DA7
:1048C000EED8FDF78DF9002040F24402C8F8000050
:1048D000C2F2000240F210511288C2F200010880B8
:1048E000C8F8042062B601B0BDE8F08310B542F606
:1048F0002844C4F2010441F288306060282020601E
:1049000040F27850C2F200000078C4E90300606110
:104910000220FDF757FA9620FDF7D0FF43F2000082
:10492000C4F200004AF6AA210160502020609620BF
:10493000FDF7C4FFFDF754F9002040F24402206067
:10494000C2F2000240F210511288C2F20001088047
:10495000626010BD10B542F62844C4F2010441F271
:10496000883060603220206040F27850C2F200004F
:104970000078C4E9030060610220FDF723FA962065
:10498000FDF79CFF43F20000C4F200004AF6AA21A2
:1049900001601E2020609620FDF790FFFDF720F9B2
:1049A000002040F244022060C2F2000240F21051A6
:1049B0001288C2F200010880626010BD10B5EFF3EA
:1049C000108072B642F62844C4F2010441F28830E5
:1049D000606043F20000C4F200004AF6AA210160C0
:1049E0005020206040F27850C2F200000078C4E904
:1049F000030060610320FDF7E5F96420FDF75EFF29
:104A0000462020606420FDF759FF282020606420A4
:104A1000FDF754FFFDF7E4F8002040F24402206067
:104A2000C2F2000240F210511288C2F20001088066
:104A3000626062B610BD000070B542F62844C4F250
:104A4000010441F288306060EFF3108072B643F2E7
:104A50000005C4F200054AF6AA263C202E6020601C
:104A600040F27850C2F200000078C4E903006061AF
:104A70000120FDF7A7F94B20FDF720FF5020206013
:104A80004B20FDF71BFF5A2020604B202E60FDF7C6
:104A900015FFFDF7A5F8002040F244022060C2F2A5
:104AA000000240F210511288C2F2000108806260D8
:104AB00062B670BD10B540F2BC44C2F20004607A28
:104AC000022809D0012803D1FDF758FB00206072AD
:104AD000BDE8104000F01EBD40F23850C2F20000A8
:104AE000808BFFF785FD0020607210BDB0B54FF0E0
:104AF0009040012100224FF480634FF48064FEF760
:104B000037FB2825C4F600054FF090400121002214
:104B10004FF400732C604FF40074FEF729FB4FF044
:104B20009040012100224FF480732C604FF4807478
:104B3000FEF71EFB2C6005F576742046022100224C
:104B40000223FEF715FB2046022100220123FEF777
:104B50000FFB4FF09040022100228023BDE8B040BF
:104B6000FEF706BB70B5012A2CDB531E032B02F0A7
:104B7000030C01D2002211E022F0030E431C00229C
:104B80008D5C9E188C1806F8015C65789D54A5789C
:104B900004327570E4789645B470F1D1BCF1000F21
:104BA00010D0535CBCF1010F83540BD0531C13F88D
:104BB00001E0BCF1020F00F803E008BF70BD023253
:104BC000515C815470BD000070B540F2C146C2F224
:104BD00000063078302544F20044C4F2020505286E
:104BE000C4F200040BD14020686004F57440012138
:104BF00001F008FD286840F00100286030780628A0
:104C000018BF70BD4020E8622046012101F0FAFC87
:104C1000A86A40F00100A86270BD0000B0B544254C
:104C2000C4F20205286840F20044C4F2000428607F
:104C3000204601F00DFB47F2010040F2E101A061C6
:104C4000C2F200010B20097820624FF6FF70A162CA
:104C5000E0626069002140F00100606140F67D0083
:104C6000C2F20000017004F134006162A86040F2F9
:104C7000E050C2F20000E86040F26000C2F20000C2
:104C800000786860E06840F40070E060206840F000
:104C90000100206040F68B102860B0BD40F2244037
:104CA000C4F2000000218160016070472DE9F047E7
:104CB00082B040F20009C2F20009B9F8440040F2A3
:104CC000BC484CF6CD41C2F20008414398F804209C
:104CD000A0EB11541FFA84FA52B198F8271098F8F3
:104CE0000B00002918BF00281AD1002942D14DE03D
:104CF00098F81A10B8F84600002940F0F2803128E0
:104D0000C0F0EF8099F81C50FCF76AFF0A20FDF70D
:104D1000BFFD002D00F0DE8001F0C6FBDCE000BF2F
:104D2000B8F84600302140F2FF720023CDF800A011
:104D3000FFF750FDB8F8301005460846302140F224
:104D4000FF720023CDF800A0FFF744FD87B217FAE9
:104D500085F0A4EB500080B2AEB200F0EFFE30461A
:104D600000F0E6FE384600F0EFFE98F80B0098F8E9
:104D7000271059B150B999F81C50FCF731FF0A209F
:104D8000FDF786FD35B101F08FFB05E002B0BDE80F
:104D9000F08700BF01F0E0FBB8F84600302140F298
:104DA000FF720023CDF800A0FFF714FDB8F8301013
:104DB00005460846302140F2FF720023CDF800A0DE
:104DC000FFF708FD98F82E7099F8061006468F42F6
:104DD0000CD9B9F8440001F1140243080124384603
:104DE0000094FFF7F7FC04461FFA80FAA8B250457A
:104DF000B0B288BF2546504598F8160088BF2646B1
:104E00000028A9F846404CD0B8F94000B9F826105F
:104E10006FF0630201FB020240F26801C2F200017E
:104E20008B6BD1E90BC08A6200FB02308B6C4C6B40
:104E30009842A8BF18465B429842D8BF18460B6CF0
:104E40008863D31A03FB040003FB04F70CFB020086
:104E5000CB6CCF630A649842A8BF18465A4290426E
:104E6000D8BF1046486401F029FE44F20001C4F2A4
:104E70001C6101F011FD01F005FEB9F83410081AAB
:104E8000B9F83E1002B28A42B8BF0846A9B202B2CF
:104E90009142B1B2A9F83400C8BF05469142C8BFDB
:104EA000064645EA060000040ED098F8270058B1DF
:104EB000A8B200F03DFE002000F040FEB0B202B00B
:104EC000BDE8F04700F040BE42F63440C4F20100B5
:104ED00086E000BF01F040FBB8F84600012188F8E9
:104EE0001A10302140F2FF720023CDF800A0FFF726
:104EF00071FC98F82E7099F8061005468F420CD96F
:104F0000B9F8440001F1140243080126384600961E
:104F1000FFF760FC04461FFA80FAA8B2504598F8E3
:104F2000160088BF25460028A9F8464048D0B8F9A1
:104F30004000B9F826106FF0630201FB020240F254
:104F40006801C2F200018B6BD1E90B708A6200FB31
:104F500002308B6C4E6B9842A8BF18465B42984259
:104F6000D8BF18460B6C8863D31A03FB060003FBFB
:104F700006F407FB0200CB6CCC630A649842A8BF1E
:104F800018465A429042D8BF1046486401F096FD38
:104F900044F20001C4F21C6101F07EFC01F072FDDC
:104FA000B9F83410081AB9F83E1002B28A42B8BFF4
:104FB0000846A9B202B2A9F834009142C8BF05461A
:104FC000280442F63440C4F2010009D098F82710B2
:104FD00031B1A9B2C0E90011816002B0BDE8F0872B
:104FE0000021C0E90011816088F81A1002B0BDE804
:104FF000F0870000B0B540F20001C2F2000140F2BB
:10500000E5604A78C2F20000427040F2BC42C2F24F
:105010000002947AD57A927B8B78013AB2FA82F2C6
:105020005209C2745A1E91F803C0B2FA82F25209B0
:105030000275ACF1010291F804E0013CB2FA82F28F
:10504000B4FA84F4520964094275AEF10102447461
:105050006C1EB2FA82F2B4FA84F45209CB79640974
:10506000827547F600428474C0F600024FF48071E6
:10507000C375BDE8B04000F001B800002DE9F04F65
:1050800003AF85B08346C81701EB9070841020F001
:105090000300073020F007009246ADEB0008894678
:1050A000C54640462146FCF79FF8B9F1040F44DBA2
:1050B000601E032804F0030C04D20021BCF1000F91
:1050C00027D13AE024F00300C0F1000E08F10809EE
:1050D0000022002047F81C4C0BEB00045BF800108A
:1050E000A3686568E468043A08EB000648F8001015
:1050F00009EB000149F80030964500F1100041F835
:10510000045CF460E8D157F81C4C5142BCF1000F2C
:1051100013D05BF82100BCF1010F48F821000CD03E
:10512000481C5BF82020BCF1020F48F8202004D076
:10513000881C5BF8201048F8201047F8144CFDF745
:10514000DFFE5FEA8A5002D15046FDF711FE0020D3
:1051500047F8180C57F8180C57F8141C884217D247
:1051600057F8180C57F8181C0AEB800058F8211053
:10517000FDF7D6FE0320FDF7EBFD57F8180C0130C4
:1051800047F8180C57F8180C57F8141C8842E7D346
:10519000A7F10C04A546BDE8F04FFDF7DFBD000008
:1051A000B0B54425C4F20205286840F2004440F03E
:1051B0001000C4F200042860204601F049F8602085
:1051C000A0610320206240F2A640C2F200000078F5
:1051D0000121A0624C20E06240F67D00C2F2000096
:1051E0000170606940F00100606104F13400A86062
:1051F00040F2E870C2F20000E86040F2E000C2F263
:105200000000007817306860286840F002002860CD
:10521000286840F008002860286840F001002860F5
:10522000E06840F40070E060606C40F4004060644E
:10523000206840F001002060B0BD000040F2E800AE
:10524000C2F2000000781C21C4F202014860086824
:1052500040F001000860704770B582B040F2795CA0
:10526000C2F2000C9CF80110012905D19CF819002C
:10527000002840F0D780BCE0881EC2B2012353FA58
:1052800080F0032A46F63E5200F0030E0CF10203B2
:10529000C0F6000202D200241AE000BF20F0030092
:1052A000002400BF13F8045B043884EA050413F8F3
:1052B000036C145D13F8025C84EA0604145D13F8B1
:1052C000016C84EA0504145D84EA0604145DE9D1E6
:1052D000BEF1000F10D01878BEF1010F80EA040073
:1052E000145C09D05878BEF1020F80EA0400145C07
:1052F00002D098786040145C9CF81900844240F019
:105300009180182975D19CF803009CF8042040F284
:105310007C419CF8053062F30A20C2F200019CF83F
:1053200006608880D00863F34A10C880B0009CF8FB
:10533000072040EA931062F38A2008819CF8080055
:10534000520860F3CA124A819CF8092000099CF8AF
:105350000A3062F30A10888158009CF80B3040EA4A
:10536000D21063F34A20C8819CF80C009A0860F3BD
:105370008A120A829CF80D209CF80F60D2009CF8DB
:10538000105042EA50104882F0089CF8112065F352
:105390004A10C88290009CF8122040EA951062F3EF
:1053A0008A2008839CF813009CF80E30520860F3A2
:1053B000CA1266F30A234A839CF814208B820009E0
:1053C0009CF8153062F30A10888358009CF8163058
:1053D00040EAD21063F34A209CF81720C88398084B
:1053E0009CF8183062F38A100884D80040EA521002
:1053F000488440F2C740C2F20000017840F2BE404B
:10540000C2F20000007840F27C44C2F2000404EBD7
:105410004000808881B1A0F2D5310F2910D24FF41D
:105420007A7016E040F27C40C2F20000016801315F
:10543000016002B070BD00BFAF281FD2002026E07F
:105440004FF4FA66AE2140F2127200230096FFF785
:10545000C1F940F2BF41C2F20001097840F20A529C
:1054600004EB41018988C2F2000210804FF4FA6611
:105470000846AE2140F2127200231CE040F2FF7693
:10548000AE2140F2127230230096FFF7A3F940F2EA
:10549000BF41C2F20001097840F20A5204EB410117
:1054A0008988C2F20002108040F2FF760846AE21E1
:1054B00040F2127230230096FFF78CF940F2EC4173
:1054C000C2F20001088040F2E34140F2065240F28D
:1054D0000250C2F20001C2F20002C2F200001388C0
:1054E000097800880133002918BF0023002840F202
:1054F000C240C2F200004FF0010118BF002301704A
:1055000040F21050C2F2000000211380018002B06E
:1055100070BD00002DE9F04182B040F2BC45C2F2FE
:105520000005E87A50B195F8290040F20004C2F273
:10553000000448B1B5F84E001FE100BFB5F84E00B9
:10554000A5F846008FE100BFE97CA37BB5F84E00CB
:105550004FF47A72002902EB430115D0814255D2F3
:10556000227FAF7ABA423FD12E7D4FF0000C012747
:10557000002EA5F846C0EF7748D0C2F1010222778D
:1055800085F81FC032E000BF81420DD34FF47A7618
:10559000A6EB4302824200F2A080A6EB43018142C7
:1055A00040F2DF80E5E000BF227FAB7A9A4240F014
:1055B0007F80B4F85400E38E00269842B5F850304E
:1055C0004FF0000088BF0120C82B4FF0000338BF08
:1055D0000123184258D195F82400002854D14FF4E3
:1055E0007A70A5F84E0063E0EA7F7AB900222A7546
:1055F00040F2FF774FF4FA622F230097FFF7EAF8A3
:105600000146B5F84E00A37BA5F846104FF47A7812
:10561000A8EB4302824222D9A97A277FC1F1010671
:10562000BE420BD12E7D4FF0000C0127A5F846C0DD
:10563000EF77A6B1217785F81FC001E0E97F71B946
:10564000002129752F27002140F2FF730097FFF7F3
:10565000C1F80146B5F84E00A37BA5F84610A8EBAB
:105660004301814200F2858008EB43018142C0F092
:105670008080EA7F0021002AA5F8461079D0E977DA
:105680000121297575E000BFC2F10100207740F2C9
:105690003850C2F2000086610120E075FFF7D0F8B3
:1056A000A17BB5F84E004FF47A72AE7602EB410161
:1056B00040F2FF774FF4FA622F230097FFF78AF842
:1056C0000146B5F84E00A37BA5F846104FF47A7654
:1056D000A6EB430282427FF660AFA97A237FC1F135
:1056E00001079F422CD1B4F85400E38E0027984262
:1056F000B5F850304FF0000088BF0120C82B4FF0A4
:10570000000338BF0123184208D195F8240028B9B6
:105710004FF47A70A5F84E0012E000BF40F2385006
:10572000C2F2000087610120E0752177FFF788F859
:10573000A17BB5F84E004FF47A72AF76A2EB41022E
:105740002F27002140F2FF730097FFF743F801462F
:10575000B5F84E00A37BA5F84610A6EB43018142A5
:1057600007D806EB4301814222BF0021A5F846106D
:10577000A97695F82910002975D0B0F5836F33D339
:10578000217FAA7A914228D1B4F85400E28E0026F3
:105790009042B5F850204FF0000088BF0120C82A81
:1057A0004FF0000238BF0122104207D195F82400C3
:1057B00020B90020A5F84E000FE000BFC1F10100A4
:1057C000207740F23850C2F2000086610120E07577
:1057D000FFF736F8B5F84E00AE76217DC1EB4001FB
:1057E000A1F60101A5F84610A0F1300189B2C9085F
:1057F0007C2932D8A97A227FC1F10103934226D1B4
:10580000B4F85400E28E00269042B5F850204FF0D4
:10581000000088BF0120C82A4FF0000238BF0122D3
:10582000104207D195F8240020B90020A5F84E00B9
:105830000DE000BF40F23850C2F200008661012046
:10584000E0752177FEF7FCFFB5F84E00AE76217DBE
:10585000C1EB40013139A5F846102F2803D80020AC
:10586000A5F84600A876287810B102B0BDE8F0810E
:1058700040F20004C2F2000495F82200A17C8842A4
:1058800010D9207970B1FCF7ABF9FEF7D9FF0020F1
:105890006621A5F84C0085F8221095F824100029FF
:1058A000E3D107E040F2FF70A5F84C0095F8241012
:1058B0000029DAD1AA7B2F2602EB820106EB011127
:1058C000814228D895F8270028B395F8230068B9B5
:1058D000FCF786F9E07D002808BF00F045F90120BB
:1058E00085F82300208FAA7BA5F84200B5F84C006C
:1058F000E38FB4F844708921002A40F2FF7208BF98
:105900002F210097FEF766FFE97CA5F844000029E7
:1059100004BF0020E877A87BB5F84C1000EB8000AE
:1059200006EB001088424CD9E87E052812D8DFE843
:1059300000F01303070B0F03FFF70CF80AE000BF9A
:10594000FEF7D4FF06E000BFFEF786FF02E000BFCF
:10595000FFF772F80020E876A07800287CD095F850
:105960002300002800F08A8094F82000618DC0EBAD
:10597000001001EB8000A0F13C010AB2B2F5B47F47
:10598000A8BFA0F5D27108B27722A5F86010F02860
:10599000C8BF6FF0F0020A44EF23A5F862206FF051
:1059A000F0027828C8BF02F17803A87B19440128C7
:1059B000A5F8641004BF012085F824000020A5F894
:1059C0004400E87F00287FF450AFB5F84C602F2EDC
:1059D00017D340F23850C2F20000697B806914226C
:1059E00022FA01F188420CD2B5F84400218F884296
:1059F0003CBFA5F844100846A18F884288BFA5F88F
:105A00004410B5F84470B4F84600874284BFA5F846
:105A100044000746A87D30B1B4F934008742C4BFC2
:105A200087B2A5F8447040F23850C2F20000046812
:105A30000021204600F016FF00287FF416AF302E1C
:105A4000FFF413AF204601F01DF83844A5F84400D8
:105A500002B0BDE8F08100BF95F823100020A5F842
:105A6000440091BB0121E175297B40F23852C2F21A
:105A70000002906121B3FDF717FB26E001202A7B8D
:105A8000E07540F23850C2F200000021816185F8D3
:105A900026108AB1A87B00287FF466AFB4F84400D2
:105AA000A17A00EB41001338A5F85E00FFF71EF85D
:105AB0000120E87758E700BFFCF792F854E700BFF1
:105AC000E87F002808BFFCF78BF8E97CE87F002915
:105AD00018BF00283FF476AFB5F84E104FF47A7037
:105AE000FDF732FBB4F8441000F57A7044F6D35257
:105AF0004843C1F2620250FB02F0C21102EBD070C7
:105B000082B201398A42A5F85E0003DAFEF7EEFFA1
:105B100057E700BFFDF7C8FA53E7000040F2004026
:105B2000C4F60000022101221023FDF72DBB000066
:105B300042F63441C4F201010860704742F6384130
:105B4000C4F201010860704742F63C41C4F2010111
:105B5000086070470B2828BF0B2040F278514000A6
:105B6000C2F2000108707047B0B540F2BC44C2F206
:105B7000000494F8230018B1BDE8B040FDF756B812
:105B800040F20005C2F20005297F95F820000129A6
:105B90000CD10130C1B2072985F8200022BF0120B5
:105BA00085F82000207700F001000CE001380106A4
:105BB00085F8200004D10620012185F820002177F6
:105BC000012121EA0000E876EFF3108072B6E07F51
:105BD00018B995F82000FCF7F5F862B6FCF7A4F8C0
:105BE000607BE17C084340F23850C2F2000005D0EF
:105BF000C168B1F5FA6F84BF0121E975002184F80D
:105C00002D1084F82B1095F82010B4F85C2000EBD0
:105C10004100428442F21070A5F8540041F2240081
:105C2000C4F2000041F288310160012084F82300B1
:105C3000BDE8B040FCF7FABF2DE9F04740F2BC45A3
:105C4000C2F20005B5F84400E98FA5F85000481CE1
:105C5000E98EE887481C298FE886481C698E2887CA
:105C6000481C95F8271040F2000A0029C2F2000AE9
:105C700068864ED1687E00284BD195F82800002810
:105C800047D0B5F8460018B10020A5F8660040E0FE
:105C9000B5F8660044F62162013081B29142A5F860
:105CA000660036D3B5F84A001F2827D3A87C012107
:105CB000012885F8271025D1B5F8680040F28951F0
:105CC0004143BAF83220C90C69765143B0F5B97F27
:105CD000AAF8221018D343F200080024C4F20008E6
:105CE0004AF6AA27FEF76AFE6420FCF7E7FDC8F82B
:105CF0000070687E01348442F4D305E0002085F80A
:105D00002800C2E7FEF75AFE95F82A0008B90020DD
:105D1000E874E87B88B1B5F86A009AF8051001309C
:105D200082B201EB8101B2EB810FA5F86A0004D9C0
:105D30000120A8770020A5F86A00287895F824109B
:105D4000084340F0E5819AF8170000284DD095F8F7
:105D50002300002849D0FEF773FDFDF7F9F99AF802
:105D60001B1089B188B195F826009AF81D200130E2
:105D7000C3B2934285F826001AD895F82B00A0BB31
:105D800095F82D001BE000BF40B195F82D000130C3
:105D900095F82B2085F82D003ABB0FE095F82600EA
:105DA0009AF81D200130C3B2934285F826000DD920
:105DB000002095F82B2085F82D00B2B959B19AF83A
:105DC0001E10C0B288420BD80FE000BF95F82B0020
:105DD00058B995F82D009AF81F10C0B2884204D91E
:105DE000012085F82B0000F021FC288F1528C0F039
:105DF000B580A97D95F8239000200029288718BF39
:105E0000B9F1000F49D0B5F94000BAF826106FF08B
:105E1000630201FB020240F26801C2F200018B6BD7
:105E2000D1E90B408A6200FB02308B6C4F6B9842C9
:105E3000A8BF18465B429842D8BF18460B6C8863CF
:105E4000D31A03FB070003FB07F604FB0200CB6C2D
:105E5000CE630A649842A8BF18465A429042D8BFFF
:105E60001046486400F02AFE44F20001C4F21C61AE
:105E700000F012FD00F006FEBAF83410081ABAF865
:105E80003E1002B28A42B8BF0846BAF8421002B2C7
:105E90008A42C8BF0846AAF83400687B002818BFA9
:105EA000B9F1000F54D0BAF85400BAF82810421AC9
:105EB00040F26801C2F200010B6ED1E915700A656B
:105EC00000FB02300B6FCE6D9842A8BF18465B42B4
:105ED0009842D8BF18468B6E0866D31A03FB06009B
:105EE00003FB06F407FB02004B6F4C668A66984280
:105EF000A8BF18465A429042D8BF1046C86600F064
:105F0000DDFD44F20001C4F21C6100F0C5FC40F26A
:105F10003858C2F20008D8F8001002460846114668
:105F200000F022FC0021C4F21631044600F08CFC83
:105F300000281CBF0024C4F2163420460021C8F8F3
:105F40000040002400F080FC002808BFC8F8004092
:105F5000687D002818BFB9F1000F15D19AF80F001D
:105F6000002800F09680688EA98E884208D9B5F87E
:105F7000420000219528698666D802216EE000BFA4
:105F8000B5F84200002169E040F23850C2F200004A
:105F9000C1696A8F40F26807C2F20007D0F8188022
:105FA000891A3A69D7E90130396000FB01203A6A61
:105FB000FE689042A8BF104652429042D8BF104699
:105FC000BA6938618A1A02FB060002FB06F403FB79
:105FD00001007A6A7C61B9619042A8BF10465142C3
:105FE0008842D8BF0846F86100F068FD44F200011D
:105FF000C4F21C6100F050FCA96F0246084611462D
:1060000000F0B2FB4EF20001C4F2FF41044600F082
:106010001BFC00281CBF4EF20004C4F2FF442046C3
:1060200000214FF0000900F024FC002818BF0024D4
:10603000B8F1630FAC6798BFC7F810909AF80F00DB
:10604000002890D125E000BF40F23851C2F2000193
:10605000C968B1F5FA7F94BF28210A21B5F850200C
:106060008AF81510131A8B420ADD0844BAF8541046
:10607000A5F850000020B1F5FA7F88BF012006E0A6
:10608000821A8A42C4BF401AA5F8500000208AF83C
:10609000160095F827209AB195F8230080B1B5F83D
:1060A0004C0030280CD3B5F85010BAF84200BAF8BA
:1060B000442000FB01F3B3FBF2F201321BE000BF0E
:1060C000E87F68B1B5F85E10BAF84200BAF844202B
:1060D0004143B1FBF2F1511A4A1CB5F850100AE0E5
:1060E000B5F85010BAF84200BAF8443000FB01F796
:1060F000B7FBF3F35A43A5F8421042F62C41C4F221
:106100000101A5F86C20086090B2C1E902000861A5
:10611000FDF726F870B1B5F8540044F6216201305D
:1061200081B29142A5F8540038BFBDE8F087FBF773
:106130009BFB00BF0020A5F85400BDE8F0870000DD
:10614000062988BF7047DFE801F0050B151F2933CA
:106150003D0000BF016A62F300010162704700BFA9
:10616000016A02F0010221F0040141EA82010162A8
:10617000704700BF016A02F0010221F0100141EAFC
:1061800002110162704700BF016A02F0010221F0B2
:10619000400141EA82110162704700BF016A02F0CA
:1061A000010221F4807141EA02210162704700BFBF
:1061B000016A02F0010221F4806141EA8221016258
:1061C000704700BF016A02F0010221F4805141EAE8
:1061D0000231016270470000062988BF7047DFE87E
:1061E00001F0052B0F2B192B230000BF816902F052
:1061F000010221F0080141EAC2018161704700BF3C
:10620000816902F0010221F4006141EAC221816149
:10621000704700BFC16902F0010221F0080141EAA4
:10622000C201C161704700BFC16902F0010221F4DF
:10623000006141EAC221C16170470000026801F0BB
:10624000010122F0800242EAC111016070470000A2
:1062500010B542F6FF31C4F20101884216DD44F266
:10626000FF31C4F201010B248842C0F20C0425DC8A
:1062700042F60041C4F2010188423AD044F20001E2
:10628000C4F2010188423FD1053432E040F20041BE
:10629000C4F20001884221D041F20001C4F20001A1
:1062A00088421FD042F20001C4F2000188422BD183
:1062B0000120C0F21000C41D1BE000BF44F20041E9
:1062C000C4F20101884213D044F60001C4F2010176
:1062D000884218BF10BD07340BE000BF0124C0F294
:1062E000100406E00120C0F21000C41C01E000BF51
:1062F000063420460121FCF7B7FA20460021BDE80C
:106300001040FCF7B1BA00BF10BD0000B0B540F2BC
:10631000E344C2F2000440F2DC402178C2F2000003
:106320000078002918BF00280ED140F2E441C2F2E3
:1063300000010978012917D000295FD1FCF7E6FA9E
:10634000BDE8B040FEF76ABC40F67D00C2F2000036
:106350000078E8B1FEF762FC40F2C540C2F20000EE
:1063600002210170B0BD00BFE0B140F67D00C2F275
:106370000000007890B340F25450C2F20000008850
:10638000FEF736F9FBF7FAFEBDE8B040FEF746BC73
:10639000FEF706FF40F2C540C2F200000121017085
:1063A000B0BD00BF40F2E545C2F2000528780128E3
:1063B00003D1FBF7E3FEFEF731FC40F2E640C2F208
:1063C00000000078012817D1FCF7CAFE50B140F256
:1063D0006000C2F20000032101700BE0BDE8B04094
:1063E000FEF7DEBE40F26000C2F200000221017042
:1063F000FCF728F9FEF712FC207808B1B0BD00BF09
:1064000040F2065C2878C2F2000CBCF8002040F292
:10641000A044C2F20004E8B1607907281AD8062A1D
:1064200018D3431C40F2E050C2F200000568C06F70
:106430006169401B0844082B637160610AD1C1087F
:1064400040F2600501EBD013C2F20005A1EBD010C1
:10645000AB80A08140F20255C2F20005288828B91D
:10646000617819B9501CACF80000B0BD40F2DD52A3
:1064700000219042ACF8001038BFB0BD6189FCF734
:1064800063FE2278E17801323228C8BF0022D0B200
:106490003328227005D321B9FEF7DEF94FF480705E
:1064A000208028886081B0BDF0B581B040F202053F
:1064B000C2F20005287840F20044C4F60004002827
:1064C000204605D0022100220223FCF751FE06E0FF
:1064D0000121002202230226FCF74AFEA6624FF0A9
:1064E0009040022100224FF48063FCF741FE2046D9
:1064F0000121002201230126FCF73AFE4FF09040D3
:10650000012100224FF40073A6614FF40077FCF7DD
:106510002FFE4FF62846CFF6FF76A751287838B1E0
:106520004FF09040022100228023FCF721FE08E07A
:106530004FF090400121002280238025FCF718FEB7
:10654000A5514FF09040022100224FF4807301B01A
:10655000BDE8F040FCF70CBEF0B581B040F200445D
:10656000C4F6000420460121002202230126022550
:10657000FCF7FEFD4FF09040012100224FF48063B4
:10658000A5614FF48067FCF7F3FD4FF62845CFF681
:10659000FF7540F202006751C2F20000007838B186
:1065A0002046022100220123FCF7E2FD07E000BFA4
:1065B0002046012100220123FCF7DAFDA6624FF0FC
:1065C0009040022100224FF40073FCF7D1FD4FF000
:1065D00090400121002280238026FCF7C9FD4FF660
:1065E0001840CFF6FF7026504FF090400121002256
:1065F0004FF480734FF48076FCF7BAFD665101B01A
:10660000F0BD0000426901F0010122F0400242EABF
:106610008111416170470000CA0603D001684068DB
:10662000704700BFC94301607047000070B541F278
:106630002400C4F20000016840F2BC45C2F200052B
:10664000002240F20004A5F85C100260C2F20004CF
:10665000B4F8542040F2385602EB420212FA81F1AB
:106660008A08A4F85420A27EC1F38F03B3FBF2F290
:10667000C2F200067261C2EBD101B269A5F85210F4
:106680000A2A89B218D2006844F22C40C4F20100F0
:106690000160217F94F8200001291BD10130C1B293
:1066A000072984F8200022BF012084F820002877E1
:1066B00000F001001BE000BF02688A42E4D20268D9
:1066C0008A42E1D202688A42DED202688A42F3D369
:1066D000DAE700BF0138010684F8200004D1062063
:1066E000012184F820002977012121EA0000E076C9
:1066F000EFF3108072B6E87F18B994F82000FBF72A
:1067000061FB62B6FBF710FB687BE97C084318BFAE
:10671000012005D0F168B1F5FA6F84BF0121E17560
:1067200094F82020B5F85C3006EB42025384B2693D
:10673000002185F82B1085F82D1085F82610511CA6
:10674000B16168B114290DD3B4F85400B0F5FA6FF3
:1067500088BF70BD0020E075BDE87040FCF766BAE8
:106760001F29F7D270BD000090EA010F48BF81F0E9
:10677000004100F17682421A3CBF801A89184FEA24
:10678000D052A2EBD1534FF07F4C1CEA410F18BFFF
:106790009CEA026F00F03B804FF0004C4CEA002076
:1067A0004CEA012121FA03FC10EB0C0C1ED202F181
:1067B000FF325FEA1C2040EBC25038BF70471CF02C
:1067C0007F0F4FEA400C18BFBCF17F4F38BF7047B6
:1067D000C3F12003994008BF20F00100BCF17F4FB6
:1067E00038BF7047A0F1C04000F02EBA4FEA3C001D
:1067F000000A40EBC25028BF1CF0FF0F4FEA400CCC
:10680000E6D018BFBCF17F4F38BF7047EAE79CEA7B
:10681000026F05D010EA5C0F08BF00F0004070471F
:1068200010B500F0CBF900BF64FBBE3E10B500F020
:10683000F5F80CBF0120002010BD10B500F0EEF8F7
:1068400014BF0120002010BD10B500F04FF98CBF1F
:106850000120002010BD10B500F048F92CBF012028
:10686000002010BD10B500F075F994BF0120002084
:1068700010BD10B500F06EF934BF0120002010BD2E
:10688000401058BFC0F14040491058BFC1F14041CD
:106890008142EFF3008070474FF47F0C1CEAD01266
:1068A0001EBF1CEAD11392EA0C0F93EA0C0F00F002
:1068B000858090EA010F48BF42F4807240F4000CDA
:1068C00041F400002CF07F4120F07F4000B5A2EBA6
:1068D000030281420FF2081CACEB504E9EF800E020
:1068E000C0F100004FEA4E0E00FB0EFC38BF49001D
:1068F0004FEA2C1C0CFB0EF34FEACE1E0EEB635E30
:106900004FEA112C0EFB0CFC4FEAC1214FEA1C533D
:1069100000FB031102F5FA024FEA112C0EFB0CFCEE
:106920004FEA01314FEADC4C00FB0C1142EB2242F2
:10693000C14228BF09184CEB03335DF804EB10EBA0
:10694000410143EBC250B2F57C0F38BF704729D5E7
:1069500012F0F00F1CBF00F1C04000F00040704783
:10696000008182838485868788898B8C8D8E8F9128
:106970009293959697999A9C9D9FA0A2A3A5A7A84C
:10698000AAACAEB0B2B3B5B7B9BCBEC0C2C5C7C978
:10699000CCCED1D4D7D9DCDFE2E6E9ECF0F3F7FADC
:1069A000FE0000004FEA400C0CF1807CBCF17E4FF1
:1069B00028BF7047B0F1C04000F046B90CEAD113CF
:1069C00090EA010F48BF42F48072624538BF6345C8
:1069D00007D213F47F0F16D080EA010000F00040C8
:1069E000704710B500F0EAF8097EFC3E00F005B8EB
:1069F00080EA010000F00040704780EA010000F0EA
:106A0000004000F021B912F47F0F04BF0248704724
:106A100080EA010000F018B90000C07F50EA010CC4
:106A200000F113801CF5000F58BFBCF5000F01D416
:106A30008842704707D710F5000F58BF11F5000FB7
:106A400015D488427047894270471CF5000F04D561
:106A5000BCF5000FF7D5814270474FF0807C1CEBEE
:106A6000400F38BF1CEB410F01D28142704710B577
:106A700000F0A4F8922449004FF000504FF08051EC
:106A8000FFF7FEBE41000B0ED3F19E0208D950F471
:106A900000034FEA032323FA02F048BF4042704745
:106AA00010B500F08BF800BF499224800020704799
:106AB0006FF0004282EA20007047000010F00041B1
:106AC00048BF4042B0FA80F310FA03F2C3F19D03CD
:106AD0000BD051EAC35101EB1220530638BF704767
